:020000040800F2
:1000000038130020DD390008F50E0008F70E00084F
:10001000FB0E0008FF0E0008030F000800000000A0
:10002000000000000000000000000000070F0008B2
:10003000090F0008000000000B0F00082F0F000838
:10004000F7390008F7390008F7390008690F000888
:10005000F7390008F7390008F7390008F7390008C0
:10006000F7390008F7390008F7390008F7390008B0
:10007000F7390008F7390008F7390008F7390008A0
:10008000F7390008F7390008F7390008F739000890
:10009000F7390008F7390008F7390008F739000880
:1000A000F7390008F7390008F7390008F739000870
:1000B000A70F0008F7390008F7390008F7390008DA
:1000C000F7390008F7390008F7390008F739000850
:1000D000F7390008F73900084B0F0008F739000816
:1000E000C70F0008770F0008F7390008F739000834
:1000F000F7390008F7390008F7390008F739000820
:10010000F7390008F7390008F7390008F73900080F
:10011000F7390008F7390008F7390008F7390008FF
:10012000F7390008F7390008F7390008F7390008EF
:10013000DFF80CD005F0C2FC00480047DD060008DF
:100140003813002010B54FF00100F8490880F84935
:100150000870F848F84908604FF00000F749087047
:10016000F7490870F7490870F7490870F7490870AF
:10017000F7484FF0000101608180F6480160F648C1
:1001800001608180F54801604FF01401F44805F0EA
:1001900060FA5621F34805F05CFA0F21F24805F0A9
:1001A00058FA0F21F14805F054FA0F21F04805F0F4
:1001B00050FA2021EF4805F04CFA8021EE4805F076
:1001C00048FA10BD70B54FF0000425464FF0010607
:1001D00000BF09E0282000F02EFF03F0F4FB08B96F
:1001E00005F1010504F10104042CF3DB032D02D910
:1001F0004FF0010601E04FF00006304670BD4FF0B1
:10020000000000BF014607E04FF07002DA4B1A54BD
:1002100000F1010001F101010229F5D34FF00202C2
:10022000D54B1A5400F101004FF000021A5400F1AE
:1002300001004FF025021A5400F10100BB4A128858
:100240004FEA12221A5400F10100B84A12881A54D7
:1002500000F101004FF0000109E0C1F10302C04BC1
:100260009A5CC54B1A5400F1010001F10101042907
:10027000F3D34FF000010BE0C1F10303B84A02F1E0
:100280000402D25CBC4B1A5400F1010001F10101DF
:100290000429F1D34FF000010BE0C1F10303B04A90
:1002A00002F10802D25CB44B1A5400F1010001F1D2
:1002B00001010429F1D3AA4A127BAF4B1A5400F171
:1002C00001004FF000010BE0C1F10103A44A02F16B
:1002D0000E02D25CA84B1A5400F1010001F1010199
:1002E0000229F1D34FF0000107E09C4A525CA24B77
:1002F0001A5400F1010001F101010229F5D34FF078
:10030000000108E0954A921C525C9B4B1A5400F184
:10031000010001F101010229F4D34FF0000108E0CE
:100320008D4A921C525C944B1A5400F1010001F169
:1003300001010229F4D34FF000028F4B1A5400F14F
:100340000100114608E0844A121D525C8A4B1A547F
:1003500000F1010001F101010229F4D3804A127C6D
:10036000854B1A5400F101004FF000021A5400F1BD
:100370000100754A1278012A03D1794A127C1A5475
:1003800005E0774A127C02F102027B4B1A5400F11D
:1003900001004FF000010BE0C1F101036D4A02F1D1
:1003A0000202D25C744B1A5400F1010001F1010108
:1003B0000229F1D34FF000026F4B1A5400F10100F3
:1003C000624A12781A5400F101004FF0000108E06F
:1003D0005F4A921C525C684B1A5400F1010001F113
:1003E00001010229F4D34FF0000108E0584A121D20
:1003F000525C614B1A5400F1010001F10101022924
:10040000F4D32A2800D000BF70474FF00000014607
:1004100007E04FF07002584B1A5400F1010001F14F
:1004200001010229F5D34FF00402534B1A5400F195
:1004300001004FF000021A5400F101004FF01C02BD
:100440001A5400F10100394A12884FEA12221A5454
:1004500000F10100354A12881A5400F101004FF0F2
:10046000000109E0C1F103023D4B9A5C424B1A5472
:1004700000F1010001F101010429F3D34FF0000163
:100480000BE0C1F10303364A02F10402D25C3A4B9D
:100490001A5400F1010001F101010429F1D34FF0D8
:1004A00000010BE0C1F103032D4A02F10802D25C06
:1004B000314B1A5400F1010001F101010429F1D37B
:1004C000274A127B2C4B1A5400F101004FF0000117
:1004D0000BE0C1F10103224A02F10E02D25C264B6D
:1004E0001A5400F1010001F101010229F1D34FF08A
:1004F000000107E0194A525C1F4B1A5400F1010039
:1005000001F101010229F5D34FF0000108E0134A7F
:10051000921C525C184B1A5400F1010001F10101C8
:100520000229F4D34FF0000130E000000000002069
:10053000020000208051010004000020080000207B
:10054000090000200A0000200B0000200C00002001
:100550000D00002014000020180000201E000020C4
:10056000B4000020C80000201E0100202D01002042
:100570003C0100204B0100206B010020F94A525C35
:10058000F94B1A5400F1010001F101010229F5D3E0
:100590004FF00002F44B1A5400F10100114608E03C
:1005A000F04A921C525CF04B1A5400F1010001F128
:1005B00001010229F4D3ED4A127CEB4B1A5400F1ED
:1005C00001004FF071021A5400F10100212800D0FF
:1005D00000BF704770B504460D4602EBD2764FEA75
:1005E000660606F101069E4201DB0F2A01D00020BB
:1005F00070BD207800F00F002870104602EBD07616
:100600004FEA66010FE004EB410010F8010C4FF0D7
:10061000F00606EA001014F8116006F00F063044E8
:100620006854A1F101010029EDD10120E0E77FB577
:100630004FF00004254607E04FF07000CC49085504
:1006400004F1010405F10105022DF5D34FF001007D
:10065000C749085504F101044FF00000085504F1A2
:1006600001044FF00C00085504F10104C148008852
:100670004FEA1020085504F10104BE4800880855CF
:1006800004F101044FF008034FF00F026946BA4825
:10069000FFF7A0FF30B94FF00000009001900290EA
:1006A000039000BF4FF0000507E01DF80500B049BA
:1006B000085504F1010405F10105082DF5D34FF0AB
:1006C0000100AB49085504F101044FF02000085522
:1006D00004F10104112C00D000BF7FBD86B04FF0A3
:1006E0000006B046B146B2463046059004464FF08B
:1006F000010B04900390074602900190054600F01C
:10070000A5FE03F0E7FA03F04DFE00F0AEFC012178
:100710004FF0C05001F0D5FC00F026FD00F0ACFD1C
:1007200000F0FDFC00F04EFD03F041F900F045FE45
:1007300003F081F900F06CFE012240F225518F4850
:1007400002F0C4FEFFF7FEFCB2E14FF00006B04637
:10075000B146B246304605900490039007464FF4E8
:10076000967000F056FCFFF72DFD8549087008468D
:10077000007848B90846007882490978884203D051
:100780004FF00100804908707D4800787D4908706D
:100790007B480078012807D07B480078012803D0E7
:1007A0007A480078012877D17748007801282DD041
:1007B00003F089FAC82000F02CFC14216B4804F0E7
:1007C00048FF1FE008F1010000F0FF0800F0A4FD61
:1007D00003F0D4FB059000F0A9FD059801280DD188
:1007E0004FF000006A4908706A488079412805D1B5
:1007F0005E4803F0E4FB03F06DFA06E04FF47A7014
:1008000000F007FCB8F1120FDCDB00BF03F0C3FD02
:10081000C82000F0FEFB4FF000094C4602E109F150
:10082000010000F0FF0903F08DFF044604B9F9E070
:1008300003F0D5FF044604B9F4E0574803F0F5FF90
:10084000044604B9EEE004F0CCF8044604B9E9E04B
:10085000022004F0A0F84348801E03F06FFE4648D3
:1008600004F003F904464D4804F03EF904464FF005
:10087000000003F01CFF04F0F3F9044604B9D1E0D2
:10088000474804F03BF80446464804F02FFD044670
:100890004FF0000A5446BBE0C9E00AF1010000F045
:1008A000FF0A04F06DFC04F025FA044604B9AFE039
:1008B00004F053FA044604F076FA044604F0DFFA32
:1008C000044604B9A4E04FF001002A4908804FF023
:1008D00000068346FFF7ABFE29E006F1010601ABF7
:1008E00002AA4FF01101224804F089FB8346BBF1B4
:1008F000000F1CD12CA1DDE9012003F0A0FC05466E
:100900009DB1E8794FEA0060297A00EB0140697AED
:1009100000EB0120A97A00EB01073C2F04D9234802
:10092000874201D22248076000E000BF01E0052EA7
:10093000D3D300BF0F48008800F101000D490880A3
:100940004FF000064FF0010B0F480078012831D11D
:10095000FFF75BFD4FF0210003904FF001000B49C2
:10096000087030E01A0000206B010020B400002065
:100970004B010020000000201E0100200044004028
:100980000B0000200A0000200800002009000020C1
:1009900002000020080600200C0000201E0000209D
:1009A00014000020C80000207070000000A30200A6
:1009B00004000020FFF723FC4FF02A0003904FF0C3
:1009C0000000F74908701BE006F10106F54803999D
:1009D00004F080FA8346BBF1000F11D14FF0010003
:1009E0000490F1480078012807D1ED4800780128EB
:1009F00003D14FF00000EC49087004F0B0FB01E0B7
:100A0000052EE1D300BF0498012800D104E000BF07
:100A1000BAF1040FFFF641AF00BF0498012800D1DE
:100A200004E000BFB9F1040FFFF6F9AE00BF03F018
:100A300051F903F0B7FCFFF7C5FBDC490870084625
:100A4000007848B908460078D9490978884203D027
:100A50004FF00100D4490870D4480078D449087098
:100A6000012001F01AFC00BF012001F009FC002860
:100A7000FAD0CB480078012803D0CB480078012871
:100A800006D101F0A7FB3C30009001F0C8FB07E065
:100A900001F0A0FBC74909680844009001F0BFFBC2
:100AA00001F0D8FB0121084601F019F900F019FB0B
:100AB0004BE62DE9F0414FF0000425462646274637
:100AC00000BF0FE04FF4FA6000F0B5FA02F07BFFD0
:100AD00018B905F10100C5B202E006F10100C6B285
:100AE00004F10104052CEDDB022D04DB022E02DBF8
:100AF0004FF0010701E04FF000073846BDE8F081F4
:100B000010B54FF000010846024607E04FF07003B1
:100B1000A44C235400F1010002F10102022AF5D392
:100B20004FF0A0039F4C235400F101004FF000034D
:100B3000235400F10100A04B1B7803EB430404EBAA
:100B4000C30303F10303974C235400F101009B4BB3
:100B50001B884FEA1323235400F10100974B1B8895
:100B6000235400F10100944B1B78235400F1010041
:100B70004FF0000273E04FF000010FE002EB42047F
:100B80008D4B03F1020303EB8403C1F101041B5DF0
:100B9000844C235400F1010001F101010229EDD33D
:100BA0004FF0000111E002EB4204834B03F102031A
:100BB00003EB840303F10203C1F101041B5D794CD3
:100BC000235400F1010001F101010229EBD34FF0A0
:100BD000000111E002EB4204774B03F1020303EB47
:100BE000840303F10403C1F101041B5D6D4C235424
:100BF00000F1010001F101010229EBD34FF00001E6
:100C000011E002EB42046C4B03F1020303EB84039B
:100C100003F10603C1F102041B5D624C235400F191
:100C2000010001F101010329EBD302EB4204624B05
:100C300003F1020303EB84039B7A5A4C235400F123
:100C4000010002EB42045C4B03F1020303EB84035B
:100C5000DB7A544C235400F1010002F10102564B9F
:100C60001B78934287D8544B1B7803EB430404EB67
:100C7000C3030833834200D000BF10BD70B54FF0EE
:100C80000004254607E04FF072004649085504F17C
:100C9000010405F10105022DF5D34FF0770041491C
:100CA000085504F101044FF00000085504F1010457
:100CB0004FF05100085504F10104404800884FEA04
:100CC0001020085504F101043C480088085504F13F
:100CD00001044FF0000509E0C5F103003849085C44
:100CE0003049085504F1010405F10105042DF3D341
:100CF0004FF000050BE0C5F10301314800F104009D
:100D0000405C2849085504F1010405F10105042D52
:100D1000F1D34FF000050BE0C5F10301284800F1C5
:100D20000800405C1F49085504F1010405F1010564
:100D3000042DF1D32248007B1A49085504F101041F
:100D40004FF000050BE0C5F101011D4800F10E0058
:100D5000405C1449085504F1010405F10105022D18
:100D6000F1D34FF0000507E01648405D0D490855E6
:100D700004F1010405F10105022DF5D34FF0000542
:100D800008E01048801C405D0649085504F1010444
:100D900005F10105022DF4D34FF000051CE0000021
:100DA000090000206B010020080000200B0000203B
:100DB0000A00002004000020C800002000000020DD
:100DC000B40000201E0000204148405D4149085504
:100DD00004F1010405F10105022DF5D34FF00000E7
:100DE0003C49085504F10104054608E03848801CD8
:100DF000405D3849085504F1010405F10105022D53
:100E0000F4D33548007C3349085504F101044FF010
:100E10000000085504F1010402F0D5FD2D490855E4
:100E200004F101044FF0000509E0C5F101012B4870
:100E3000405C2849085504F1010405F10105022D23
:100E4000F3D34FF000002349085504F1010424486E
:100E50000078085504F101044FF0000507E021482F
:100E6000405D1C49085504F1010405F101050F2DF1
:100E7000F5D34FF0000507E01B48405D15490855C4
:100E800004F1010405F101050F2DF5D34FF0000524
:100E900007E01648405D0F49085504F1010405F1CB
:100EA00001050F2DF5D3124800780A49085504F1C1
:100EB00001044FF00200085504F101044FF0000056
:100EC000085504F10104562C00D000BF70BD00008D
:100ED0001A0000206B010020B40000201600002042
:100EE0000C0000201E0100202D0100203C010020EC
:100EF00002000020704700BFFEE700BFFEE700BF12
:100F0000FEE700BFFEE77047704770473348006850
:100F100070476420704700B50146FFF7F7FF0246AF
:100F200000BFFFF7F3FF801A8842FAD900BD10B561
:100F30002A48006800F10100284908604FF00000CD
:100F400002F084FE00F06DF810BD10B540F225519E
:100F5000234802F0CCFB30B1214802F031FBC4B28F
:100F6000204602F03CFE10BD10B5032001F0B2F99E
:100F700001F070F910BD10B5022001F098F988B1A8
:100F80004FF4003000F0A7FC012000F0DAFE10B1B1
:100F9000012000F0E3FE01F05DF9022001F09AF972
:100FA00001F058F910BD10B50121880702F07CF955
:100FB00040B14FF001000B49087001464FF08040EE
:100FC00002F086F910BD10B54FF4004000F070FC3F
:100FD00018B14FF4004000F07EFC10BD240000204A
:100FE000004400406800002010B500280ADA4FEAEB
:100FF00001724FEA1264FE4A00F00F03A3F10403EA
:10100000D45405E04FEA01724FEA1263F94A1354CF
:1010100010BDF949086000BFF74909680029FBD1F4
:101020007047F548006828B1F3480068A0F1010056
:10103000F1490860704710B54FF00001EF4A12689F
:101040004FF47A74B2FBF4F30CE04FF00602B3FBFA
:10105000F2F2A2F1010100BF0A00A1F10101FBD1EE
:10106000A0F101000028F0D110BD10B5E3480068E0
:101070004FF06401B0FBF1F4B4F1807F02D34FF084
:10108000010016E024F07F40A0F101004FF0E021C4
:1010900048614FF00F014FF0FF30FFF7A5FF4FF011
:1010A00000004FF0E02188614FF0070008614FF029
:1010B000000008B100BFFEE70C214FF0FF30FFF742
:1010C00093FF10BD10B54FF4803000F079FE00F0B2
:1010D000BCFE0446012C03D14FF4A06000F00BFFCE
:1010E00010BD10B54FF4803000F06AFE00F0ADFE88
:1010F000C34908700846007801280FD100F0DDFED2
:1011000000BF392000F07FFE0028FAD0022000F056
:10111000D7FE00BF00F0DFFE0828FBD110BD10B5E0
:10112000012000F0C8FD00F0E3FA012000F032FFDA
:1011300000BF612000F067FE0028FAD04FF4007075
:1011400000F02BFF012000F02FFF01F08AF849F694
:101150003F4001F056F801F07DF80121022001F036
:1011600017F801F077F810BD1CB54FF4003000F00F
:10117000B2FB4FF4003000904FF000008DF80400F7
:101180004FF008008DF805004FF001008DF80600C3
:10119000684600F01CFB0F21002000F03DFD4FF4DD
:1011A000004000904FF000008DF804004FF0100058
:1011B0008DF805004FF001008DF80600684600F03C
:1011C00006FB1CBD0EB50121084600F07AFF4FF06A
:1011D000804001F099F842F20F70ADF8040048F633
:1011E0009F40ADF800004FF00000ADF80600ADF8EC
:1011F000020069464FF0804001F05AF9012188074A
:1012000002F04EF801221146900701F02AFD01215B
:10121000880701F00AFD0021012000F052FF0EBDF9
:101220000EB50121042000F04CFF764801F06CF867
:1012300040F2E730ADF8040048F69F40ADF80000FA
:101240004FF00000ADF80600ADF8020069466D48A9
:1012500001F02EF901216B4802F022F8012211461B
:10126000684801F0FEFC0121664801F0DEFC002127
:10127000042000F026FF0EBD08B54FF4407000F0CA
:10128000B7F94FF029008DF800004FF001008DF8FC
:1012900001004FF000008DF802004FF001008DF8C2
:1012A0000300684600F0AAF94FF01C008DF800001A
:1012B0004FF005008DF801004FF000008DF802009E
:1012C0004FF001008DF80300684600F097F94FF0E9
:1012D00026008DF800004FF007008DF801004FF058
:1012E00000008DF802004FF001008DF80300684601
:1012F00000F084F94FF028008DF800004FF00F0047
:101300008DF801008DF802004FF001008DF8030008
:10131000684600F073F908BD10B50121084600F0D9
:10132000D0FE0121880701F080FC10BD10B500211E
:101330004FF0804001F079FC0021012000F0C1FE57
:1013400010BD10B50121042000F0BBFE01212D4885
:1013500001F06BFC10BD10B500212A4801F065FCBE
:101360000021042000F0ADFE10BD10B545F255502F
:1013700002F006FA062002F006FA40F21A6002F0C5
:1013800005FA10BD1FB54FF4165000904FF0000045
:10139000ADF80400ADF80600ADF80800ADF80C009B
:1013A0004FF00C00ADF80A006946174801F0D7FF6E
:1013B0000121154802F07DF81FBD1FB54FF41650EE
:1013C00000904FF00000ADF80400ADF80600ADF855
:1013D0000800ADF80C004FF00C00ADF80A006946AB
:1013E0000A4801F0BCFF0121084802F062F81FBD65
:1013F00018ED00E000E400E02C0000204400002094
:10140000280000200008004000480040003801404B
:101410001FB54FF4165000904FF00000ADF80400D7
:10142000ADF80600ADF80800ADF80C004FF00C0068
:10143000ADF80A006946044801F091FF0121024815
:1014400002F037F81FBD00000044004008B501213C
:10145000142000F027FE4FF00200ADF800004FF01E
:1014600010008DF803004FF003008DF8020069466C
:101470005B4800F09FFA4FF4D050ADF800004FF0F9
:1014800010008DF803004FF003008DF8020069464C
:10149000544800F08FFA4FF00400ADF800004FF010
:1014A00010008DF803004FF003008DF8020069462C
:1014B0004D4800F07FFA4FF02000ADF800004FF0EB
:1014C00010008DF803004FF003008DF8020069460C
:1014D000464800F06FFA4FF40040ADF800004FF0BE
:1014E00004008DF8030069463D4800F063FA4FF4AC
:1014F0008060ADF800004FF028008DF803006946C9
:10150000384800F057FA0121042000F0CBFD0121FA
:10151000880300F0C7FD4FF40070ADF800004FF0F5
:1015200018008DF803004FF003008DF802006946A3
:101530002B4800F03FFA4FF48060ADF800004FF008
:1015400004008DF803006946254800F033FA0121B4
:10155000042000F0A7FD0121480400F0B2FD4FF087
:101560000400ADF800004FF018008DF803004FF0B4
:1015700003008DF802006946194800F01BFA4FF08D
:101580000800ADF800004FF004008DF80300694634
:10159000134800F00FFA0121082000F083FD01211B
:1015A000880400F08EFD4FF48060ADF800004FF02D
:1015B00018008DF803004FF003008DF80200694613
:1015C0000A4800F0F7F94FF40060ADF800004FF062
:1015D00004008DF803006946044800F0EBF908BDEB
:1015E000000801400010014000140140000C0140BF
:1015F000384940EA0101384A1160704770B54FF030
:1016000000010B464FF00F02C4784CB3324C2468F3
:1016100004F4E064C4F5E0644FEA1421C1F104036A
:1016200022FA01F2447804FA03F1847804EA02040D
:1016300044EA01014FEA0111284C0678A1550478CB
:1016400004F01F054FF0010404FA05F405784FEA91
:1016500065154FF0E02606EB8505C5F800410CE066
:10166000047804F01F054FF0010404FA05F41C4D42
:1016700006784FEA661645F8264070BD194A01EA19
:10168000020242EA0002184B1A60704731B1174A51
:10169000126842EA0002154B1A6005E0134A12680C
:1016A00022EA0002114B1A607047042808D14FF05B
:1016B000E021096941F004014FF0E022116107E0E7
:1016C0004FF0E021096921F004014FF0E02211619F
:1016D000704700000000FA050CED00E000E400E0B7
:1016E00080E100E080FFFF1F08ED00E010ED00E06A
:1016F00010B5012000F012FD002000F00FFD10BD1C
:1017000024490860704724490860704723490860ED
:10171000704701464FF00000214A10884FF67F4283
:1017200000EA020040EA01001D4A108070470146AD
:101730004FF000001A4A10884FF6807200EA02004B
:1017400040EA0100164A108070474FF00002154A27
:1017500002441160704701464FF00002114A0A44EA
:10176000108870470D4818300068C0B270470E48A6
:10177000008840F001000C490880704707481C3081
:101780000068C0B270470848008840F0020006496F
:101790000880704704860D4200860D4288860D42FF
:1017A0002C6C0040006C0040346C00404FF0000096
:1017B0004A49086001F10401086001F10401086070
:1017C00001F10401086046484649086070474FF03F
:1017D000000142498279002A40D00A461268036813
:1017E00022EA03020B461A6001F104021268036840
:1017F00022EA030201F104031A60027911440A6823
:10180000036842EA03020A60374A1268036822EA60
:101810000302354B1A6003F104021268036822EADE
:101820000302324B1A604279102A0ED12E4A1268F6
:10183000036842EA03022C4B1A602C4A12680368C0
:1018400042EA0302294B1A600FE02449427911440D
:101850000A68036842EA03020A6006E0027911445A
:101860000A68036822EA03020A6070474FF0000129
:10187000016001714FF00C0141714FF00001817165
:1018800070471B49096841EA0001194A1160704715
:1018900001464FF00000134A12680A4202D04FF08E
:1018A000010001E04FF0000070470E4908607047EA
:1018B00001464FF000000246084B1B6803EA010294
:1018C000084B1B680B4203D012B14FF0010001E03E
:1018D0004FF0000070470349086070470004014062
:1018E000FFFF0F0014040140080401400C040140F4
:1018F0001004014010B50446DE48844208D101219D
:10190000042000F0EDFB0021042000F0E9FB46E09C
:10191000D948844208D10121082000F0E1FB0021D0
:10192000082000F0DDFB3AE0D448844208D10121D0
:10193000102000F0D5FB0021102000F0D1FB2EE09C
:10194000CF48844208D10121202000F0C9FB0021AA
:10195000202000F0C5FB22E0CA48844208D10121C2
:10196000402000F0BDFB0021402000F0B9FB16E054
:10197000C548844208D10121802000F0B1FB00213C
:10198000802000F0ADFB0AE0C048844207D101216D
:10199000801500F0A5FB0021A01500F0A1FB10BDF3
:1019A00010B50121084600F09BFB0021012000F04A
:1019B00097FB10BD2DE9F04102464FF000052E4681
:1019C000284603460446074691F803C00CF00F056D
:1019D00091F803C01CF0100F03D091F802C04CEA3C
:1019E0000505B1F800C01CF0FF0F35D014684FF0AA
:1019F00000002EE04FF0010C0CFA00F3B1F800C02B
:101A00000CEA03069E4222D14FEA80034FF00F0CEE
:101A10000CFA03F724EA070405FA03FC4CEA040471
:101A200091F803C0BCF1280F06D14FF0010C0CFA5D
:101A300000FCC2F814C00AE091F803C0BCF1480FE2
:101A400005D14FF0010C0CFA00FCC2F810C000F1F7
:101A500001000828CED31460B1F800C0BCF1FF0F1C
:101A600038DD54684FF0000031E000F1080C4FF011
:101A7000010808FA0CF3B1F800C00CEA03069E4214
:101A800023D14FEA80034FF00F0C0CFA03F724EA3E
:101A9000070405FA03FC4CEA040491F803C0BCF106
:101AA000280F05D100F1080C08FA0CF8C2F81480D0
:101AB00091F803C0BCF1480F07D100F1080C4FF0BA
:101AC000010808FA0CF8C2F8108000F1010008289B
:101AD000CBD35460BDE8F0814FF6FF7101804FF029
:101AE000020181704FF00401C170704702464FF04F
:101AF000000093680B4202D04FF0010001E04FF06C
:101B0000000070470146886880B2704702464FF077
:101B10000000D3680B4202D04FF0010001E04FF00B
:101B2000000070470146C86880B270470161704785
:101B3000416170470AB1016100E041617047C160D5
:101B400070474FF4803242EA010282618161826112
:101B500082698269704702464FF000004C4B18685A
:101B60004FF6807300EA030040EA021040EA0100E9
:101B7000474B186070474749C8617047F0B50A463F
:101B80004FF000031C4619460D4600F00046B6F122
:101B9000004F02D13E4EF16901E03D4E7168C0F345
:101BA000034583B200F44016B6F5401F08D121F07A
:101BB0007061374E766826F07066354F7E6017E0AC
:101BC00000F48016B6F5801F08D14FF0030606FA20
:101BD00005F421EA040141F0706109E04FEA505632
:101BE0004FEA061603FA06F621EA060141F0706193
:101BF0003AB14FEA50564FEA061603FA06F646EA9D
:101C0000010100F00046B6F1004F02D1204EF16113
:101C100001E01F4E7160F0BD30B54FF000024FEA99
:101C200081734FEA13744FF00F0303FA04F21A4B57
:101C30004FEAA10453F8243023EA0203164C4FEA7A
:101C4000A10544F8253023464FEAA10453F8243077
:101C50004FEA81744FEA147400FA04F443EA04036F
:101C60000D4C4FEAA10544F8253030BD0B49086002
:101C70007047000000080140000C014000100140C6
:101C80000014014000180140001C014000200140E8
:101C9000000001400000204208000140DC0020421A
:101CA00010B50121080700F02AFA00214FF08050FA
:101CB00000F025FA10BD2D49086270472B490861D4
:101CC000704701464FF00000294A106820F0E000FC
:101CD00040EA01001060704726490860704710B55F
:101CE00002464FF00000224B186820F0030040EA43
:101CF00002001860204B1B6843F004031E4C236055
:101D0000012901D130BF00E020BF1B4B1B6823F02D
:101D10000403194C236010BD1548006840F004000E
:101D2000134908600846006840F002000860124845
:101D3000006840F004001049086000BF00BF30BFD9
:101D4000704701464FF00000094A52680A4202D02B
:101D50004FF0010001E04FF00000704704490968AE
:101D600041EA8001024A11607047000000000E4203
:101D700000700040A0000E4210ED00E0F74800683F
:101D800040F00100F549086008464068F44900EA5F
:101D90000100F249486008460068F24900EA010083
:101DA000EE4908600846006820F480200860084674
:101DB000406820F4FE0048604FF41F0088607047C0
:101DC000E649096821F48031E44A11601146096846
:101DD00021F480211160B0F5803F03D0B0F5802F51
:101DE0000ED106E0DD49096841F48031DB4A11601B
:101DF00007E0DA49096841F4A021D84A116000E0FF
:101E000000BF00BF704710B501464FF000021346F7
:101E100010464FEA6112012A02D1D04C236806E035
:101E2000022A02D1CD4C236A01E0CC4C636A01F056
:101E30001F024FF0010404FA02F41C4202D04FF0DA
:101E4000010001E04FF0000010BD70B54FF000043C
:101E50002546264600BF3120FFF7D5FF064604F190
:101E60000104B4F5A06F01D0002EF4D03120FFF7AB
:101E7000CAFF10B14FF0010501E04FF00005284600
:101E800070BD01464FF00000B44A106820F0F80021
:101E900040EAC10010607047B349086070470246CD
:101EA0004FF00000AD4B586820F47C1042EA01036B
:101EB00043EA0000A94B58607047AB490866704779
:101EC00001464FF00000A54A506820F0030040EAA8
:101ED000010050607047A148406800F00C00704756
:101EE00001464FF000009D4A506820F0F00040EAA3
:101EF00001005060704701464FF00000974A50685B
:101F000020F4E06040EA01005060704701464FF065
:101F10000000924A506820F4605040EAC1005060CE
:101F2000704731B18D4A527A42EA00028B4B5A72A5
:101F300008E08A4A527A6FEA0003DBB202EA03023F
:101F4000864B5A72704789490860704701464FF0C6
:101F50000000824A506820F4404040EA010050608E
:101F600070474FF00001824A11707C4A82F82010BD
:101F7000012802D004280AD104E04FF001017C4A74
:101F8000117005E04FF00501794A117000E000BFC3
:101F900000BF70477749086070477049096A41EA95
:101FA00000016E4A1162704773490860704730B58E
:101FB0004FF000010A460C460B46684D6D6805F06F
:101FC0000C0121B1042905D0082927D105E06B4D6A
:101FD000056026E0694D056023E0604D6D6805F4FD
:101FE00070125E4D6D6805F480344FF0020505EB0C
:101FF000924224B9624D02FB05F505600DE0574D94
:102000006D6815F4003F04D05D4D02FB05F50560D9
:1020100003E05A4D02FB05F5056002E0574D0560EF
:1020200000BF00BF4D4D6D6805F0F0014FEA111182
:10203000544D6B5C056825FA03F54560474D6D68A6
:1020400005F4E0614FEA11214E4D6B5C456825FABD
:1020500003F58560414D6D6805F460514FEAD1216B
:10206000484D6B5C456825FA03F5C5603B4D6D68CE
:1020700005F440414FEA9131434D6B5CC568B5FBB7
:10208000F3F5056130BD31B1344A526942EA0002CC
:10209000324B5A6105E0314A526922EA00022F4B65
:1020A0005A61704731B12D4A926942EA00022B4BC6
:1020B0009A6105E0294A926922EA0002274B9A6157
:1020C000704731B1254AD26942EA0002234BDA61F6
:1020D00005E0224AD26922EA0002204BDA61704709
:1020E00031B11E4AD26842EA00021C4BDA6005E0B8
:1020F0001A4AD26822EA0002184BDA60704731B1FE
:10210000164A126942EA0002144B1A6105E0134AAA
:10211000126922EA0002114B1A6170471B490860DC
:1021200070471149C86470470C49C87170470B4823
:10213000406A40F0807009494862704701464FF09C
:102140000000064A92680A4202D04FF0010001E006
:102150004FF000007047014988727047001002403C
:102160000000FFF8FFFFF6FE00004242D8004242A6
:1021700020100240800442423C04424200127A0095
:1021800000093D0030000020400000204004424291
:1021900031B1554A128842EA0002534B1A8008E0D6
:1021A000514A12886FEA00039BB202EA03024E4BC7
:1021B0001A8070474D48008840F010004B49088055
:1021C00070474A4800884FF6EF7100EA010047491E
:1021D000088070474FF0000145480188A0F10400D5
:1021E000008841EA0040704700B50246FFF7E2FF71
:1021F0004FEA12403F4908803D490A80FFF7E1FF5E
:1022000000BD00B50246FFF7D5FFC2F303403A49CF
:10221000088001F104010A80FFF7D3FF00BD00B57B
:102220000246FFF7C7FF4FEA12403449088001F128
:1022300004010A80FFF7C5FF00BD4FF000003049E0
:1022400009884FEA01714FEA11302E49098841EAA5
:102250000000704700BF2548008810F0200FFAD01A
:102260007047224800884FF6F77100EA01001F49C5
:10227000088000BF1D48008810F0080FFAD0704792
:1022800001464FF00000194A12880A4202D04FF06E
:10229000010001E04FF000007047144909886FEA1F
:1022A000000292B201EA0201104A11807047014611
:1022B0004FF000000D4A128802EA0102D0B20A4A29
:1022C00012880A4203D010B14FF0010001E04FF034
:1022D00000007047054909886FEA000292B201EADE
:1022E0000201024A11807047002800400428004083
:1022F0001C280040182800400828004020280040E2
:10230000102800401428004010B50446FE488442BE
:1023100008D10121C014FFF7E3FE0021E014FFF70C
:10232000DFFEC4E0B4F1804F08D101210846FFF779
:10233000E6FE00210120FFF7E2FEB8E0F348844208
:1023400008D101210220FFF7DAFE00210220FFF769
:10235000D6FEACE0EE48844208D101210420FFF70C
:10236000CEFE00210420FFF7CAFEA0E0E948844227
:1023700008D101210820FFF7C2FE00210820FFF745
:10238000BEFE94E0E448844208D101211020FFF70A
:10239000B6FE00211020FFF7B2FE88E0DF4884423D
:1023A00008D101212020FFF7AAFE00212020FFF7FD
:1023B000A6FE7CE0DA48844208D101214014FFF7F0
:1023C0008FFE00216014FFF78BFE70E0D548844239
:1023D00009D10121C804FFF783FE00214FF400203A
:1023E000FFF77EFE63E0D048844209D10121080551
:1023F000FFF776FE00214FF48010FFF771FE56E0E4
:10240000CA48844209D101214805FFF769FE00212D
:102410004FF40010FFF764FE49E0C548844208D13C
:1024200001214020FFF76BFE00214020FFF767FEEF
:102430003DE0C048844208D101218020FFF75FFEC3
:1024400000218020FFF75BFE31E0BB48844208D1C9
:1024500001218015FFF753FE0021A015FFF74FFE65
:1024600025E0B648844209D101210804FFF738FE6F
:1024700000214FF48030FFF733FE18E0B04884426B
:1024800009D101214804FFF72BFE00214FF4003051
:10249000FFF726FE0BE0AB48844208D101218804F7
:1024A000FFF71EFE00214FF48020FFF719FE10BD3C
:1024B0004FF000020288944B98420ED0984B9842FD
:1024C0000BD0B0F1804F08D0904B984205D0904B84
:1024D000984202D08F4B984206D14FF68F7302EA92
:1024E00003024B8843EA02028B4B984209D08B4B84
:1024F000984206D04FF6FF4302EA0302CB8843EA34
:10250000020202808B8883850B8803857E4B98426C
:102510000BD0834B984208D0884B984205D0884B0B
:10252000984202D0874B984201D10B7A03864FF034
:1025300001038382704770B54FF0000422461346B2
:10254000058C4FF6FE7605EA06050584028C838825
:10255000048B4FF68F7504EA05044FF6FC7504EA08
:1025600005040D8845EA04044FF6FD7502EA0502EC
:102570000D8945EA02024D8845EA0202624DA842F1
:102580000BD0674DA84208D06C4DA84205D06C4DC9
:10259000A84202D06B4DA8421BD14FF6F77502EA54
:1025A00005024D8945EA02024FF6FB7502EA050273
:1025B0008D8845EA02024FF6FF6503EA05034FF6F0
:1025C000FF5503EA05038D8945EA0303CD8945EAF2
:1025D000030383800483CD888586028470BD70B533
:1025E0004FF0000422461346058C4FF6EF7605EABD
:1025F00006050584028C8388048B48F6FF7504EA7F
:1026000005044FF6FF4504EA05040D884FEA056509
:1026100044EA15444FF6DF7502EA05020D894FEAD8
:10262000055542EA15424D884FEA055542EA1542E2
:10263000354DA84202D03A4DA84223D14FF67F75BE
:1026400002EA05024D894FEA055542EA15424FF666
:10265000BF7502EA05028D884FEA055542EA154228
:102660004FF6FF3503EA05034FF2FF7503EA050352
:102670008D894FEA854543EA1543CD894FEA854563
:1026800043EA154383800483CD880587028470BDA7
:1026900070B54FF0000422461346058C4FF6FF66D6
:1026A00005EA06050584028C8388848B4FF68F75B6
:1026B00004EA05044FF6FC7504EA05040D8845EAB2
:1026C00004044FF6FF5502EA05020D894FEA05653D
:1026D00042EA15424D884FEA056542EA15420A4D25
:1026E000A84202D00E4DA84244D14FF2FF7502EA33
:1026F00005024D894FEA056542EA15424FF6FF355E
:1027000002EA05028D881FE0002C01400004004011
:1027100000080040000C0040001000400014004081
:1027200000340140004C0140005001400054014081
:1027300000180040001C0040002000400040014004
:1027400000440140004801404FEA056542EA154255
:102750004EF6FF7503EA05034DF6FF7503EA050320
:102760008D894FEA055543EA1543CD894FEA055552
:1027700043EA154383808483CD888587028470BDB6
:1027800070B54FF0000213461446058C4EF6FF76E6
:1027900005EA06050584038C8488828B48F6FF755C
:1027A00002EA05024FF6FF4502EA05020D884FEAEC
:1027B000056542EA15424DF6FF7503EA05030D89EA
:1027C0004FEA057543EA15434D884FEA057543EA1C
:1027D0001543FB4DA84202D0FA4DA84208D14BF652
:1027E000FF7504EA05048D894FEA855544EA1544CE
:1027F00084808283CD88A0F84050038470BD828B92
:102800004FF2FF3302EA03028283828B4FEA0163B5
:1028100042EA134282837047F0B50C4615464FF0EA
:10282000000211460E46078C4EF6FF7C07EA0C07A5
:102830000784828B018C4FEA04774FEA174640F6F3
:10284000FF4702EA07024FEA056742EA17424FEAEA
:10285000037742EA1742DA4FB8420ED0D94FB84256
:102860000BD0B0F1804F08D0D74FB84205D0D74F2A
:10287000B84202D0D64FB84208D14DF6FF7701EAF0
:10288000070146F4805747EA010107E047F6FF5782
:1028900001EA070144F4805747EA01018283018479
:1028A000F0BD828B4FF6F37302EA03028283828BC0
:1028B00042EA010282837047F0B50C4615464FF09C
:1028C000000211460E46078C4FF6FF6C07EA0C0714
:1028D0000784828B018C4FEA04674FEA17464FF654
:1028E0000C7702EA07024FEA035745EA174747EA1F
:1028F0000202B34FB8420ED0B24FB8420BD0B0F183
:10290000804F08D0B04FB84205D0B04FB84202D087
:10291000AF4FB84208D14FF6FF5701EA070146F41E
:10292000807747EA010107E04FF2FF5701EA07010C
:1029300044F4807747EA010182830184F0BD028B71
:102940004FF2FF3302EA03020283028B4FEA016374
:1029500042EA134202837047F0B50C4615464FF029
:10296000000211460E46078C4FF6EF7C07EA0C0773
:102970000784028B018C4FEA04574FEA174640F652
:10298000FF4702EA07024FEA037742EA17424FEA9B
:10299000056742EA17428A4FB8420ED0894FB842C3
:1029A0000BD0B0F1804F08D0874FB84205D0874F89
:1029B000B84202D0864FB84208D14FF6DF7701EA1D
:1029C000070146F0100747EA010107E04FF65F777D
:1029D00001EA070144F0100747EA0101028301847C
:1029E000F0BD028B4FF6F37302EA03020283028BFF
:1029F00042EA010202837047F0B50C4615464FF0DB
:102A000000021146068C4FF6FE7706EA070606849A
:102A1000028B018C4FF60C7602EA06024FEA03564F
:102A200045EA164646EA0202654EB0420ED0654EB1
:102A3000B0420BD0B0F1804F08D0634EB04205D009
:102A4000624EB04202D0624EB04208D14FF6FD76DF
:102A500001EA060144F0010646EA010107E04FF6EB
:102A6000F57601EA060144F0010646EA0101028317
:102A70000184F0BD70B505460C46514885420ED024
:102A8000504885420BD0B5F1804F08D04E48854262
:102A900005D04E48854202D04D48854200D100E025
:102AA00000BF208850B92389A28861882846FFF793
:102AB000A3FFE1882846FFF794FF25E0208804283B
:102AC0000AD12389A28861882846FFF745FFE1885B
:102AD0002846FFF734FF17E0208808280AD1238909
:102AE000A28861882846FFF7E7FEE1882846FFF7BD
:102AF000D8FE09E02389A28861882846FFF78CFE6A
:102B0000E1882846FFF77BFE70BD2DE9F0410546C0
:102B10000C464FF000064FF00107608810B94FF0E7
:102B2000020601E04FF00006A088012802D14FF014
:102B3000020701E04FF001072088A0B92389A2888D
:102B400061882846FFF758FFE1882846FFF749FFCC
:102B500023893A4631462846FFF7FEFEE18828469B
:102B6000FFF7EDFE13E02389A28861882846FFF76E
:102B7000F3FEE1882846FFF7E2FE23893A46314614
:102B80002846FFF739FFE1882846FFF72AFFBDE80E
:102B9000F0810A884B8842EA03028B8842EA0302EA
:102BA000CB8842EA03020B8942EA03024B8942EADC
:102BB00003028B8942EA0302A0F844207047000018
:102BC000002C014000340140000400400008004097
:102BD000000C00404FF6FF7181804FF00001018032
:102BE000C1804180017270474FF000010180418037
:102BF0008180C180018141818181C18170474FF015
:102C00000001018041804FF0010181804FF00001FF
:102C1000C180018170474FF00001018041808180B7
:102C2000C180018141818181704721B1028842F0D8
:102C30000102028005E002884FF6FE7302EA0302F9
:102C40000280704731B1B0F8442042F40042A0F84D
:102C5000442005E0B0F84420C2F30E02A0F844205E
:102C6000704710B522B1838943EA0103838106E0EE
:102C700083896FEA0104A4B203EA0403838110BDCF
:102C80008182704741EA0203A0F84830704710B5CE
:102C900022B1838943EA0103838106E083896FEAD5
:102CA0000104A4B203EA0403838110BD01894FF635
:102CB000F87201EA0201018170470A464FF00001F3
:102CC00001894FF68F7301EA030141EA0201018194
:102CD000704730B504460D4629462046FFF7EDFF04
:102CE000208940F00700208130BD2DE9F0410446E5
:102CF0000D4616461F46602D06D13B460122314641
:102D00002046FFF729FE05E03B46012231462046DA
:102D1000FFF772FE29462046FFF7CFFF208940F0DB
:102D200007002081BDE8F08130B50C464FF000016E
:102D30000189C9B24FEA036542EA154545EA04052F
:102D400045EA0101018130BD2DE9F04105460E46FD
:102D5000174698464FF0000443463A463146284607
:102D6000FFF7E2FF2C894FF6F87004EA000444F004
:102D700007044FF68F7004EA000444F070042C81BD
:102D8000BDE8F081F0B504460D4616461F463B46A9
:102D9000324629462046FFF7C7FF208940F480408D
:102DA0002081F0BD0185828270470A464FF0000104
:102DB00001884FF68F7301EA030141EA02010180A5
:102DC0007047F0B50C4615461E464FF000010A4606
:102DD0000B460189028B038C4FF6F87701EA070155
:102DE00041EA04014FF6FC4702EA070240F20117EC
:102DF00042EA07024FF6DD7703EA07034FEA065778
:102E000045EA174747EA0303018102830384F0BDC3
:102E10000A464FF00001018B4FF68F7301EA030160
:102E200041EA0201018370470A464FF00001018B1D
:102E300048F6FF7301EA03014FEA026341EA1341D6
:102E4000018370470A464FF00001818B4FF68F7364
:102E500001EA030141EA0201818370470A464FF00B
:102E60000001818B48F6FF7301EA03014FEA026318
:102E700041EA13418183704721B1028842F0800208
:102E8000028005E002884FF67F7302EA03020280A7
:102E9000704721B1828842F00402828005E0828876
:102EA0004FF6FB7302EA03028280704721B18288E9
:102EB00042F00802828005E082884FF6F77302EA4A
:102EC00003028280704721B1828842F00102828031
:102ED00005E082884FF6FE7302EA030282807047A3
:102EE0000A464FF00001018B4FF6F77301EA030128
:102EF00041EA0201018370470A464FF00001018B4D
:102F00004FF2FF7301EA03014FEA026341EA134102
:102F1000018370470A464FF00001818B4FF6F7732B
:102F200001EA030141EA0201818370470A464FF03A
:102F30000001818B4FF2FF7301EA03014FEA026344
:102F400041EA1341818370470A464FF00001018B2B
:102F50004FF6FB7301EA030141EA02010183704766
:102F60000A464FF00001018B4FF6FF3301EA0301DF
:102F70004FEA026341EA1341018370470A464FF06A
:102F80000001818B4FF6FB7301EA030141EA020164
:102F9000818370470A464FF00001818B4FF6FF3363
:102FA00001EA03014FEA026341EA1341818370475A
:102FB0000A464FF00001018B4FF67F7301EA0301CF
:102FC00041EA0201018370470A464FF00001018B7C
:102FD000C1F30E014FEA026341EA134101837047D6
:102FE0000A464FF00001818B4FF67F7301EA03011F
:102FF00041EA0201818370470A464FF00001818B4C
:10300000C1F30E014FEA026341EA13418183704725
:103010000A464FF00001018C4FF6FD7301EA0301EF
:1030200041EA0201018470470A464FF00001018C19
:103030004FF6F77301EA030141EA02010184704788
:103040000A464FF00001018C4FF6DF7301EA0301DD
:103050004FEA025341EA1341018470470A464FF098
:103060000001018C4FF67F7301EA03014FEA02531E
:1030700041EA1341018470470A464FF00001018C78
:103080004FF6FF5301EA03014FEA026341EA13419D
:10309000018470470A464FF00001018C4FF2FF7324
:1030A00001EA03014FEA026341EA134101847047D8
:1030B0000A464FF00001018C4DF6FF7301EA03014F
:1030C0004FEA027341EA13410184704730B54FF073
:1030D00000034FF0010404FA01F4A3B2048C6FEA78
:1030E0000305ADB204EA05040484048C02FA01F578
:1030F000ADB244EA0504048430BD30B54FF000039E
:103100004FF0040404FA01F4A3B2048C6FEA03053F
:10311000ADB204EA05040484048C02FA01F5ADB2F0
:1031200044EA0504048430BD70B503464FF0000046
:103130000446184600F118004FF0010505FA01F5A4
:10314000ACB21D8C6FEA0406B6B205EA06051D8412
:1031500009B108290AD100EB6100056825F0700566
:103160000560056845EA020505600EE0A1F1040569
:10317000ADB200EB6500056825F4E0450560056823
:103180004FEA026645EA1645056070BD21B1028826
:1031900042F00202028005E002884FF6FD7302EA67
:1031A00003020280704721B1028842F004020280CB
:1031B00005E002884FF6FB7302EA030202807047C3
:1031C00021B1828842F08002828005E082884FF639
:1031D0007F7302EA03028280704702884FF6F7731A
:1031E00002EA03020280028842EA0102028070477A
:1031F00082884FF68F7302EA03028280828842EA55
:1032000001028280704702894FF6F87302EA0302D6
:103210000281028942EA01020281704702894FF667
:103220007F7302EA03020281028942EA01020281FB
:103230007047818470478185704781867047018718
:10324000704781877047A0F84010704702884FF69A
:10325000FF4302EA03020280028842EA010202807E
:1032600070470146888E70470146088F70470146B7
:10327000888F70470146B1F8400070470146888C3E
:1032800070470146088D704702464FF00000138AD0
:103290000B4202D04FF0010001E04FF000007047F8
:1032A0006FEA01020282704730B502464FF000001B
:1032B00003460446158A05EA0103958905EA0104D7
:1032C0001BB114B14FF0010001E04FF0000030BD20
:1032D0006FEA01020282704710B50446F848844242
:1032E00009D101218803FEF7FBFE00214FF4804045
:1032F000FEF7F6FE32E0F348844209D1012148048A
:10330000FEF7FDFE00214FF40030FEF7F8FE25E049
:10331000ED48844209D101218804FEF7F0FE002126
:103320004FF48020FEF7EBFE18E0E848844209D114
:103330000121C804FEF7E3FE00214FF40020FEF750
:10334000DEFE0BE0E248844208D101210805FEF7C9
:10335000D6FE00214FF48010FEF7D1FE10BD2DE9FE
:10336000F04786B005460E464FF00004A24600BF67
:10337000A1462746B08900B100BF2F462C8A4CF6E3
:10338000FF7004EA0004F08840EA04042C82AC894F
:103390004EF6F31004EA0004B088318940EA0100D7
:1033A000718940EA010040EA0404AC81AC8A4FF61E
:1033B000FF4004EA0004B08940EA0404AC8201A89A
:1033C000FEF7F5FDBE48874202D1DDF810A001E00E
:1033D000DDF80CA0A88910F4004F09D00AEBCA0050
:1033E00000EB0A1031684FEA4101B0FBF1F808E048
:1033F0000AEBCA0000EB0A1031684FEA8101B0FB0A
:10340000F1F84FF06400B8FBF0F04FEA00144FEA17
:1034100014104FF0640101FB1089A88910F4004FCB
:103420000AD04FF0320000EBC900B0FBF1F000F021
:10343000070040EA04040BE04FF0320000EB0910F3
:103440004FF06401B0FBF1F000F00F0040EA04041B
:103450002C8106B0BDE8F0874FF4165101604FF0A3
:1034600000018180C18001814FF00C0141814FF04A
:1034700000018181704710B502464FF00000108AAC
:103480004FF2FF0300EA03000B884C8843EA040371
:103490008C8843EA0403CC8843EA040343EA00002F
:1034A000108210BD4FF00001018041808180C180F9
:1034B000704721B1828942F40052828105E08289FD
:1034C0004DF6FF7302EA030282817047F0B50346AE
:1034D0004FF00004264625462046A1F510676A3FB6
:1034E00000D100BF1846C1F3421401F01F064FF08F
:1034F000010707FA06F5012C02D100F10C0006E0E5
:10350000022C02D100F1100001E000F1140022B100
:10351000076847EA0507076003E0076827EA050729
:103520000760F0BD10B522B1838A43EA01038382AC
:1035300006E0838A6FEA0104A4B203EA04038382EB
:1035400010BD028A4FF6F07302EA03020282028A79
:1035500042EA01020282704782894FF2FF7302EA57
:1035600003028281828942EA01028281704721B18D
:10357000828942F00202828105E082894FF6FD7362
:1035800002EA030282817047028A4FF6DF7302EA81
:1035900003020282028A42EA01020282704721B1DA
:1035A000028A42F48042028205E0028A4BF6FF73EF
:1035B00002EA030202827047C1F308028280704768
:1035C00001468888C0F308007047818941F00101F5
:1035D00081817047028BD2B20283028B42EA0122C0
:1035E00002837047028B02F47F420283028B42EA1D
:1035F00001020283704721B1828A42F02002828256
:1036000005E0828A4FF6DF7302EA03028282704786
:1036100021B1828A42F01002828205E0828A4FF64E
:10362000EF7302EA03028282704721B1828A42F07C
:103630000802828205E0828A4FF6F77302EA0302EB
:103640008282704721B1828942F40042828103E084
:103650008289C2F30E028281704721B1828A42F4CC
:103660000062828205E0828A4FF2FF7302EA03025F
:1036700082827047828A4FF6FB7302EA03028282DB
:10368000828A42EA01028282704721B1828A42F034
:103690000202828205E0828A4FF6FD7302EA03028B
:1036A0008282704702464FF00000B1F5007F00D1E2
:1036B00000BF13880B420DD04FF001000CE000005A
:1036C000003801400044004000480040004C0040E9
:1036D000005000404FF00000704701F40072B2F556
:1036E000007F00D100BF6FEA01020280704770B511
:1036F00002464FF0000423461D461846A1F5106609
:103700006A3E00D100BFC1F3421501F01F034FF024
:10371000010606FA03F3012D03D1968906EA030395
:1037200008E0022D03D1168A06EA030302E0968A16
:1037300006EA03034FEA21244FF0010606FA04F4D7
:10374000168806EA04041BB114B14FF0010001E031
:103750004FF0000070BD10B54FF000021346A1F508
:1037600010646A3C00D100BF4FEA21224FF00104EF
:1037700004FA02F4A3B26FEA0304048010BD00004F
:103780000F49086070470E49486070470C498860CF
:1037900070474AF6AA200A49086070474CF6CC40A8
:1037A00007490860704701464FF00000044AD2689C
:1037B0000A4202D04FF0010001E04FF000007047D4
:1037C000003000404FF0000108466D4A126842F494
:1037D00080326B4B1A6000BF694A126802F40030F5
:1037E00001F1010110B9B1F5A06FF5D1644A126879
:1037F00012F4003F02D04FF0010001E04FF0000052
:10380000012842D15F4A126842F010025D4B1A60F3
:103810001A46126822F003021A601A46126842F031
:1038200002021A60564A5268554B5A601A4652684C
:103830005A601A46526842F480625A601A465268C8
:1038400022F47C125A601A46526842F4E8125A6016
:103850001A46126842F080721A6000BF484A126825
:1038600012F0007FFAD0464A526822F00302444B1D
:103870005A601A46526842F002025A6000BF404A3B
:10388000526802F00C02082AF9D1704710B5FFF710
:1038900099FF10BD10B53A48006840F00100384962
:1038A000086008464068384900EA01003449486029
:1038B00008460068354900EA0100314908600846B9
:1038C000006820F4802008600846406820F4FE006C
:1038D00048604FF41F008860FFF7D8FF4FF000608A
:1038E0002B49086010BD10B54FF000010846024694
:1038F000234B5B6803F00C0121B1042906D0082991
:103900002CD107E0234B244C23602BE0214B224C8D
:10391000236027E01A4B5B6803F47010184B5B6858
:1039200003F480324FF0020303EB90402AB91B4BA3
:1039300000FB03F3184C23600FE0114B5B6813F49A
:10394000003F05D0154B00FB03F3134C236004E04C
:10395000104B00FB03F3104C236003E00D4B0E4CA7
:10396000236000BF00BF064B5B68C3F303130C4C1E
:10397000E15C094B1B6823FA01F3074C236010BD7F
:1039800000100240002002400000FFF8FFFFF6FE9A
:1039900008ED00E000127A004400002000093D001C
:1039A000480000204FF480500A49486170474FF4A6
:1039B00080500849086170470648C06880F480500C
:1039C0000449C860704710B54FF400410248FEF743
:1039D0008DF810BD001001400008014006488047E6
:1039E00006480047FEE7FEE7FEE7FEE7FEE7FEE7E4
:1039F000FEE7FEE7FEE7FEE7953800083101000824
:103A00002DE9F04107460D4616464FF000040DE043
:103A1000295D3846FFF7D0FD00BF40213846FFF74B
:103A200041FE0028F9D004F1010084B2B442EFDB7A
:103A30002046BDE8F08110B589488A4908604FF4F6
:103A400080604860FDF765FA00EB80004FEA800077
:103A50004FF47A71B0FBF1F000F101008149886107
:103A600008460068886008460068C8604FF000009B
:103A7000486108468069012802D84FF00200886139
:103A800010BD2DE9F04106460C46774F256812E03F
:103A90002068401B315C3846FFF78EFD00BF802157
:103AA0003846FFF7FFFD0028F9D080213846FFF7A0
:103AB00014FEA5F10105002DEAD1BDE8F0812DE944
:103AC000F04780460E464FF0010A4FF00004D6F84A
:103AD000009064480469002C78D0406928B14FF008
:103AE000020A4FF00000306076E04FF0030A5D48B4
:103AF00004694C4500D94C465A4880685949C96800
:103B0000884211D957482246C168404601F088FDD5
:103B10005448C06820445349C86008460069A0EB77
:103B200004000861346057E04E4800684D49496818
:103B300008444C49C968A0EB01072546BD421ED880
:103B400048482A46C168404601F06AFD4548C068B9
:103B500028444449C8600846006849680844414907
:103B6000C968884203D83F4800683E49C8603D485C
:103B70000069A0EB05003B490861346024E0394846
:103B80003A46C168404601F04BFD36480068354969
:103B9000C86008460069A0EB07000861A5EB0705AF
:103BA0000A4608EB0700D1682A4601F039FD2D4886
:103BB000C06828442B49C86008460069A0EB05008E
:103BC000086105EB0700306006E0FFE74FF00009F1
:103BD000484630604FF0010A5046BDE8F087214961
:103BE000CA688968491C8A420FD01E49C9681D4AA3
:103BF000126891420AD11B4909681A4A5268114455
:103C0000491E184A9268914200D170471549896847
:103C100008701449896801F10101124A9160114646
:103C2000096901F1010111611146096852681144E5
:103C30000C4A9268914203D80A490968094A91607E
:103C400008498969074A516100BFDEE705494969AA
:103C500029B104494969A1F10101024A5161704742
:103C6000EC010020EC050020004400404FF0000073
:103C700000BF01E000F101000628FBDB70474FF0B8
:103C8000000000BF01E000F101000928FBDB7047E4
:103C90004FF0000000BF01E000F101000928FBDB4C
:103CA00070474FF0000000BF01E000F1010005285F
:103CB000FBDB70474FF0000000BF01E000F10100A6
:103CC0000528FBDB704710B54FF40061FE48FDF797
:103CD0002FFF10BD10B54FF40061FB48FDF726FF24
:103CE00010BD2A2802D02C2814D108E04FF0000182
:103CF000F64A11704FF00101F54A1170A8E0F5493C
:103D0000097801F10101F34A11704FF00001F24A04
:103D100011709DE0EF490978092976D2DFE801F0BA
:103D200005393C42454B4E545A00EB490978062967
:103D30002CD2DFE801F0030A0415052000BF00BF04
:103D4000A0F13001E54A117021E0A0F13001E34A11
:103D5000127802EB820201EB4201E14AD17016E0D7
:103D6000A0F13001DD4A127802EB820201EB420140
:103D7000DB4A11710BE0A0F13001D84A127802EB56
:103D8000820201EB4201D64A517100E000BF00BF40
:103D900056E0D349887153E0D149C91DCE4A127803
:103DA00088544DE0CE4908744AE0CD491131CA4AE1
:103DB0001278885444E0CA49C87641E0C8491C31A9
:103DC000C54A127888543BE0C5492431C24A12786A
:103DD000885435E0C049097806292DD2DFE801F082
:103DE000030A0416052100BF00BFA0F13001BB4A41
:103DF000117022E0A0F13001B84A127802EB820281
:103E000001EB4201B64A917017E018E0A0F13001D1
:103E1000B24A127802EB820201EB4201B04A5170C1
:103E20000BE0A0F13001AD4A127802EB820201EB07
:103E30004201AB4A117000E000BF00BF00E000BFCC
:103E400000BFA549097801F10101A34A117000BF23
:103E500000BF704710B504469C48007800286CD01D
:103E6000A0480078B8B1A0480078082803D12046BF
:103E7000FFF737FF0EE04FF000009B4908709949AB
:103E800008704FF00100994908704FF000008F4909
:103E9000087000BF65E02A2C36D02C2C39D194480C
:103EA0000079472807D192484079412803D14FF043
:103EB00001008D4908708E480079532807D18C483D
:103EC0004079412803D14FF00200874908708848A3
:103ED0004079562803D14FF0040083490870844884
:103EE0004079432803D14FF008007F4908704FF014
:103EF00001007C4908707D4908704FF00000754949
:103F000008707549087017E04FF000006F4908709D
:103F100012E077487549097844547448007800F1F4
:103F200001007249087008460078062803DD4FF04A
:103F300000006649087000BF13E0242C11D16C48C2
:103F400004704FF0010061490870684908704FF033
:103F5000000064490870644908705E4908705E4951
:103F6000087010BD5A48007830B14FF00000584931
:103F700008704FF0010070470020FCE710B54FF0CB
:103F8000000416E008E05B480078012804D14FF0F7
:103F900000005849087010BD20215748FFF782FBE8
:103FA0000028F0D05448FFF70BFBC4B22046FFF7BF
:103FB00051FFFFF7D7FF0128E4D100BFEBE72DE960
:103FC000F0478CB080464FF000094548007800F17A
:103FD0006400069042484078A0F1010005904048F6
:103FE000807804903E48C07803903D480079029064
:103FF0003B48407901904846099001A801F0C0FA79
:10400000C8F800003648807AA0F130003449497A77
:10401000A1F1300101EB810100EB41023048007A4F
:10402000A0F130002E49C979A1F1300101EB8101E5
:1040300000EB4100C0EB001002EB800147F2305072
:1040400001FB00F12648007BA0F1300040F277121E
:1040500000FB02F001EBC0012148407BA0F13000E1
:10406000C0EB001000EB800001EB80011C48807B5E
:10407000A0F13000C0EB001001EB40011848C07BFC
:10408000A0F1300000EB40000844C8F804001448D8
:10409000007C532805D1D8F80400C0F10000C8F80E
:1040A00004000F48407DA0F130000D49097DA1F1C9
:1040B000300101EB810100EB41020948407CA0F195
:1040C00030004FF0640119E000100140650000204D
:1040D00066000020630000206400002067000020CC
:1040E0000806002062000020580000206100002027
:1040F00059000020680000200038014000FB01F159
:104100003B48807CA0F1300000EB800001EB4001D7
:104110003748C07CA0F130000844C0EB001002EB2F
:10412000800147F2305001FB00F13148C07DA0F121
:10413000300040F2771200FB02F001EBC0012C4886
:10414000007EA0F13000C0EB001000EB800001EB1E
:1041500080012748407EA0F13000C0EB001001EB49
:1041600040012348807EA0F1300000EB400008446D
:10417000C8F808001E48C07E572805D1D8F80800A6
:10418000C0F10000C8F8080019481C3001F0D9FA45
:10419000824601F053FB0446164A174B01F0DEFA43
:1041A000064601F05CFB8146B9F1FF0F04D94FF0E0
:1041B000FF0088F80C0001E088F80C900C482430CF
:1041C00001F0BFFAA8F80E0009488079412803D011
:1041D00007488079612804D14FF0010088F8100069
:1041E00003E04FF0000088F810000CB0BDE8F08745
:1041F000080600209A9999999999FD3F2DE9F04177
:1042000006460F4614464FF00005B046304601F012
:104210004BFAA04202D20020BDE8F08108E0394606
:10422000404601F038FA054605B905E005F10108F8
:104230002000A4F10104F2D100BF2846ECE72DE9EB
:10424000F04705460F469046384601F02DFA824663
:10425000384601F029FAA8EB000000F101064FF002
:104260000009002E11DD4C4608E028195246394657
:1042700001F022FA00B903E004F10104B442F4DBD6
:1042800000BFB44201DA05EB04094846BDE8F087F7
:10429000F0B505460E464FF000042F469A4201D96C
:1042A0000020F0BD1AE04FF0000105E0785CB0425C
:1042B00000D103E001F101019942F7D300BF994217
:1042C00006D207EB010401F10100A3EB000301E0BA
:1042D0004FF0000404B905E004F101071000A2F159
:1042E0000102E0D100BF2046DBE770B503460C4673
:1042F0004FF000000546FD4EF6B194421CD9014630
:104300000FE05E5C302E05DB5E5C392E02DC05F1D1
:10431000010501E04FF00005954200D303E001F1F3
:104320000101A142EDD300BF954205D303EB010685
:10433000A6EB020606F1010070BD30B502460B4641
:104340004FF000000446014622E0555C412D06DB9B
:10435000555C462D03DC555CA5F1370412E0555C35
:10436000612D06DB555C662D03DC555CA5F1570419
:1043700008E0555C302D05DB555C392D02DC555CC1
:10438000A5F130044FEA001040EA040001F10101F8
:104390009942DAD330BD10B54FF40071D448FDF71F
:1043A000C5FB10BD10B54FF40071D148FDF7C0FB3F
:1043B00010BD10B50221CF48FDF7BAFBC820FCF7AD
:1043C00028FE0221CB48FDF7B1FBC820FCF721FEF7
:1043D00010BD10B54FF48061C74801F03AF910BD27
:1043E00010B54FF48071C54801F033F910BD2DE9C7
:1043F000F84F80460D4616461F463C46DFF8F892B9
:104400004FF0000A009669464046FFF73AFB15B3A5
:104410001AE0A4F10100C4B24FF4806000904FF0A4
:104420003200FCF7F6FD69464846FFF748FB824636
:10443000009848B1BAF1030F06D129464846009AC0
:10444000FFF7FDFE00B101E0002CE2DC00BF14B973
:104450000120BDE8F88F0020FBE72DE9FF4F81B078
:104460000E4617461C46DDE90E8A5546DFF888924F
:104470004FF0000B009769460198FFF702FB29E017
:10448000A5F10100C5B24FF4806000904FF03200FA
:10449000FCF7BFFD69464846FFF711FB83460098CD
:1044A00098B1BBF1030F10D10CB1C4F80090B8F172
:1044B000000F02D00098C8F800002EB131464846DF
:1044C00001F0D3F808B107E006E01DB9012005B0FE
:1044D000BDE8F08F002DD3DC00BF0020F7E77FB5EB
:1044E00004464FF0000003900290854801F0DCF88C
:1044F0000546FFF76EFF282002A903AB2A46CDE947
:10450000001080497E48FFF7A8FFA8B90F22DDE917
:104510000210FFF7EAFE7C4908600846006810B9FF
:10452000012004B070BD2CB10F22774801682046ED
:1045300001F076F80020F4E70120F2E7F0B585B04D
:1045400005464FF0000630460490039004466F483D
:1045500001F0AAF80646FFF73CFF282003A904ABA8
:104560003246CDE900106AA16848FFF776FF0028BF
:1045700071D101222221DDE90330FFF789FE0446D3
:1045800014B9012005B0F0BDECB160788DF80800D9
:10459000A0788DF8090002A801F086F80746394690
:1045A00002A8FFF7CAFEA870E0788DF8080020790D
:1045B0008DF8090002A801F077F80746394602A8ED
:1045C000FFF7BBFEE87003222221DDE90330FFF78D
:1045D0005FFE04460CB90120D4E7ECB160788DF899
:1045E0000800A0788DF8090002A801F05DF80746E0
:1045F000394602A8FFF7A1FE2871E0788DF808007F
:1046000020798DF8090002A801F04EF807463946D6
:1046100002A8FFF792FE687102222C21DDE9033027
:10462000FFF736FE04460CB90120ABE714B114F8CD
:10463000010C687001222C21DDE90330FFF728FE10
:1046400004460CB901209DE714B114F8010C287040
:10465000002097E7FFE7012094E770B504462E4855
:1046600001F022F80546FFF7B4FE04232A46254947
:104670002948FFF7BCFEC0B901223A211E48FFF7C6
:10468000BDFD264908600846006808B9012070BDD4
:104690002248006800F101002049086008460068CF
:1046A00001F04FF820700020F1E70120EFE7F8B5A6
:1046B00004464FF00005284600900646FFF790FE9E
:1046C0006846FFF7CAFF9DF80000A04239D00B48AA
:1046D00013490860224613491148006801F01EFA88
:1046E0000F48006800F0E0FF054620E0A9560008EA
:1046F000001001400008014034060020340A002068
:10470000085F00082E5D00086C000020905F000824
:1047100043524547000000001F5E00087000002063
:1047200074000020105E0008052E00D908E0042364
:104730002A46F849F8480068FFF759FE0028F3D1E7
:1047400000BFF8BD2DE9F0414FF000052F462C4683
:104750004FF00106A046F14800F0A6FF0746FFF71C
:1047600038FE19E004F101044FF004033A46E94928
:10477000EA48FFF73CFE064616B94FF001080DE087
:1047800005F10100C5B2022D03DDFFF712FE4FF067
:1047900000051E20FCF73DFC0F2CE3D300BF4FF0BB
:1047A00000044FF00106DE4800F07EFF0746FFF7E9
:1047B00010FE0EE004F101044FF004033A46D5491F
:1047C000D748FFF714FE064606B904E01E20FCF7A2
:1047D00020FC052CEED300BF4046BDE8F0812DE95A
:1047E000F0414FF000052C464FF001062746CD481A
:1047F00000F05AFF0546FFF7ECFD10E004F101045C
:104800004FF00A032A46C849C648FFF7F0FD06469E
:1048100016B94FF0010704E01420FCF7FAFB062C50
:10482000ECD300BF3846BDE8F0812DE9FF410446D6
:104830004FF0000635464FF00107A8462846039082
:104840000290BA4800F030FF0646FFF7C2FD4EE086
:1048500005F101054FF0140002A903AB3246CDE982
:104860000010AC49B148FFF7F8FD0746002F3AD1D8
:1048700001222C210398FFF7C1FCAD4908600846CE
:10488000006808B9B84632E0A9480068A0F1020003
:10489000A7490860084600680078302804DB08460D
:1048A00000680078392806DDA14800684078A0F14A
:1048B000300020700EE09E4800684078A0F1300083
:1048C0009B4909680978A1F1300101EB810100EBF6
:1048D000410020702078022805DB20781F2802DCA8
:1048E0004FF0010805E01420FCF793FB00BF142DE6
:1048F000AED300BF404604B0BDE8F0812DE9FF47CC
:1049000004464FF0000635464FF00107A8462846FA
:1049100003900290874800F0C7FE0646FFF759FD56
:1049200032E005F101054FF0040002A903AB324665
:10493000CDE9001077497F48FFF78FFD07461FBB81
:1049400001222C210398FFF759FC7B490860084697
:104950000068C8B10846006810F8010CA0F13000EA
:1049600020700846006800F10100086008460068F1
:1049700000F0E7FE00EB400909EBD970C0F34F00EF
:1049800060804FF0010801E0042DCAD300BF40460B
:1049900004B0BDE8F08770B504464FF00006354618
:1049A000FFF71EFD65486649086022466549644870
:1049B000006801F0B3F86248006800F075FE064632
:1049C00004E005F10105052D00D908E02823324651
:1049D00050495B480068FFF70AFD0028F1D100BF8D
:1049E00070BD2DE9FF414FF000052C464FF0010648
:1049F0002746204603900290534800F055FE054696
:104A0000FFF7E7FC2AE004F101044FF0280002A9B7
:104A100003AB2A46CDE90010AFF20C314A48FFF74C
:104A20001CFD0646BEB901222C21DDE90230FFF74C
:104A30002FFC464908600846006860B108460068D7
:104A40004078312804D0084600684078352802D1E3
:104A50004FF0010704E01420FCF7DBFA0A2CD2D354
:104A600000BF384604B0BDE8F0812DE9FF4105469E
:104A70004FF0000634464FF00107A0462046039051
:104A80000290334800F010FE0646FFF7A2FC24E037
:104A900004F101044FF00A0002A903AB3246CDE94C
:104AA00000101C492A48FFF7D8FC074697B90F2287
:104AB000DDE90210FFF719FC264908600846006886
:104AC00040B10F2208460168284600F0A9FD4FF0CA
:104AD000010804E01420FCF79CFA042CD8D300BF92
:104AE000404604B0BDE8F0812DE9F04786B00646A7
:104AF0004FF00004A04627464FF00109A246204689
:104B0000059004900546144800F0CEFD8046FFF75E
:104B100060FC9EE02E5D0008740000202A5D000805
:104B20004F5D00086F5D0008315D0008555D0008AD
:104B300078000020FE5E00087C000020340A00207F
:104B4000800000209A5F0008905F00088400002029
:104B5000675D000888000020085F000807F1010772
:104B60004FF0280004A905AB4246CDE90010F849F2
:104B7000F848FFF772FC8146B9F1000F66D10F22A9
:104B8000DDE90410FFF7B1FBF3490860084600684F
:104B900000285BD04FF0000406E0EF480068005D9D
:104BA00003A9085504F10104032CF6D34FF00000CB
:104BB0008DF80F00044608E0E748006800F10300A4
:104BC000005D02A9085504F10104022CF4D34FF052
:104BD00000008DF80A0003A800F0B3FD05464FF071
:104BE000FF00B5FBF0F03070FF2D09D94FF0FF004A
:104BF000B5FBF0F100FB1150A0F10100707006E070
:104C00004FF0FF00B5FBF0F100FB1150707002A8EF
:104C100000F097FD05464FF0FF00B5FBF0F0B070D7
:104C2000FF2D09D94FF0FF00B5FBF0F100FB11504B
:104C3000A0F10100F07006E04FF0FF00B5FBF0F1CD
:104C400000FB1151F1704FF0010A04E01420FCF751
:104C5000E0F9042F82D300BF504606B0BDE8F087CC
:104C60002DE9FF414FF000052C464FF00106274685
:104C7000204603900290B94800F016FD0546FFF764
:104C8000A8FB30E004F101044FF0280002A903ABB7
:104C90002A46CDE90010B2A1B048FFF7DEFB064678
:104CA000F6B901223A21DDE90230FFF7F1FAAE4907
:104CB00008600846006898B100BFAB48006800F182
:104CC0000100A94908600846006800782028F4D04F
:104CD000084600680078312802D14FF0010704E04F
:104CE0001420FCF796F9052CCCD300BF384604B04D
:104CF000BDE8F0812DE9F0414FF000052C464FF062
:104D000001062746FFF76CFB98489949086099A26D
:104D10009A499748006800F001FF9548006800F044
:104D2000C3FC0546FFF755FB11E004F101044FF009
:104D30000A032A4686498E480068FFF758FB064654
:104D400016B94FF0010704E01420FCF762F9052CB6
:104D5000EBD300BF3846BDE8F0812DE9F0414FF0BC
:104D600000052C464FF001062746854800F09CFCC4
:104D70000546FFF72EFB10E004F101044FF0780325
:104D80002A4673497E48FFF732FB064616B94FF0B4
:104D9000010704E01420FCF73CF9052CECD300BF1C
:104DA0003846BDE8F0812DE9F0414FF000052C4672
:104DB0004FF001062746734800F076FC0546FFF7E2
:104DC00008FB10E004F101044FF014032A466EA121
:104DD0006C48FFF70CFB064616B94FF0010704E0DC
:104DE0001420FCF716F9052CECD300BF3846BDE8BB
:104DF000F08130B591B004464FF03302214604A84B
:104E000000F00EFC4FF00005284603900290FFF7DB
:104E1000E7FA56485D4908600846006810B9012065
:104E200011B030BD0CA804AB421D59490090574841
:104E3000006800F073FE5548006800F035FC054638
:104E40004FF0140002A903AB2A46CDE900105149E6
:104E50004E480068FFF701FB78B94F49DDE90220B1
:104E6000FFF7EDF908B10020DAE74CA1DDE90220F7
:104E7000FFF7E5F908B10020D2E70120D0E770B5CF
:104E80008EB04FF000044FF00105264647A248A11E
:104E90000DF1290000F042FE46A245A101A800F054
:104EA0003DFE4AA242A109A800F038FE0CE004F140
:104EB000010401A8FFF79DFF054615B94FF0010653
:104EC00004E01420FCF7A5F8042CF0D300BF304612
:104ED0000EB070BD2DE9F34106463E4FFFF780FA54
:104EE00022483D4908603D493B48019A006800F06E
:104EF00015FE3948006800F0D7FB80464FF01003DC
:104F000042464FF03E0134480068FFF770FA18B986
:104F100001A93046FEF7B5FD4FF00A0564E04FF4F5
:104F2000806001904FF03200FCF773F801A9294826
:104F3000FEF7C5FD0446019840B1032C54D128A1C9
:104F40003846019AFFF77BF900B151E04CE00000D0
:104F50002E5D0008085F00088C000020BC5F000880
:104F6000434741545400000090000020340A0020C0
:104F70009400002022434D4E45542200B05F0008AB
:104F8000F85D0008C75F00082E00000098000020B0
:104F90003A5E0008425D0008375D0008414C52450A
:104FA00041445920434F4E4E454354005443500012
:104FB000257300006C6B662E62726F61646E65749F
:104FC000776F726B2E6E65740000000038383838C9
:104FD00000000000340600209C000020605E0008F5
:104FE00053454E44204F4B00A5F10100050096D1DA
:104FF00000BF15B90120BDE8FC810020FBE72DE9C9
:10500000FF47814614461D46FE4FFFF7E9F9FE486B
:10501000FE490860FE49FD48019A006800F07EFDE7
:10502000FA48006800F040FB82464FF010035246F9
:105030004FF03E01F5480068FFF7D9F918B901A90A
:105040004846FEF71EFD4FF00A081CE04FF4806052
:1050500001904FF03200FBF7DCFF01A93846FEF764
:105060002EFD0646019870B1032E0CD104B12760C5
:105070000DB101982860AFF298013846019AFFF708
:10508000DEF800B104E0A8F101005FEA0008DDD11C
:1050900000BFB8F1000F03D1012004B0BDE8F087D4
:1050A0000020FAE7F8B507464FF00505D94E0BE0AA
:1050B0004FF4806000904FF01400FBF7AAFF6946A0
:1050C000D448FEF7FCFC0446A5F101000500EFD131
:1050D0000120F8BD7FB504464FF000000390029018
:1050E000CD4800F0E1FA0546FFF773F9042002A964
:1050F00003AB2A46CDE90010C849C748FFF7ADF910
:10510000002826D1C6A1DDE90220FFF798F8C7499B
:1051100008600846006830B14FF0060020704FF07C
:10512000000004B070BDC2A1DDE90220FFF787F8DE
:1051300018B14FF000002070F3E7C0A1DDE90220B4
:10514000FFF77DF828B14FF0010020704FF000000C
:10515000E7E74FF0FF0020704FF00100E1E710B5E6
:10516000B94800F0A1FA04464FF004032246AB49C7
:10517000B548FFF73CF908B9002010BD0120FCE755
:1051800010B5B24800F090FA04464FF004032246EE
:10519000A249AE48FFF72BF908B9002010BD012045
:1051A000FCE710B5AA4800F07FFA04464FF004036C
:1051B0002246A8A1A648FFF71AF908B9002010BD99
:1051C0000120FCE72DE9F0414FF000052C464FF09F
:1051D00001062746A14800F067FA0546FFF7F9F8EF
:1051E00010E004F101044FF014032A468B499B4858
:1051F000FFF7FDF8064616B94FF0010704E014204A
:10520000FBF707FF042CECD300BF3846BDE8F08164
:105210002DE9F0414FF000052C464FF001062746DE
:105220008F4800F041FA0546FFF7D3F810E004F18B
:1052300001044FF014032A4678498948FFF7D7F84C
:10524000064616B94FF0010704E01420FBF7E1FE13
:10525000042CECD300BF3846BDE8F0817FB54FF099
:105260000005284603900290FFF7B3F8FFF7B8F85F
:1052700065487C49086002227B497A48006800F052
:105280004DFC7848006800F00FFA054600BF042383
:105290002A46624973480068FFF7A9F80028F6D14A
:1052A0001FE000BF042002A903AB0A22CDE90010D1
:1052B000AFF6A4316D48FFF7D0F80028F2D10122F3
:1052C0003A21DDE90230FEF7E3FF04464CB100BFAE
:1052D00004F1010420782028FAD02078322800D167
:1052E00000E0DEE700BF002004B070BD2DE9F04F04
:1052F00087B005464FF0000BD9464FF0010A4846EB
:105300000690059004900446074680460646FFF73F
:1053100067F83D48564908600846006818B90020FB
:1053200007B0BDE8F08F38485149086001230322D7
:1053300050494F48006800F0F1FB4D48006800F00C
:10534000B3F98346FFF745F811E009F101094FF081
:1053500004035A46314946480068FFF748F8824638
:10536000BAF1000F00D105E01420FBF752FEB9F1AD
:10537000050FEAD300BF4FF000093F4800F094F951
:105380008346FFF726F8F3E04FF0000028704FF057
:10539000040004A905AB5A46CDE900101F49364860
:1053A000FFF75BF88246BAF1000F6BD133A1DDE95C
:1053B0000420FEF744FF8046B8F1000F00D1D7E08B
:1053C0004FF00004CAE0012000EB44022221DDE995
:1053D0000430FEF75DFF8046B8F1000F7ED0A21CBE
:1053E0002B21DDE90430FEF753FF002876D0B8F119
:1053F000000F50D00A2203A908F1010000F069F95A
:10540000074640E034060020340A0020A0000020B7
:10541000605E0008340B00206F5E00082E5D0008FF
:10542000434F4E4E454354204F4B0000A4000020F4
:10543000495020494E495449414C0000495020539D
:1054400054415254000000007D5E00088C5E00084C
:10545000405F0008504F5745520000004C5F000865
:10546000575F0008A80000209A5F0008905F0008BE
:10547000AC0000201E5F00082D5F00082B43454E46
:105480004700000073E007B96BE004EB440205F14C
:10549000020020F822701D2301222C214046FEF735
:1054A000F7FE064666B10A2203A9701C00F011F946
:1054B000074604EB440205F1020000EB820047803E
:1054C0001D2302222C214046FEF7E2FE064676B15D
:1054D000102203A9701C00F0FCF800E03CE0074635
:1054E00004EB440205F1020000EB820087801D23DB
:1054F00003222C214046FEF7CBFE064666B1102261
:1055000003A9701C00F0E5F8074604EB440205F11E
:10551000020000EB8200C7801D2305222C2140469B
:10552000FEF7B6FE064676B10A2203A9701C00F00B
:10553000D0F8074607B914E004EB440205F1020075
:1055400000EB820087724FF0000104EB440205F18A
:10555000020000EB8200C17204F10104072CFFF687
:1055600032AF00BF2C704FF00100069004E000BF86
:10557000B9F1050FFFF408AF00BF0698D0E60000B0
:1055800038B5D0E90221491E01EB410102EBC1010E
:105590004268C1EB011102EB81010268C1EB01110C
:1055A00002EB8103D0E9042101EB410102EB81010F
:1055B000A1F55271302491FBF4F2154D04FB121148
:1055C000554303EBC51300931A2902DB114A1A4411
:1055D00000920C2391FBF3F20F4C009D544303FB0C
:1055E000121105EBC4140D4A009408E0491E40F264
:1055F000A324535C6343009C04EBC3130093002972
:10560000F4DC0146684600F06BF9009838BD0000F4
:105610003F0C0F008051010067C20300D15F0008FA
:1056200040EA01039B0703D009E008C9121F08C024
:10563000042AFAD203E011F8013B00F8013B521EA4
:10564000F9D27047D2B201E000F8012B491EFBD21B
:1056500070470022F6E710B5044608461146024698
:105660002046FFF7EFFF204610BD30B50EE00346A1
:105670000A4601E05B1C521C1C781578AC4201D133
:10568000002CF7D115F0FF0F04D0401C0278002A3F
:10569000EDD1002030BDCAB20178914203D009B1EA
:1056A000401CF9E7002070470146002000E0401C44
:1056B0000A5C002AFBD1704730B50446002003463F
:1056C00000E05B1C934203D2E05CCD5C401BF8D051
:1056D00030BD2DE9F0470F4691468046044600262E
:1056E00014F8015B2DB100F0F7F80068405DC007C9
:1056F000F6D12B2D02D02D2D18D0641E4A463946E6
:10570000204600F02DF927B13968A14201D1C7F830
:10571000008071054FF002040BD54042002803DDE4
:1057200000F010FA0460A007BDE8F08746F4806638
:10573000E4E70028F8DA00F005FA04606FF00040B2
:10574000F2E770B5064600F0FDF9046805460A2246
:1057500000213046FFF7BDFF2C6070BD2DE9FE4FE4
:1057600081EA030421F0004504F0004423F00041E5
:105770004FF0000A009450EA050302D052EA0103F8
:1057800004D10020014603B0BDE8F08FC1F30A53F5
:10579000C5F30A541C44A0FB02B3C5F3130545F43A
:1057A000801CC1F3130141F480180CFB023300FB91
:1057B000083EA4F2F334810A930A41EA8C5143EA89
:1057C00088530194A1FB03474FEA9C2505FB037313
:1057D0004FEA982601FB06373D05260545EA1435B4
:1057E000BBEB06016EEB0503850E920E45EA8C15A8
:1057F00042EA8812A5FB0206261E67EB00070C0D85
:1058000044EA0334A41947EB1350C1F313064FF0D5
:10581000000319464FEA033343EA165343EA0403ED
:10582000019CE5FB0201A4F10C040294009C4FEAE8
:105830000632CDE900A400F0EFF8A4E70EB5C10FE1
:1058400080EAE0700844CA07002140F233438DE843
:105850000E000A460B4600F0DFF803B000BDC1F3AE
:105860000A52C1F3130140F2FF3341F480119A420E
:1058700001DA0020704740F233439A42A2F23342E9
:1058800002DC524200F018B89040704730B50B4629
:10589000014600202022012409E021FA02F59D4260
:1058A00005D303FA02F5491B04FA02F52844151E34
:1058B000A2F10102F1DC30BD202A04DB203A21FAFA
:1058C00002F00021704721FA02F3D040C2F1200219
:1058D00091400843194670470048704760600008CF
:1058E00030B50246084613683C22B3FBF2F102FBD6
:1058F00011330360B1FBF2F302FB13111824416072
:10590000B3FBF4F104FB113282600A1D0723B2FBE2
:10591000F3F403FB1422890001F66C3140F2B55513
:10592000B1FBF5F405FB1411826104F1440289080E
:105930004261C1613B2902D3920700D0491C002279
:10594000064C13460261E25C8A4203D8891A5B1C4A
:105950000361F8E7491CC16030BD000064600008C5
:105960002DE9F05F8246044600780027641C8B46D0
:105970001546B946302801D09DB113E014F8010B4B
:105980000127782803D0582801D045B10AE00DB18D
:10599000102D07D10027102514F8010B02E008256F
:1059A00000E00A250026B0460EE005FB080005FBD6
:1059B00006F1012701EB10461FFA80F8B6F5803F8B
:1059C00000D3B94614F8010B294600F098F80028D6
:1059D000EBDABBF1000F05D00FB1641E00E05446B6
:1059E000CBF80040B9F1000F06D000F0ABF802216F
:1059F0000160C81EBDE8F09F48EA0640FAE710B50E
:105A0000002B08DA401C41F1000192185B411A4357
:105A100001D120F0010010BD2DE9F04D92469B46CA
:105A200011B1B1FA81F202E0B0FA80F22032904670
:105A300000F056F806460F4640EA0A0041EA0B011C
:105A400052465B46084303D130463946BDE8F08DE7
:105A5000194652EA010015D0C8F140025046FFF73E
:105A60002BFF04460D4650465946424600F038F892
:105A7000084301D0012000E00020044345EAE0751E
:105A800026432F430A984FEAD625A0EB08000A3098
:105A90004FEA46534FF0000245EA47554FEAD724F4
:105AA00002D500200146D1E7010550196141DDE929
:105AB000084500196941BDE8F04DA0E7064C074DC7
:105AC00006E0E06840F0010394E8070098471034CE
:105AD000AC42F6D3FAF730FB706000089060000823
