:020000040800F2
:1000000038130020313E0008291300082B13000884
:100010002F130008331300083713000800000000F6
:100020000000000000000000000000003B1300087A
:100030003D130008000000003F1300086313000890
:100040004B3E00084B3E00084B3E00089D13000845
:100050004B3E00084B3E00084B3E00084B3E00085C
:100060004B3E00084B3E00084B3E00084B3E00084C
:100070004B3E00084B3E00084B3E00084B3E00083C
:100080004B3E00084B3E00084B3E00084B3E00082C
:100090004B3E00084B3E00084B3E00084B3E00081C
:1000A0004B3E00084B3E00084B3E00084B3E00080C
:1000B000DB1300084B3E00084B3E00084B3E000897
:1000C0004B3E00084B3E00084B3E00084B3E0008EC
:1000D0004B3E00084B3E00087F1300084B3E0008D3
:1000E000FB130008AB1300084B3E00084B3E000812
:1000F0004B3E00084B3E00084B3E00084B3E0008BC
:100100004B3E00084B3E00084B3E00084B3E0008AB
:100110004B3E00084B3E00084B3E00084B3E00089B
:100120004B3E00084B3E00084B3E00084B3E00088B
:10013000DFF80CD006F034F9004800479D0A0008AB
:100140003813002010B5FEA006F05AF94FF0000455
:1001500006E0FD48015DFDA006F052F904F101043E
:100160000F2CF6D3FAA006F04BF9FAA006F048F9E6
:100170004FF0000406E0FB48015DFBA006F040F9EB
:1001800004F10104202CF6D3F1A006F039F910BDDA
:1001900070B50546F6A006F033F94FF0000406E00E
:1001A000FB48015DF0A006F02BF904F10104AC421C
:1001B000F6D3E7A006F024F970BD10B5F5A006F05F
:1001C0001FF94FF0000406E0F448015DE6A006F0D8
:1001D00017F904F10104042CF6D3DDA006F010F9A0
:1001E000EFA006F00DF94FF0000407E0EB48001D0A
:1001F000015DDDA006F004F904F10104042CF5D33F
:10020000D3A006F0FDF8E8A006F0FAF84FF00004DD
:1002100007E0E2480830015DD3A006F0F1F804F1F0
:100220000104042CF5D3CAA006F0EAF8DB48017BF0
:10023000DFA006F0E5F8E1A006F0E2F84FF00004D8
:1002400007E0D6480E30015DC7A006F0D9F804F1EA
:100250000104022CF5D3BEA006F0D2F8CF48017CF1
:10026000D8A006F0CDF810BD10B54FF00100D94967
:100270000880D9490870D948D94908604FF0000072
:10028000D8490870D8490870D8490870D84908700A
:10029000D8490870D8484FF0000101608180D748E4
:1002A0000160D74801608180D64801604FF0140199
:1002B000BA4805F024FE5621D34805F020FE0F2150
:1002C000A14805F01CFE0F21D04805F018FE0F21B3
:1002D000CF4805F014FE2021A24805F010FE802131
:1002E000AB4805F00CFE10BD70B54FF0000425467C
:1002F0004FF0010600BF09E0282001F0B6F803F036
:100300008CFD08B905F1010504F10104042CF3DBAF
:10031000032D02D94FF0010601E04FF000063046F0
:1003200070BD70B54FF000052C46264607E04FF033
:1003300070009749085504F1010406F10106022EE8
:10034000F5D34FF0A0009249085504F101044FF095
:100350000000085504F10104AB48007800EB4001AF
:1003600001EBC00000F103008949085504F10104C4
:10037000984800884FEA1020085504F10104954878
:100380000088085504F101049F480078085504F1DD
:1003900001044FF0000673E04FF000050FE006EB9C
:1003A0004601994800F1020000EB8100C5F101010E
:1003B000405C7749085504F1010405F10105022D5F
:1003C000EDD34FF0000511E006EB46018E4800F139
:1003D000020000EB810000F10200C5F10101405C68
:1003E0006B49085504F1010405F10105022DEBD319
:1003F0004FF0000511E006EB4601834800F10200D2
:1004000000EB810000F10400C5F10101405C60498E
:10041000085504F1010405F10105022DEBD34FF05D
:10042000000511E006EB4601774800F1020000EB01
:10043000810000F10600C5F10201405C54490855F5
:1004400004F1010405F10105032DEBD306EB460190
:100450006D4800F1020000EB8100807A4C4908559C
:1004600004F1010406EB4601674800F1020000EBCD
:100470008100C07A4649085504F1010406F10106DD
:1004800061480078B04287D85F48007800EB4001AF
:1004900001EBC0000830A04202D05EA005F0B0FF22
:1004A00070BD70B54FF0000400BF254607E04FF067
:1004B00070003749085504F1010405F10105022DCA
:1004C000F5D34FF002003249085504F101044FF012
:1004D0000000085504F101044FF02500085504F10F
:1004E00001043C4800884FEA1020085504F101043B
:1004F00038480088085504F101044FF0000509E070
:10050000C5F103002549085C2149085504F101049F
:1005100005F10105042DF3D34FF000050BE0C5F103
:1005200003011E4800F10400405C1949085504F11C
:10053000010405F10105042DF1D34FF000057FE022
:10054000494D45493A0000002201002025632D0055
:100550000D0A00000D0A4C4F47494E204D53473AB3
:10056000000000004F010020307825782D000000A9
:100570000D0A204750532C53544154494F4E206F7D
:100580007220414C41524D204D53473A000000002B
:100590006F0100205554433A00000000B8000020CD
:1005A0004C4154493A0000004C4F4E47493A000034
:1005B00053504545443A2025640D0A00434F555297
:1005C00053453A005354415455533A2025640D0A7B
:1005D0000000000000000020020000208051010007
:1005E0000400002008000020090000200A0000206C
:1005F0000B0000200C0000200D0000201400002043
:10060000180000201E000020CC0000203101002036
:10061000400100205061636B53746174696F6E4DCB
:100620007367204552524F52210A0000C5F1030161
:10063000F948405CF949085504F1010405F1010548
:10064000042DF3D3F4480838007BF449085504F12D
:1006500001044FF000050BE0C5F10101EE4800F187
:100660000600405CED49085504F1010405F101055F
:10067000022DF1D34FF0000507E0E948405DE7495E
:10068000085504F1010405F10105022DF5D34FF0E1
:10069000000508E0E248801C405DE049085504F18F
:1006A000010405F10105022DF4D34FF0000507E028
:1006B000DC48405DD949085504F1010405F1010504
:1006C000022DF5D34FF00000D449085504F1010480
:1006D000054608E0D348801C405DD049085504F128
:1006E000010405F10105022DF4D3CB480838007C44
:1006F000CA49085504F101044FF00000085504F1FF
:100700000104C548A0F10800007C085504F101046B
:100710004FF0000509E0C5F10101C348405CBF4945
:10072000085504F1010405F10105022DF3D34FF042
:100730000000BA49085504F10104BC480078085586
:1007400004F101044FF0000507E0B948405DB349EA
:10075000085504F1010405F10105022DF5D34FF010
:10076000000508E0B248801C405DAC49085504F122
:10077000010405F10105022DF4D32A2C02D0ADA00D
:1007800005F03EFE70BD70B54FF00004254607E051
:100790004FF07000A149085504F1010405F101056D
:1007A000022DF5D34FF004009C49085504F10104D3
:1007B0004FF00000085504F101044FF01C000855EB
:1007C00004F10104A04800884FEA1020085504F104
:1007D00001049D480088085504F101044FF000050C
:1007E0000BE0C5F103008C49A1F10801085C8B49BD
:1007F000085504F1010405F10105042DF1D34FF072
:1008000000050BE0C5F103018348A0F10400405C42
:100810008249085504F1010405F10105042DF1D3C5
:100820004FF0000509E0C5F103017B48405C7B49BE
:10083000085504F1010405F10105042DF3D37648B0
:100840000838007B7549085504F101044FF0000594
:100850000BE0C5F10101704800F10600405C6F49F2
:10086000085504F1010405F10105022DF1D34FF003
:10087000000507E06A48405D6849085504F1010435
:1008800005F10105022DF5D34FF0000508E064489D
:10089000801C405D6149085504F1010405F1010522
:1008A000022DF4D34FF0000507E05E48405D5B4940
:1008B000085504F1010405F10105022DF5D34FF0AF
:1008C00000005649085504F10104054608E0554862
:1008D000801C405D5149085504F1010405F10105F2
:1008E000022DF4D34C480838007C4C49085504F1DB
:1008F00001044FF07100085504F10104212C02D0CD
:1009000052A005F07DFD70BD70B504460D4602EBAA
:10091000D2764FEA660606F101069E4201DB0F2AF7
:1009200001D0002070BD207800F00F002870104624
:1009300002EBD0764FEA66010FE004EB410010F8BD
:10094000010C4FF0F00606EA001014F8116006F0F2
:100950000F0630446854A1F101010029EDD10120B6
:10096000E0E77FB54FF00004254607E04FF0700048
:100970003C49085504F1010405F10105022DF5D3A8
:100980004FF001003749085504F101044FF0000011
:10099000085504F101044FF00C00085504F101045E
:1009A000294800884FEA1020085504F10104264820
:1009B0000088085504F101044FF008034FF00F02BE
:1009C00069462948FFF7A0FF40B94FF000000090AA
:1009D00001900290039025A005F012FD4FF0000554
:1009E00007E01DF805001F49085504F1010405F151
:1009F0000105082DF5D34FF001001A49085504F1FF
:100A000001044FF02000085504F10104112C02D01C
:100A10001CA005F0F5FC7FBDC00000206F01002088
:100A20001E0000201A000020160000200C000020EC
:100A30000F0000205061636B4770734D7367204552
:100A400052524F52210A0000000000205061636B97
:100A5000416C61726D4D7367204552524F52210AAD
:100A6000000000004F01002022010020494D4549AF
:100A70002070726F63657373204552524F52210A82
:100A8000000000005061636B4C6F67696E4D7367C7
:100A9000204552524F52210A0000000088B04FF00A
:100AA0000006B146B246B3463046079004464FF0C2
:100AB000010006904FF00000059007468046049024
:100AC00003900546029000F0EBFE03F059FB03F0A3
:100AD00025FF00F0E4FC01214FF0C05001F01BFDA8
:100AE00000F05CFD00F0E2FD00F033FD00F084FD5D
:100AF00003F087F900F060FE00F098FE03F0C5F9FE
:100B000000F0AFFE012240F22551F84802F008FF44
:100B1000FFF7AAFBE0E14FF00006B146B246B3464C
:100B2000304607900590074680464FF4967000F0D7
:100B30008AFCFFF7D9FBEE4908700846007848B9EF
:100B400008460078EB490978884203D04FF001004D
:100B5000E9490870E6480078E6490870E7480378F4
:100B6000E5480278E2480178E54805F049FCE048AC
:100B70000078012807D0E0480078012803D0DF483A
:100B8000007801287DD1DC48007801283AD003F0B4
:100B9000F0FADCA005F034FCC82000F054FC14216D
:100BA000DD4805F0ACF9FFF708FB27E009F101008B
:100BB00000F0FF0900F0CAFD03F036FC079000F0DA
:100BC000CFFD0798012815D14FF00000D3490870D8
:100BD000D3A005F015FCD748807941280AD1CE482A
:100BE00003F043FCFFF7E9FA03F0CAFAD2A005F0DC
:100BF00007FC06E04FF47A7000F025FCB9F1120F03
:100C0000D4DB00BF03F083FED3A005F0F9FBC820BE
:100C100000F019FC4FF0000A544611E10AF10100FE
:100C200000F0FF0A04F0E5F8044604B908E104F016
:100C30002DF9044604B903E1CC4804F04DF904460B
:100C40001CB9CBA005F0DCFBFAE004F021FA044665
:100C500004B9F5E0022004F0F5F9CC4803F090FF68
:100C6000CB4804F059FA0446CA4804F0BDFA0446D9
:100C70004FF0000004F090F804F04EFB04460CB96D
:100C8000DEE0E2E0C44804F090F90446C34804F012
:100C9000A5FF04464FF0000B5C46C7E00BF10100D6
:100CA00000F0FF0B04F033FE02A804F0D7FD04F0BF
:100CB0007DFB044604B9B9E002A804F0CFFD04F0BE
:100CC000A8FB044602A804F0C9FD04F0C8FB0446D2
:100CD00002A804F0C3FD04F02EFC044604B9A5E00C
:100CE00002A804F0BBFD4FF00100AD4908804FF0B1
:100CF00000060690FFF735FEFFF724FA34E006F110
:100D0000010603AB04AA4FF01101A64804F0E9FC68
:100D10000690069828BBA4A1DDE9032003F04BFD53
:100D20000546D5B1E8794FEA0060297A00EB014029
:100D3000697A00EB0120A97A00EB0108B8F13C0FB9
:100D400005D99A48804502D29948C0F80080984851
:100D5000016898A005F054FB02E09CA005F050FB50
:100D600004E0A2A005F04CFB052EC8D300BF8C48C0
:100D7000008800F101008A4908804FF000064FF01A
:100D8000010006905C48007801280BD1FFF7FBFCBE
:100D90004FF021074FF00100584908709BA005F063
:100DA0002FFB1CE05C48007C012807D1FFF779FB92
:100DB0004FF02A0799A005F023FB0CE0FFF7B1FAEA
:100DC0007648007800EB400101EBC00000F1080715
:100DD00096A005F015FB4FF0000048490870384612
:100DE000FFF7D6F91AE006F101063946944804F0F7
:100DF00014FC0690069888B94FF0010005903E4813
:100E00000078012807D13D480078012803D14FF030
:100E100000003949087004F069FD01E0052EE2D3B5
:100E200000BF0598012800D104E000BFBBF1040F0A
:100E3000FFF634AF00BF0598012800D104E000BFE1
:100E4000BAF1040FFFF6EAAE00BF03F099F903F020
:100E500065FDFFF749FA264908700846007848B949
:100E60000846007823490978884203D04FF00100F2
:100E7000214908701E4800781E490870012001F0C1
:100E800036FC00BF012001F025FC0028FAD01B48E9
:100E90000078012803D01848007801280AD101F011
:100EA000C3FB3C30019001F0E4FB3C2165A005F060
:100EB000A7FA09E001F0B8FB7830019001F0D9FB06
:100EC000782166A005F09CFA01F0EEFB01210846AE
:100ED00001F02FF900F01FFB1DE62DE9F0414FF066
:100EE000000425462646274600BFD7E000440040C0
:100EF0000B0000200A00002008000020090000204C
:100F00004C6700080D0A20475053506F7765724FA9
:100F10006E200D0A00000000B80000200200002032
:100F2000526563656976652047505320446174615A
:100F30000D0A00000C0600204750534461746120E4
:100F400056616C696420616E64205475726E4F4600
:100F500046204750530D0A000D0A2047534D506F4D
:100F60007765724F6E200D0A000000000C00002013
:100F70000D0A2047534D5F51756572795369676E4D
:100F8000616C204641494C200D0A000018000020E9
:100F9000220100201E00002014000020CC000020B0
:100FA000000000204F0100207070000000A302002C
:100FB00004000020675F7569536574536C65657044
:100FC000536563203D2025640A0000005365727656
:100FD00065722053657420536C6565702054696D8B
:100FE0006572204552524F520A000000475052533A
:100FF0005F53656E6444617461204C4F47494E20D5
:101000004D5347204661696C0A0000005061636BD4
:10101000416C61726D4D73670D0A00005061636B26
:101020004770734D73670D0A000000005061636BD9
:1010300053746174696F6E4D73670D0A0000000090
:101040006F010020616C61726D6D6F646520736C5F
:10105000656570202564207365630A004445425528
:1010600047206E6F726D616C6D6F646520736C6587
:101070006570202564207365630A00004FF4FA60F0
:1010800000F0F3F902F0C9FE18B905F10100C5B28C
:1010900002E006F10100C6B204F10104052CEDDB0B
:1010A000022D04DB022E02DB4FF0010701E04FF0BE
:1010B00000073846BDE8F08170B54FF000042546C2
:1010C00007E04FF072008749085504F1010405F16B
:1010D0000105022DF5D34FF077008249085504F140
:1010E00001044FF00000085504F101044FF05100D5
:1010F000085504F101047C4800884FEA1020085587
:1011000004F1010478480088085504F101044FF007
:10111000000509E0C5F103007449085C71490855F0
:1011200004F1010405F10105042DF3D34FF000058E
:101130000BE0C5F103016D4800F10400405C694912
:10114000085504F1010405F10105042DF1D34FF018
:1011500000050BE0C5F10301644800F10800405CA4
:101160006049085504F1010405F10105042DF1D38E
:101170005E48007B5B49085504F101044FF000050F
:101180000BE0C5F10101594800F10E00405C5549E2
:10119000085504F1010405F10105022DF1D34FF0CA
:1011A000000507E05248405D4E49085504F101042E
:1011B00005F10105022DF5D34FF0000508E04C487C
:1011C000801C405D4749085504F1010405F1010503
:1011D000022DF4D34FF0000507E04648405D414939
:1011E000085504F1010405F10105022DF5D34FF076
:1011F00000003C49085504F10104054608E03D485B
:10120000801C405D3749085504F1010405F10105D2
:10121000022DF4D33548007C3249085504F101040D
:101220004FF00000085504F1010402F0F6FD2D49CD
:10123000085504F101044FF0000509E0C5F1010172
:101240002D48405C2749085504F1010405F10105CA
:10125000022DF3D34FF000002249085504F1010498
:1012600026480078085504F101044FF0000507E016
:101270002348405D1B49085504F1010405F10105AF
:101280000F2DF5D34FF0000507E01E48405D1549CE
:10129000085504F1010405F101050F2DF5D34FF0B8
:1012A000000507E01848405D0E49085504F10104A7
:1012B00005F101050F2DF5D31448007809490855AB
:1012C00004F101044FF00200085504F101044FF04D
:1012D0000000085504F10104562C02D00CA005F0C2
:1012E0008FF870BD6F01002000000020B8000020C2
:1012F0001E0000201A000020160000200C00002014
:1013000022010020310100204001002002000020C5
:101310005061636B466163746F72794D73672045EA
:1013200052524F52210A0000704700BFFEE700BF33
:10133000FEE700BFFEE700BFFEE77047704770475B
:101340003348006870476420704700B50146FFF7D6
:10135000F7FF024600BFFFF7F3FF801A8842FAD971
:1013600000BD10B52A48006800F101002849086056
:101370004FF0000002F094FE00F06DF810BD10B5C3
:1013800040F22551234802F0DCFB30B1214802F045
:1013900041FBC4B2204602F04CFE10BD10B5032044
:1013A00001F0C2F901F080F910BD10B5022001F082
:1013B000A8F988B14FF4003000F0B7FC012000F02C
:1013C000EAFE10B1012000F0F3FE01F06DF90220F9
:1013D00001F0AAF901F068F910BD10B501218807E4
:1013E00002F08CF940B14FF001000B490870014642
:1013F0004FF0804002F096F910BD10B54FF4004058
:1014000000F080FC18B14FF4004000F08EFC10BDDD
:1014100024000020004400406800002010B500288F
:101420000ADA4FEA01724FEA1264F94A00F00F0338
:10143000A3F10403D45405E04FEA01724FEA1263AA
:10144000F44A135410BDF449086000BFF24909681A
:101450000029FBD17047F048006828B1EE480068C9
:10146000A0F10100EC490860704710B54FF0000191
:10147000EA4A12684FF47A74B2FBF4F30CE04FF0CE
:101480000602B3FBF2F2A2F1010100BF0A00A1F1D2
:101490000101FBD1A0F101000028F0D110BD10B571
:1014A000DE4800684FF06401B0FBF1F4B4F1807FD6
:1014B00002D34FF0010016E024F07F40A0F10100BC
:1014C0004FF0E02148614FF00F014FF0FF30FFF780
:1014D000A5FF4FF000004FF0E02188614FF00700BA
:1014E00008614FF0000008B100BFFEE70C214FF08B
:1014F000FF30FFF793FF10BD10B54FF4803000F0C0
:1015000089FE00F0CCFE0446012C03D14FF4A0600C
:1015100000F01BFF10BD10B54FF4803000F07AFED4
:1015200000F0BDFEBE4908700846007801280FD1C2
:1015300000F0EDFE00BF392000F08FFE0028FAD049
:10154000022000F0E7FE00BF00F0EFFE0828FBD10C
:1015500010BD10B5012000F0D8FD00F0F3FA012015
:1015600000F042FF00BF612000F077FE0028FAD0B3
:101570004FF4007000F03BFF012000F03FFF01F04E
:101580009AF849F63F4001F066F801F08DF8012124
:10159000022001F027F801F087F810BD1CB54FF4C8
:1015A000003000F0C2FB4FF4003000904FF000001C
:1015B0008DF804004FF008008DF805004FF0010091
:1015C0008DF80600684600F02CFB0F21002000F08B
:1015D0004DFD4FF4004000904FF000008DF80400E6
:1015E0004FF010008DF805004FF001008DF8060057
:1015F000684600F016FB1CBD0EB50121084600F040
:101600008AFF4FF0804001F0A9F842F20F70ADF868
:10161000040048F69F40ADF800004FF00000ADF820
:101620000600ADF8020069464FF0804001F06AF90B
:101630000121880702F05EF801221146900701F0AF
:101640003AFD0121880701F01AFD0021012000F078
:1016500062FF0EBD0EB50121042000F05CFF714851
:1016600001F07CF840F2E730ADF8040048F69F4006
:10167000ADF800004FF00000ADF80600ADF8020034
:101680006946684801F03EF90121664802F032F8E7
:1016900001221146634801F00EFD0121614801F06D
:1016A000EEFC0021042000F036FF0EBD08B54FF41B
:1016B000407000F0C7F94FF029008DF800004FF09E
:1016C00001008DF801004FF000008DF802004FF08E
:1016D00001008DF80300684600F0BAF94FF01C00D5
:1016E0008DF800004FF005008DF801004FF000006C
:1016F0008DF802004FF001008DF80300684600F0FD
:10170000A7F94FF026008DF800004FF007008DF884
:1017100001004FF000008DF802004FF001008DF83D
:101720000300684600F094F94FF028008DF800009F
:101730004FF00F008DF801008DF802004FF001000E
:101740008DF80300684600F083F908BD10B501214B
:10175000084600F0E0FE0121880701F090FC10BD72
:1017600010B500214FF0804001F089FC00210120DC
:1017700000F0D1FE10BD10B50121042000F0CBFE19
:101780000121284801F07BFC10BD10B5002125483F
:1017900001F075FC0021042000F0BDFE10BD10B565
:1017A00045F2555002F016FA062002F016FA40F201
:1017B0001A6002F015FA10BD1FB54FF416500090D4
:1017C0004FF00000ADF80400ADF80600ADF80800D9
:1017D000ADF80C004FF00C00ADF80A006946124855
:1017E00001F0E7FF0121104802F08DF81FBD70B530
:1017F00004460D46E1B20C4802F008F900BF402152
:10180000094802F079F90028F9D0204670BD00009F
:1018100018ED00E000E400E02C000020440000206F
:101820002800002000080040004800401FB54FF489
:10183000165000904FF00000ADF80400ADF806001F
:10184000ADF80800ADF80C004FF00C00ADF80A0040
:101850006946114801F0ADFF01210F4802F053F82D
:101860001FBD1FB54FF4165000904FF00000ADF8AB
:101870000400ADF80600ADF80800ADF80C004FF01C
:101880000C00ADF80A006946044801F092FF0121FE
:10189000024802F038F81FBD003801400044004003
:1018A00008B50121142000F027FE4FF00200ADF82A
:1018B00000004FF010008DF803004FF003008DF88A
:1018C000020069465B4800F09FFA4FF4D050ADF833
:1018D00000004FF010008DF803004FF003008DF86A
:1018E00002006946544800F08FFA4FF00400ADF84A
:1018F00000004FF010008DF803004FF003008DF84A
:10190000020069464D4800F07FFA4FF02000ADF824
:1019100000004FF010008DF803004FF003008DF829
:1019200002006946464800F06FFA4FF40040ADF8F7
:1019300000004FF004008DF8030069463D4800F0B8
:1019400063FA4FF48060ADF800004FF028008DF886
:1019500003006946384800F057FA0121042000F0DE
:10196000CBFD0121880300F0C7FD4FF40070ADF8F6
:1019700000004FF018008DF803004FF003008DF8C1
:10198000020069462B4800F03FFA4FF48060ADF842
:1019900000004FF004008DF803006946254800F070
:1019A00033FA0121042000F0A7FD0121480400F0D2
:1019B000B2FD4FF00400ADF800004FF018008DF8B4
:1019C00003004FF003008DF802006946194800F04B
:1019D0001BFA4FF00800ADF800004FF004008DF83E
:1019E00003006946134800F00FFA0121082000F0B7
:1019F00083FD0121880400F08EFD4FF48060ADF876
:101A000000004FF018008DF803004FF003008DF830
:101A1000020069460A4800F0F7F94FF40060ADF89B
:101A200000004FF004008DF803006946044800F000
:101A3000EBF908BD0008014000100140001401400E
:101A4000000C0140384940EA0101384A11607047F2
:101A500070B54FF000010B464FF00F02C4784CB345
:101A6000324C246804F4E064C4F5E0644FEA1421C5
:101A7000C1F1040322FA01F2447804FA03F18478F4
:101A800004EA020444EA01014FEA0111284C0678F5
:101A9000A155047804F01F054FF0010404FA05F481
:101AA00005784FEA65154FF0E02606EB8505C5F889
:101AB00000410CE0047804F01F054FF0010404FA23
:101AC00005F41C4D06784FEA661645F8264070BDB1
:101AD000194A01EA020242EA0002184B1A607047F2
:101AE00031B1174A126842EA0002154B1A6005E04C
:101AF000134A126822EA0002114B1A607047042848
:101B000008D14FF0E021096941F004014FF0E022D3
:101B1000116107E04FF0E021096921F004014FF065
:101B2000E0221161704700000000FA050CED00E0B2
:101B300000E400E080E100E080FFFF1F08ED00E02E
:101B400010ED00E010B5012000F012FD002000F0C3
:101B50000FFD10BD24490860704724490860704794
:101B600023490860704701464FF00000214A108861
:101B70004FF67F4200EA020040EA01001D4A108051
:101B8000704701464FF000001A4A10884FF68072E5
:101B900000EA020040EA0100164A108070474FF048
:101BA0000002154A02441160704701464FF00002DE
:101BB000114A0A44108870470D4818300068C0B2B6
:101BC00070470E48008840F001000C4908807047BB
:101BD00007481C300068C0B270470848008840F0D1
:101BE000020006490880704704860D4200860D42B7
:101BF00088860D422C6C0040006C0040346C004024
:101C00004FF000004A49086001F10401086001F149
:101C10000401086001F10401086046484649086073
:101C200070474FF0000142498279002A40D00A46AD
:101C30001268036822EA03020B461A6001F10402EB
:101C40001268036822EA030201F104031A600279B0
:101C500011440A68036842EA03020A60374A1268BC
:101C6000036822EA0302354B1A6003F1040212688A
:101C7000036822EA0302324B1A604279102A0ED11D
:101C80002E4A1268036842EA03022C4B1A602C4A5F
:101C90001268036842EA0302294B1A600FE02449E4
:101CA000427911440A68036842EA03020A6006E0C6
:101CB000027911440A68036822EA03020A60704745
:101CC0004FF00001016001714FF00C0141714FF0C4
:101CD0000001817170471B49096841EA0001194AF6
:101CE0001160704701464FF00000134A12680A4223
:101CF00002D04FF0010001E04FF0000070470E49A4
:101D00000860704701464FF000000246084B1B6810
:101D100003EA0102084B1B680B4203D012B14FF0DB
:101D2000010001E04FF00000704703490860704770
:101D300000040140FFFF0F001404014008040140AB
:101D40000C0401401004014010B50446DE488442F2
:101D500008D10121042000F0EDFB0021042000F057
:101D6000E9FB46E0D948844208D10121082000F06F
:101D7000E1FB0021082000F0DDFB3AE0D44884427A
:101D800008D10121102000F0D5FB0021102000F027
:101D9000D1FB2EE0CF48844208D10121202000F061
:101DA000C9FB0021202000F0C5FB22E0CA48844284
:101DB00008D10121402000F0BDFB0021402000F0AF
:101DC000B9FB16E0C548844208D10121802000F00B
:101DD000B1FB0021802000F0ADFB0AE0C048844246
:101DE00007D10121801500F0A5FB0021A01500F00E
:101DF000A1FB10BD10B50121084600F09BFB00219E
:101E0000012000F097FB10BD2DE9F04102464FF094
:101E100000052E46284603460446074691F803C0AF
:101E20000CF00F0591F803C01CF0100F03D091F8CF
:101E300002C04CEA0505B1F800C01CF0FF0F35D018
:101E400014684FF000002EE04FF0010C0CFA00F384
:101E5000B1F800C00CEA03069E4222D14FEA80038B
:101E60004FF00F0C0CFA03F724EA070405FA03FC01
:101E70004CEA040491F803C0BCF1280F06D14FF0DE
:101E8000010C0CFA00FCC2F814C00AE091F803C07F
:101E9000BCF1480F05D14FF0010C0CFA00FCC2F860
:101EA00010C000F101000828CED31460B1F800C0C2
:101EB000BCF1FF0F38DD54684FF0000031E000F155
:101EC000080C4FF0010808FA0CF3B1F800C00CEA56
:101ED00003069E4223D14FEA80034FF00F0C0CFA09
:101EE00003F724EA070405FA03FC4CEA040491F81A
:101EF00003C0BCF1280F05D100F1080C08FA0CF85A
:101F0000C2F8148091F803C0BCF1480F07D100F16A
:101F1000080C4FF0010808FA0CF8C2F8108000F124
:101F200001000828CBD35460BDE8F0814FF6FF7163
:101F300001804FF0020181704FF00401C1707047C1
:101F400002464FF0000093680B4202D04FF00100B0
:101F500001E04FF0000070470146886880B270478A
:101F600002464FF00000D3680B4202D04FF0010050
:101F700001E04FF0000070470146C86880B270472A
:101F800001617047416170470AB1016100E0416140
:101F90007047C16070474FF4803242EA01028261AB
:101FA0008161826182698269704702464FF0000058
:101FB0004C4B18684FF6807300EA030040EA0210A9
:101FC00040EA0100474B186070474749C8617047B5
:101FD000F0B50A464FF000031C4619460D4600F0C6
:101FE0000046B6F1004F02D13E4EF16901E03D4E90
:101FF0007168C0F3034583B200F44016B6F5401F84
:1020000008D121F07061374E766826F07066354F42
:102010007E6017E000F48016B6F5801F08D14FF0FF
:10202000030606FA05F421EA040141F0706109E0B3
:102030004FEA50564FEA061603FA06F621EA060161
:1020400041F070613AB14FEA50564FEA061603FA72
:1020500006F646EA010100F00046B6F1004F02D153
:10206000204EF16101E01F4E7160F0BD30B54FF0C0
:1020700000024FEA81734FEA13744FF00F0303FA23
:1020800004F21A4B4FEAA10453F8243023EA020366
:10209000164C4FEAA10544F8253023464FEAA10427
:1020A00053F824304FEA81744FEA147400FA04F4B0
:1020B00043EA04030D4C4FEAA10544F8253030BD36
:1020C0000B4908607047000000080140000C014007
:1020D000001001400014014000180140001C0140A4
:1020E00000200140000001400000204208000140A3
:1020F000DC00204210B50121080700F02AFA002177
:102100004FF0805000F025FA10BD2D49086270474D
:102110002B490861704701464FF00000294A1068BA
:1021200020F0E00040EA0100106070472649086096
:10213000704710B502464FF00000224B186820F09F
:10214000030040EA02001860204B1B6843F00403C0
:102150001E4C2360012901D130BF00E020BF1B4B82
:102160001B6823F00403194C236010BD1548006858
:1021700040F00400134908600846006840F002007F
:1021800008601248006840F004001049086000BF71
:1021900000BF30BF704701464FF00000094A526847
:1021A0000A4202D04FF0010001E04FF000007047FA
:1021B0000449096841EA8001024A11607047000041
:1021C00000000E4200700040A0000E4210ED00E042
:1021D000F748006840F00100F5490860084640688B
:1021E000F44900EA0100F249486008460068F249F3
:1021F00000EA0100EE4908600846006820F48020EB
:1022000008600846406820F4FE0048604FF41F0054
:1022100088607047E649096821F48031E44A11601A
:102220001146096821F480211160B0F5803F03D088
:10223000B0F5802F0ED106E0DD49096841F4803108
:10224000DB4A116007E0DA49096841F4A021D84A65
:10225000116000E000BF00BF704710B501464FF0AD
:102260000002134610464FEA6112012A02D1D04CF7
:10227000236806E0022A02D1CD4C236A01E0CC4C4F
:10228000636A01F01F024FF0010404FA02F41C42D9
:1022900002D04FF0010001E04FF0000010BD70B51A
:1022A0004FF000042546264600BF3120FFF7D5FF3A
:1022B000064604F10104B4F5A06F01D0002EF4D05D
:1022C0003120FFF7CAFF10B14FF0010501E04FF0D8
:1022D0000005284670BD01464FF00000B44A106862
:1022E00020F0F80040EAC10010607047B349086070
:1022F000704702464FF00000AD4B586820F47C1048
:1023000042EA010343EA0000A94B58607047AB4919
:102310000866704701464FF00000A54A506820F05B
:10232000030040EA010050607047A148406800F097
:102330000C00704701464FF000009D4A506820F0A5
:10234000F00040EA01005060704701464FF0000085
:10235000974A506820F4E06040EA010050607047FE
:1023600001464FF00000924A506820F4605040EA65
:10237000C1005060704731B18D4A527A42EA000282
:102380008B4B5A7208E08A4A527A6FEA0003DBB23A
:1023900002EA0302864B5A72704789490860704707
:1023A00001464FF00000824A506820F4404040EA65
:1023B0000100506070474FF00001824A11707C4A62
:1023C00082F82010012802D004280AD104E04FF03E
:1023D00001017C4A117005E04FF00501794A117046
:1023E00000E000BF00BF7047774908607047704940
:1023F000096A41EA00016E4A116270477349086038
:10240000704730B54FF000010A460C460B46684D48
:102410006D6805F00C0121B1042905D0082927D1E8
:1024200005E06B4D056026E0694D056023E0604DD9
:102430006D6805F470125E4D6D6805F480344FF0E0
:10244000020505EB924224B9624D02FB05F50560D9
:102450000DE0574D6D6815F4003F04D05D4D02FB53
:1024600005F5056003E05A4D02FB05F5056002E045
:10247000574D056000BF00BF4D4D6D6805F0F00180
:102480004FEA1111544D6B5C056825FA03F5456060
:10249000474D6D6805F4E0614FEA11214E4D6B5CCC
:1024A000456825FA03F58560414D6D6805F4605176
:1024B0004FEAD121484D6B5C456825FA03F5C560AC
:1024C0003B4D6D6805F440414FEA9131434D6B5CE3
:1024D000C568B5FBF3F5056130BD31B1344A5269C9
:1024E00042EA0002324B5A6105E0314A526922EA5F
:1024F00000022F4B5A61704731B12D4A926942EA6E
:1025000000022B4B9A6105E0294A926922EA0002F7
:10251000274B9A61704731B1254AD26942EA0002DD
:10252000234BDA6105E0224AD26922EA0002204BFD
:10253000DA61704731B11E4AD26842EA00021C4B90
:10254000DA6005E01A4AD26822EA0002184BDA6023
:10255000704731B1164A126942EA0002144B1A61FF
:1025600005E0134A126922EA0002114B1A61704712
:102570001B49086070471149C86470470C49C8710D
:1025800070470B48406A40F08070094948627047C4
:1025900001464FF00000064A92680A4202D04FF00E
:1025A000010001E04FF00000704701498872704758
:1025B000001002400000FFF8FFFFF6FE000042425C
:1025C000D800424220100240800442423C04424271
:1025D00000127A0000093D00300000204000002079
:1025E0004004424231B1554A128842EA0002534B3C
:1025F0001A8008E0514A12886FEA00039BB202EA8F
:1026000003024E4B1A8070474D48008840F010007E
:102610004B49088070474A4800884FF6EF7100EA3E
:1026200001004749088070474FF000014548018884
:10263000A0F10400008841EA0040704700B502465E
:10264000FFF7E2FF4FEA12403F4908803D490A8008
:10265000FFF7E1FF00BD00B50246FFF7D5FFC2F36B
:1026600003403A49088001F104010A80FFF7D3FFD3
:1026700000BD00B50246FFF7C7FF4FEA12403449DC
:10268000088001F104010A80FFF7C5FF00BD4FF08B
:102690000000304909884FEA01714FEA11302E4994
:1026A000098841EA0000704700BF2548008810F003
:1026B000200FFAD07047224800884FF6F77100EAE1
:1026C00001001F49088000BF1D48008810F0080F56
:1026D000FAD0704701464FF00000194A12880A42AA
:1026E00002D04FF0010001E04FF0000070471449A4
:1026F00009886FEA000292B201EA0201104A1180D1
:10270000704701464FF000000D4A128802EA0102AC
:10271000D0B20A4A12880A4203D010B14FF0010029
:1027200001E04FF000007047054909886FEA000298
:1027300092B201EA0201024A11807047002800406B
:10274000042800401C2800401828004008280040A9
:1027500020280040102800401428004010B50446EE
:10276000FE48844208D10121C014FFF7E3FE002196
:10277000E014FFF7DFFEC4E0B4F1804F08D101217F
:102780000846FFF7E6FE00210120FFF7E2FEB8E071
:10279000F348844208D101210220FFF7DAFE00212C
:1027A0000220FFF7D6FEACE0EE48844208D10121BA
:1027B0000420FFF7CEFE00210420FFF7CAFEA0E0B0
:1027C000E948844208D101210820FFF7C2FE002118
:1027D0000820FFF7BEFE94E0E448844208D10121BE
:1027E0001020FFF7B6FE00211020FFF7B2FE88E0B0
:1027F000DF48844208D101212020FFF7AAFE0021F2
:102800002020FFF7A6FE7CE0DA48844208D10121AF
:102810004014FFF78FFE00216014FFF78BFE70E07D
:10282000D548844209D10121C804FFF783FE002165
:102830004FF40020FFF77EFE63E0D048844209D1C8
:1028400001210805FFF776FE00214FF48010FFF705
:1028500071FE56E0CA48844209D101214805FFF7BC
:1028600069FE00214FF40010FFF764FE49E0C548FF
:10287000844208D101214020FFF76BFE0021402057
:10288000FFF767FE3DE0C048844208D10121802067
:10289000FFF75FFE00218020FFF75BFE31E0BB48C1
:1028A000844208D101218015FFF753FE0021A015B5
:1028B000FFF74FFE25E0B648844209D10121080404
:1028C000FFF738FE00214FF48030FFF733FE18E0A9
:1028D000B048844209D101214804FFF72BFE0021B2
:1028E0004FF40030FFF726FE0BE0AB48844208D1DE
:1028F00001218804FFF71EFE00214FF48020FFF71E
:1029000019FE10BD4FF000020288944B98420ED081
:10291000984B98420BD0B0F1804F08D0904B984222
:1029200005D0904B984202D08F4B984206D14FF67B
:102930008F7302EA03024B8843EA02028B4B9842F0
:1029400009D08B4B984206D04FF6FF4302EA0302B0
:10295000CB8843EA020202808B8883850B8803853B
:102960007E4B98420BD0834B984208D0884B9842BC
:1029700005D0884B984202D0874B984201D10B7A00
:1029800003864FF001038382704770B54FF0000457
:1029900022461346058C4FF6FE7605EA06050584A9
:1029A000028C8388048B4FF68F7504EA05044FF67A
:1029B000FC7504EA05040D8845EA04044FF6FD752C
:1029C00002EA05020D8945EA02024D8845EA020243
:1029D000624DA8420BD0674DA84208D06C4DA8426A
:1029E00005D06C4DA84202D06B4DA8421BD14FF6CA
:1029F000F77502EA05024D8945EA02024FF6FB75BA
:102A000002EA05028D8845EA02024FF6FF6503EAF5
:102A100005034FF6FF5503EA05038D8945EA0303D5
:102A2000CD8945EA030383800483CD8885860284AB
:102A300070BD70B54FF0000422461346058C4FF66A
:102A4000EF7605EA06050584028C8388048B48F638
:102A5000FF7504EA05044FF6FF4504EA05040D88F6
:102A60004FEA056544EA15444FF6DF7502EA0502B0
:102A70000D894FEA055542EA15424D884FEA055542
:102A800042EA1542354DA84202D03A4DA84223D120
:102A90004FF67F7502EA05024D894FEA055542EA75
:102AA00015424FF6BF7502EA05028D884FEA0555BB
:102AB00042EA15424FF6FF3503EA05034FF2FF7570
:102AC00003EA05038D894FEA854543EA1543CD891D
:102AD0004FEA854543EA154383800483CD88058703
:102AE000028470BD70B54FF0000422461346058C79
:102AF0004FF6FF6605EA06050584028C8388848B01
:102B00004FF68F7504EA05044FF6FC7504EA0504D8
:102B10000D8845EA04044FF6FF5502EA05020D89C7
:102B20004FEA056542EA15424D884FEA056542EADB
:102B300015420A4DA84202D00E4DA84244D14FF290
:102B4000FF7502EA05024D894FEA056542EA154222
:102B50004FF6FF3502EA05028D881FE0002C014088
:102B60000004004000080040000C0040001000403D
:102B70000014004000340140004C0140005001406E
:102B80000054014000180040001C0040002000409C
:102B90000040014000440140004801404FEA056503
:102BA00042EA15424EF6FF7503EA05034DF6FF753E
:102BB00003EA05038D894FEA055543EA1543CD899C
:102BC0004FEA055543EA154383808483CD88858782
:102BD000028470BD70B54FF0000213461446058C98
:102BE0004EF6FF7605EA06050584038C8488828B01
:102BF00048F6FF7502EA05024FF6FF4502EA0502B4
:102C00000D884FEA056542EA15424DF6FF7503EA65
:102C100005030D894FEA057543EA15434D884FEAD0
:102C2000057543EA1543FB4DA84202D0FA4DA84270
:102C300008D14BF6FF7504EA05048D894FEA8555E6
:102C400044EA154484808283CD88A0F840500384F0
:102C500070BD828B4FF2FF3302EA03028283828BC4
:102C60004FEA016342EA134282837047F0B50C4693
:102C700015464FF0000211460E46078C4EF6FF7CBB
:102C800007EA0C070784828B018C4FEA04774FEA2E
:102C9000174640F6FF4702EA07024FEA056742EA95
:102CA00017424FEA037742EA1742DA4FB8420ED092
:102CB000D94FB8420BD0B0F1804F08D0D74FB842AF
:102CC00005D0D74FB84202D0D64FB84208D14DF602
:102CD000FF7701EA070146F4805747EA010107E060
:102CE00047F6FF5701EA070144F4805747EA01011C
:102CF00082830184F0BD828B4FF6F37302EA0302F4
:102D00008283828B42EA010282837047F0B50C46CF
:102D100015464FF0000211460E46078C4FF6FF6C29
:102D200007EA0C070784828B018C4FEA04674FEA9D
:102D300017464FF60C7702EA07024FEA035745EAB7
:102D4000174747EA0202B34FB8420ED0B24FB8421B
:102D50000BD0B0F1804F08D0B04FB84205D0B04F83
:102D6000B84202D0AF4FB84208D14FF6FF5701EA40
:102D7000070146F4807747EA010107E04FF2FF5769
:102D800001EA070144F4807747EA01018283018464
:102D9000F0BD028B4FF2FF3302EA03020283028B83
:102DA0004FEA016342EA134202837047F0B50C46D2
:102DB00015464FF0000211460E46078C4FF6EF7C89
:102DC00007EA0C070784028B018C4FEA04574FEA8D
:102DD000174640F6FF4702EA07024FEA037742EA46
:102DE00017424FEA056742EA17428A4FB8420ED0AF
:102DF000894FB8420BD0B0F1804F08D0874FB8420E
:102E000005D0874FB84202D0864FB84208D14FF65E
:102E1000DF7701EA070146F0100747EA010107E002
:102E20004FF65F7701EA070144F0100747EA010116
:102E300002830184F0BD028B4FF6F37302EA0302B2
:102E40000283028B42EA010202837047F0B50C460E
:102E500015464FF000021146068C4FF6FE7706EA43
:102E600007060684028B018C4FF60C7602EA0602F6
:102E70004FEA035645EA164646EA0202654EB0425C
:102E80000ED0654EB0420BD0B0F1804F08D0634EEB
:102E9000B04205D0624EB04202D0624EB04208D17C
:102EA0004FF6FD7601EA060144F0010646EA01010B
:102EB00007E04FF6F57601EA060144F0010646EA1E
:102EC000010102830184F0BD70B505460C465148EE
:102ED00085420ED0504885420BD0B5F1804F08D0C6
:102EE0004E48854205D04E48854202D04D48854225
:102EF00000D100E000BF208850B92389A2886188F2
:102F00002846FFF7A3FFE1882846FFF794FF25E056
:102F1000208804280AD12389A28861882846FFF7DF
:102F200045FFE1882846FFF734FF17E0208808288E
:102F30000AD12389A28861882846FFF7E7FEE18845
:102F40002846FFF7D8FE09E02389A2886188284631
:102F5000FFF78CFEE1882846FFF77BFE70BD2DE968
:102F6000F04105460C464FF000064FF0010760881F
:102F700010B94FF0020601E04FF00006A0880128CA
:102F800002D14FF0020701E04FF001072088A0B9FD
:102F90002389A28861882846FFF758FFE1882846E0
:102FA000FFF749FF23893A4631462846FFF7FEFEE0
:102FB000E1882846FFF7EDFE13E02389A2886188A7
:102FC0002846FFF7F3FEE1882846FFF7E2FE238953
:102FD0003A4631462846FFF739FFE1882846FFF791
:102FE0002AFFBDE8F0810A884B8842EA03028B88F9
:102FF00042EA0302CB8842EA03020B8942EA030257
:103000004B8942EA03028B8942EA0302A0F844207A
:1030100070470000002C01400034014000040040D3
:1030200000080040000C00404FF6FF7181804FF017
:1030300000010180C1804180017270474FF00001A2
:10304000018041808180C180018141818181C18174
:1030500070474FF00001018041804FF001018180F5
:103060004FF00001C180018170474FF000010180E5
:1030700041808180C180018141818181704721B17E
:10308000028842F00102028005E002884FF6FE73DA
:1030900002EA03020280704731B1B0F8442042F4E2
:1030A0000042A0F8442005E0B0F84420C2F30E022C
:1030B000A0F84420704710B522B1838943EA010388
:1030C000838106E083896FEA0104A4B203EA040362
:1030D000838110BD8182704741EA0203A0F8483025
:1030E000704710B522B1838943EA0103838106E06A
:1030F00083896FEA0104A4B203EA0403838110BD4B
:1031000001894FF6F87201EA0201018170470A460F
:103110004FF0000101894FF68F7301EA030141EA84
:1031200002010181704730B504460D46294620460C
:10313000FFF7EDFF208940F00700208130BD2DE929
:10314000F04104460D4616461F46602D06D13B460B
:10315000012231462046FFF729FE05E03B460122C9
:1031600031462046FFF772FE29462046FFF7CFFF83
:10317000208940F007002081BDE8F08130B50C4681
:103180004FF000010189C9B24FEA036542EA1545D3
:1031900045EA040545EA0101018130BD2DE9F04110
:1031A00005460E46174698464FF0000443463A46F9
:1031B00031462846FFF7E2FF2C894FF6F87004EA03
:1031C000000444F007044FF68F7004EA000444F052
:1031D00070042C81BDE8F081F0B504460D4616461A
:1031E0001F463B46324629462046FFF7C7FF208947
:1031F00040F480402081F0BD0185828270470A46FC
:103200004FF0000101884FF68F7301EA030141EA94
:10321000020101807047F0B50C4615461E464FF07E
:1032200000010A460B460189028B038C4FF6F877A2
:1032300001EA070141EA04014FF6FC4702EA0702EE
:1032400040F2011742EA07024FF6DD7703EA07036F
:103250004FEA065745EA174747EA0303018102830D
:103260000384F0BD0A464FF00001018B4FF68F73C7
:1032700001EA030141EA0201018370470A464FF067
:103280000001018B48F6FF7301EA03014FEA026374
:1032900041EA1341018370470A464FF00001818BD8
:1032A0004FF68F7301EA030141EA020181837047FF
:1032B0000A464FF00001818B48F6FF7301EA0301D3
:1032C0004FEA026341EA13418183704721B10288CA
:1032D00042F08002028005E002884FF67F7302EA26
:1032E00003020280704721B1828842F0040282808A
:1032F00005E082884FF6FB7302EA03028280704782
:1033000021B1828842F00802828005E082884FF66F
:10331000F77302EA03028280704721B1828842F08B
:103320000102828005E082884FF6FE7302EA030202
:10333000828070470A464FF00001018B4FF6F77309
:1033400001EA030141EA0201018370470A464FF096
:103350000001018B4FF2FF7301EA03014FEA0263A0
:1033600041EA1341018370470A464FF00001818B07
:103370004FF6F77301EA030141EA020181837047C6
:103380000A464FF00001818B4FF2FF7301EA0301FF
:103390004FEA026341EA1341818370470A464FF0C6
:1033A0000001018B4FF6FB7301EA030141EA0201C0
:1033B000018370470A464FF00001018B4FF6FF333F
:1033C00001EA03014FEA026341EA134101837047B6
:1033D0000A464FF00001818B4FF6FB7301EA0301AF
:1033E00041EA0201818370470A464FF00001818B58
:1033F0004FF6FF3301EA03014FEA026341EA13414A
:10340000818370470A464FF00001018B4FF67F73AE
:1034100001EA030141EA0201018370470A464FF0C5
:103420000001018BC1F30E014FEA026341EA13412F
:10343000018370470A464FF00001818B4FF67F737E
:1034400001EA030141EA0201818370470A464FF015
:103450000001818BC1F30E014FEA026341EA13417F
:10346000818370470A464FF00001018C4FF6FD73CF
:1034700001EA030141EA0201018470470A464FF064
:103480000001018C4FF6F77301EA030141EA0201E2
:10349000018470470A464FF00001018C4FF6DF733C
:1034A00001EA03014FEA025341EA134101847047E4
:1034B0000A464FF00001018C4FF67F7301EA0301C9
:1034C0004FEA025341EA1341018470470A464FF024
:1034D0000001018C4FF6FF5301EA03014FEA02633A
:1034E00041EA1341018470470A464FF00001018C04
:1034F0004FF2FF7301EA03014FEA026341EA13410D
:10350000018470470A464FF00001018C4DF6FF73AD
:1035100001EA03014FEA027341EA13410184704753
:1035200030B54FF000034FF0010404FA01F4A3B2E8
:10353000048C6FEA0305ADB204EA05040484048C2C
:1035400002FA01F5ADB244EA0504048430BD30B599
:103550004FF000034FF0040404FA01F4A3B2048C0A
:103560006FEA0305ADB204EA05040484048C02FA90
:1035700001F5ADB244EA0504048430BD70B50346DC
:103580004FF000000446184600F118004FF0010506
:1035900005FA01F5ACB21D8C6FEA0406B6B205EA75
:1035A00006051D8409B108290AD100EB61000568F0
:1035B00025F070050560056845EA020505600EE026
:1035C000A1F10405ADB200EB6500056825F4E04506
:1035D000056005684FEA026645EA1645056070BD5C
:1035E00021B1028842F00202028005E002884FF613
:1035F000FD7302EA03020280704721B1028842F0A3
:103600000402028005E002884FF6FB7302EA03021F
:103610000280704721B1828842F08002828005E0FA
:1036200082884FF67F7302EA030282807047028825
:103630004FF6F77302EA03020280028842EA0102AF
:103640000280704782884FF68F7302EA03028280FD
:10365000828842EA01028280704702894FF6F8733D
:1036600002EA03020281028942EA010202817047F2
:1036700002894FF67F7302EA03020281028942EA5D
:10368000010202817047818470478185704781867D
:1036900070470187704781877047A0F840107047D6
:1036A00002884FF6FF4302EA03020280028842EAE0
:1036B0000102028070470146888E70470146088FDC
:1036C00070470146888F70470146B1F84000704747
:1036D0000146888C70470146088D704702464FF0BE
:1036E0000000138A0B4202D04FF0010001E04FF0BE
:1036F000000070476FEA01020282704730B502464F
:103700004FF0000003460446158A05EA0103958937
:1037100005EA01041BB114B14FF0010001E04FF0C4
:10372000000030BD6FEA01020282704710B5044606
:10373000F848844209D101218803FEF7FBFE0021ED
:103740004FF48040FEF7F6FE32E0F348844209D1A0
:1037500001214804FEF7FDFE00214FF40030FEF782
:10376000F8FE25E0ED48844209D101218804FEF7E6
:10377000F0FE00214FF48020FEF7EBFE18E0E84851
:10378000844209D10121C804FEF7E3FE00214FF471
:103790000020FEF7DEFE0BE0E248844208D1012162
:1037A0000805FEF7D6FE00214FF48010FEF7D1FE8B
:1037B00010BD2DE9F04786B005460E464FF00004D7
:1037C000A24600BFA1462746B08900B100BF2F46E0
:1037D0002C8A4CF6FF7004EA0004F08840EA0404E6
:1037E0002C82AC894EF6F31004EA0004B0883189CB
:1037F00040EA0100718940EA010040EA0404AC811A
:10380000AC8A4FF6FF4004EA0004B08940EA0404A1
:10381000AC8201A8FEF7F5FDBE48874202D1DDF873
:1038200010A001E0DDF80CA0A88910F4004F09D029
:103830000AEBCA0000EB0A1031684FEA4101B0FB05
:10384000F1F808E00AEBCA0000EB0A1031684FEA11
:103850008101B0FBF1F84FF06400B8FBF0F04FEAE3
:1038600000144FEA14104FF0640101FB1089A8897D
:1038700010F4004F0AD04FF0320000EBC900B0FB4B
:10388000F1F000F0070040EA04040BE04FF03200D2
:1038900000EB09104FF06401B0FBF1F000F00F00F5
:1038A00040EA04042C8106B0BDE8F0874FF41651BD
:1038B00001604FF000018180C18001814FF00C0157
:1038C00041814FF000018181704710B502464FF0F1
:1038D0000000108A4FF2FF0300EA03000B884C88B7
:1038E00043EA04038C8843EA0403CC8843EA0403D4
:1038F00043EA0000108210BD4FF0000101804180BA
:103900008180C180704721B1828942F40052828156
:1039100005E082894DF6FF7302EA03028281704757
:10392000F0B503464FF00004264625462046A1F593
:1039300010676A3F00D100BF1846C1F3421401F07E
:103940001F064FF0010707FA06F5012C02D100F11E
:103950000C0006E0022C02D100F1100001E000F1A1
:10396000140022B1076847EA0507076003E007680B
:1039700027EA05070760F0BD10B522B1838A43EA44
:103980000103838206E0838A6FEA0104A4B203EA9A
:103990000403838210BD028A4FF6F07302EA030229
:1039A0000282028A42EA01020282704782894FF251
:1039B000FF7302EA03028281828942EA0102828164
:1039C000704721B1828942F00202828105E082893A
:1039D0004FF6FD7302EA030282817047028A4FF6B6
:1039E000DF7302EA03020282028A42EA01020282D1
:1039F000704721B1028A42F48042028205E0028AC5
:103A00004BF6FF7302EA030202827047C1F3080219
:103A10008280704701468888C0F30800704781891A
:103A200041F0010181817047028BD2B20283028B87
:103A300042EA012202837047028B02F47F42028332
:103A4000028B42EA01020283704721B1828A42F06E
:103A50002002828205E0828A4FF6DF7302EA0302C7
:103A60008282704721B1828A42F01002828205E090
:103A7000828A4FF6EF7302EA03028282704721B115
:103A8000828A42F00802828205E0828A4FF6F7734A
:103A900002EA03028282704721B1828942F4004225
:103AA000828103E08289C2F30E028281704721B1D4
:103AB000828A42F40062828205E0828A4FF2FF73BA
:103AC00002EA030282827047828A4FF6FB7302EA9F
:103AD00003028282828A42EA01028282704721B115
:103AE000828A42F00202828205E0828A4FF6FD73EA
:103AF00002EA03028282704702464FF00000B1F5ED
:103B0000007F00D100BF13880B420DD04FF00100A1
:103B10000CE0000000380140004400400048004034
:103B2000004C0040005000404FF00000704701F48E
:103B30000072B2F5007F00D100BF6FEA010202807F
:103B4000704770B502464FF0000423461D461846E4
:103B5000A1F510666A3E00D100BFC1F3421501F025
:103B60001F034FF0010606FA03F3012D03D19689D6
:103B700006EA030308E0022D03D1168A06EA0303CE
:103B800002E0968A06EA03034FEA21244FF0010679
:103B900006FA04F4168806EA04041BB114B14FF0C7
:103BA000010001E04FF0000070BD10B54FF00002C1
:103BB0001346A1F510646A3C00D100BF4FEA2122F0
:103BC0004FF0010404FA02F4A3B26FEA0304048084
:103BD00010BD00000F49086070470E4948607047EB
:103BE0000C49886070474AF6AA200A490860704765
:103BF0004CF6CC4007490860704701464FF0000082
:103C0000044AD2680A4202D04FF0010001E04FF0AE
:103C100000007047003000404FF0000108466D4A38
:103C2000126842F480326B4B1A6000BF694A126816
:103C300002F4003001F1010110B9B1F5A06FF5D126
:103C4000644A126812F4003F02D04FF0010001E014
:103C50004FF00000012842D15F4A126842F0100282
:103C60005D4B1A601A46126822F003021A601A4667
:103C7000126842F002021A60564A5268554B5A6066
:103C80001A4652685A601A46526842F480625A6074
:103C90001A46526822F47C125A601A46526842F45C
:103CA000E8125A601A46126842F080721A6000BF29
:103CB000484A126812F0007FFAD0464A526822F051
:103CC0000302444B5A601A46526842F002025A609C
:103CD00000BF404A526802F00C02082AF9D170472E
:103CE00010B5FFF799FF10BD10B53A48006840F0D5
:103CF00001003849086008464068384900EA010078
:103D00003449486008460068354900EA01003149F5
:103D100008600846006820F4802008600846406873
:103D200020F4FE0048604FF41F008860FFF7D8FFC2
:103D30004FF000602B49086010BD10B54FF0000136
:103D400008460246234B5B6803F00C0121B10429AD
:103D500006D008292CD107E0234B244C23602BE00C
:103D6000214B224C236027E01A4B5B6803F4701050
:103D7000184B5B6803F480324FF0020303EB904072
:103D80002AB91B4B00FB03F3184C23600FE0114BC7
:103D90005B6813F4003F05D0154B00FB03F3134C95
:103DA000236004E0104B00FB03F3104C236003E09E
:103DB0000D4B0E4C236000BF00BF064B5B68C3F386
:103DC00003130C4CE15C094B1B6823FA01F3074C0D
:103DD000236010BD00100240002002400000FFF8E8
:103DE000FFFFF6FE08ED00E000127A00440000201C
:103DF00000093D00480000204FF480500A49486106
:103E000070474FF480500849086170470648C06801
:103E100080F480500449C860704710B54FF40041E9
:103E20000248FEF78DF810BD001001400008014067
:103E30000648804706480047FEE7FEE7FEE7FEE744
:103E4000FEE7FEE7FEE7FEE7FEE7FEE7E93C0008E7
:103E5000310100082DE9F04107460D4616464FF0A6
:103E600000040DE0295D3846FFF7D0FD00BF40217A
:103E70003846FFF741FE0028F9D004F1010084B272
:103E8000B442EFDB2046BDE8F08110B589488A498D
:103E900008604FF480604860FDF755FA00EB800041
:103EA0004FEA80004FF47A71B0FBF1F000F10100AD
:103EB0008149886108460068886008460068C860D3
:103EC0004FF00000486108468069012802D84FF091
:103ED0000200886110BD2DE9F04106460C46774F7F
:103EE000256812E02068401B315C3846FFF78EFDE4
:103EF00000BF80213846FFF7FFFD0028F9D0802160
:103F00003846FFF714FEA5F10105002DEAD1BDE802
:103F1000F0812DE9F04780460E464FF0010A4FF040
:103F20000004D6F8009064480469002C78D04069F9
:103F300028B14FF0020A4FF00000306076E04FF0F9
:103F4000030A5D4804694C4500D94C465A488068CC
:103F50005949C968884211D957482246C168404624
:103F600001F0B4FF5448C06820445349C860084673
:103F70000069A0EB04000861346057E04E48006817
:103F80004D49496808444C49C968A0EB01072546DA
:103F9000BD421ED848482A46C168404601F096FFF7
:103FA0004548C06828444449C860084600684968D4
:103FB00008444149C968884203D83F4800683E49DF
:103FC000C8603D480069A0EB05003B4908613460CA
:103FD00024E039483A46C168404601F077FF364848
:103FE00000683549C86008460069A0EB0700086111
:103FF000A5EB07050A4608EB0700D1682A4601F041
:1040000065FF2D48C06828442B49C86008460069F0
:10401000A0EB0500086105EB0700306006E0FFE754
:104020004FF00009484630604FF0010A5046BDE8A5
:10403000F0872149CA688968491C8A420FD01E4905
:10404000C9681D4A126891420AD11B4909681A4A77
:1040500052681144491E184A9268914200D1704733
:104060001549896808701449896801F10101124AEB
:1040700091601146096901F1010111611146096858
:10408000526811440C4A9268914203D80A4909685F
:10409000094A916008498969074A516100BFDEE712
:1040A0000549496929B104494969A1F10101024A57
:1040B00051617047F0010020F005002000440040ED
:1040C00010B54FF0000400BF07E0F848025D21463C
:1040D000F7A002F095F904F10104062CF5DBF34892
:1040E0008179FDA002F08CF910BD10B54FF00004ED
:1040F00000BF08E0ED48C01D025D2146FAA002F0B5
:104100007FF904F10104092CF4DB10BD10B54FF068
:10411000000400BF08E0E5481130025D2146FBA025
:1041200002F06EF904F10104092CF4DB10BD10B5A6
:104130004FF0000400BF08E0DC481C30025D21465F
:10414000FBA002F05DF904F10104052CF4DB10BDC5
:1041500010B54FF0000400BF08E0D4482430025DE1
:104160002146FBA002F04CF904F10104052CF4DB1C
:1041700010BD10B54FF40061FE48FDF703FF10BD00
:1041800010B54FF40061FB48FDF7FAFE10BD2A2878
:1041900002D02C2814D108E04FF00001F64A11702B
:1041A0004FF00101F54A1170A8E0F549097801F1D5
:1041B0000101F34A11704FF00001F24A11709DE0C5
:1041C000EF490978092976D2DFE801F005393C4248
:1041D000454B4E545A00EB49097806292CD2DFE8AA
:1041E00001F0030A0415052000BF00BFA0F1300153
:1041F000E54A117021E0A0F13001E34A127802EBA8
:10420000820201EB4201A94AD17016E0A0F130010F
:10421000DD4A127802EB820201EB4201A34A1171DE
:104220000BE0A0F13001D84A127802EB820201EBD8
:1042300042019E4A517100E000BF00BF56E09B4919
:10424000887153E09949C91DCE4A127888544DE0CF
:10425000964908744AE095491131CA4A127888543F
:1042600044E09249C87641E090491C31C54A127831
:1042700088543BE08D492431C24A1278885435E095
:10428000C049097806292DD2DFE801F0030A041697
:10429000052100BF00BFA0F13001BB4A117022E030
:1042A000A0F13001B84A127802EB820201EB420120
:1042B0007E4A917017E018E0A0F13001B24A1278FE
:1042C00002EB820201EB4201784A51700BE0A0F14F
:1042D0003001AD4A127802EB820201EB4201734ACF
:1042E000117000E000BF00BF00E000BF00BFA549A3
:1042F000097801F10101A34A117000BF00BF7047A6
:1043000010B504469C48007800286CD09F4800787F
:10431000B8B19F480078082803D12046FFF737FF3F
:104320000EE04FF000009A490870984908704FF06D
:104330000100984908704FF000008F49087000BFD5
:1043400065E02A2C36D02C2C39D1934800794728A7
:1043500007D191484079412803D14FF001008C49A1
:1043600008708D480079532807D18B48407941283F
:1043700003D14FF0020086490870874840795628DB
:1043800003D14FF0040082490870834840794328E4
:1043900003D14FF008007E4908704FF001007B49BF
:1043A00008707C4908704FF0000075490870754925
:1043B000087017E04FF000006F49087012E076486F
:1043C0007449097844547348007800F10100714938
:1043D000087008460078062803DD4FF000006649A3
:1043E000087000BF13E0242C11D16B4804704FF00B
:1043F000010061490870674908704FF00000634987
:104400000870634908705E4908705E49087010BD05
:104410005A48007830B14FF00000584908704FF00A
:10442000010070470020FCE710B54FF0000416E0D3
:1044300008E05A480078012804D14FF0000057499D
:10444000087010BD20215648FFF756FB0028F0D019
:104450005348FFF7DFFAC4B22046FFF751FFFFF7DA
:10446000D7FF0128E4D100BFEBE72DE9F0478CB07E
:1044700080464FF000090D48007800F16400069076
:104480000A484078A0F1010005900848807804901F
:104490000648C078039005480079029003484079A7
:1044A00001904846099001A87CE000000C0600201D
:1044B000675F7374475053524D43446174612E5586
:1044C00054434461746554696D655B25645D203DAA
:1044D0002025640D0A000000537461747573203D3B
:1044E0002025630D0A000000675F73744750535224
:1044F0004D43446174612E4C617469747564655BED
:1045000025645D203D2025630D0A0000675F7374FC
:10451000475053524D43446174612E4C6F6E67692E
:10452000747564655B25645D203D2025630D0A007C
:10453000675F7374475053524D43446174612E5307
:10454000706565645B25645D203D2025630D0A0070
:10455000675F7374475053524D43446174612E43F7
:104560006F757273655B25645D203D2025630D0AC0
:1045700000000000001001406500002066000020DF
:10458000630000206400002067000020620000201B
:104590005800002061000020590000206800002021
:1045A0000038014001F042FCC8F80000FFF788FD28
:1045B0006D48807AA0F130006B49497AA1F1300151
:1045C00001EB810100EB41026748007AA0F1300065
:1045D0006549C979A1F1300101EB810100EB41008E
:1045E000C0EB001002EB800147F2305001FB00F1FC
:1045F0005D48007BA0F1300040F2771200FB02F032
:1046000001EBC0015848407BA0F13000C0EB001026
:1046100000EB800001EB80015348807BA0F130006B
:10462000C0EB001001EB40014F48C07BA0F130000F
:1046300000EB40000844C8F804004B48007C5328B5
:1046400005D1D8F80400C0F10000C8F804004648BD
:10465000407DA0F130004449097DA1F1300101EB1A
:10466000810100EB41024048407CA0F130004FF056
:10467000640100FB01F13C48807CA0F1300000EBBC
:10468000800001EB40013848C07CA0F130000844B4
:10469000C0EB001002EB800147F2305001FB00F14B
:1046A0003148C07DA0F1300040F2771200FB02F0EB
:1046B00001EBC0012C48007EA0F13000C0EB0010DF
:1046C00000EB800001EB80012748407EA0F1300024
:1046D000C0EB001001EB40012348807EA0F13000C8
:1046E00000EB40000844C8F808001F48C07E572867
:1046F00005D1D8F80800C0F10000C8F808001A4831
:104700001C3001F074FC824601F0EEFC0446174AAE
:10471000174B01F079FC064601F0F7FC8146B9F130
:10472000FF0F04D94FF0FF0088F80C0001E088F873
:104730000C900D48243001F05AFCA8F80E000A48ED
:104740008079412803D008488079612804D14FF04E
:10475000010088F8100003E04FF0000088F8100016
:104760000CB0BDE8F08700000C0600209A999999DA
:104770009999FD3F2DE9F04106460F4614464FF04A
:104780000005B046304601F0E5FBA04202D2002011
:10479000BDE8F08108E03946404601F0D2FB05460D
:1047A00005B905E005F101082000A4F10104F2D1EA
:1047B00000BF2846ECE72DE9F04705460F46904636
:1047C000384601F0C7FB8246384601F0C3FBA8EB30
:1047D000000000F101064FF00009002E11DD4C46EB
:1047E00008E028195246394601F0BCFB00B903E045
:1047F00004F10104B442F4DB00BFB44201DA05EB7A
:1048000004094846BDE8F087F0B505460E464FF06E
:1048100000042F469A4201D90020F0BD1AE04FF063
:10482000000105E0785CB04200D103E001F1010134
:104830009942F7D300BF994206D207EB010401F178
:104840000100A3EB000301E04FF0000404B905E010
:1048500004F101071000A2F10102E0D100BF2046DF
:10486000DBE770B503460C464FF000000546FD4EF1
:10487000F6B194421CD901460FE05E5C302E05DB98
:104880005E5C392E02DC05F1010501E04FF0000508
:10489000954200D303E001F10101A142EDD300BF35
:1048A000954205D303EB0106A6EB020606F10100D3
:1048B00070BD30B502460B464FF00000044601467D
:1048C00022E0555C412D06DB555C462D03DC555C32
:1048D000A5F1370412E0555C612D06DB555C662DB1
:1048E00003DC555CA5F1570408E0555C302D05DB71
:1048F000555C392D02DC555CA5F130044FEA0010FF
:1049000040EA040001F101019942DAD330BD10B54B
:104910004FF40071D448FDF733FB10BD10B54FF4D0
:104920000071D148FDF72EFB10BD10B50221CF4814
:10493000FDF728FBC820FCF786FD0221CB48FDF7D8
:104940001FFBC820FCF77FFD10BD10B54FF4806140
:10495000C74801F0D4FA10BD10B54FF48071C548B6
:1049600001F0CDFA10BD2DE9F84F06460F469046EE
:1049700099464D46DFF8F8A24FF0000BCDF80080C5
:10498000009898B1BCA001F03BFD5C4605E0315DAC
:10499000BEA001F035FD04F1010400988442F6D375
:1049A000BBA001F02DFDBBA001F02AFD69463046F9
:1049B000FFF791FA002F3ED036E0A5F10100C5B215
:1049C0004FF4806000904FF03200FCF73CFD6946E8
:1049D0005046FFF79EFA83460098C8B1BBF1030F1B
:1049E00016D1B1A0009901F00BFD4FF0000406E0D4
:1049F0001AF80410A5A001F003FD04F101040098C9
:104A00008442F5D3A2A001F0FBFCAEA001F0F8FCBB
:104A1000009848B1BBF1030F06D139465046009AC1
:104A2000FFF7C9FE00B101E0002DC6DC00BF15B9DB
:104A30000120BDE8F88F0020FBE72DE9FF4F81B092
:104A4000804689461D46DDF838A00F9E884F4FF0FE
:104A5000000B039800900098A0B187A001F0D0FC53
:104A60005C4606E018F8041088A001F0C9FC04F1C7
:104A7000010400988442F5D385A001F0C1FC85A013
:104A800001F0BEFC69464046FFF725FA44E0A6F176
:104A90000100C6B24FF4806000904FF03200FCF786
:104AA000D2FC69463846FFF734FA83460098B8B11D
:104AB000BBF1030F14D189A001F0A2FC4FF0000458
:104AC00005E0395D71A001F09BFC04F10104009840
:104AD0008442F6D36EA001F093FC6EA001F090FC2E
:104AE0000098A0B1BBF1030F11D105B12F60BAF14D
:104AF000000F02D00098CAF80000B9F1000F05D0ED
:104B00004946384601F007FA08B107E006E01EB949
:104B1000012005B0BDE8F08F002EB8DC00BF0020FA
:104B2000F7E77FB504464FF000000390029070480D
:104B300001F010FA0546FFF708FF282002A903AB91
:104B40002A46CDE900106B496948FFF776FFA8B9FE
:104B50000F22DDE90210FFF784FE6749086008466E
:104B6000006810B9012004B070BD2CB10F2262485A
:104B70000168204601F0AAF90020F4E70120F2E7DD
:104B8000F0B585B005464FF000063046049003901E
:104B900004465A4801F0DEF90646FFF7D6FE282003
:104BA00003A904AB3246CDE9001055A15348FFF7E5
:104BB00044FF002855D101222221DDE90330FFF70F
:104BC00023FE044614B9012005B0F0BDECB16078B5
:104BD0008DF80800A0788DF8090002A801F0BAF954
:104BE0000746394602A8FFF764FEA870E0788DF802
:104BF000080020798DF8090002A801F0ABF90746FA
:104C0000394602A8FFF755FEE87003222221DDE9AC
:104C10000330FFF7F9FD04460CB90120D4E7ECB1ED
:104C200060788DF80800A0788DF8090002A801F0DE
:104C300091F90746394602A8FFF73BFE2871E07854
:104C40008DF8080020798DF8090002A801F082F99A
:104C50000746394602A8FFF72CFE687102222C2174
:104C600052E06DE0555F000800100140000801406F
:104C700038060020380A002047534D5F53656E64A4
:104C800041542073656E640D0A0000002563000026
:104C90000D0A000047534D5F53656E644154206414
:104CA0006F6E650D0A00000047534D5F53656E64DB
:104CB000415420726563762025642062797465739F
:104CC0000D0A000047534D5F53656E6441542072D6
:104CD00065637620646F6E650D0A000047534D5F73
:104CE00053656E64415420726563760D0A000000BE
:104CF00071690008976700086C000020F9690008D6
:104D00004352454700000000DDE90330FFF77CFD1A
:104D100004460CB9012057E714B114F8010C68706F
:104D200001222C21DDE90330FFF76EFD04460CB9AA
:104D3000012049E714B114F8010C2870002043E762
:104D4000012041E770B50446FD4801F003F905462E
:104D5000FFF7FBFD04232A46FA49F948FFF703FE53
:104D6000C0B901223A21F848FFF704FDF74908606D
:104D70000846006808B9012070BDF448006800F1D9
:104D80000100F24908600846006801F030F920701F
:104D90000020F1E70120EFE7F8B504464FF00005E9
:104DA000284600900646FFF7D7FD6846FFF7CAFF82
:104DB0009DF80000A0421BD0E548E6490860224665
:104DC000E549E448006801F02BFBE248006801F087
:104DD000C1F8054602E0052E00D908E004232A4662
:104DE000D849DC480068FFF7BEFD0028F3D100BFBA
:104DF000F8BD2DE9F0414FF000052F462C464FF04D
:104E00000106A046D54801F0A5F80746FFF79DFD2D
:104E100019E004F101044FF004033A46C949CF48B0
:104E2000FFF7A1FD064616B94FF001080DE005F1A8
:104E30000100C5B2022D03DDFFF777FD4FF000053D
:104E40001E20FCF700FB0F2CE3D300BF4FF0000443
:104E50004FF00106C24801F07DF80746FFF775FDE7
:104E60000EE004F101044FF004033A46B549BC4892
:104E7000FFF779FD064606B904E01E20FCF7E3FAC9
:104E8000052CEED300BF4046BDE8F0812DE9F0418E
:104E90004FF000052C464FF001062746B14801F0BF
:104EA00059F80546FFF751FD10E004F101044FF0F9
:104EB0000A032A46AC49AB48FFF755FD064616B92A
:104EC0004FF0010704E01420FCF7BDFA062CECD3E8
:104ED00000BF3846BDE8F0812DE9FF4104464FF0A0
:104EE000000635464FF00107A84628460390029079
:104EF0009E4801F02FF80646FFF727FD4EE005F12A
:104F000001054FF0140002A903AB3246CDE90010B1
:104F10008C499648FFF791FD0746002F3AD10122B0
:104F20002C210398FFF726FC914908600846006889
:104F300008B9B84632E08E480068A0F102008C49FA
:104F40000860084600680078302804DB08460068DE
:104F50000078392806DD864800684078A0F13000E6
:104F600020700EE0824800684078A0F1300080494F
:104F700009680978A1F1300101EB810100EB4100E2
:104F800020702078022805DB20781F2802DC4FF0F3
:104F9000010805E01420FCF756FA00BF142DAED32B
:104FA00000BF404604B0BDE8F0812DE9FF4704464C
:104FB0004FF0000635464FF00107A84628460390FB
:104FC00002906C4800F0C6FF0646FFF7BEFC32E0D8
:104FD00005F101054FF0040002A903AB3246CDE90B
:104FE000001058496348FFF728FD07461FBB012200
:104FF0002C210398FFF7BEFB5F4908600846006854
:10500000C8B10846006810F8010CA0F1300020700B
:105010000846006800F1010008600846006800F0DA
:10502000E6FF00EB400909EBD970C0F34F00608048
:105030004FF0010801E0042DCAD300BF404604B080
:10504000BDE8F08770B504464FF000063546FFF71F
:1050500083FC3F484949086022464949474800685F
:1050600001F0DEF94548006800F074FF064604E0F0
:1050700005F10105052D00D908E028233246314904
:105080003E480068FFF76FFC0028F1D100BF70BDFB
:105090002DE9FF414FF000052C464FF00106274651
:1050A000204603900290374800F054FF0546FFF772
:1050B0004CFC2AE004F101044FF0280002A903ABE4
:1050C0002A46CDE90010AFF2C8312E48FFF7B5FCF3
:1050D0000646BEB901222C21DDE90230FFF794FB20
:1050E000294908600846006860B1084600684078B1
:1050F000312804D0084600684078352802D14FF0A6
:10510000010704E01420FCF79EF90A2CD2D300BF5B
:10511000384604B0BDE8F0812DE9FF4105464FF067
:10512000000634464FF00107A04620460390029047
:10513000164800F00FFF0646FFF707FC4DE00000A1
:105140008868000897670008380600207000002073
:10515000380A00207400002079680008936700086E
:10516000B8670008D86700089A670008BE6700089B
:1051700078000020676900087C0000208000002083
:10518000036A0008F969000884000020D06700085D
:1051900004F101044FF00A0002A903AB3246CDE945
:1051A0000010F649F648FFF748FC074697B90F226A
:1051B000DDE90210FFF755FBF24908600846006878
:1051C00040B10F2208460168284600F07FFE4FF0EC
:1051D000010804E01420FCF736F9042CD8D300BFF2
:1051E000404604B0BDE8F0812DE9F04786B00646A0
:1051F0004FF00004A04627464FF00109A246204682
:10520000059004900546E04800F0A4FE8046FFF7B4
:105210009CFB7AE007F101074FF0280004A905ABD9
:105220004246CDE90010D549D748FFF706FC814634
:10523000B9F1000F66D10F22DDE90410FFF711FB71
:10524000D24908600846006800285BD04FF000048F
:1052500006E0CE480068005D03A9085504F101048A
:10526000032CF6D34FF000008DF80F00044608E041
:10527000C648006800F10300005D02A9085504F16A
:105280000104022CF4D34FF000008DF80A0003A8AB
:1052900000F0ADFE05464FF0FF00B5FBF0F03070BA
:1052A000FF2D09D94FF0FF00B5FBF0F100FB1150C5
:1052B000A0F10100707006E04FF0FF00B5FBF0F1C7
:1052C00000FB1150707002A800F091FE05464FF0EF
:1052D000FF00B5FBF0F0B070FF2D09D94FF0FF00D3
:1052E000B5FBF0F100FB1150A0F10100F07006E0F9
:1052F0004FF0FF00B5FBF0F100FB1151F1704FF0E2
:10530000010A04E01420FCF79EF8042F82D300BFAA
:10531000504606B0BDE8F0872DE9FF414FF000058B
:105320002C464FF0010627462046039002909848ED
:1053300000F010FE0546FFF708FB30E004F1010421
:105340004FF0280002A903AB2A46CDE9001091A135
:105350008F48FFF772FB0646F6B901223A21DDE9D4
:105360000230FFF751FA8D4908600846006898B18D
:1053700000BF8A48006800F10100884908600846BB
:10538000006800782028F4D00846006800783128AA
:1053900002D14FF0010704E01420FCF754F8052C6B
:1053A000CCD300BF384604B0BDE8F0812DE9F04110
:1053B0004FF000052C464FF001062746FFF7CCFAC8
:1053C00077487849086078A279497648006801F002
:1053D00027F87448006800F0BDFD0546FFF7B5FAF0
:1053E00011E004F101044FF00A032A4663496D48B5
:1053F0000068FFF7B8FA064616B94FF0010704E057
:105400001420FCF720F8052CEBD300BF3846BDE88C
:10541000F0812DE9F0414FF000052C464FF00106D8
:105420002746644800F096FD0546FFF78EFA10E027
:1054300004F101044FF078032A4650495D48FFF714
:1054400092FA064616B94FF0010704E01420FBF764
:10545000FAFF052CECD300BF3846BDE8F0812DE9FA
:10546000F0414FF000052C464FF001062746524808
:1054700000F070FD0546FFF768FA10E004F1010442
:105480004FF014032A464DA14B48FFF76CFA06462D
:1054900016B94FF0010704E01420FBF7D4FF052CE8
:1054A000ECD300BF3846BDE8F08130B591B004467A
:1054B0004FF03302214604A800F008FD4FF000052C
:1054C000284603900290FFF747FA35483C490860A8
:1054D0000846006810B9012011B030BD0CA804AB1B
:1054E000421D384900903648006800F099FF344862
:1054F000006800F02FFD05464FF0140002A903AB31
:105500002A46CDE9001030492D480068FFF795FA8A
:1055100078B92E49DDE90220FFF74DF908B10020E6
:10552000DAE72BA1DDE90220FFF745F908B10020F9
:10553000D2E70120D0E770B58EB04FF000044FF0F5
:105540000105264626A227A10DF1290000F068FFDB
:1055500025A224A101A800F063FF29A221A109A886
:1055600000F05EFF53E004F1010401A8FFF79DFF86
:10557000054615B94FF001064BE045E09767000876
:10558000D067000888000020716900088C000020A6
:10559000256A000843474154540000009000002051
:1055A000380A00209400002022434D4E455422002A
:1055B000196A000861680008306A00082E000000BF
:1055C00098000020A3680008AB670008A0670008E7
:1055D000414C524541445920434F4E4E454354009F
:1055E00054435000257300006C6B662E62726F612D
:1055F000646E6574776F726B2E6E657400000000C8
:1056000038383838000000001420FBF71CFF042C49
:10561000A9D300BF30460EB070BD2DE9F347074651
:10562000DFF8F883FFF798F9FD48FE490860FE4966
:10563000FC48019A006800F0F3FEFA48006800F0A8
:1056400089FC81464FF010034A464FF03E01F54871
:105650000068FFF788F918B901A93846FEF73BFC46
:105660004FF00A0632E04FF4806001904FF03200B4
:10567000FBF7E9FE01A9E948FEF74BFC0446019857
:10568000C8B1032C17D1E9A000F0BAFE4FF0000515
:1056900007E0E248415DAFF60C2000F0B1FE05F1F5
:1056A000010501988542F4D3AFF61C2000F0A8FE56
:1056B000E4A000F0A5FE019840B1032C06D1E7A1BB
:1056C0004046019AFFF777F800B103E0A6F1010028
:1056D0000600C8D100BF16B90120BDE8FC87002034
:1056E000FBE72DE9FF5F824616461F46DFF82C8355
:1056F000FFF732F9CA48DB490860CB49D948019A1B
:10570000006800F08DFED748006800F023FC834657
:105710004FF010035A464FF03E01D2480068FFF7A1
:1057200022F918B901A95046FEF7D5FB4FF00A0936
:1057300038E04FF4806001904FF03200FBF783FEB9
:1057400001A94046FEF7E5FB04460198002818D061
:10575000032C16D1C4A000F053FE4FF0000506E064
:1057600018F80510C7A000F04BFE05F101050198DF
:105770008542F5D3AFF6E82000F042FEC2A000F06B
:105780003FFE019870B1032C0CD10EB1C6F8008019
:105790000FB101983860B1A14046019AFFF70BF8AC
:1057A00000B104E0A9F101005FEA0009C1D100BF26
:1057B000B9F1000F03D1012004B0BDE8F09F002033
:1057C000FAE72DE9F84306464FF00507DFF8D482E3
:1057D0003CE04FF4806000904FF01400FBF733FE84
:1057E0006946B048FEF795FB04460098002819D09A
:1057F000032C17D1ACA000F003FE4FF0000507E02A
:10580000A848415DAFF67C3000F0FAFD05F10105D6
:1058100000988542F4D3AFF6883000F0F1FDA8A0DF
:1058200000F0EEFD22463946ABA0009B00F0E8FDFB
:10583000009858B1032C09D131464046009AFEF732
:10584000BAFF18B1ABA000F0DBFD03E0A7F1010047
:105850000700BED100BF0120BDE8F8837FB5044634
:105860004FF0000003900290A84800F073FB05463B
:10587000FFF76BF8042002A903AB2A46CDE900101C
:10588000A349A248FFF7D9F8002826D1A1A1DDE954
:105890000220FEF790FFA24908600846006830B178
:1058A0004FF0060020704FF0000004B070BD9DA1C5
:1058B000DDE90220FEF77FFF18B14FF000002070F5
:1058C000F3E79BA1DDE90220FEF775FF28B14FF059
:1058D000010020704FF00000E7E74FF0FF0020705C
:1058E000217896A000F08CFD0120DEE710B59A48E3
:1058F00000F030FB04464FF00403224684499648EA
:10590000FFF731F808B9002010BD0120FCE710B501
:10591000924800F01FFB04464FF0040322467C49E6
:105920008E48FFF720F808B9002010BD0120FCE7E1
:1059300010B58B4800F00EFB04464FF004032246DE
:1059400088A18748FFF70FF808B9002010BD012093
:10595000FCE72DE9F0414FF000052C464FF0010621
:105960002746824800F0F6FA0546FEF7EEFF10E003
:1059700004F101044FF014032A4665497B48FEF701
:10598000F2FF064616B94FF0010704E01420FBF7BA
:105990005AFD042CECD300BF3846BDE8F0812DE958
:1059A000F0414FF000052C464FF0010627467048A5
:1059B00000F0D0FA0546FEF7C8FF10E004F101043C
:1059C0004FF014032A4652496948FEF7CCFF0646B9
:1059D00016B94FF0010704E01420FBF734FD042C46
:1059E000ECD300BF3846BDE8F0817FB54FF000052D
:1059F000284603900290FEF7A8FFFEF7ADFF084887
:105A00005C49086002225C495A48006800F008FDC1
:105A10005848006800F09EFA0546AFE038060020BE
:105A2000380A00209C000020C968000847505253E3
:105A30005F53656E644461746120726563760D0A1C
:105A400000000000475052535F53656E6444617418
:105A50006120646F6E650D0A0000000053454E44DE
:105A6000204F4B00A0000020475052535F53656EFB
:105A700064446174615F72737020726563760D0AAD
:105A80000000000025632D00475052535F53656EA0
:105A900064446174615F72737020646F6E650D0A97
:105AA00000000000380B0020475052535F526563DE
:105AB000656976654461746120726563760D0A00DC
:105AC000475052535F5265636569766544617461FE
:105AD00020646F6E650D0A00256420726574466C43
