:020000040800F2
:10000000A8170020E93F0008F5120008F7120008C1
:10001000FB120008FF120008031300080000000094
:1000200000000000000000000000000007130008AE
:1000300009130008000000000B1300082F1300082C
:10004000034000080340000803400008A91300080B
:100050000340000803400008034000080340000874
:100060000340000803400008034000080340000864
:100070000340000803400008034000080340000854
:100080000340000803400008034000080340000844
:100090000340000803400008034000080340000834
:1000A0000340000803400008034000080340000824
:1000B000E713000803400008071400080340000885
:1000C0000340000803400008034000080340000804
:1000D00003400008034000086B1300088D1300085C
:1000E00009140008B7130008034000080340000883
:1000F00003400008034000080340000803400008D4
:1001000003400008034000080340000803400008C3
:1001100003400008034000080340000803400008B3
:1001200003400008034000080340000803400008A3
:10013000DFF80CD006F058FC00480047A50A00087C
:10014000A817002010B5FEA006F07EFC4FF00004BA
:1001500006E0FD48015DFDA006F076FC04F1010417
:100160000F2CF6D3FAA006F06FFCFAA006F06CFC98
:100170004FF0000406E0FB48015DFBA006F064FCC4
:1001800004F10104202CF6D3F1A006F05DFC10BDB3
:1001900070B50546F6A006F057FC4FF0000406E0E7
:1001A000FB48015DF0A006F04FFC04F10104AC42F5
:1001B000F6D3E7A006F048FC70BD10B5F5A006F038
:1001C00043FC4FF0000406E0F448015DE6A006F0B1
:1001D0003BFC04F10104042CF6D3DDA006F034FC52
:1001E000EFA006F031FC4FF0000407E0EB48001DE3
:1001F000015DDDA006F028FC04F10104042CF5D318
:10020000D3A006F021FCE8A006F01EFC4FF000048D
:1002100007E0E2480830015DD3A006F015FC04F1C8
:100220000104042CF5D3CAA006F00EFCDB48017BC8
:10023000DFA006F009FCE1A006F006FC4FF0000488
:1002400007E0D6480E30015DC7A006F0FDFB04F1C3
:100250000104022CF5D3BEA006F0F6FBCF48017CCA
:10026000D8A006F0F1FB10BD10B54FF00100D94940
:100270000880D9490870D948D94908604FF0000072
:10028000D8490870D8490870D8490870D84908700A
:10029000D8490870D8484FF0000101608180D748E4
:1002A0000160D74801608180D64801604FF0140199
:1002B000BA4806F048F95621D34806F044F90F2110
:1002C000A14806F040F90F21D04806F03CF90F2173
:1002D000CF4806F038F92021A24806F034F98021F1
:1002E000AB4806F030F910BD70B54FF0000425465C
:1002F0004FF0010600BF0AE0142001F0C2F8002010
:1003000003F0E5FD08B905F1010504F10104042C31
:10031000F2DB032D02D94FF0010601E04FF0000699
:10032000304670BD70B54FF000052C46264607E0FC
:100330004FF070009649085504F1010406F10106DA
:10034000022EF5D34FF0A0009149085504F10104A5
:100350004FF00000085504F10104AB48007800EBB1
:10036000400101EBC00000F103008949085504F188
:100370000104984800884FEA1020085504F1010450
:1003800094480088085504F101049F4800780855F6
:1003900004F101044FF0000673E04FF000050FE098
:1003A00006EB4601984800F1020000EB8100C5F120
:1003B0000101405C7649085504F1010405F101058D
:1003C000022DEDD34FF0000511E006EB46018E48FB
:1003D00000F1020000EB810000F10200C5F1010113
:1003E000405C6B49085504F1010405F10105022D3B
:1003F000EBD34FF0000511E006EB4601824800F117
:10040000020000EB810000F10400C5F10101405C35
:100410005F49085504F1010405F10105022DEBD3F4
:100420004FF0000511E006EB4601774800F10200AD
:1004300000EB810000F10600C5F10201405C544967
:10044000085504F1010405F10105032DEBD306EB7A
:1004500046016D4800F1020000EB8100807A4C49B2
:10046000085504F1010406EB4601674800F102005B
:1004700000EB8100C07A4649085504F1010406F1F9
:10048000010661480078B04287D85F48007800EBE9
:10049000400101EBC0000830A04202D05DA006F090
:1004A000D3FA70BD70B54FF0000400BF254607E0D9
:1004B0004FF070003649085504F1010405F10105BB
:1004C000022DF5D34FF002003149085504F1010423
:1004D0004FF00000085504F101044FF025000855C5
:1004E00004F101043B4800884FEA1020085504F14C
:1004F000010438480088085504F101044FF0000554
:1005000009E0C5F103002549085C2149085504F1BB
:10051000010405F10105042DF3D34FF000050BE0B4
:10052000C5F103011D4800F10400405C184908555D
:1005300004F1010405F10105042DF1D376E000007A
:10054000494D45493A0000005E01002025632D0019
:100550000D0A00000D0A4C4F47494E204D53473AB3
:10056000000000008B010020307825782D0000006D
:100570000D0A204750532C53544154494F4E206F7D
:100580007220414C41524D204D53473A000000002B
:10059000AB0100205554433A00000000F400002055
:1005A0004C4154493A0000004C4F4E47493A000034
:1005B00053504545443A2025640D0A00434F555297
:1005C00053453A005354415455533A2025640D0A7B
:1005D0000000000000000020020000208051010007
:1005E0000400002008000020090000200A0000206C
:1005F0000B0000200C0000200D0000201400002043
:10060000180000201E000020080100206D010020BD
:100610007C0100205061636B53746174696F6E4D8F
:100620007367204552524F52210A00004FF00005D7
:1006300009E0C5F10301FA48405CFA49085504F1A4
:10064000010405F10105042DF3D3F5480838007BBA
:10065000F449085504F101044FF000050BE0C5F121
:100660000101EF4800F10600405CEE49085504F135
:10067000010405F10105022DF1D34FF0000507E05B
:10068000E948405DE749085504F1010405F1010519
:10069000022DF5D34FF0000508E0E348801C405DD3
:1006A000E049085504F1010405F10105022DF4D3D8
:1006B0004FF0000507E0DD48405DDA49085504F1D8
:1006C000010405F10105022DF5D34FF00000D549D5
:1006D000085504F10104054608E0D448801C405D3B
:1006E000D049085504F1010405F10105022DF4D3A8
:1006F000CB480838007CCB49085504F101044FF081
:100700000000085504F10104C548A0F10800007C70
:10071000085504F101044FF0000509E0C5F101019D
:10072000C348405CBF49085504F1010405F10105C7
:10073000022DF3D34FF00000BA49085504F101042B
:10074000BC480078085504F101044FF0000507E0AB
:10075000B948405DB349085504F1010405F10105AC
:10076000022DF5D34FF0000508E0B348801C405D32
:10077000AC49085504F1010405F10105022DF4D33B
:100780002A2C02D0ADA006F05FF970BD70B54FF015
:100790000004254607E04FF07000A249085504F117
:1007A000010405F10105022DF5D34FF004009D4928
:1007B000085504F101044FF00000085504F101044C
:1007C0004FF01C00085504F10104A14800884FEACD
:1007D0001020085504F101049D480088085504F1D3
:1007E00001044FF000050BE0C5F103008C49A1F1B5
:1007F0000801085C8B49085504F1010405F1010565
:10080000042DF1D34FF000050BE0C5F1030184483E
:10081000A0F10400405C8349085504F1010405F18E
:100820000105042DF1D34FF0000509E0C5F10301E6
:100830007B48405C7B49085504F1010405F1010542
:10084000042DF3D376480838007B7649085504F127
:1008500001044FF000050BE0C5F10101704800F103
:100860000600405C6F49085504F1010405F10105DB
:10087000022DF1D34FF0000507E06B48405D694958
:10088000085504F1010405F10105022DF5D34FF0DF
:10089000000508E06448801C405D6249085504F189
:1008A000010405F10105022DF4D34FF0000507E026
:1008B0005E48405D5B49085504F1010405F10105FE
:1008C000022DF5D34FF000005649085504F10104FC
:1008D000054608E05548801C405D5249085504F122
:1008E000010405F10105022DF4D34D480838007CC0
:1008F0004C49085504F101044FF07100085504F10A
:100900000104212C02D053A006F09EF870BD70B5F2
:1009100004460D4602EBD2764FEA660606F1010662
:100920009E4201DB0F2A01D0002070BD207800F02C
:100930000F002870104602EBD0764FEA66010FE0F8
:1009400004EB410010F8010C4FF0F00606EA00102D
:1009500014F8116006F00F0630446854A1F101014B
:100960000029EDD10120E0E77FB54FF000042546D6
:1009700007E04FF070003D49085504F1010405F10E
:100980000105022DF5D34FF001003849085504F157
:1009900001044FF00000085504F101044FF00C0071
:1009A000085504F101042A4800884FEA1020085530
:1009B00004F1010426480088085504F101044FF0B1
:1009C00008034FF00F0269462948FFF7A0FF40B91E
:1009D0004FF00000009001900290039025A006F0D7
:1009E00033F84FF0000507E01DF805001F490855D2
:1009F00004F1010405F10105082DF5D34FF00100C4
:100A00001A49085504F101044FF02000085504F17B
:100A10000104112C02D01DA006F016F87FBD0000C5
:100A2000FC000020AB0100201E0000201A00002066
:100A3000160000200C0000200F0000205061636BA6
:100A40004770734D7367204552524F52210A000080
:100A5000000000205061636B416C61726D4D7367E3
:100A6000204552524F52210A000000008B01002005
:100A70005E010020494D45492070726F63657373B4
:100A8000204552524F52210A000000005061636B12
:100A90004C6F67696E4D7367204552524F52210A61
:100AA0000000000088B04FF00006B146B246B346E1
:100AB0003046079004464FF0010006904FF00000CA
:100AC00005900746804604900390054602904FF437
:100AD000407000F09BFF00F019FF03F065FE04F08A
:100AE00031FA00F0E8FC01214FF0C05001F0F7FCB2
:100AF00000F0D2FD00F05EFD00F037FD00F072FD69
:100B000000F0A4FE002003F080F900F0A4FE012113
:100B1000002003F090F900F0C6FE012003F08CFAEB
:100B200000F0D9FE012240F22551FE4802F0DCFE21
:100B3000FFF79AFBDCE14FF00006B146B246B34640
:100B400030460790059007468046FFF7CDFBF649F3
:100B500008700846007848B908460078F3490978D3
:100B6000884203D04FF00100F1490870EE48007848
:100B7000EE490870EF480378ED480278EA480178BA
:100B8000ED4805F061FFE8480078012807D0E84803
:100B90000078012803D0E748007801287DD1E44897
:100BA000007801283AD003F0F8FDE4A005F04CFFEE
:100BB000C82000F054FC1421E54805F0C4FCFFF700
:100BC000FCFA27E009F1010000F0FF0900F0FBFD4D
:100BD00003F03EFF079000F000FE0798012815D1B2
:100BE0004FF00000DB490870DBA005F02DFFDF4867
:100BF000807941280AD1D64803F04BFFFFF7DDFA90
:100C000003F0D2FDDAA005F01FFF06E04FF47A7082
:100C100000F025FCB9F1120FD4DB00BF04F08BF912
:100C2000DBA005F011FFC82000F019FC4FF0000A0E
:100C3000544611E10AF1010000F0FF0A04F0F6FB4E
:100C4000044604B908E104F03EFC044604B903E19B
:100C5000D44804F05EFC04461CB9D3A005F0F4FEB1
:100C6000FAE004F032FD044604B9F5E0022004F095
:100C700006FDD44804F0A0FAD34804F06AFD044607
:100C8000D24804F0CDFD04464FF0000004F0A1FB73
:100C900004F05EFE04460CB9DEE0E2E0CC4804F06D
:100CA000A1FC0446CB4805F0BBFA04464FF0000B0C
:100CB0005C46C7E00BF1010000F0FF0B05F04BF9BB
:100CC00002A805F0ECF804F08DFE044604B9B9E082
:100CD00002A805F0E4F804F0B8FE044602A805F006
:100CE000DEF804F0D8FE044602A805F0D8F804F0B7
:100CF0003EFF044604B9A5E002A805F0D0F84FF085
:100D00000100B54908804FF000060690FFF72CFE61
:100D1000FFF718FA34E006F1010603AB04AA4FF01E
:100D20001101AE4804F0FBFF0690069828BBACA169
:100D3000DDE9032004F053F80546D5B1E8794FEA20
:100D40000060297A00EB0140697A00EB0120A97A62
:100D500000EB0108B8F13C0F05D9A248804502D24A
:100D6000A148C0F80080A0480168A0A005F06CFE72
:100D700002E0A4A005F068FE04E0AAA005F064FE6D
:100D8000052EC8D300BF9448008800F101009249A5
:100D900008804FF000064FF001000690644800788C
:100DA00001280BD1FFF7F2FC4FF021074FF00100B3
:100DB00060490870A3A005F047FE1CE06448007C71
:100DC000012807D1FFF76EFB4FF02A07A1A005F01D
:100DD0003BFE0CE0FFF7A6FA7E48007800EB4001EE
:100DE00001EBC00000F108079EA005F02DFE4FF0BA
:100DF0000000504908703846FFF7CAF91AE006F1BA
:100E0000010639469C4804F024FF0690069888B9EC
:100E10004FF00100059046480078012807D1454869
:100E20000078012803D14FF000004149087005F017
:100E300081F801E0052EE2D300BF0598012800D11A
:100E400004E000BFBBF1040FFFF634AF00BF05980C
:100E5000012800D104E000BFBAF1040FFFF6EAAEAA
:100E600000BF03F0A1FC04F06DF8FFF73DFA2E4936
:100E700008700846007848B9084600782B49097878
:100E8000884203D04FF001002949087026480078B5
:100E900026490870012001F00EFC00BF012001F07E
:100EA000FDFB0028FAD023480078012803D0204811
:100EB000007801280AD101F09BFB3C30019001F041
:100EC000BCFB3C216DA005F0BFFD09E001F090FBEB
:100ED0007830019001F0B1FB78216EA005F0B4FDEF
:100EE00001F0C6FB0121084601F007F900F01FFBE5
:100EF00021E670B54FF00004254607E04FF0720080
:100F00005D49085504F1010405F10105022DF5D3F1
:100F10004FF077005849085504F101044FF00000E4
:100F20000855C7E0004400400B0000200A000020E4
:100F30000800002009000020946D00080D0A2047D9
:100F40005053506F7765724F6E200D0A00000000FD
:100F5000F400002002000020526563656976652078
:100F600047505320446174610D0A00007C0A002040
:100F7000475053446174612056616C696420616E0E
:100F800064205475726E4F4646204750530D0A0038
:100F90000D0A2047534D506F7765724F6E200D0A32
:100FA000000000000C0000200D0A2047534D5F5147
:100FB000756572795369676E616C204641494C20B2
:100FC0000D0A0000180000205E0100201E00002015
:100FD0001400002008010020000000208B010020E8
:100FE0007070000000A3020004000020675F7569B4
:100FF000536574536C656570536563203D202564AB
:101000000A000000536572766572205365742053A0
:101010006C6565702054696D6572204552524F525F
:101020000A000000475052535F53656E6444617478
:1010300061204C4F47494E204D5347204661696C13
:101040000A0000005061636B416C61726D4D736703
:101050000D0A00005061636B4770734D73670D0A92
:10106000000000005061636B53746174696F6E4DD2
:1010700073670D0A00000000AB010020616C617213
:101080006D6D6F646520736C6565702025642073D9
:1010900065630A004445425547206E6F726D616C6E
:1010A0006D6F646520736C656570202564207365C1
:1010B000630A000004F101044FF05100085504F1E7
:1010C00001047B4800884FEA1020085504F1010410
:1010D00077480088085504F101044FF0000509E045
:1010E000C5F103007349085C7349085504F1010414
:1010F00005F10105042DF3D34FF000050BE0C5F118
:1011000003016C4800F10400405C6B49085504F190
:10111000010405F10105042DF1D34FF000050BE0AA
:10112000C5F10301634800F10800405C62490855BD
:1011300004F1010405F10105042DF1D35D48007BA4
:101140005D49085504F101044FF000050BE0C5F1BD
:101150000101584800F10E00405C5749085504F160
:10116000010405F10105022DF1D34FF0000507E060
:101170005248405D5049085504F1010405F101054C
:10118000022DF5D34FF0000508E04C48801C405D6F
:101190004949085504F1010405F10105022DF4D374
:1011A0004FF0000507E04648405D4349085504F10B
:1011B000010405F10105022DF5D34FF000003E4971
:1011C000085504F10104054608E03D48801C405DD7
:1011D0003949085504F1010405F10105022DF4D344
:1011E0003448007C3449085504F101044FF00000F4
:1011F000085504F1010402F06AFE2F49085504F174
:1012000001044FF0000509E0C5F101012D48405CE3
:101210002949085504F1010405F10105022DF3D314
:101220004FF000002449085504F1010426480078D5
:10123000085504F101044FF0000507E02348405D24
:101240001D49085504F1010405F101050F2DF5D3E1
:101250004FF0000507E01E48405D1749085504F1AE
:10126000010405F101050F2DF5D34FF0000507E04E
:101270001848405D1049085504F1010405F10105C5
:101280000F2DF5D3144800780B49085504F10104DB
:101290004FF00200085504F101044FF0000008551A
:1012A00004F10104562C02D00CA005F0CDFB70BD5A
:1012B00000000020F4000020AB0100201E000020F0
:1012C0001A000020160000200C0000205E01002003
:1012D0006D0100207C010020020000205061636B42
:1012E000466163746F72794D7367204552524F5255
:1012F000210A0000704700BFFEE700BFFEE700BF05
:10130000FEE700BFFEE7704770477047444800683B
:1013100070476420704700B50146FFF7F7FF0246AB
:1013200000BFFFF7F3FF801A8842FAD900BD10B55D
:101330003B48006800F10100394908604FF00001A6
:10134000084603F06BF90021012003F067F900F073
:101350008EF810BD032800D37047324B43F820109D
:10136000314B43F8202000BFF6E710B540F225517D
:101370002E4802F0CAFB40B12C4802F02FFBC4B249
:1013800021464FF0010003F0BFF810BD10B525480D
:10139000806830B1244881682248826802209047E2
:1013A00001E000BFFEE710BD10B5032001F0A0F979
:1013B00001F05EF910BD10B5022001F086F988B188
:1013C0004FF4003000F095FC012000F0C8FE10B191
:1013D000012000F0D1FE01F04BF9022001F088F964
:1013E00001F046F910BD10B50121880702F06AF935
:1013F00040B14FF001000E49087001464FF08040A7
:1014000002F074F910BD704710B54FF4004000F0C1
:101410005DFC18B14FF4004000F06BFC10BD000003
:10142000240000202C02002038020020004400404C
:10143000A000002010B500280ADA4FEA01724FEA36
:101440001264FC4A00F00F03A3F10403D45405E036
:101450004FEA01724FEA1263F74A135410BDF7497D
:10146000086000BFF54909680029FBD17047F348BF
:10147000006828B1F1480068A0F10100EF49086058
:10148000704710B54FF00001ED4A12684FF47A74BE
:10149000B2FBF4F30CE04FF00602B3FBF2F2A2F160
:1014A000010100BF0A00A1F10101FBD1A0F101007F
:1014B0000028F0D110BD10B5E14800684FF064017C
:1014C000B0FBF1F4B4F1807F02D34FF0010016E0DD
:1014D00024F07F40A0F101004FF0E02148614FF07F
:1014E0000F014FF0FF30FFF7A5FF4FF000004FF066
:1014F000E02188614FF0070008614FF0000008B15B
:1015000000BFFEE70C214FF0FF30FFF793FF10BD47
:1015100010B54FF4803000F061FE00F0A4FE0446E8
:10152000012C03D14FF4A06000F0F3FE10BD10B504
:101530004FF4803000F052FE00F095FEC149087073
:101540000846007801280FD100F0C5FE00BF392001
:1015500000F067FE0028FAD0022000F0BFFE00BFB6
:1015600000F0C7FE0828FBD110BD10B5012000F027
:10157000B0FD00F0CBFA012000F01AFF00BF61209F
:1015800000F04FFE0028FAD04FF4007000F013FF77
:10159000012000F017FF01F072F849F63F4001F01A
:1015A0003EF801F065F80121022000F0FFFF01F094
:1015B0005FF810BD1CB54FF4003000F09AFB4FF4FB
:1015C000003000904FF000008DF804004FF008004C
:1015D0008DF805004FF001008DF80600684600F018
:1015E00004FB1CBD0EB50121084600F078FF4FF04A
:1015F000804001F097F842F20F70ADF8040048F611
:101600009F40ADF800004FF00000ADF80600ADF8C7
:10161000020069464FF0804001F058F90121880727
:1016200002F04CF801221146900701F028FD01213B
:10163000880701F008FD0021012000F050FF0EBDD9
:101640000EB50121042000F04AFF7F4801F06AF83E
:1016500040F2E730ADF8040048F69F40ADF80000D6
:101660004FF00000ADF80600ADF80200694676487C
:1016700001F02CF90121744802F020F801221146F2
:10168000714801F0FCFC01216F4801F0DCFC0021F5
:10169000042000F024FF0EBD08B54FF029008DF89E
:1016A00000004FF001008DF801004FF000008DF8B0
:1016B00002004FF001008DF80300684600F0ACF91D
:1016C0004FF01C008DF800004FF005008DF8010070
:1016D0004FF000008DF802004FF001008DF803007C
:1016E000684600F099F94FF026008DF800004FF0A1
:1016F00007008DF801004FF000008DF802004FF058
:1017000001008DF80300684600F086F908BD08B5B1
:101710004FF4A06000F07AF94FF029008DF8000036
:101720004FF000008DF801008DF802004FF001002D
:101730008DF80300684600F06FF908BD08B54FF05A
:1017400026008DF800004FF007008DF801004FF0E3
:1017500001008DF802008DF80300684600F05CF986
:1017600008BD08B54FF4E06000F050F94FF01C00E0
:101770008DF800004FF000008DF801004FF00300DD
:101780008DF802004FF001008DF80300684600F06C
:1017900043F908BD08B54FF4E06000F037F94FF0A9
:1017A0001E008DF800004FF000008DF801004FF092
:1017B00004008DF802004FF001008DF80300684628
:1017C00000F02AF908BD10B50121084600F087FE97
:1017D0000121880701F037FC10BD10B500214FF042
:1017E000804001F030FC0021012000F078FE10BDA7
:1017F00010B50121042000F072FE0121124801F011
:1018000022FC10BD10B500210F4801F01CFC002186
:10181000042000F064FE10BD10B545F2555002F0F2
:10182000BDF9062002F0BDF940F21A6002F0BCF9E1
:1018300010BD000018ED00E000E400E02C000020E6
:1018400044000020280000200008004010B50020BF
:1018500002F0B6FA10BD1FB54FF4165000904FF0CD
:101860000000ADF80400ADF80600ADF80800ADF8D2
:101870000C004FF00C00ADF80A0069464FF0020072
:1018800002F030FB1FBD70B504460D46E1B21E48A4
:1018900002F0A0F800BF40211B4802F011F9002817
:1018A000F9D0204670BD1FB54FF4165000904FF090
:1018B0000000ADF80400ADF80600ADF80800ADF882
:1018C0000C004FF00C00ADF80A0069464FF0000024
:1018D00002F008FB1FBD1FB54FF4165000904FF0EB
:1018E0000000ADF80400ADF80600ADF80800ADF852
:1018F0000C004FF00C00ADF80A0069464FF00100F3
:1019000002F0F0FA1FBD00000048004008B50121B8
:10191000142000F0D5FD4FF00200ADF800004FF0AC
:1019200010008DF803004FF003008DF802006946A7
:10193000324800F04DFA4FF42060ADF800004FF04F
:1019400010008DF803004FF003008DF80200694687
:101950002B4800F03DFA4FF00400ADF800004FF0C6
:1019600010008DF803004FF003008DF80200694667
:10197000244800F02DFA4FF02000ADF800004FF0A1
:1019800010008DF803004FF003008DF80200694647
:101990001D4800F01DFA4FF48060ADF800004FF0D4
:1019A00028008DF803006946154800F011FA08BDBB
:1019B00008B50121142000F083FD4FF00200ADF8BE
:1019C00000004FF004008DF803004FF003008DF885
:1019D00002006946094800F0FBF94FF42060ADF8B9
:1019E00000004FF004008DF803004FF003008DF865
:1019F00002006946024800F0EBF908BD000801400A
:101A00000010014000140140000C0140384940EA38
:101A10000101384A1160704770B54FF000010B4664
:101A20004FF00F02C4784CB3324C246804F4E064E5
:101A3000C4F5E0644FEA1421C1F1040322FA01F273
:101A4000447804FA03F1847804EA020444EA0101C8
:101A50004FEA0111284C0678A155047804F01F05BF
:101A60004FF0010404FA05F405784FEA65154FF0CC
:101A7000E02606EB8505C5F800410CE0047804F08B
:101A80001F054FF0010404FA05F41C4D06784FEAD7
:101A9000661645F8264070BD194A01EA020242EA7C
:101AA0000002184B1A60704731B1174A126842EAB7
:101AB0000002154B1A6005E0134A126822EA000280
:101AC000114B1A607047042808D14FF0E0210969D2
:101AD00041F004014FF0E022116107E04FF0E021F6
:101AE000096921F004014FF0E02211617047000004
:101AF0000000FA050CED00E000E400E080E100E009
:101B000080FFFF1F08ED00E010ED00E010B50120A0
:101B100000F012FD002000F00FFD10BD2449086008
:101B200070472449086070472349086070470146A0
:101B30004FF00000214A10884FF67F4200EA020071
:101B400040EA01001D4A1080704701464FF0000036
:101B50001A4A10884FF6807200EA020040EA01003B
:101B6000164A108070474FF00002154A0244116077
:101B7000704701464FF00002114A0A44108870472E
:101B80000D4818300068C0B270470E48008840F019
:101B900001000C490880704707481C300068C0B23B
:101BA00070470848008840F00200064908807047E6
:101BB00004860D4200860D4288860D422C6C004042
:101BC000006C0040346C00404FF000004A4908604F
:101BD00001F10401086001F10401086001F1040150
:101BE000086046484649086070474FF00001424986
:101BF0008279002A40D00A461268036822EA03026A
:101C00000B461A6001F104021268036822EA03021B
:101C100001F104031A60027911440A68036842EA78
:101C200003020A60374A1268036822EA0302354B4E
:101C30001A6003F104021268036822EA0302324BBD
:101C40001A604279102A0ED12E4A1268036842EABD
:101C500003022C4B1A602C4A1268036842EA030202
:101C6000294B1A600FE02449427911440A6803683D
:101C700042EA03020A6006E0027911440A68036836
:101C800022EA03020A6070474FF00001016001710F
:101C90004FF00C0141714FF00001817170471B49F9
:101CA000096841EA0001194A1160704701464FF086
:101CB0000000134A12680A4202D04FF0010001E00E
:101CC0004FF0000070470E490860704701464FF022
:101CD00000000246084B1B6803EA0102084B1B6820
:101CE0000B4203D012B14FF0010001E04FF00000B1
:101CF000704703490860704700040140FFFF0F0070
:101D000014040140080401400C0401401004014087
:101D100010B50446DE48844208D10121042000F0B9
:101D2000EDFB0021042000F0E9FB46E0D9488442A5
:101D300008D10121082000F0E1FB0021082000F07B
:101D4000DDFB3AE0D448844208D10121102000F0A4
:101D5000D5FB0021102000F0D1FB2EE0CF488442BB
:101D600008D10121202000F0C9FB0021202000F033
:101D7000C5FB22E0CA48844208D10121402000F07E
:101D8000BDFB0021402000F0B9FB16E0C5488442AD
:101D900008D10121802000F0B1FB0021802000F05B
:101DA000ADFB0AE0C048844207D10121801500F054
:101DB000A5FB0021A01500F0A1FB10BD10B501216D
:101DC000084600F09BFB0021012000F097FB10BDAE
:101DD0002DE9F04102464FF000052E462846034605
:101DE0000446074691F803C00CF00F0591F803C0B4
:101DF0001CF0100F03D091F802C04CEA0505B1F8B1
:101E000000C01CF0FF0F35D014684FF000002EE02A
:101E10004FF0010C0CFA00F3B1F800C00CEA030615
:101E20009E4222D14FEA80034FF00F0C0CFA03F7C9
:101E300024EA070405FA03FC4CEA040491F803C001
:101E4000BCF1280F06D14FF0010C0CFA00FCC2F8CF
:101E500014C00AE091F803C0BCF1480F05D14FF05F
:101E6000010C0CFA00FCC2F810C000F101000828B7
:101E7000CED31460B1F800C0BCF1FF0F38DD546858
:101E80004FF0000031E000F1080C4FF0010808FAB3
:101E90000CF3B1F800C00CEA03069E4223D14FEACE
:101EA00080034FF00F0C0CFA03F724EA070405FA3D
:101EB00003FC4CEA040491F803C0BCF1280F05D1DF
:101EC00000F1080C08FA0CF8C2F8148091F803C06D
:101ED000BCF1480F07D100F1080C4FF0010808FAD7
:101EE0000CF8C2F8108000F101000828CBD3546030
:101EF000BDE8F0814FF6FF7101804FF00201817063
:101F00004FF00401C170704702464FF00000936823
:101F10000B4202D04FF0010001E04FF0000070478B
:101F20000146886880B2704702464FF00000D368CF
:101F30000B4202D04FF0010001E04FF0000070476B
:101F40000146C86880B270470161704741617047BF
:101F50000AB1016100E041617047C16070474FF410
:101F6000803242EA01028261816182618269826912
:101F7000704702464FF000004C4B18684FF68073D4
:101F800000EA030040EA021040EA0100474B1860F3
:101F900070474749C8617047F0B50A464FF00003E3
:101FA0001C4619460D4600F00046B6F1004F02D11E
:101FB0003E4EF16901E03D4E7168C0F3034583B2C6
:101FC00000F44016B6F5401F08D121F07061374E7D
:101FD000766826F07066354F7E6017E000F4801654
:101FE000B6F5801F08D14FF0030606FA05F421EA82
:101FF000040141F0706109E04FEA50564FEA0616BD
:1020000003FA06F621EA060141F070613AB14FEA9F
:1020100050564FEA061603FA06F646EA010100F0AA
:102020000046B6F1004F02D1204EF16101E01F4E93
:102030007160F0BD30B54FF000024FEA81734FEA96
:1020400013744FF00F0303FA04F21A4B4FEAA10482
:1020500053F8243023EA0203164C4FEAA10544F852
:10206000253023464FEAA10453F824304FEA817407
:102070004FEA147400FA04F443EA04030D4C4FEAE7
:10208000A10544F8253030BD0B49086070470000B9
:1020900000080140000C0140001001400014014004
:1020A00000180140001C01400020014000000140D8
:1020B0000000204208000140DC00204210B5012150
:1020C000080700F02AFA00214FF0805000F025FAAE
:1020D00010BD2D49086270472B49086170470146C1
:1020E0004FF00000294A106820F0E00040EA0100AB
:1020F0001060704726490860704710B502464FF0DF
:102100000000224B186820F0030040EA020018602B
:10211000204B1B6843F004031E4C2360012901D1AE
:1021200030BF00E020BF1B4B1B6823F00403194C99
:10213000236010BD1548006840F004001349086092
:102140000846006840F0020008601248006840F04D
:1021500004001049086000BF00BF30BF704701464F
:102160004FF00000094A52680A4202D04FF00100C5
:1021700001E04FF0000070470449096841EA80011E
:10218000024A11607047000000000E4200700040DB
:10219000A0000E4210ED00E0F748006840F001009A
:1021A000F549086008464068F44900EA0100F24930
:1021B000486008460068F24900EA0100EE490860FC
:1021C0000846006820F4802008600846406820F433
:1021D000FE0048604FF41F0088607047E6490968B8
:1021E00021F48031E44A11601146096821F480210C
:1021F0001160B0F5803F03D0B0F5802F0ED106E01E
:10220000DD49096841F48031DB4A116007E0DA49B1
:10221000096841F4A021D84A116000E000BF00BF66
:10222000704710B501464FF00002134610464FEAC2
:102230006112012A02D1D04C236806E0022A02D1A1
:10224000CD4C236A01E0CC4C636A01F01F024FF0D1
:10225000010404FA02F41C4202D04FF0010001E034
:102260004FF0000010BD70B54FF000042546264623
:1022700000BF3120FFF7D5FF064604F10104B4F595
:10228000A06F01D0002EF4D03120FFF7CAFF10B1AB
:102290004FF0010501E04FF00005284670BD0146F2
:1022A0004FF00000B44A106820F0F80040EAC10086
:1022B00010607047B3490860704702464FF0000055
:1022C000AD4B586820F47C1042EA010343EA000059
:1022D000A94B58607047AB490866704701464FF0FC
:1022E0000000A54A506820F0030040EA0100506059
:1022F0007047A148406800F00C00704701464FF05D
:1023000000009D4A506820F0F00040EA0100506053
:10231000704701464FF00000974A506820F4E06093
:1023200040EA01005060704701464FF00000924AB9
:10233000506820F4605040EAC1005060704731B1ED
:102340008D4A527A42EA00028B4B5A7208E08A4A5E
:10235000527A6FEA0003DBB202EA0302864B5A723A
:10236000704789490860704701464FF00000824A73
:10237000506820F4404040EA0100506070474FF040
:102380000001824A11707C4A82F82010012802D094
:1023900004280AD104E04FF001017C4A117005E0E5
:1023A0004FF00501794A117000E000BF00BF70478F
:1023B0007749086070477049096A41EA00016E4A2E
:1023C0001162704773490860704730B54FF00001E3
:1023D0000A460C460B46684D6D6805F00C0121B1AC
:1023E000042905D0082927D105E06B4D056026E0BA
:1023F000694D056023E0604D6D6805F470125E4D17
:102400006D6805F480344FF0020505EB924224B963
:10241000624D02FB05F505600DE0574D6D6815F442
:10242000003F04D05D4D02FB05F5056003E05A4D09
:1024300002FB05F5056002E0574D056000BF00BFD7
:102440004D4D6D6805F0F0014FEA1111544D6B5C74
:10245000056825FA03F54560474D6D6805F4E061B0
:102460004FEA11214E4D6B5C456825FA03F58560F6
:10247000414D6D6805F460514FEAD121484D6B5CC8
:10248000456825FA03F5C5603B4D6D6805F440418C
:102490004FEA9131434D6B5CC568B5FBF3F50561BF
:1024A00030BD31B1344A526942EA0002324B5A61BE
:1024B00005E0314A526922EA00022F4B5A61704707
:1024C00031B12D4A926942EA00022B4B9A6105E034
:1024D000294A926922EA0002274B9A61704731B17A
:1024E000254AD26942EA0002234BDA6105E0224A1A
:1024F000D26922EA0002204BDA61704731B11E4AEC
:10250000D26842EA00021C4BDA6005E01A4AD2683F
:1025100022EA0002184BDA60704731B1164A12699C
:1025200042EA0002144B1A6105E0134A126922EADA
:102530000002114B1A6170471B490860704711492E
:10254000C86470470C49C87170470B48406A40F036
:10255000807009494862704701464FF00000064A02
:1025600092680A4202D04FF0010001E04FF00000F3
:102570007047014988727047001002400000FFF860
:10258000FFFFF6FE00004242D80042422010024007
:10259000800442423C04424200127A0000093D009D
:1025A00030000020400000204004424231B1554A32
:1025B000128842EA0002534B1A8008E0514A1288FE
:1025C0006FEA00039BB202EA03024E4B1A80704787
:1025D0004D48008840F010004B49088070474A4839
:1025E00000884FF6EF7100EA010047490880704704
:1025F0004FF0000145480188A0F10400008841EA3D
:102600000040704700B50246FFF7E2FF4FEA124074
:102610003F4908803D490A80FFF7E1FF00BD00B552
:102620000246FFF7D5FFC2F303403A49088001F1A3
:1026300004010A80FFF7D3FF00BD00B50246FFF793
:10264000C7FF4FEA12403449088001F104010A80B3
:10265000FFF7C5FF00BD4FF00000304909884FEA81
:1026600001714FEA11302E49098841EA0000704794
:1026700000BF2548008810F0200FFAD0704722488C
:1026800000884FF6F77100EA01001F49088000BF7B
:102690001D48008810F0080FFAD0704701464FF02F
:1026A0000000194A12880A4202D04FF0010001E0EE
:1026B0004FF000007047144909886FEA000292B297
:1026C00001EA0201104A1180704701464FF00000F4
:1026D0000D4A128802EA0102D0B20A4A12880A425E
:1026E00003D010B14FF0010001E04FF0000070473F
:1026F000054909886FEA000292B201EA0201024A22
:102700001180704700280040042800401C28004029
:1027100018280040082800402028004010280040C9
:102720001428004010B50446FE48844208D1012117
:10273000C014FFF7E3FE0021E014FFF7DFFEC4E062
:10274000B4F1804F08D101210846FFF7E6FE0021D1
:102750000120FFF7E2FEB8E0F348844208D10121EE
:102760000220FFF7DAFE00210220FFF7D6FEACE0E0
:10277000EE48844208D101210420FFF7CEFE00215B
:102780000420FFF7CAFEA0E0E948844208D10121F5
:102790000820FFF7C2FE00210820FFF7BEFE94E0EC
:1027A000E448844208D101211020FFF7B6FE002141
:1027B0001020FFF7B2FE88E0DF48844208D10121F3
:1027C0002020FFF7AAFE00212020FFF7A6FE7CE0D4
:1027D000DA48844208D101214014FFF78FFE00211E
:1027E0006014FFF78BFE70E0D548844209D10121C7
:1027F000C804FFF783FE00214FF40020FFF77EFEA0
:1028000063E0D048844209D101210805FFF776FE34
:1028100000214FF48010FFF771FE56E0CA48844251
:1028200009D101214805FFF769FE00214FF400108E
:10283000FFF764FE49E0C548844208D101214020E9
:10284000FFF76BFE00214020FFF767FE3DE0C04828
:10285000844208D101218020FFF75FFE0021802003
:10286000FFF75BFE31E0BB48844208D101218015AF
:10287000FFF753FE0021A015FFF74FFE25E0B648F5
:10288000844209D101210804FFF738FE00214FF4EA
:102890008030FFF733FE18E0B048844209D10121AF
:1028A0004804FFF72BFE00214FF40030FFF726FE0F
:1028B0000BE0AB48844208D101218804FFF71EFEDB
:1028C00000214FF48020FFF719FE10BD4FF00002E9
:1028D0000288944B98420ED0984B98420BD0B0F19E
:1028E000804F08D0904B984205D0904B984202D030
:1028F0008F4B984206D14FF68F7302EA03024B8842
:1029000043EA02028B4B984209D08B4B984206D087
:102910004FF6FF4302EA0302CB8843EA0202028039
:102920008B8883850B8803857E4B98420BD0834B25
:10293000984208D0884B984205D0884B984202D0E4
:10294000874B984201D10B7A03864FF001038382B3
:10295000704770B54FF0000422461346058C4FF6C1
:10296000FE7605EA06050584028C8388048B4FF603
:102970008F7504EA05044FF6FC7504EA05040D881A
:1029800045EA04044FF6FD7502EA05020D8945EAA1
:1029900002024D8845EA0202624DA8420BD0674D03
:1029A000A84208D06C4DA84205D06C4DA84202D078
:1029B0006B4DA8421BD14FF6F77502EA05024D890F
:1029C00045EA02024FF6FB7502EA05028D8845EAE8
:1029D00002024FF6FF6503EA05034FF6FF5503EACF
:1029E00005038D8945EA0303CD8945EA0303838006
:1029F0000483CD888586028470BD70B54FF00004D5
:102A000022461346058C4FF6EF7605EA0605058447
:102A1000028C8388048B48F6FF7504EA05044FF6A0
:102A2000FF4504EA05040D884FEA056544EA1544AC
:102A30004FF6DF7502EA05020D894FEA055542EAB5
:102A400015424D884FEA055542EA1542354DA842D8
:102A500002D03A4DA84223D14FF67F7502EA050213
:102A60004D894FEA055542EA15424FF6BF7502EA15
:102A700005028D884FEA055542EA15424FF6FF35AB
:102A800003EA05034FF2FF7503EA05038D894FEA58
:102A9000854543EA1543CD894FEA854543EA154309
:102AA00083800483CD880587028470BD70B54FF0A4
:102AB000000422461346058C4FF6FF6605EA06051C
:102AC0000584028C8388848B4FF68F7504EA050495
:102AD0004FF6FC7504EA05040D8845EA04044FF638
:102AE000FF5502EA05020D894FEA056542EA1542E3
:102AF0004D884FEA056542EA15420A4DA84202D0C8
:102B00000E4DA84244D14FF2FF7502EA05024D89ED
:102B10004FEA056542EA15424FF6FF3502EA050223
:102B20008D881FE0002C0140000400400008004098
:102B3000000C004000100040001400400034014030
:102B4000004C01400050014000540140001800407A
:102B5000001C0040002000400040014000440140B3
:102B6000004801404FEA056542EA15424EF6FF75FE
:102B700003EA05034DF6FF7503EA05038D894FEA65
:102B8000055543EA1543CD894FEA055543EA1543F8
:102B900083808483CD888587028470BD70B54FF0B3
:102BA000000213461446058C4EF6FF7605EA06052C
:102BB0000584038C8488828B48F6FF7502EA05023F
:102BC0004FF6FF4502EA05020D884FEA056542EA25
:102BD00015424DF6FF7503EA05030D894FEA0575A9
:102BE00043EA15434D884FEA057543EA1543FB4D0B
:102BF000A84202D0FA4DA84208D14BF6FF7504EA6C
:102C000005048D894FEA855544EA15448480828302
:102C1000CD88A0F84050038470BD828B4FF2FF3303
:102C200002EA03028283828B4FEA016342EA134283
:102C300082837047F0B50C4615464FF000021146EE
:102C40000E46078C4EF6FF7C07EA0C070784828B42
:102C5000018C4FEA04774FEA174640F6FF4702EA35
:102C600007024FEA056742EA17424FEA037742EA52
:102C70001742DA4FB8420ED0D94FB8420BD0B0F15C
:102C8000804F08D0D74FB84205D0D74FB84202D0B6
:102C9000D64FB84208D14DF6FF7701EA070146F456
:102CA000805747EA010107E047F6FF5701EA0701AD
:102CB00044F4805747EA010182830184F0BD828B8E
:102CC0004FF6F37302EA03028283828B42EA010227
:102CD00082837047F0B50C4615464FF0000211464E
:102CE0000E46078C4FF6FF6C07EA0C070784828BB1
:102CF000018C4FEA04674FEA17464FF60C7702EA59
:102D000007024FEA035745EA174747EA0202B34F63
:102D1000B8420ED0B24FB8420BD0B0F1804F08D0BD
:102D2000B04FB84205D0B04FB84202D0AF4FB84212
:102D300008D14FF6FF5701EA070146F4807747EACA
:102D4000010107E04FF2FF5701EA070144F48077E1
:102D500047EA010182830184F0BD028B4FF2FF3309
:102D600002EA03020283028B4FEA016342EA134242
:102D700002837047F0B50C4615464FF0000211462D
:102D80000E46078C4FF6EF7C07EA0C070784028B90
:102D9000018C4FEA04574FEA174640F6FF4702EA14
:102DA00007024FEA037742EA17424FEA056742EA11
:102DB00017428A4FB8420ED0894FB8420BD0B0F1BB
:102DC000804F08D0874FB84205D0874FB84202D015
:102DD000864FB84208D14FF6DF7701EA070146F087
:102DE000100747EA010107E04FF65F7701EA0701A4
:102DF00044F0100747EA010102830184F0BD028B11
:102E00004FF6F37302EA03020283028B42EA0102E5
:102E100002837047F0B50C4615464FF0000211468C
:102E2000068C4FF6FE7706EA07060684028B018CB5
:102E30004FF60C7602EA06024FEA035645EA1646BA
:102E400046EA0202654EB0420ED0654EB0420BD04B
:102E5000B0F1804F08D0634EB04205D0624EB04210
:102E600002D0624EB04208D14FF6FD7601EA06016B
:102E700044F0010646EA010107E04FF6F57601EA63
:102E8000060144F0010646EA010102830184F0BD17
:102E900070B505460C46514885420ED050488542D3
:102EA0000BD0B5F1804F08D04E48854205D04E4832
:102EB000854202D04D48854200D100E000BF208805
:102EC00050B92389A28861882846FFF7A3FFE188CB
:102ED0002846FFF794FF25E0208804280AD123899B
:102EE000A28861882846FFF745FFE1882846FFF75A
:102EF00034FF17E0208808280AD12389A288618836
:102F00002846FFF7E7FEE1882846FFF7D8FE09E0EC
:102F10002389A28861882846FFF78CFEE18828462D
:102F2000FFF77BFE70BD2DE9F04105460C464FF0E2
:102F300000064FF00107608810B94FF0020601E06B
:102F40004FF00006A088012802D14FF0020701E0EF
:102F50004FF001072088A0B92389A28861882846FC
:102F6000FFF758FFE1882846FFF749FF23893A46D3
:102F700031462846FFF7FEFEE1882846FFF7EDFEC2
:102F800013E02389A28861882846FFF7F3FEE188D1
:102F90002846FFF7E2FE23893A4631462846FFF7E6
:102FA00039FFE1882846FFF72AFFBDE8F0810A884B
:102FB0004B8842EA03028B8842EA0302CB8842EA4A
:102FC00003020B8942EA03024B8942EA03028B891E
:102FD00042EA0302A0F8442070470000002C0140A0
:102FE000003401400004004000080040000C004094
:102FF0004FF6FF7181804FF000010180C180418058
:10300000017270474FF00001018041808180C180D2
:10301000018141818181C18170474FF000010180B0
:1030200041804FF0010181804FF00001C18001819A
:1030300070474FF00001018041808180C180018193
:1030400041818181704721B1028842F001020280F2
:1030500005E002884FF6FE7302EA03020280704721
:1030600031B1B0F8442042F40042A0F8442005E019
:10307000B0F84420C2F30E02A0F84420704710B507
:1030800022B1838943EA0103838106E083896FEAE1
:103090000104A4B203EA0403838110BD8182704756
:1030A00041EA0203A0F84830704710B522B1838985
:1030B00043EA0103838106E083896FEA0104A4B235
:1030C00003EA0403838110BD01894FF6F87201EA17
:1030D0000201018170470A464FF0000101894FF655
:1030E0008F7301EA030141EA02010181704730B5A3
:1030F00004460D4629462046FFF7EDFF208940F0A3
:103100000700208130BD2DE9F04104460D461646EA
:103110001F46602D06D13B46012231462046FFF76F
:1031200029FE05E03B46012231462046FFF772FEAC
:1031300029462046FFF7CFFF208940F00700208175
:10314000BDE8F08130B50C464FF000010189C9B2ED
:103150004FEA036542EA154545EA040545EA0101DF
:10316000018130BD2DE9F04105460E4617469846CF
:103170004FF0000443463A4631462846FFF7E2FF47
:103180002C894FF6F87004EA000444F007044FF667
:103190008F7004EA000444F070042C81BDE8F081D3
:1031A000F0B504460D4616461F463B4632462946B4
:1031B0002046FFF7C7FF208940F480402081F0BD02
:1031C0000185828270470A464FF0000101884FF660
:1031D0008F7301EA030141EA020101807047F0B5F3
:1031E0000C4615461E464FF000010A460B46018963
:1031F000028B038C4FF6F87701EA070141EA0401DC
:103200004FF6FC4702EA070240F2011742EA0702C2
:103210004FF6DD7703EA07034FEA065745EA1747FB
:1032200047EA0303018102830384F0BD0A464FF09D
:103230000001018B4FF68F7301EA030141EA02019D
:10324000018370470A464FF00001018B48F6FF7377
:1032500001EA03014FEA026341EA13410183704727
:103260000A464FF00001818B4FF68F7301EA03018C
:1032700041EA0201818370470A464FF00001818BC9
:1032800048F6FF7301EA03014FEA026341EA134182
:103290008183704721B1028842F08002028005E0FC
:1032A00002884FF67F7302EA03020280704721B161
:1032B000828842F00402828005E082884FF6FB7328
:1032C00002EA03028280704721B1828842F008023C
:1032D000828005E082884FF6F77302EA030282805B
:1032E000704721B1828842F00102828005E0828825
:1032F0004FF6FE7302EA0302828070470A464FF0DF
:103300000001018B4FF6F77301EA030141EA020164
:10331000018370470A464FF00001018B4FF2FF73A3
:1033200001EA03014FEA026341EA13410183704756
:103330000A464FF00001818B4FF6F77301EA030153
:1033400041EA0201818370470A464FF00001818BF8
:103350004FF2FF7301EA03014FEA026341EA1341AE
:10336000818370470A464FF00001018B4FF6FB73D3
:1033700001EA030141EA0201018370470A464FF066
:103380000001018B4FF6FF3301EA03014FEA0263AC
:1033900041EA1341018370470A464FF00001818BD7
:1033A0004FF6FB7301EA030141EA02018183704792
:1033B0000A464FF00001818B4FF6FF3301EA03010B
:1033C0004FEA026341EA1341818370470A464FF096
:1033D0000001018B4FF67F7301EA030141EA02010C
:1033E000018370470A464FF00001018BC1F30E01C3
:1033F0004FEA026341EA1341018370470A464FF0E6
:103400000001818B4FF67F7301EA030141EA02015B
:10341000818370470A464FF00001818BC1F30E0192
:103420004FEA026341EA1341818370470A464FF035
:103430000001018C4FF6FD7301EA030141EA02012C
:10344000018470470A464FF00001018C4FF6F77374
:1034500001EA030141EA0201018470470A464FF084
:103460000001018C4FF6DF7301EA03014FEA0253BA
:1034700041EA1341018470470A464FF00001018C74
:103480004FF67F7301EA03014FEA025341EA134109
:10349000018470470A464FF00001018C4FF6FF533C
:1034A00001EA03014FEA026341EA134101847047D4
:1034B0000A464FF00001018C4FF2FF7301EA03014D
:1034C0004FEA026341EA1341018470470A464FF014
:1034D0000001018C4DF6FF7301EA03014FEA02730C
:1034E00041EA13410184704730B54FF000034FF0BB
:1034F000010404FA01F4A3B2048C6FEA0305ADB22F
:1035000004EA05040484048C02FA01F5ADB244EA2D
:103510000504048430BD30B54FF000034FF00404BF
:1035200004FA01F4A3B2048C6FEA0305ADB204EA15
:1035300005040484048C02FA01F5ADB244EA0504E2
:10354000048430BD70B503464FF0000004461846B1
:1035500000F118004FF0010505FA01F5ACB21D8C21
:103560006FEA0406B6B205EA06051D8409B108290A
:103570000AD100EB6100056825F07005056005685B
:1035800045EA020505600EE0A1F10405ADB200EBCD
:103590006500056825F4E045056005684FEA0266A8
:1035A00045EA1645056070BD21B1028842F002026D
:1035B000028005E002884FF6FD7302EA03020280F2
:1035C000704721B1028842F00402028005E00288BF
:1035D0004FF6FB7302EA03020280704721B1828832
:1035E00042F08002828005E082884FF67F7302EA13
:1035F00003028280704702884FF6F77302EA0302E3
:103600000280028842EA01020280704782884FF6F7
:103610008F7302EA03028280828842EA010282807A
:10362000704702894FF6F87302EA030202810289A9
:1036300042EA01020281704702894FF67F7302EA73
:1036400003020281028942EA0102028170478184F9
:1036500070478185704781867047018770478187F1
:103660007047A0F84010704702884FF6FF4302EA07
:1036700003020280028842EA01020280704701468A
:10368000888E70470146088F70470146888F7047C3
:103690000146B1F8400070470146888C70470146EA
:1036A000088D704702464FF00000138A0B4202D08B
:1036B0004FF0010001E04FF0000070476FEA010297
:1036C0000282704730B502464FF0000003460446C0
:1036D000158A05EA0103958905EA01041BB114B1B5
:1036E0004FF0010001E04FF0000030BD6FEA010231
:1036F0000282704710B50446F848844209D101217E
:103700008803FEF7FBFE00214FF48040FEF7F6FE33
:1037100032E0F348844209D101214804FEF7FDFE5E
:1037200000214FF40030FEF7F8FE25E0ED4884421A
:1037300009D101218804FEF7F0FE00214FF480201A
:10374000FEF7EBFE18E0E848844209D10121C804E5
:10375000FEF7E3FE00214FF40020FEF7DEFE0BE053
:10376000E248844208D101210805FEF7D6FE002177
:103770004FF48010FEF7D1FE10BD2DE9F04786B062
:1037800005460E464FF00004A24600BFA14627465C
:10379000B08900B100BF2F462C8A4CF6FF7004EAB6
:1037A0000004F08840EA04042C82AC894EF6F31041
:1037B00004EA0004B088318940EA0100718940EAD6
:1037C000010040EA0404AC81AC8A4FF6FF4004EAF1
:1037D0000004B08940EA0404AC8201A8FEF7F5FDBC
:1037E000BE48874202D1DDF810A001E0DDF80CA050
:1037F000A88910F4004F09D00AEBCA0000EB0A10A8
:1038000031684FEA4101B0FBF1F808E00AEBCA0069
:1038100000EB0A1031684FEA8101B0FBF1F84FF07C
:103820006400B8FBF0F04FEA00144FEA14104FF0B8
:10383000640101FB1089A88910F4004F0AD04FF0F1
:10384000320000EBC900B0FBF1F000F0070040EAE5
:1038500004040BE04FF0320000EB09104FF064015C
:10386000B0FBF1F000F00F0040EA04042C8106B038
:10387000BDE8F0874FF4165101604FF000018180E0
:10388000C18001814FF00C0141814FF00001818125
:10389000704710B502464FF00000108A4FF2FF0348
:1038A00000EA03000B884C8843EA04038C8843EA4F
:1038B0000403CC8843EA040343EA0000108210BDED
:1038C0004FF00001018041808180C180704721B1AB
:1038D000828942F40052828105E082894DF6FF73AD
:1038E00002EA030282817047F0B503464FF00004FC
:1038F000264625462046A1F510676A3F00D100BF45
:103900001846C1F3421401F01F064FF0010707FAF1
:1039100006F5012C02D100F10C0006E0022C02D1C8
:1039200000F1100001E000F1140022B1076847EA3D
:103930000507076003E0076827EA05070760F0BD91
:1039400010B522B1838A43EA0103838206E0838AA9
:103950006FEA0104A4B203EA0403838210BD028A61
:103960004FF6F07302EA03020282028A42EA01027F
:103970000282704782894FF2FF7302EA030282815A
:10398000828942EA01028281704721B1828942F034
:103990000202828105E082894FF6FD7302EA03028A
:1039A00082817047028A4FF6DF7302EA03020282C5
:1039B000028A42EA01020282704721B1028A42F47D
:1039C0008042028205E0028A4BF6FF7302EA03029C
:1039D00002827047C1F308028280704701468888DE
:1039E000C0F308007047818941F00101818170476F
:1039F000028BD2B20283028B42EA01220283704719
:103A0000028B02F47F420283028B42EA01020283AC
:103A1000704721B1828A42F02002828205E0828AC8
:103A20004FF6DF7302EA03028282704721B1828A75
:103A300042F01002828205E0828A4FF6EF7302EABA
:103A400003028282704721B1828A42F00802828298
:103A500005E0828A4FF6F77302EA0302828270471A
:103A600021B1828942F40042828103E08289C2F35B
:103A70000E028281704721B1828A42F40062828202
:103A800005E0828A4FF2FF7302EA030282827047E6
:103A9000828A4FF6FB7302EA03028282828A42EA3A
:103AA00001028282704721B1828A42F00202828240
:103AB00005E0828A4FF6FD7302EA030282827047B4
:103AC00002464FF00000B1F5007F00D100BF13881F
:103AD0000B420DD04FF001000CE000000038014017
:103AE0000044004000480040004C004000500040AE
:103AF0004FF00000704701F40072B2F5007F00D172
:103B000000BF6FEA01020280704770B502464FF0B5
:103B1000000423461D461846A1F510666A3E00D1F2
:103B200000BFC1F3421501F01F034FF0010606FA72
:103B300003F3012D03D1968906EA030308E0022D61
:103B400003D1168A06EA030302E0968A06EA030313
:103B50004FEA21244FF0010606FA04F4168806EA1B
:103B600004041BB114B14FF0010001E04FF000005C
:103B700070BD10B54FF000021346A1F510646A3C09
:103B800000D100BF4FEA21224FF0010404FA02F4F1
:103B9000A3B26FEA0304048010BD00000F4908605F
:103BA00070470E49486070470C49886070474AF674
:103BB000AA200A49086070474CF6CC4007490860C3
:103BC000704701464FF00000044AD2680A4202D012
:103BD0004FF0010001E04FF000007047003000405E
:103BE0004FF0000108466D4A126842F480326B4B78
:103BF0001A6000BF694A126802F4003001F1010145
:103C000010B9B1F5A06FF5D1644A126812F4003F03
:103C100002D04FF0010001E04FF00000012842D136
:103C20005F4A126842F010025D4B1A601A46126831
:103C300022F003021A601A46126842F002021A6069
:103C4000564A5268554B5A601A4652685A601A468C
:103C5000526842F480625A601A46526822F47C121A
:103C60005A601A46526842F4E8125A601A461268BC
:103C700042F080721A6000BF484A126812F0007F5A
:103C8000FAD0464A526822F00302444B5A601A4660
:103C9000526842F002025A6000BF404A526802F085
:103CA0000C02082AF9D1704710B5FFF799FF10BD33
:103CB00010B53A48006840F00100384908600846ED
:103CC0004068384900EA0100344948600846006805
:103CD000354900EA0100314908600846006820F4CF
:103CE000802008600846406820F4FE0048604FF4D9
:103CF0001F008860FFF7D8FF4FF000602B49086075
:103D000010BD10B54FF0000108460246234B5B681A
:103D100003F00C0121B1042906D008292CD107E0B9
:103D2000234B244C23602BE0214B224C236027E0C3
:103D30001A4B5B6803F47010184B5B6803F4803215
:103D40004FF0020303EB90402AB91B4B00FB03F337
:103D5000184C23600FE0114B5B6813F4003F05D053
:103D6000154B00FB03F3134C236004E0104B00FBE6
:103D700003F3104C236003E00D4B0E4C236000BF97
:103D800000BF064B5B68C3F303130C4CE15C094BAB
:103D90001B6823FA01F3074C236010BD001002409A
:103DA000002002400000FFF8FFFFF6FE08ED00E0F3
:103DB00000127A004400002000093D004800002065
:103DC00038B50446754951F824004FF00101FEF75B
:103DD00077FB734830F81400ADF800004FF0140082
:103DE0008DF803004FF002008DF802006D4951F884
:103DF00024006946FDF7ECFF38BD694931F8101021
:103E0000684A52F8202051617047654931F8101016
:103E1000644A52F8202011617047624951F820101D
:103E2000C9685F4A32F8102081EA02015D4A52F8FF
:103E30002020D16070477FB504460D465A4951F89D
:103E400024004FF00101FEF73BFB4FF048008DF8D6
:103E50000F00564830F81400ADF80C00544951F8E2
:103E6000240003A9FDF7B4FF012D2FD1514A32F8E8
:103E70001420D1B2504A32F81420D0B2FEF7DAF84A
:103E80004E4830F8140001904FF000008DF8080003
:103E90004FF010008DF809004FF001008DF80A0076
:103EA00001A8FDF7A2FE464830F81400C0B28DF814
:103EB00000004FF00F008DF801008DF802004FF068
:103EC00001008DF803006846FDF7A6FD7FBD10B523
:103ED0000446364A32F81410354A52F82400FEF7E8
:103EE00013F810BD38B504460D46364951F8241074
:103EF000354A52F8242041EA020141F001004FF016
:103F00000101FEF7DDFA34B9304951F824000121EE
:103F1000FEF7D6FA05E02D4951F824000121FEF7FD
:103F2000DEFA4FF018008DF80300294830F814002D
:103F3000ADF800004FF003008DF80200254951F85C
:103F400024006946FDF744FF4FF004008DF803009C
:103F5000214830F81400ADF80000204951F8240041
:103F60006946FDF735FF1E4951F824002946FFF741
:103F700004FC1B4951F824000121FFF7A8FC38BDBF
:103F800070B505460E4640F225511648FFF7BDFDB7
:103F900018B11448FFF722FD044670BDE46D000817
:103FA000DC6D000858000020F86D0008F46D000872
:103FB00068000020006E0008FE6D0008FC6D00081F
:103FC000026E0008106E00081C6E0008046E0008E7
:103FD000286E0008780000202E6E00088400002063
:103FE0006C00002000480040064880470648004713
:103FF000FEE7FEE7FEE7FEE7FEE7FEE7FEE7FEE799
:10400000FEE7FEE7B13C00083101000801464FF031
:10401000FF3011B94FF0000002E0012900D108463D
:104020007047014609B9FE4805E0012901D1FD4864
:1040300001E04FF00000704770B505462846FFF7D5
:10404000E5FF0446FCB9F848C4EBC401F74A42F85E
:1040500021004FF48060C4EBC40102EB8101486091
:10406000FDF757F900EB80004FEA80004FF47A71BA
:10407000B0FBF1F000F10100C4EBC401EB4A02EB2C
:104080008101886120E0012C1ED1E948C4EBC40104
:10409000E64A42F821004FF48060C4EBC40102EB11
:1040A00081014860FDF735F900EB80004FEA8000A0
:1040B0004FF47A71B0FBF1F000F10100C4EBC401E0
:1040C000DA4A02EB81018861C4EBC400D74951F898
:1040D0002000C4EBC401D54A02EB81018860C4EB27
:1040E000C400114651F82000C4EBC40102EB810169
:1040F000C8604FF00000C4EBC40102EB81014861CD
:10410000C4EBC400114601EB80008069012806D889
:104110004FF00200C4EBC40102EB8101886170BD65
:104120002DE9F04107460D4616464FF000040DE01C
:10413000295D3846FFF74EFC00BF40213846FFF7A7
:10414000BFFC0028F9D004F1010084B2B442EFDBD7
:104150002046BDE8F0812DE9F04107460E461446A1
:104160003846FFF75EFF8046256812E02068401B56
:10417000315C4046FFF72EFC00BF80214046FFF730
:104180009FFC0028F9D080214046FFF7B4FCA5F140
:104190000105002DEAD1BDE8F0812DE9F84F8346F5
:1041A000894617464FF0010000904FF00005D7F800
:1041B00000A05846FFF72AFF0446C4EBC4009B4901
:1041C00001EB80000569002D7DD0C4EBC40001EB3C
:1041D0008000406930B14FF0020000904FF00000C5
:1041E0003860ECE04FF003000090C4EBC4008F494E
:1041F00001EB80000569554500D95546C4EBC40064
:104200008A4901EB80008068C4EBC401874A02EB55
:104210008101C968884224D9C4EBC40002EB800044
:104220002A46C168484602F075F9C4EBC4007F49CC
:1042300001EB8000C0682844C4EBC4017B4A02EB58
:104240008101C860C4EBC400114601EB8000006925
:10425000A0EB0500C4EBC40102EB810108613D60E5
:10426000ADE0C4EBC400714951F82000C4EBC401B7
:104270006E4A02EB810149680844C4EBC40102EBB9
:104280008101C968A0EB01082E46464543D8C4EB1E
:10429000C40002EB80003246C168484602F03AF999
:1042A000C4EBC400614901EB8000C0683044C4EB3A
:1042B000C4015E4A02EB8101C860C4EBC400114630
:1042C00051F8200000E073E0C4EBC40102EB81016F
:1042D00049680844C4EBC40102EB8101C968884203
:1042E00009D8C4EBC400114651F82000C4EBC40146
:1042F00002EB8101C860C4EBC4004C4901EB8000B3
:104300000069A0EB0600C4EBC401484A02EB81013E
:1043100008613D604BE0C4EBC400444A02EB8000FE
:104320004246C168484602F0F5F8C4EBC4003F4974
:1043300051F82000C4EBC4013C4A02EB8101C86083
:10434000C4EBC400114601EB80000069A0EB08003B
:10435000C4EBC40102EB81010861A6EB0806C4EBC3
:10436000C402324B03EB820209EB0800D1683246EB
:1043700002F0D0F8C4EBC4002C4901EB8000C06807
:104380003044C4EBC401294A02EB8101C860C4EB8C
:10439000C400114601EB80000069A0EB0600C4EBED
:1043A000C40102EB8101086106EB0800386006E0F9
:1043B0004FF0000A504638604FF00100009000981E
:1043C000BDE8F88F2DE9F041064688463046FFF7F4
:1043D0001DFE04463046FFF724FE07468AE03846B5
:1043E000FFF7FCFAC5B2C4EBC400104901EB800032
:1043F000C168C4EBC4000D4A02EB8000806800F184
:104400000100814229D0C4EBC400114601EB8000B9
:10441000C068C4EBC40152F8211088421FD109E0E2
:10442000003801400044004044020020440A0020BB
:1044300044060020C4EBC400114651F82000C4EB30
:10444000C40102EB810149680844401EC4EBC40169
:1044500002EB81018968884201D1BDE8F081C4EB9B
:10446000C4009E4901EB80008168C4EBC4009B4AF4
:1044700002EB8000806800F10100C4EBC402974B9E
:1044800003EB820290600D70C4EBC400194601EB8F
:104490008000006900F10100C4EBC4011A4602EB80
:1044A00081010861C4EBC400114651F82000C4EB3F
:1044B000C40102EB810149680844C4EBC40102EB6A
:1044C00081018968884209D8C4EBC400114651F8BB
:1044D0002000C4EBC40102EB81018860C4EBC4007E
:1044E0007E4901EB80008069C4EBC4017B4A02EB8A
:1044F0008101486140F225513846FFF7E1FA012871
:104500003FF46DAF00BFA8E72DE9F04106460D4628
:104510003046FFF77BFD04463046FFF782FD074635
:10452000C4EBC4006D4901EB8000C168C4EBC4005A
:104530006A4A02EB8000806800F1010081421ED0CF
:10454000C4EBC400114601EB8000C068C4EBC40199
:1045500052F82110884214D1C4EBC400114651F81E
:104560002000C4EBC40102EB810149680844401EED
:10457000C4EBC40102EB81018968884201D1BDE826
:10458000F081C4EBC400554901EB80008168C4EBA5
:10459000C400524A02EB8000806800F10100C4EBC5
:1045A000C4024E4B03EB820290600D70C4EBC4005A
:1045B000194601EB8000006900F10100C4EBC40161
:1045C0001A4602EB81010861C4EBC400114651F8A0
:1045D0002000C4EBC40102EB810149680844C4EB2C
:1045E000C40102EB81018968884209D8C4EBC40088
:1045F000114651F82000C4EBC40102EB8101886030
:10460000C4EBC400354901EB80008069C4EBC401F0
:10461000324A02EB8101486100BFB0E770B5054640
:104620000E462846FFF7F2FC0446C4EBC4002B49B3
:1046300001EB8000406960B1C4EBC40001EB800075
:104640004069A0F10100C4EBC401244A02EB8101DE
:10465000486170BD00B585B0012144F20400FDF74A
:104660002FFF4FF40070ADF810004FF018008DF8D8
:1046700013004FF003008DF8120004A91848FDF74D
:10468000A7FB4FF48060ADF810004FF004008DF8E8
:10469000130004A91248FDF79BFB4FF4E130009092
:1046A0004FF00000ADF80400ADF80600ADF80800CA
:1046B000ADF80C004FF00C00ADF80A00694609484F
:1046C000FFF75BF8012240F225510648FFF70CF98D
:1046D00001210448FFF7FBF805B000BD440A0020A3
:1046E000000801400038014010B54FF0000400BF41
:1046F00007E0F848025D2146F7A002F0A5F904F1B1
:104700000104062CF5DBF3488179FDA002F09CF949
:1047100010BD10B54FF0000400BF08E0ED48C01D0B
:10472000025D2146FAA002F08FF904F10104092C80
:10473000F4DB10BD10B54FF0000400BF08E0E54801
:104740001130025D2146FBA002F07EF904F1010464
:10475000092CF4DB10BD10B54FF0000400BF08E0D9
:10476000DC481C30025D2146FBA002F06DF904F12B
:104770000104052CF4DB10BD10B54FF0000400BFA0
:1047800008E0D4482430025D2146FBA002F05CF929
:1047900004F10104052CF4DB10BD10B54FF40061E9
:1047A000FE48FDF7D3FB10BD10B54FF40061FB4888
:1047B000FDF7CAFB10BD2A2802D02C2814D108E02E
:1047C0004FF00001F64A11704FF00101F54A1170E7
:1047D000A8E0F549097801F10101F34A11704FF0A1
:1047E0000001F24A11709DE0EF490978092976D25B
:1047F000DFE801F005393C42454B4E545A00EB4985
:10480000097806292CD2DFE801F0030A04150520F7
:1048100000BF00BFA0F13001E54A117021E0A0F116
:104820003001E34A127802EB820201EB4201A94A0D
:10483000D17016E0A0F13001DD4A127802EB82025D
:1048400001EB4201A34A11710BE0A0F13001D84AFB
:10485000127802EB820201EB42019E4A517100E0A4
:1048600000BF00BF56E09B49887153E09949C91DBC
:10487000CE4A127888544DE0964908744AE095492A
:104880001131CA4A1278885444E09249C87641E00E
:1048900090491C31C54A127888543BE08D49243137
:1048A000C24A1278885435E0C049097806292DD2C9
:1048B000DFE801F0030A0416052100BF00BFA0F1E4
:1048C0003001BB4A117022E0A0F13001B84A1278E1
:1048D00002EB820201EB42017E4A917017E018E080
:1048E000A0F13001B24A127802EB820201EB4201E0
:1048F000784A51700BE0A0F13001AD4A127802EB1A
:10490000820201EB4201734A117000E000BF00BF58
:1049100000E000BF00BFA549097801F10101A34AE9
:10492000117000BF00BF704710B504469C48007866
:1049300000286CD09F480078B8B19F4800780828BC
:1049400003D12046FFF737FF0EE04FF000009A49F1
:104950000870984908704FF00100984908704FF0AE
:1049600000008F49087000BF65E02A2C36D02C2C3F
:1049700039D193480079472807D191484079412897
:1049800003D14FF001008C4908708D4800795328FD
:1049900007D18B484079412803D14FF00200864966
:1049A000087087484079562803D14FF004008249A7
:1049B000087083484079432803D14FF008007E49AE
:1049C00008704FF001007B4908707C4908704FF077
:1049D0000000754908707549087017E04FF0000035
:1049E0006F49087012E07648744909784454734856
:1049F000007800F101007149087008460078062827
:104A000003DD4FF000006649087000BF13E0242C5E
:104A100011D16B4804704FF001006149087067497B
:104A200008704FF0000063490870634908705E49E0
:104A300008705E49087010BD5A48007830B14FF0D8
:104A40000000584908704FF0010070470020FCE753
:104A500010B54FF0000416E008E05A48007801282D
:104A600004D14FF000005749087010BD202156486E
:104A7000FFF726F80028F0D05348FEF7AFFFC4B286
:104A80002046FFF751FFFFF7D7FF0128E4D100BF11
:104A9000EBE72DE9F0478CB080464FF000090D4858
:104AA000007800F1640006900A484078A0F1010007
:104AB00005900848807804900648C078039005481F
:104AC000007902900348407901904846099001A876
:104AD0007CE000007C0A0020675F737447505352EB
:104AE0004D43446174612E55544344617465546967
:104AF0006D655B25645D203D2025640D0A00000086
:104B0000537461747573203D2025630D0A00000005
:104B1000675F7374475053524D43446174612E4C28
:104B2000617469747564655B25645D203D2025634F
:104B30000D0A0000675F7374475053524D43446140
:104B400074612E4C6F6E6769747564655B25645D76
:104B5000203D2025630D0A00675F73744750535250
:104B60004D43446174612E53706565645B25645DDB
:104B7000203D2025630D0A00675F73744750535230
:104B80004D43446174612E436F757273655B256498
:104B90005D203D2025630D0A00000000001001404B
:104BA0009D0000209E0000209B0000209C00002013
:104BB0009F0000209A000020900000209900002013
:104BC00091000020A00000200038014001F052FCBC
:104BD000C8F80000FFF788FD6D48807AA0F130002A
:104BE0006B49497AA1F1300101EB810100EB4102EF
:104BF0006748007AA0F130006549C979A1F1300118
:104C000001EB810100EB4100C0EB001002EB8001E1
:104C100047F2305001FB00F15D48007BA0F130000D
:104C200040F2771200FB02F001EBC0015848407BD4
:104C3000A0F13000C0EB001000EB800001EB800120
:104C40005348807BA0F13000C0EB001001EB400125
:104C50004F48C07BA0F1300000EB40000844C8F88A
:104C600004004B48007C532805D1D8F80400C0F15B
:104C70000000C8F804004648407DA0F130004449D7
:104C8000097DA1F1300101EB810100EB41024048B7
:104C9000407CA0F130004FF0640100FB01F13C4882
:104CA000807CA0F1300000EB800001EB400138482F
:104CB000C07CA0F130000844C0EB001002EB800182
:104CC00047F2305001FB00F13148C07DA0F13000C7
:104CD00040F2771200FB02F001EBC0012C48007E8D
:104CE000A0F13000C0EB001000EB800001EB800170
:104CF0002748407EA0F13000C0EB001001EB4001DE
:104D00002348807EA0F1300000EB40000844C8F842
:104D100008001F48C07E572805D1D8F80800C0F108
:104D20000000C8F808001A481C3001F084FC8246D4
:104D300001F0FEFC0446174A174B01F089FC0646B9
:104D400001F007FD8146B9F1FF0F04D94FF0FF00D4
:104D500088F80C0001E088F80C900D48243001F030
:104D60006AFCA8F80E000A488079412803D0084858
:104D70008079612804D14FF0010088F8100003E029
:104D80004FF0000088F810000CB0BDE8F08700007C
:104D90007C0A00209A9999999999FD3F2DE9F04153
:104DA00006460F4614464FF00005B046304601F067
:104DB000F5FBA04202D20020BDE8F08108E03946B0
:104DC000404601F0E2FB054605B905E005F10108A2
:104DD0002000A4F10104F2D100BF2846ECE72DE940
:104DE000F04705460F469046384601F0D7FB82460D
:104DF000384601F0D3FBA8EB000000F101064FF0AC
:104E00000009002E11DD4C4608E0281952463946AB
:104E100001F0CCFB00B903E004F10104B442F4DB7F
:104E200000BFB44201DA05EB04094846BDE8F0874B
:104E3000F0B505460E464FF000042F469A4201D9C0
:104E40000020F0BD1AE04FF0000105E0785CB042B0
:104E500000D103E001F101019942F7D300BF99426B
:104E600006D207EB010401F10100A3EB000301E00E
:104E70004FF0000404B905E004F101071000A2F1AD
:104E80000102E0D100BF2046DBE770B503460C46C7
:104E90004FF000000546FE4EF6B194421CD9014683
:104EA0000FE05E5C302E05DB5E5C392E02DC05F126
:104EB000010501E04FF00005954200D303E001F148
:104EC0000101A142EDD300BF954205D303EB0106DA
:104ED000A6EB020606F1010070BD30B502460B4696
:104EE0004FF000000446014622E0555C412D06DBF0
:104EF000555C462D03DC555CA5F1370412E0555C8A
:104F0000612D06DB555C662D03DC555CA5F157046D
:104F100008E0555C302D05DB555C392D02DC555C15
:104F2000A5F130044FEA001040EA040001F101014C
:104F30009942DAD330BD10B54FF40071D548FDF772
:104F400003F810BD10B54FF40071D248FCF7FEFF16
:104F500010BD10B50221D048FCF7F8FFC820FCF7BF
:104F60007EFA0221CC48FCF7EFFFC820FCF777FA65
:104F700010BD10B54FF48061C84801F0E4FA10BDCF
:104F800010B54FF48071C64801F0DDFA10BD2DE96F
:104F9000F84F0546884691469A465646BF4F4FF011
:104FA000000BCDF80090009898B1BEA001F04CFD28
:104FB0005C4605E0295DC0A001F046FD04F1010456
:104FC00000988442F6D3BDA001F03EFDBCA001F0E4
:104FD0003BFD6A4629460120FFF7BDF8B8F1000FF6
:104FE0003ED036E0A6F10100C6B24FF480600090DA
:104FF0004FF03200FCF733FA6A4639460120FFF7DA
:10500000CCF883460098C0B1BBF1030F15D1B1A015
:10501000009901F019FD4FF0000405E0395DA6A0EC
:1050200001F012FD04F1010400988442F6D3A3A01C
:1050300001F00AFDAEA001F007FD009848B1BBF1F8
:10504000030F06D141463846009AFFF7C8FE00B16B
:1050500001E0002EC6DC00BF16B90120BDE8F88FC4
:105060000020FBE72DE9FC5F0646894692461F4675
:10507000DDF830B0DDF83480884C4FF0000000904F
:10508000CDF804A00198A0B186A001F0DDFC4FF09E
:10509000000505E0715D88A001F0D6FC05F1010571
:1050A00001988542F6D385A001F0CEFC84A001F0E2
:1050B000CBFC01AA31460120FFF74DF847E0A8F1EB
:1050C000010000F0FF084FF4806001904FF03200C3
:1050D000FCF7C5F901AA21460120FFF75EF8009010
:1050E0000198B8B10098032814D187A001F0ACFC56
:1050F0004FF0000505E0615D6FA001F0A5FC05F132
:10510000010501988542F6D36CA001F09DFC6CA0CE
:1051100001F09AFC0198A0B10098032811D107B1C1
:105120003C60BBF1000F02D00198CBF80000B9F150
:10513000000F05D04946204601F011FA08B109E0F8
:1051400008E0B8F1000F02D10120BDE8FC9FB8F1E2
:10515000000FB4DC00BF0020F7E77FB504464FF036
:105160000000039002906D4801F018FA0546FFF721
:1051700000FF282002A903AB2A46CDE900106849A8
:105180006648FFF76FFFA8B90F22DDE90210FFF7AD
:105190007CFE644908600846006810B9012004B02C
:1051A00070BD2CB10F225F480168204601F0B2F9B2
:1051B0000020F4E70120F2E7F0B585B005464FF096
:1051C00000063046049003900446574801F0E6F983
:1051D0000646FFF7CEFE282003A904AB3246CDE9F0
:1051E000001052A15048FFF73DFF00284FD1012287
:1051F0002221DDE90330FFF71BFE044614B901202C
:1052000005B0F0BDECB160788DF80800A0788DF89D
:10521000090002A801F0C2F90746394602A8FFF7C3
:105220005CFEA870E0788DF8080020798DF8090000
:1052300002A801F0B3F90746394602A8FFF74DFE70
:10524000E87003222221DDE90330FFF7F1FD044677
:105250000CB90120D4E7CCB160788DF80800A078B3
:105260008DF8090002A801F099F90746394602A80D
:10527000FFF733FE2871E0788DF8080020798DF86B
:10528000090002A801F08AF9074653E057E074E0EC
:105290009D6500080010014000080140A80A002098
:1052A000A80E002047534D5F53656E644154207330
:1052B000656E640D0A000000256300000D0A000001
:1052C00047534D5F53656E64415420646F6E650DA6
:1052D0000A00000047534D5F53656E6441542072CD
:1052E0006563762025642062797465730D0A000079
:1052F00047534D5F53656E64415420726563762059
:10530000646F6E650D0A000047534D5F53656E6410
:10531000415420726563760D0A0000001270000887
:10532000386E0008A40000209A70000843524547D8
:1053300000000000394602A8FFF7CFFD6871022285
:105340002C21DDE90330FFF773FD04460CB9012081
:1053500056E714B114F8010C687001222C21DDE924
:105360000330FFF765FD04460CB9012048E714B18E
:1053700014F8010C2870002042E7012040E770B5C6
:105380000446FD4801F00AF90546FFF7F2FD042343
:105390002A46FA49F848FFF7FAFDC0B901223A2136
:1053A000F748FFF7FBFCF74908600846006808B9B2
:1053B000012070BDF348006800F10100F149086068
:1053C0000846006801F037F920700020F1E701205D
:1053D000EFE7F8B504464FF0000528460090064672
:1053E000FFF7CEFD6846FFF7CAFF9DF80000A04218
:1053F0001BD0E548E54908602246E549E3480068D6
:1054000001F032FBE148006801F0C8F8054602E00F
:10541000052E00D908E004232A46D849DB48006855
:10542000FFF7B5FD0028F3D100BFF8BD2DE9F0412D
:105430004FF000052F462C464FF00106A046D548F8
:1054400001F0ACF80746FFF794FD19E004F1010400
:105450004FF004033A46C949CE48FFF798FD064687
:1054600016B94FF001080DE005F10100C5B2022D9B
:1054700003DDFFF76EFD4FF000051E20FBF7EFFF89
:105480000F2CE3D300BF4FF000044FF00106C248D9
:1054900001F084F80746FFF76CFD0EE004F101040B
:1054A0004FF004033A46B549BB48FFF770FD064686
:1054B00006B904E01E20FBF7D2FF052CEED300BF97
:1054C0004046BDE8F0812DE9F0414FF000052C4643
:1054D0004FF001062746B14801F060F80546FFF796
:1054E00048FD10E004F101044FF00A032A46AC49DC
:1054F000AA48FFF74CFD064616B94FF0010704E035
:105500001420FBF7ACFF062CECD300BF3846BDE8F7
:10551000F0812DE9FF4104464FF0000635464FF07B
:105520000107A8462846039002909E4801F036F8ED
:105530000646FFF71EFD4EE005F101054FF0140091
:1055400002A903AB3246CDE900108C499548FFF71C
:1055500089FD0746002F3AD101222C210398FFF73D
:105560001DFC914908600846006808B9B84632E059
:105570008D480068A0F102008B4908600846006869
:105580000078302804DB084600680078392806DDFA
:10559000854800684078A0F1300020700EE0824815
:1055A00000684078A0F130007F4909680978A1F1CE
:1055B000300101EB810100EB4100207020780228CE
:1055C00005DB20781F2802DC4FF0010805E01420DD
:1055D000FBF745FF00BF142DAED300BF404604B01B
:1055E000BDE8F0812DE9FF4704464FF0000635463F
:1055F0004FF00107A8462846039002906B4800F040
:10560000CDFF0646FFF7B5FC32E005F101054FF08E
:10561000040002A903AB3246CDE9001057496348A4
:10562000FFF720FD07461FBB01222C210398FFF73F
:10563000B5FB5F49086008460068C8B108460068C5
:1056400010F8010CA0F1300020700846006800F14D
:10565000010008600846006800F0EDFF00EB40091B
:1056600009EBD970C0F34F0060804FF0010801E0F2
:10567000042DCAD300BF404604B0BDE8F08770B522
:1056800004464FF000063546FFF77AFC3E4849498C
:105690000860224648494748006801F0E5F9454856
:1056A000006800F07BFF064604E005F10105052DCA
:1056B00000D908E02823324630493E480068FFF709
:1056C00066FC0028F1D100BF70BD2DE9FF414FF00D
:1056D00000052C464FF00106274620460390029015
:1056E000364800F05BFF0546FFF743FC2AE004F173
:1056F00001044FF0280002A903AB2A46CDE90010AF
:10570000AFF2D8312D48FFF7ADFC0646BEB90122F5
:105710002C21DDE90230FFF78BFB294908600846A0
:10572000006860B1084600684078312804D0084617
:1057300000684078352802D14FF0010704E01420BA
:10574000FBF78DFE0A2CD2D300BF384604B0BDE86B
:10575000F0812DE9FF4105464FF0000634464FF039
:105760000107A046204603900290164800F016FF5D
:105770000646FFF7FEFB4CE0296F0008386E000874
:10578000A80A0020A8000020A80E0020AC000020DD
:105790001A6F0008346E0008596E0008796E000810
:1057A0003B6E00085F6E0008B00000200870000823
:1057B000B4000020B8000020A47000089A7000080F
:1057C000BC000020716E000804F101044FF00A00D3
:1057D00002A903AB3246CDE90010F649F648FFF7BF
:1057E00041FC074697B90F22DDE90210FFF74DFB98
:1057F000F24908600846006840B10F220846016877
:10580000284600F087FE4FF0010804E01420FBF763
:1058100026FE042CD8D300BF404604B0BDE8F0817A
:105820002DE9F04786B006464FF00004A046274613
:105830004FF00109A2462046059004900546E04835
:1058400000F0ACFE8046FFF794FB7AE007F1010719
:105850004FF0280004A905AB4246CDE90010D54918
:10586000D748FFF7FFFB8146B9F1000F66D10F2241
:10587000DDE90410FFF709FBD2490860084600681B
:1058800000285BD04FF0000406E0CE480068005DC1
:1058900003A9085504F10104032CF6D34FF00000CE
:1058A0008DF80F00044608E0C648006800F10300C8
:1058B000005D02A9085504F10104022CF4D34FF055
:1058C00000008DF80A0003A800F0B5FE05464FF071
:1058D000FF00B5FBF0F03070FF2D09D94FF0FF004D
:1058E000B5FBF0F100FB1150A0F10100707006E073
:1058F0004FF0FF00B5FBF0F100FB1150707002A8F3
:1059000000F099FE05464FF0FF00B5FBF0F0B070D7
:10591000FF2D09D94FF0FF00B5FBF0F100FB11504E
:10592000A0F10100F07006E04FF0FF00B5FBF0F1D0
:1059300000FB1151F1704FF0010A04E01420FBF755
:105940008EFD042F82D300BF504606B0BDE8F0871D
:105950002DE9FF414FF000052C464FF00106274688
:10596000204603900290984800F018FE0546FFF785
:1059700000FB30E004F101044FF0280002A903AB62
:105980002A46CDE9001091A18F48FFF76BFB064630
:10599000F6B901223A21DDE90230FFF749FA8D49D3
:1059A00008600846006898B100BF8A48006800F1A6
:1059B0000100884908600846006800782028F4D073
:1059C000084600680078312802D14FF0010704E052
:1059D0001420FBF744FD052CCCD300BF384604B09F
:1059E000BDE8F0812DE9F0414FF000052C464FF065
:1059F00001062746FFF7C4FA77487849086078A27D
:105A000079497648006801F02FF87448006800F082
:105A1000C5FD0546FFF7ADFA11E004F101044FF0B2
:105A20000A032A4663496D480068FFF7B0FA064644
:105A300016B94FF0010704E01420FBF710FD052C08
:105A4000EBD300BF3846BDE8F0812DE9F0414FF0BF
:105A500000052C464FF001062746644800F09EFDE5
:105A60000546FFF786FA10E004F101044FF07803D1
:105A70002A4650495D48FFF78AFA064616B94FF0A4
:105A8000010704E01420FBF7EAFC052CECD300BF6F
:105A90003846BDE8F0812DE9F0414FF000052C4675
:105AA0004FF001062746524800F078FD0546FFF703
:105AB00060FA10E004F101044FF014032A464DA1EE
:105AC0004B48FFF764FA064616B94FF0010704E0A9
:105AD0001420FBF7C4FC052CECD300BF3846BDE80E
