:020000040800F2
:10000000C01800203D400008AD130008AF130008E1
:10001000B3130008B7130008BB130008000000006A
:10002000000000000000000000000000BF130008F6
:10003000C113000800000000C3130008E713000804
:100040005740000857400008574000086114000856
:100050005740000857400008574000085740000824
:100060005740000857400008574000085740000814
:100070005740000857400008574000085740000804
:1000800057400008574000085740000857400008F4
:1000900057400008574000085740000857400008E4
:1000A00057400008574000085740000857400008D4
:1000B0009F140008574000085740000857400008A8
:1000C00057400008574000085740000857400008B4
:1000D0005740000857400008231400084514000842
:1000E000BD1400086F14000857400008574000086E
:1000F0005740000857400008574000085740000884
:100100005740000857400008574000085740000873
:100110005740000857400008574000085740000863
:100120005740000857400008574000085740000853
:10013000DFF80CD006F0CAFD00480047610A00084D
:10014000C018002010B5FCA006F0F0FD4FF0000430
:1001500006E0FB48015DFBA006F0E8FD04F10104A8
:100160000F2CF6D3F8A006F0E1FDF8A006F0DEFDB6
:100170004FF0000406E0F948015DF9A006F0D6FD55
:1001800004F10104112CF6D3EFA006F0CFFD10BD51
:1001900010B5F5A006F0CAFD4FF0000406E0F548E2
:1001A000015DEFA006F0C2FD04F10104802CF6D33E
:1001B000E5A006F0BBFD10BD10B5EFA006F0B6FD42
:1001C0004FF0000406E0F048015DE5A006F0AEFD4A
:1001D00004F10104ED48007800EB400101EBC000A0
:1001E0000830A042EFD8D8A006F0A0FD10BD10B591
:1001F000E7A006F09BFD4FF0000406E0E248015D39
:10020000D7A006F093FD04F10104562CF6D3CEA03E
:1002100006F08CFD10BD10B54FF00100E0490880DC
:10022000E0490870E048E14908604FF00000E0490B
:100230000860E04908604FF00F020146DE4806F012
:10024000EDFA4FF0000405E04FF00000C3490855F7
:1002500004F10104112CF7D34FF0000405E04FF036
:100260000000C449085504F10104802CF7D34FF075
:10027000000405E04FF00000C349085504F10104F3
:10028000FF2CF7D90F220021AD4806F0C7FA4FF036
:10029000000405E04FF03000C849085504F101049E
:1002A0000F2CF7D318220021C54806F0B7FA062212
:1002B0000021C44806F0B2FA56220021B34806F0E5
:1002C000ADFA10BD70B54FF0000400BF254607E041
:1002D0004FF07000A749085504F1010405F101052C
:1002E000022DF5D34FF00200A249085504F1010494
:1002F0004FF00000085504F101044FF025000855A7
:1003000004F10104A64800884FEA1020085504F1C2
:100310000104A3480088085504F101044FF00005CA
:1003200009E0C5F10300A849085C9249085504F1A9
:10033000010405F10105042DF3D34FF000050BE096
:10034000C5F10301A04800F10400405C894908554B
:1003500004F1010405F10105042DF1D34FF000056E
:100360000BE0C5F10301984800F10800405C8149A9
:10037000085504F1010405F10105042DF1D392485B
:10038000007B7C49085504F101044FF000050BE0A7
:10039000C5F101018C4800F10E00405C754908551B
:1003A00004F1010405F10105022DF1D34FF0000520
:1003B00007E08648405D6F49085504F1010405F1E6
:1003C0000105022DF5D34FF0000508E07F48801CA1
:1003D000405D6849085504F1010405F10105022D4D
:1003E000F4D34FF0000507E07948405D61490855B6
:1003F00004F1010405F10105022DF5D34FF00000D1
:100400005C49085504F10104054608E07048801C69
:10041000405D5849085504F1010405F10105022D1C
:10042000F4D36948007C5349085504F101044FF0A6
:100430000000085504F101046348007C085504F1EC
:1004400001044FF0000509E0C5F101016148405C7D
:100450004849085504F1010405F10105022DF3D3C3
:100460004FF000004349085504F101045A48007850
:10047000085504F101044FF0000508E05148801CC4
:10048000405D3C49085504F1010405F10105022DC8
:10049000F4D34FF0000508E04A48001D405D35499F
:1004A000085504F1010405F10105022DF4D32A2CAD
:1004B00002D04AA006F03AFC70BD70B54FF00004BF
:1004C00000BF254607E04FF070002A49085504F1A7
:1004D000010405F10105022DF5D34FF00400254973
:1004E000085504F101044FF00000085504F101041F
:1004F0004FF01C00085504F10104294800884FEA18
:100500001020085504F1010425480088085504F11D
:1005100001044FF0000509E0C5F103002A49085C19
:100520001449085504F1010405F10105042DF3D324
:100530004FF0000566E00000494D45493A000000D3
:100540002E03002025632D000D0A00000D0A4C4FDC
:1005500047494E204D53473A000000003201002029
:10056000307825782D0000000D0A475053204D5358
:10057000473A0000430100200D0A53544154494FAB
:100580004E204D53473A0000C3010020D8020020FE
:100590000D0A464143544F5259204D53473A0000EB
:1005A0001A0000201C0000208051010020000020C3
:1005B0002400002028000020FC0000200B01002067
:1005C0001A01002004000020C402002014000020B2
:1005D000100000200C000020180000205061636B08
:1005E0004770734D7367204552524F52210A0000E5
:1005F000C5F10301F948405CF949085504F10104CB
:1006000005F10105042DF3D34FF000050BE0C5F112
:100610000301F24800F10400405CF149085504F17F
:10062000010405F10105042DF1D3EC48001F007B06
:10063000EB49085504F101044FF000050BE0C5F14A
:100640000101E64800F10A00405CE549085504F163
:10065000010405F10105022DF1D34FF0000507E07B
:10066000E048405DDE49085504F1010405F101054B
:10067000022DF5D34FF0000508E0DA48801C405DFC
:10068000D749085504F1010405F10105022DF4D301
:100690004FF0000507E0D448405DD149085504F10A
:1006A000010405F10105022DF5D34FF00000CC49FE
:1006B000085504F10104054608E0CB48801C405D64
:1006C000C749085504F1010405F10105022DF4D3D1
:1006D000C248001F007CC249085504F101044FF0D4
:1006E0007100085504F10104212C02D0BFA006F0CE
:1006F0001DFB70BD70B54FF0000635462C4600BF9F
:1007000000BF07E04FF07000BE49085504F1010436
:1007100006F10106022EF5D34FF0A000B9490855A5
:1007200004F101044FF00000085504F10104B6483B
:10073000007800EB400101EBC00000F10300B1497B
:10074000085504F10104B14800884FEA102008550B
:1007500004F10104AD480088085504F10104AA48D9
:100760000078085504F101044FF0000673E04FF0E3
:1007700000050FE006EB4601A34800F1020000EB84
:100780008100C5F10101405C9E49085504F1010456
:1007900005F10105022DEDD34FF0000511E006EB48
:1007A0004601994800F1020000EB810000F10200CF
:1007B000C5F10101405C9349085504F1010405F1BC
:1007C0000105022DEBD34FF0000511E006EB4601C9
:1007D0008D4800F1020000EB810000F10400C5F13A
:1007E0000101405C8749085504F1010405F1010548
:1007F000022DEBD34FF0000511E006EB46018248D5
:1008000000F1020000EB810000F10600C5F10201D9
:10081000405C7C49085504F1010405F10105032DF4
:10082000EBD306EB4601784800F1020000EB8100B3
:10083000807A7449085504F1010406EB46017248B8
:1008400000F1020000EB8100C07A6E49085504F106
:10085000010406F101066C480078B04287D86A4866
:10086000007800EB400101EBC0000830A04202D04C
:1008700067A006F05BFA70BD70B54FF0000400BFD2
:10088000254607E06848405D6849085504F10104C1
:1008900005F10105022DF5D36348807863490855B9
:1008A00004F101044FF0000508E05F48C01C405D02
:1008B0005E49085504F1010405F10105022DF4D348
:1008C0004FF0000508E05848401D405D5749085565
:1008D00004F1010405F10105022DF4D34FF00005E8
:1008E00008E05148C01D405D5049085504F101041D
:1008F00005F10105082DF4D34B48807D4B4908557F
:1009000004F101044848C07D085504F10104112C8C
:1009100002D047A006F00AFA70BD70B504460D4635
:1009200002EBD2764FEA660606F101069E4201DB33
:100930000F2A01D0002070BD207800F00F00287031
:10094000104602EBD0764FEA66010FE004EB41005F
:1009500010F8010C4FF0F00606EA001014F81160D0
:1009600006F00F0630446854A1F101010029EDD1D1
:100970000120E0E770B505460C464FF070002A49AB
:10098000087048704FF0010088704FF00000C87088
:100990004FF00C01244801714FEA1420224948719C
:1009A000084684714FF008034FF00F0200F1070171
:1009B0002846FFF7B2FF40B90F2200211A48C01D98
:1009C00005F02CFF20A006F0B1F94FF00100164908
:1009D00088754FF02000C87570BD0000C802002067
:1009E0004301002014000020100000205061636BC0
:1009F000416C61726D4D7367204552524F52210A0E
:100A000000000000C3010020D80200201A000020CE
:100A10005061636B53746174696F6E4D73672045E9
:100A200052524F52210A00001A01002032010020C8
:100A30005061636B4C6F67696E4D7367204552520E
:100A40004F52210A00000000494D45492070726F45
:100A500063657373204552524F52210A0000000013
:100A600088B04FF00005284607900746804606905C
:100A70000446834681460590824604900390029086
:100A80000646019000F06CFF03F0B8FE04F0D3FAC4
:100A900000F06BFD01214FF0C05001F06CFD00F043
:100AA000E3FD00F0BCFD00F05DFE00F0F5FD00F0A0
:100AB00083FE00F0E9FE002003F0D1F900F0E9FE2A
:100AC0000121002003F0E1F900F01AFF012003F0FA
:100AD000DDFA00F02DFF012240F22551FD4802F021
:100AE0004FFF00F056FEFFF796FBE4E24FF49670DE
:100AF00000F00FFD4FF0000006900446834681464B
:100B00000746079003F00DFA18B1F3480068012872
:100B10007CD1002003F005FA012801D1049002E005
:100B20004FF00000049004F07FFAC82000F0F1FCC0
:100B3000E4E007F10100C7B204F0F5FC044604B993
:100B4000DCE004F03CFD044604B9D7E0E34804F0DF
:100B50005CFD044604B9D1E004F033FE044604B958
:100B6000CCE0022004F007FEDD4804F0A0FBDD48E5
:100B700004F06BFE0446DC4804F0CAFE04464FF065
:100B8000000004F0A3FC04F05BFF044604B9B5E0E8
:100B9000D64804F0A3FD0446D54805F0C8FB04463A
:100BA000A0E008F1010000F0FF0805F057FA01A8E5
:100BB00005F0F8F904F08EFF044604B992E001A8AC
:100BC00005F0F0F904F0B9FF044601A805F0EAF9D0
:100BD00004F0D9FF044601A805F0E4F905F03FF858
:100BE000044604B97EE001A805F0DCF94FF00100ED
:100BF000C04908804FF0000508460188B948FFF752
:100C0000B9FEFFF739FEFFF79DFA3DE019E205F165
:100C1000010502AB03AA4FF01101B74805F001F935
:100C20008346BBF1000F29D1B4A1DDE9022004F015
:100C300050F90646F6B1F0794FEA0060317A00EBE0
:100C40000140717A00EB0120B17A00EB010A5146B4
:100C5000ABA006F06BF8BAF13C0F05D9AC48824561
:100C600002D2AC48C0F800A0AA480168AAA006F0C9
:100C70005DF802E0AEA006F059F807E0002003F0AE
:100C8000F6F8B3A006F052F8052DC0D300BF4FF020
:100C900000059848008800F1010096490880FFF798
:100CA00029FD9348007800EB400101EBC00000F102
:100CB00008000590FFF780FA0CE005F10105AC484B
:100CC000059904F0F7FF8346BBF1000F02D14FF006
:100CD000010901E0052DF0D300BFB9F1010F00D1EA
:100CE00004E000BFB8F1040FFFF65BAF00BF4FF0A8
:100CF0000008B9F1010F00D103E000BF042FFFF697
:100D000018AF00BF4FF00007B9463D4605F0CAF9DD
:100D100003F06DFD97A006F009F8C82000F0F9FB7C
:100D200036E0079800F10100C0B2079000F076FDB0
:100D300003F0B4FE069000F07BFD0698012810D168
:100D40004FF0000090490870904803F0C8FE8F48AB
:100D5000007C012805D103F051FD8DA005F0E6FFD0
:100D600019E0012001F0F3FC00BF012001F0E2FCDA
:100D70000028FAD001F088FC0A30009001F0A9FCAC
:100D800001F0C2FC0121084601F003FA00F029FC41
:100D900007981228C5DB00BF05F0AAF94FF000073D
:100DA000B8463C46A34648E107F10100C7B204F04B
:100DB000BAFB044604B940E104F001FC044604B95E
:100DC0003BE1464804F021FC044604B935E104F057
:100DD000F8FC044604B930E1022004F0CCFC4048A1
:100DE00004F065FA3F4804F030FD04463E4804F044
:100DF0008FFD04464FF0000004F068FB04F020FE75
:100E0000044604B919E1394804F068FC044608E1D5
:100E100008F1010000F0FF0805F020F901A805F035
:100E2000C1F804F057FE044604B9FAE001A805F041
:100E3000B9F804F082FE044601A805F0B3F804F006
:100E4000A2FE044601A805F0ADF804F008FF044630
:100E500004B9E6E001A805F0A5F84FF00005254823
:100E6000008800F10100234908800498012810D16E
:100E70001948006801280CD1FFF71FFB4FF0210033
:100E800005904FF001004A4908604AA005F04EFF66
:100E90000BE0FFF717FA4FF02A0005904FF0000023
:100EA0004349086047A005F041FFFFF771F9ADE045
:100EB00005F101054748059904F0FCFE8346BBF1A6
:100EC000000F06D14FF00109394802680248016855
:100ED00082E09BE000440040240000201800002035
:100EE0000E0000202E030020140000200A00002025
:100EF000D80200201A00002032010020707000008B
:100F0000736C656570536563203D2025640A00009D
:100F100000A3020020000020675F756953657453C9
:100F20006C656570536563203D2025640A000000F0
:100F30005365727665722053657420536C656570D5
:100F40002054696D6572204552524F520A000000CC
:100F5000475052535F53656E6444617461204C4F37
:100F600047494E204D5347204661696C0A000000F6
:100F7000C30100200D0A20475053506F7765724F10
:100F80006E200D0A000000001C000020C40200209A
:100F9000475053446174612056616C696420616EEE
:100FA00064205475726E4F4646204750530D0A0018
:100FB000280000205061636B416C61726D4D736756
:100FC0000D0A00005061636B4770734D73670D0A23
:100FD0000000000043010020C3A005F0A7FECE489A
:100FE0000068012808D1CD480068012804D14FF0DD
:100FF0000000C949086003E04FF00100C6490860DD
:10100000C5480168C6A005F091FE02E0052DFFF479
:101010004FAF00BF4FF00005B9F1010F00D104E060
:1010200000BFB8F1040FFFF6F3AE00BF4FF00008A9
:10103000B9F1010F00D103E000BF042FFFF6B4AEF9
:1010400000BF002002F00BFF05F019F803F0D6FBFB
:1010500003F0F1FF012001F07AFB00BF012001F055
:1010600069FB0028FAD0002002F05BFF01280DD1B7
:10107000A9480068012809D101F006FB3C30009026
:1010800001F027FBACA005F051FE0CE001F0FCFAEA
:10109000AE4909680844009001F01BFBAB480168A9
:1010A000ABA005F043FE01F02FFB0121084601F043
:1010B00070F800F096FA19E570B54FF000052C466F
:1010C00000BF00BF07E04FF07200A749085504F1C8
:1010D000010405F10105022DF5D34FF07700A24977
:1010E000085504F101044FF00000085504F1010413
:1010F0004FF05100085504F101049C4800884FEA64
:101100001020085504F1010498480088085504F19E
:1011100001044FF0000509E0C5F103009449085CA3
:101120009149085504F1010405F10105042DF3D39B
:101130004FF000050BE0C5F103018D4800F10400FC
:10114000405C8949085504F1010405F10105042DAD
:10115000F1D34FF000050BE0C5F10301844800F125
:101160000800405C8049085504F1010405F10105BF
:10117000042DF1D37E48007B7B49085504F101041E
:101180004FF000050BE0C5F10101794800F10E00B8
:10119000405C7549085504F1010405F10105022D73
:1011A000F1D34FF0000507E07248405D6E490855E5
:1011B00004F1010405F10105022DF5D34FF00005FE
:1011C00008E06C48801C405D6749085504F1010443
:1011D00005F10105022DF4D34FF0000507E0664844
:1011E000405D6149085504F1010405F10105022D36
:1011F000F5D34FF000005C49085504F101040546A1
:1012000008E05D48801C405D5749085504F1010421
:1012100005F10105022DF4D35548007C52490855CB
:1012200004F101044FF00000085504F1010402F03C
:1012300078FE4D49085504F101044FF0000509E01E
:10124000C5F101014D48405C4749085504F10104CE
:1012500005F10105022DF3D34FF000004249085576
:1012600004F1010446480078085504F101044FF0E8
:10127000000507E04348405D3B49085504F101047F
:1012800005F101050F2DF5D34FF0000507E03E48AD
:10129000405D3549085504F1010405F101050F2DA4
:1012A000F5D34FF0000507E03848405D2E4908555A
:1012B00004F1010405F101050F2DF5D33448007840
:1012C0002949085504F101044FF00200085504F1C2
:1012D00001044FF00000085504F10104562C02D01F
:1012E0002CA005F023FD70BD73656E645F6F6B20ED
:1012F000616C61726D666C6167203D2025643B20E6
:10130000675F616C61726D5061636B6574466C619F
:1013100067203D2025640A002400002028000020CA
:1013200073656E645F6F6B20616C61726D666C617A
:1013300067203D2025640A00616C61726D6D6F64E9
:101340006520736C6565700A0000000020000020B5
:101350006E6F726D616C6D6F646520736C65657026
:101360002025640A00000000C30100201A000020AC
:10137000C402002014000020100000200C000020F7
:10138000180000202E030020FC0000200B0100208C
:101390001C0000205061636B466163746F72794D6D
:1013A0007367204552524F52210A0000704700BF18
:1013B000FEE700BFFEE700BFFEE700BFFEE77047A5
:1013C000704770474348006870476420704700B515
:1013D0000146FFF7F7FF024600BFFFF7F3FF801A51
:1013E0008842FAD900BD10B53A48006800F1010002
:1013F000384908604FF00001084603F039F9002130
:10140000012003F035F900F08CF810BD032800D35B
:101410007047314B43F82010304B43F8202000BF79
:10142000F6E710B540F225512D4802F0BAFB40B165
:101430002B4802F01FFBC4B221464FF0010003F01D
:101440008DF810BD10B52448806830B123488168FC
:10145000214882680220904701E000BFFEE710BDEE
:1014600010B5032001F090F901F04EF910BD10B550
:10147000022001F076F988B14FF4003000F063FCEF
:10148000012000F0B8FE10B1012000F0C1FE01F013
:101490003BF9022001F078F901F036F910BD10B5E2
:1014A0000121880702F05AF938B10121880702F0BA
:1014B00069F94FF001000B49087010BD10B54FF4E9
:1014C000004000F02DFC18B14FF4004000F03BFC50
:1014D00010BD00002C000020400300204C03002021
:1014E00000440040A800002010B500280ADA4FEAA6
:1014F00001724FEA1264FB4A00F00F03A3F10403E8
:10150000D45405E04FEA01724FEA1263F64A1354CD
:1015100010BDF649086000BFF44909680029FBD1F5
:101520007047F248006828B1F0480068A0F1010057
:10153000EE490860704710B54FF00001EC4A1268A0
:101540004FF47A74B2FBF4F30CE04FF00602B3FBF5
:10155000F2F2A2F1010100BF0A00A1F10101FBD1E9
:10156000A0F101000028F0D110BD10B5E0480068DE
:101570004FF06401B0FBF1F4B4F1807F02D34FF07F
:10158000010016E024F07F40A0F101004FF0E021BF
:1015900048614FF00F014FF0FF30FFF7A5FF4FF00C
:1015A00000004FF0E02188614FF0070008614FF024
:1015B000000008B100BFFEE70C214FF0FF30FFF73D
:1015C00093FF10BD10B54FF4803000F053FE00F0D3
:1015D00096FE0446012C03D14FF4A06000F0E5FE16
:1015E00010BD10B54FF4803000F044FE00F087FECF
:1015F000C04908700846007801280FD100F0B7FEF6
:1016000000BF392000F059FE0028FAD0022000F077
:10161000B1FE00BF00F0B9FE0828FBD110BD10B527
:10162000012000F0A2FD00F09BFA012000F00CFF69
:1016300000BF612000F041FE0028FAD04FF4007096
:1016400000F005FF012000F009FF01F064F847F603
:10165000FF7001F030F801F057F80121022000F08E
:10166000F1FF01F051F810BD1CB54FF4003000F04F
:101670006AFB4FF4003000904FF000008DF804003A
:101680004FF008008DF805004FF001008DF80600BE
:10169000684600F0D4FA1CBD3EB54FF000049448F3
:1016A00000684FF47A71B0FBF1F0A0F1010084B250
:1016B0004FF00101084600F05EFF4FF0804001F05E
:1016C0007DF842F20F70ADF8040048F69F40ADF887
:1016D00000004FF00000ADF80600ADF802006946CA
:1016E0004FF0804001F03EF90121880702F032F806
:1016F00001221146900701F00EFD0121880701F03B
:10170000EEFC0021012000F036FF3EBD0EB50121A8
:10171000042000F030FF784801F050F848F6CE2061
:10172000ADF804004FF6FF70ADF800004FF0000078
:10173000ADF80600ADF8020069466F4801F012F9F5
:1017400001216D4802F006F8012211466A4801F0B5
:10175000E2FC0121684801F0C2FC0021042000F0F5
:101760000AFF0EBD08B54FF4A06000F079F94FF004
:1017700029008DF800004FF000008DF801008DF871
:1017800002004FF001008DF80300684600F06EF98A
:1017900008BD08B54FF026008DF800004FF0070097
:1017A0008DF801004FF001008DF802008DF8030064
:1017B000684600F05BF908BD08B54FF4E06000F042
:1017C0004FF94FF01C008DF800004FF000008DF82D
:1017D00001004FF003008DF802004FF001008DF87A
:1017E0000300684600F042F908BD08B54FF4E06018
:1017F00000F036F94FF01E008DF800004FF00000A9
:101800008DF801004FF004008DF802004FF0010048
:101810008DF80300684600F029F908BD10B50121D4
:10182000084600F0A8FE0121880701F058FC10BD11
:1018300010B500214FF0804001F051FC0021012043
:1018400000F099FE10BD10B50121042000F093FEB8
:101850000121294801F043FC10BD10B500212648A4
:1018600001F03DFC0021042000F085FE10BD10B504
:1018700045F2555000F04CFC062000F04CFC40F2C4
:101880001A6000F04BFC10BD10B5002002F0C2FA47
:1018900010BD1FB54FF4165000904FF00000ADF88A
:1018A0000400ADF80600ADF80800ADF80C004FF0EC
:1018B0000C00ADF80A0069464FF0020002F03CFB54
:1018C0001FBD70B504460D46E1B20C4802F0CEF8DB
:1018D00000BF4021094802F03FF90028F9D0204616
:1018E00070BD000018ED00E000E400E034000020CE
:1018F0004C0000203000002000080040004800405C
:101900001FB54FF4165000904FF00000ADF80400E2
:10191000ADF80600ADF80800ADF80C004FF00C0073
:10192000ADF80A0069464FF0000002F005FB1FBD4C
:101930001FB54FF4165000904FF00000ADF80400B2
:10194000ADF80600ADF80800ADF80C004FF00C0043
:10195000ADF80A0069464FF0010002F0EDFA1FBD34
:1019600008B50121142000F0F7FD4FF00200ADF89A
:1019700000004FF010008DF803004FF003008DF8C9
:1019800002006946324800F04DFA4FF42060ADF88D
:1019900000004FF010008DF803004FF003008DF8A9
:1019A000020069462B4800F03DFA4FF00400ADF804
:1019B00000004FF010008DF803004FF003008DF889
:1019C00002006946244800F02DFA4FF02000ADF8DF
:1019D00000004FF010008DF803004FF003008DF869
:1019E000020069461D4800F01DFA4FF48060ADF812
:1019F00000004FF028008DF803006946154800F0FC
:101A000011FA08BD08B50121142000F0A5FD4FF022
:101A10000200ADF800004FF004008DF803004FF015
:101A200003008DF802006946094800F0FBF94FF405
:101A30002060ADF800004FF004008DF803004FF077
:101A400003008DF802006946024800F0EBF908BD7A
:101A5000000801400010014000140140000C01404A
:101A6000384940EA0101384A1160704770B54FF0BB
:101A700000010B464FF00F02C4784CB3324C24687F
:101A800004F4E064C4F5E0644FEA1421C1F10403F6
:101A900022FA01F2447804FA03F1847804EA020499
:101AA00044EA01014FEA0111284C0678A155047857
:101AB00004F01F054FF0010404FA05F405784FEA1D
:101AC00065154FF0E02606EB8505C5F800410CE0F2
:101AD000047804F01F054FF0010404FA05F41C4DCE
:101AE00006784FEA661645F8264070BD194A01EAA5
:101AF000020242EA0002184B1A60704731B1174ADD
:101B0000126842EA0002154B1A6005E0134A126897
:101B100022EA0002114B1A607047042808D14FF0E6
:101B2000E021096941F004014FF0E022116107E072
:101B30004FF0E021096921F004014FF0E02211612A
:101B4000704700000000FA050CED00E000E400E042
:101B500080E100E080FFFF1F08ED00E010ED00E0F5
:101B600010B5012000F034FD002000F031FD10BD63
:101B70002449086070472449086070472349086079
:101B8000704701464FF00000214A10884FF67F420F
:101B900000EA020040EA01001D4A10807047014639
:101BA0004FF000001A4A10884FF6807200EA0200D7
:101BB00040EA0100164A108070474FF00002154AB3
:101BC00002441160704701464FF00002114A0A4476
:101BD000108870470D4818300068C0B270470E4832
:101BE000008840F001000C490880704707481C300D
:101BF0000068C0B270470848008840F002000649FB
:101C00000880704704860D4200860D4288860D428A
:101C10002C6C0040006C0040346C00404FF0000021
:101C20004A49086001F10401086001F104010860FB
:101C300001F10401086046484649086070474FF0CA
:101C4000000142498279002A40D00A46126803689E
:101C500022EA03020B461A6001F1040212680368CB
:101C600022EA030201F104031A60027911440A68AE
:101C7000036842EA03020A60374A1268036822EAEC
:101C80000302354B1A6003F104021268036822EA6A
:101C90000302324B1A604279102A0ED12E4A126882
:101CA000036842EA03022C4B1A602C4A126803684C
:101CB00042EA0302294B1A600FE024494279114499
:101CC0000A68036842EA03020A6006E002791144E6
:101CD0000A68036822EA03020A6070474FF00001B5
:101CE000016001714FF00C0141714FF000018171F1
:101CF00070471B49096841EA0001194A11607047A1
:101D000001464FF00000134A12680A4202D04FF019
:101D1000010001E04FF0000070470E490860704775
:101D200001464FF000000246084B1B6803EA01021F
:101D3000084B1B680B4203D012B14FF0010001E0C9
:101D40004FF00000704703490860704700040140ED
:101D5000FFFF0F0014040140080401400C0401407F
:101D60001004014010B50446DE48844208D1012128
:101D7000042000F00FFC0021042000F00BFC46E0E2
:101D8000D948844208D10121082000F003FC002139
:101D9000082000F0FFFB3AE0D448844208D101213A
:101DA000102000F0F7FB0021102000F0F3FB2EE0E4
:101DB000CF48844208D10121202000F0EBFB002114
:101DC000202000F0E7FB22E0CA48844208D101212C
:101DD000402000F0DFFB0021402000F0DBFB16E09C
:101DE000C548844208D10121802000F0D3FB0021A6
:101DF000802000F0CFFB0AE0C048844207D10121D7
:101E0000801500F0C7FB0021A01500F0C3FB10BD3A
:101E100010B50121084600F0BDFB0021012000F0B3
:101E2000B9FB10BD2DE9F04102464FF000052E46EA
:101E3000284603460446074691F803C00CF00F05F8
:101E400091F803C01CF0100F03D091F802C04CEAC7
:101E50000505B1F800C01CF0FF0F35D014684FF035
:101E600000002EE04FF0010C0CFA00F3B1F800C0B6
:101E70000CEA03069E4222D14FEA80034FF00F0C7A
:101E80000CFA03F724EA070405FA03FC4CEA0404FD
:101E900091F803C0BCF1280F06D14FF0010C0CFAE9
:101EA00000FCC2F814C00AE091F803C0BCF1480F6E
:101EB00005D14FF0010C0CFA00FCC2F810C000F183
:101EC00001000828CED31460B1F800C0BCF1FF0FA8
:101ED00038DD54684FF0000031E000F1080C4FF09D
:101EE000010808FA0CF3B1F800C00CEA03069E42A0
:101EF00023D14FEA80034FF00F0C0CFA03F724EACA
:101F0000070405FA03FC4CEA040491F803C0BCF191
:101F1000280F05D100F1080C08FA0CF8C2F814805B
:101F200091F803C0BCF1480F07D100F1080C4FF045
:101F3000010808FA0CF8C2F8108000F10100082826
:101F4000CBD35460BDE8F0814FF6FF7101804FF0B4
:101F5000020181704FF00401C170704702464FF0DA
:101F6000000093680B4202D04FF0010001E04FF0F7
:101F7000000070470146886880B2704702464FF003
:101F80000000D3680B4202D04FF0010001E04FF097
:101F9000000070470146C86880B270470161704711
:101FA000416170470AB1016100E041617047C16061
:101FB00070474FF4803242EA01028261816182619E
:101FC00082698269704702464FF000004C4B1868E6
:101FD0004FF6807300EA030040EA021040EA010075
:101FE000474B186070474749C8617047F0B50A46CB
:101FF0004FF000031C4619460D4600F00046B6F1AE
:10200000004F02D13E4EF16901E03D4E7168C0F3D0
:10201000034583B200F44016B6F5401F08D121F005
:102020007061374E766826F07066354F7E6017E037
:1020300000F48016B6F5801F08D14FF0030606FAAB
:1020400005F421EA040141F0706109E04FEA5056BD
:102050004FEA061603FA06F621EA060141F070611E
:102060003AB14FEA50564FEA061603FA06F646EA28
:10207000010100F00046B6F1004F02D1204EF1619F
:1020800001E01F4E7160F0BD30B54FF000024FEA25
:1020900081734FEA13744FF00F0303FA04F21A4BE3
:1020A0004FEAA10453F8243023EA0203164C4FEA06
:1020B000A10544F8253023464FEAA10453F8243003
:1020C0004FEA81744FEA147400FA04F443EA0403FB
:1020D0000D4C4FEAA10544F8253030BD0B4908608E
:1020E0007047000000080140000C01400010014052
:1020F0000014014000180140001C01400020014074
:10210000000001400000204208000140DC002042A5
:102110000F49086070470E49486070470C49886055
:1021200070474AF6AA200A49086070474CF6CC402E
:1021300007490860704701464FF00000044AD26822
:102140000A4202D04FF0010001E04FF0000070475A
:102150000030004010B50121080700F02AFA0021E4
:102160004FF0805000F025FA10BD2D4908627047ED
:102170002B490861704701464FF00000294A10685A
:1021800020F0E00040EA0100106070472649086036
:10219000704710B502464FF00000224B186820F03F
:1021A000030040EA02001860204B1B6843F0040360
:1021B0001E4C2360012901D130BF00E020BF1B4B22
:1021C0001B6823F00403194C236010BD15480068F8
:1021D00040F00400134908600846006840F002001F
:1021E00008601248006840F004001049086000BF11
:1021F00000BF30BF704701464FF00000094A5268E7
:102200000A4202D04FF0010001E04FF00000704799
:102210000449096841EA8001024A116070470000E0
:1022200000000E4200700040A0000E4210ED00E0E1
:10223000F748006840F00100F5490860084640682A
:10224000F44900EA0100F249486008460068F24992
:1022500000EA0100EE4908600846006820F480208A
:1022600008600846406820F4FE0048604FF41F00F4
:1022700088607047E649096821F48031E44A1160BA
:102280001146096821F480211160B0F5803F03D028
:10229000B0F5802F0ED106E0DD49096841F48031A8
:1022A000DB4A116007E0DA49096841F4A021D84A05
:1022B000116000E000BF00BF704710B501464FF04D
:1022C0000002134610464FEA6112012A02D1D04C97
:1022D000236806E0022A02D1CD4C236A01E0CC4CEF
:1022E000636A01F01F024FF0010404FA02F41C4279
:1022F00002D04FF0010001E04FF0000010BD70B5BA
:102300004FF000042546264600BF3120FFF7D5FFD9
:10231000064604F10104B4F5A06F01D0002EF4D0FC
:102320003120FFF7CAFF10B14FF0010501E04FF077
:102330000005284670BD01464FF00000B44A106801
:1023400020F0F80040EAC10010607047B34908600F
:10235000704702464FF00000AD4B586820F47C10E7
:1023600042EA010343EA0000A94B58607047AB49B9
:102370000866704701464FF00000A54A506820F0FB
:10238000030040EA010050607047A148406800F037
:102390000C00704701464FF000009D4A506820F045
:1023A000F00040EA01005060704701464FF0000025
:1023B000974A506820F4E06040EA0100506070479E
:1023C00001464FF00000924A506820F4605040EA05
:1023D000C1005060704731B18D4A527A42EA000222
:1023E0008B4B5A7208E08A4A527A6FEA0003DBB2DA
:1023F00002EA0302864B5A727047894908607047A7
:1024000001464FF00000824A506820F4404040EA04
:102410000100506070474FF00001824A11707C4A01
:1024200082F82010012802D004280AD104E04FF0DD
:1024300001017C4A117005E04FF00501794A1170E5
:1024400000E000BF00BF70477749086070477049DF
:10245000096A41EA00016E4A1162704773490860D7
:10246000704730B54FF000010A460C460B46684DE8
:102470006D6805F00C0121B1042905D0082927D188
:1024800005E06B4D056026E0694D056023E0604D79
:102490006D6805F470125E4D6D6805F480344FF080
:1024A000020505EB924224B9624D02FB05F5056079
:1024B0000DE0574D6D6815F4003F04D05D4D02FBF3
:1024C00005F5056003E05A4D02FB05F5056002E0E5
:1024D000574D056000BF00BF4D4D6D6805F0F00120
:1024E0004FEA1111544D6B5C056825FA03F5456000
:1024F000474D6D6805F4E0614FEA11214E4D6B5C6C
:10250000456825FA03F58560414D6D6805F4605115
:102510004FEAD121484D6B5C456825FA03F5C5604B
:102520003B4D6D6805F440414FEA9131434D6B5C82
:10253000C568B5FBF3F5056130BD31B1344A526968
:1025400042EA0002324B5A6105E0314A526922EAFE
:1025500000022F4B5A61704731B12D4A926942EA0D
:1025600000022B4B9A6105E0294A926922EA000297
:10257000274B9A61704731B1254AD26942EA00027D
:10258000234BDA6105E0224AD26922EA0002204B9D
:10259000DA61704731B11E4AD26842EA00021C4B30
:1025A000DA6005E01A4AD26822EA0002184BDA60C3
:1025B000704731B1164A126942EA0002144B1A619F
:1025C00005E0134A126922EA0002114B1A617047B2
:1025D0001B49086070471149C86470470C49C871AD
:1025E00070470B48406A40F0807009494862704764
:1025F00001464FF00000064A92680A4202D04FF0AE
:10260000010001E04FF000007047014988727047F7
:10261000001002400000FFF8FFFFF6FE00004242FB
:10262000D800424220100240800442423C04424210
:1026300000127A0000093D00380000204800002008
:102640004004424231B1554A128842EA0002534BDB
:102650001A8008E0514A12886FEA00039BB202EA2E
:1026600003024E4B1A8070474D48008840F010001E
:102670004B49088070474A4800884FF6EF7100EADE
:1026800001004749088070474FF000014548018824
:10269000A0F10400008841EA0040704700B50246FE
:1026A000FFF7E2FF4FEA12403F4908803D490A80A8
:1026B000FFF7E1FF00BD00B50246FFF7D5FFC2F30B
:1026C00003403A49088001F104010A80FFF7D3FF73
:1026D00000BD00B50246FFF7C7FF4FEA124034497C
:1026E000088001F104010A80FFF7C5FF00BD4FF02B
:1026F0000000304909884FEA01714FEA11302E4934
:10270000098841EA0000704700BF2548008810F0A2
:10271000200FFAD07047224800884FF6F77100EA80
:1027200001001F49088000BF1D48008810F0080FF5
:10273000FAD0704701464FF00000194A12880A4249
:1027400002D04FF0010001E04FF000007047144943
:1027500009886FEA000292B201EA0201104A118070
:10276000704701464FF000000D4A128802EA01024C
:10277000D0B20A4A12880A4203D010B14FF00100C9
:1027800001E04FF000007047054909886FEA000238
:1027900092B201EA0201024A11807047002800400B
:1027A000042800401C280040182800400828004049
:1027B00020280040102800401428004010B504468E
:1027C000FE48844208D10121C014FFF7E3FE002136
:1027D000E014FFF7DFFEC4E0B4F1804F08D101211F
:1027E0000846FFF7E6FE00210120FFF7E2FEB8E011
:1027F000F348844208D101210220FFF7DAFE0021CC
:102800000220FFF7D6FEACE0EE48844208D1012159
:102810000420FFF7CEFE00210420FFF7CAFEA0E04F
:10282000E948844208D101210820FFF7C2FE0021B7
:102830000820FFF7BEFE94E0E448844208D101215D
:102840001020FFF7B6FE00211020FFF7B2FE88E04F
:10285000DF48844208D101212020FFF7AAFE002191
:102860002020FFF7A6FE7CE0DA48844208D101214F
:102870004014FFF78FFE00216014FFF78BFE70E01D
:10288000D548844209D10121C804FFF783FE002105
:102890004FF40020FFF77EFE63E0D048844209D168
:1028A00001210805FFF776FE00214FF48010FFF7A5
:1028B00071FE56E0CA48844209D101214805FFF75C
:1028C00069FE00214FF40010FFF764FE49E0C5489F
:1028D000844208D101214020FFF76BFE00214020F7
:1028E000FFF767FE3DE0C048844208D10121802007
:1028F000FFF75FFE00218020FFF75BFE31E0BB4861
:10290000844208D101218015FFF753FE0021A01554
:10291000FFF74FFE25E0B648844209D101210804A3
:10292000FFF738FE00214FF48030FFF733FE18E048
:10293000B048844209D101214804FFF72BFE002151
:102940004FF40030FFF726FE0BE0AB48844208D17D
:1029500001218804FFF71EFE00214FF48020FFF7BD
:1029600019FE10BD4FF000020288944B98420ED021
:10297000984B98420BD0B0F1804F08D0904B9842C2
:1029800005D0904B984202D08F4B984206D14FF61B
:102990008F7302EA03024B8843EA02028B4B984290
:1029A00009D08B4B984206D04FF6FF4302EA030250
:1029B000CB8843EA020202808B8883850B880385DB
:1029C0007E4B98420BD0834B984208D0884B98425C
:1029D00005D0884B984202D0874B984201D10B7AA0
:1029E00003864FF001038382704770B54FF00004F7
:1029F00022461346058C4FF6FE7605EA0605058449
:102A0000028C8388048B4FF68F7504EA05044FF619
:102A1000FC7504EA05040D8845EA04044FF6FD75CB
:102A200002EA05020D8945EA02024D8845EA0202E2
:102A3000624DA8420BD0674DA84208D06C4DA84209
:102A400005D06C4DA84202D06B4DA8421BD14FF669
:102A5000F77502EA05024D8945EA02024FF6FB7559
:102A600002EA05028D8845EA02024FF6FF6503EA95
:102A700005034FF6FF5503EA05038D8945EA030375
:102A8000CD8945EA030383800483CD88858602844B
:102A900070BD70B54FF0000422461346058C4FF60A
:102AA000EF7605EA06050584028C8388048B48F6D8
:102AB000FF7504EA05044FF6FF4504EA05040D8896
:102AC0004FEA056544EA15444FF6DF7502EA050250
:102AD0000D894FEA055542EA15424D884FEA0555E2
:102AE00042EA1542354DA84202D03A4DA84223D1C0
:102AF0004FF67F7502EA05024D894FEA055542EA15
:102B000015424FF6BF7502EA05028D884FEA05555A
:102B100042EA15424FF6FF3503EA05034FF2FF750F
:102B200003EA05038D894FEA854543EA1543CD89BC
:102B30004FEA854543EA154383800483CD880587A2
:102B4000028470BD70B54FF0000422461346058C18
:102B50004FF6FF6605EA06050584028C8388848BA0
:102B60004FF68F7504EA05044FF6FC7504EA050478
:102B70000D8845EA04044FF6FF5502EA05020D8967
:102B80004FEA056542EA15424D884FEA056542EA7B
:102B900015420A4DA84202D00E4DA84244D14FF230
:102BA000FF7502EA05024D894FEA056542EA1542C2
:102BB0004FF6FF3502EA05028D881FE0002C014028
:102BC0000004004000080040000C004000100040DD
:102BD0000014004000340140004C0140005001400E
:102BE0000054014000180040001C0040002000403C
:102BF0000040014000440140004801404FEA0565A3
:102C000042EA15424EF6FF7503EA05034DF6FF75DD
:102C100003EA05038D894FEA055543EA1543CD893B
:102C20004FEA055543EA154383808483CD88858721
:102C3000028470BD70B54FF0000213461446058C37
:102C40004EF6FF7605EA06050584038C8488828BA0
:102C500048F6FF7502EA05024FF6FF4502EA050253
:102C60000D884FEA056542EA15424DF6FF7503EA05
:102C700005030D894FEA057543EA15434D884FEA70
:102C8000057543EA1543FB4DA84202D0FA4DA84210
:102C900008D14BF6FF7504EA05048D894FEA855586
:102CA00044EA154484808283CD88A0F84050038490
:102CB00070BD828B4FF2FF3302EA03028283828B64
:102CC0004FEA016342EA134282837047F0B50C4633
:102CD00015464FF0000211460E46078C4EF6FF7C5B
:102CE00007EA0C070784828B018C4FEA04774FEACE
:102CF000174640F6FF4702EA07024FEA056742EA35
:102D000017424FEA037742EA1742DA4FB8420ED031
:102D1000D94FB8420BD0B0F1804F08D0D74FB8424E
:102D200005D0D74FB84202D0D64FB84208D14DF6A1
:102D3000FF7701EA070146F4805747EA010107E0FF
:102D400047F6FF5701EA070144F4805747EA0101BB
:102D500082830184F0BD828B4FF6F37302EA030293
:102D60008283828B42EA010282837047F0B50C466F
:102D700015464FF0000211460E46078C4FF6FF6CC9
:102D800007EA0C070784828B018C4FEA04674FEA3D
:102D900017464FF60C7702EA07024FEA035745EA57
:102DA000174747EA0202B34FB8420ED0B24FB842BB
:102DB0000BD0B0F1804F08D0B04FB84205D0B04F23
:102DC000B84202D0AF4FB84208D14FF6FF5701EAE0
:102DD000070146F4807747EA010107E04FF2FF5709
:102DE00001EA070144F4807747EA01018283018404
:102DF000F0BD028B4FF2FF3302EA03020283028B23
:102E00004FEA016342EA134202837047F0B50C4671
:102E100015464FF0000211460E46078C4FF6EF7C28
:102E200007EA0C070784028B018C4FEA04574FEA2C
:102E3000174640F6FF4702EA07024FEA037742EAE5
:102E400017424FEA056742EA17428A4FB8420ED04E
:102E5000894FB8420BD0B0F1804F08D0874FB842AD
:102E600005D0874FB84202D0864FB84208D14FF6FE
:102E7000DF7701EA070146F0100747EA010107E0A2
:102E80004FF65F7701EA070144F0100747EA0101B6
:102E900002830184F0BD028B4FF6F37302EA030252
:102EA0000283028B42EA010202837047F0B50C46AE
:102EB00015464FF000021146068C4FF6FE7706EAE3
:102EC00007060684028B018C4FF60C7602EA060296
:102ED0004FEA035645EA164646EA0202654EB042FC
:102EE0000ED0654EB0420BD0B0F1804F08D0634E8B
:102EF000B04205D0624EB04202D0624EB04208D11C
:102F00004FF6FD7601EA060144F0010646EA0101AA
:102F100007E04FF6F57601EA060144F0010646EABD
:102F2000010102830184F0BD70B505460C4651488D
:102F300085420ED0504885420BD0B5F1804F08D065
:102F40004E48854205D04E48854202D04D488542C4
:102F500000D100E000BF208850B92389A288618891
:102F60002846FFF7A3FFE1882846FFF794FF25E0F6
:102F7000208804280AD12389A28861882846FFF77F
:102F800045FFE1882846FFF734FF17E0208808282E
:102F90000AD12389A28861882846FFF7E7FEE188E5
:102FA0002846FFF7D8FE09E02389A28861882846D1
:102FB000FFF78CFEE1882846FFF77BFE70BD2DE908
:102FC000F04105460C464FF000064FF001076088BF
:102FD00010B94FF0020601E04FF00006A08801286A
:102FE00002D14FF0020701E04FF001072088A0B99D
:102FF0002389A28861882846FFF758FFE188284680
:10300000FFF749FF23893A4631462846FFF7FEFE7F
:10301000E1882846FFF7EDFE13E02389A288618846
:103020002846FFF7F3FEE1882846FFF7E2FE2389F2
:103030003A4631462846FFF739FFE1882846FFF730
:103040002AFFBDE8F0810A884B8842EA03028B8898
:1030500042EA0302CB8842EA03020B8942EA0302F6
:103060004B8942EA03028B8942EA0302A0F844201A
:1030700070470000002C0140003401400004004073
:1030800000080040000C00404FF6FF7181804FF0B7
:1030900000010180C1804180017270474FF0000142
:1030A000018041808180C180018141818181C18114
:1030B00070474FF00001018041804FF00101818095
:1030C0004FF00001C180018170474FF00001018085
:1030D00041808180C180018141818181704721B11E
:1030E000028842F00102028005E002884FF6FE737A
:1030F00002EA03020280704731B1B0F8442042F482
:103100000042A0F8442005E0B0F84420C2F30E02CB
:10311000A0F84420704710B522B1838943EA010327
:10312000838106E083896FEA0104A4B203EA040301
:10313000838110BD8182704741EA0203A0F84830C4
:10314000704710B522B1838943EA0103838106E009
:1031500083896FEA0104A4B203EA0403838110BDEA
:1031600001894FF6F87201EA0201018170470A46AF
:103170004FF0000101894FF68F7301EA030141EA24
:1031800002010181704730B504460D4629462046AC
:10319000FFF7EDFF208940F00700208130BD2DE9C9
:1031A000F04104460D4616461F46602D06D13B46AB
:1031B000012231462046FFF729FE05E03B46012269
:1031C00031462046FFF772FE29462046FFF7CFFF23
:1031D000208940F007002081BDE8F08130B50C4621
:1031E0004FF000010189C9B24FEA036542EA154573
:1031F00045EA040545EA0101018130BD2DE9F041B0
:1032000005460E46174698464FF0000443463A4698
:1032100031462846FFF7E2FF2C894FF6F87004EAA2
:10322000000444F007044FF68F7004EA000444F0F1
:1032300070042C81BDE8F081F0B504460D461646B9
:103240001F463B46324629462046FFF7C7FF2089E6
:1032500040F480402081F0BD0185828270470A469B
:103260004FF0000101884FF68F7301EA030141EA34
:10327000020101807047F0B50C4615461E464FF01E
:1032800000010A460B460189028B038C4FF6F87742
:1032900001EA070141EA04014FF6FC4702EA07028E
:1032A00040F2011742EA07024FF6DD7703EA07030F
:1032B0004FEA065745EA174747EA030301810283AD
:1032C0000384F0BD0A464FF00001018B4FF68F7367
:1032D00001EA030141EA0201018370470A464FF007
:1032E0000001018B48F6FF7301EA03014FEA026314
:1032F00041EA1341018370470A464FF00001818B78
:103300004FF68F7301EA030141EA0201818370479E
:103310000A464FF00001818B48F6FF7301EA030172
:103320004FEA026341EA13418183704721B1028869
:1033300042F08002028005E002884FF67F7302EAC5
:1033400003020280704721B1828842F00402828029
:1033500005E082884FF6FB7302EA03028280704721
:1033600021B1828842F00802828005E082884FF60F
:10337000F77302EA03028280704721B1828842F02B
:103380000102828005E082884FF6FE7302EA0302A2
:10339000828070470A464FF00001018B4FF6F773A9
:1033A00001EA030141EA0201018370470A464FF036
:1033B0000001018B4FF2FF7301EA03014FEA026340
:1033C00041EA1341018370470A464FF00001818BA7
:1033D0004FF6F77301EA030141EA02018183704766
:1033E0000A464FF00001818B4FF2FF7301EA03019F
:1033F0004FEA026341EA1341818370470A464FF066
:103400000001018B4FF6FB7301EA030141EA02015F
:10341000018370470A464FF00001018B4FF6FF33DE
:1034200001EA03014FEA026341EA13410183704755
:103430000A464FF00001818B4FF6FB7301EA03014E
:1034400041EA0201818370470A464FF00001818BF7
:103450004FF6FF3301EA03014FEA026341EA1341E9
:10346000818370470A464FF00001018B4FF67F734E
:1034700001EA030141EA0201018370470A464FF065
:103480000001018BC1F30E014FEA026341EA1341CF
:10349000018370470A464FF00001818B4FF67F731E
:1034A00001EA030141EA0201818370470A464FF0B5
:1034B0000001818BC1F30E014FEA026341EA13411F
:1034C000818370470A464FF00001018C4FF6FD736F
:1034D00001EA030141EA0201018470470A464FF004
:1034E0000001018C4FF6F77301EA030141EA020182
:1034F000018470470A464FF00001018C4FF6DF73DC
:1035000001EA03014FEA025341EA13410184704783
:103510000A464FF00001018C4FF67F7301EA030168
:103520004FEA025341EA1341018470470A464FF0C3
:103530000001018C4FF6FF5301EA03014FEA0263D9
:1035400041EA1341018470470A464FF00001018CA3
:103550004FF2FF7301EA03014FEA026341EA1341AC
:10356000018470470A464FF00001018C4DF6FF734D
:1035700001EA03014FEA027341EA134101847047F3
:1035800030B54FF000034FF0010404FA01F4A3B288
:10359000048C6FEA0305ADB204EA05040484048CCC
:1035A00002FA01F5ADB244EA0504048430BD30B539
:1035B0004FF000034FF0040404FA01F4A3B2048CAA
:1035C0006FEA0305ADB204EA05040484048C02FA30
:1035D00001F5ADB244EA0504048430BD70B503467C
:1035E0004FF000000446184600F118004FF00105A6
:1035F00005FA01F5ACB21D8C6FEA0406B6B205EA15
:1036000006051D8409B108290AD100EB610005688F
:1036100025F070050560056845EA020505600EE0C5
:10362000A1F10405ADB200EB6500056825F4E045A5
:10363000056005684FEA026645EA1645056070BDFB
:1036400021B1028842F00202028005E002884FF6B2
:10365000FD7302EA03020280704721B1028842F042
:103660000402028005E002884FF6FB7302EA0302BF
:103670000280704721B1828842F08002828005E09A
:1036800082884FF67F7302EA0302828070470288C5
:103690004FF6F77302EA03020280028842EA01024F
:1036A0000280704782884FF68F7302EA030282809D
:1036B000828842EA01028280704702894FF6F873DD
:1036C00002EA03020281028942EA01020281704792
:1036D00002894FF67F7302EA03020281028942EAFD
:1036E000010202817047818470478185704781861D
:1036F00070470187704781877047A0F84010704776
:1037000002884FF6FF4302EA03020280028842EA7F
:103710000102028070470146888E70470146088F7B
:1037200070470146888F70470146B1F840007047E6
:103730000146888C70470146088D704702464FF05D
:103740000000138A0B4202D04FF0010001E04FF05D
:10375000000070476FEA01020282704730B50246EE
:103760004FF0000003460446158A05EA01039589D7
:1037700005EA01041BB114B14FF0010001E04FF064
:10378000000030BD6FEA01020282704710B50446A6
:10379000F848844209D101218803FEF7FBFE00218D
:1037A0004FF48040FEF7F6FE32E0F348844209D140
:1037B00001214804FEF7FDFE00214FF40030FEF722
:1037C000F8FE25E0ED48844209D101218804FEF786
:1037D000F0FE00214FF48020FEF7EBFE18E0E848F1
:1037E000844209D10121C804FEF7E3FE00214FF411
:1037F0000020FEF7DEFE0BE0E248844208D1012102
:103800000805FEF7D6FE00214FF48010FEF7D1FE2A
:1038100010BD2DE9F04786B005460E464FF0000476
:10382000A24600BFA1462746B08900B100BF2F467F
:103830002C8A4CF6FF7004EA0004F08840EA040485
:103840002C82AC894EF6F31004EA0004B08831896A
:1038500040EA0100718940EA010040EA0404AC81B9
:10386000AC8A4FF6FF4004EA0004B08940EA040441
:10387000AC8201A8FEF7F5FDBE48874202D1DDF813
:1038800010A001E0DDF80CA0A88910F4004F09D0C9
:103890000AEBCA0000EB0A1031684FEA4101B0FBA5
:1038A000F1F808E00AEBCA0000EB0A1031684FEAB1
:1038B0008101B0FBF1F84FF06400B8FBF0F04FEA83
:1038C00000144FEA14104FF0640101FB1089A8891D
:1038D00010F4004F0AD04FF0320000EBC900B0FBEB
:1038E000F1F000F0070040EA04040BE04FF0320072
:1038F00000EB09104FF06401B0FBF1F000F00F0095
:1039000040EA04042C8106B0BDE8F0874FF416515C
:1039100001604FF000018180C18001814FF00C01F6
:1039200041814FF000018181704710B502464FF090
:103930000000108A4FF2FF0300EA03000B884C8856
:1039400043EA04038C8843EA0403CC8843EA040373
:1039500043EA0000108210BD4FF000010180418059
:103960008180C180704721B1828942F400528281F6
:1039700005E082894DF6FF7302EA030282817047F7
:10398000F0B503464FF00004264625462046A1F533
:1039900010676A3F00D100BF1846C1F3421401F01E
:1039A0001F064FF0010707FA06F5012C02D100F1BE
:1039B0000C0006E0022C02D100F1100001E000F141
:1039C000140022B1076847EA0507076003E00768AB
:1039D00027EA05070760F0BD10B522B1838A43EAE4
:1039E0000103838206E0838A6FEA0104A4B203EA3A
:1039F0000403838210BD028A4FF6F07302EA0302C9
:103A00000282028A42EA01020282704782894FF2F0
:103A1000FF7302EA03028281828942EA0102828103
:103A2000704721B1828942F00202828105E08289D9
:103A30004FF6FD7302EA030282817047028A4FF655
:103A4000DF7302EA03020282028A42EA0102028270
:103A5000704721B1028A42F48042028205E0028A64
:103A60004BF6FF7302EA030202827047C1F30802B9
:103A70008280704701468888C0F3080070478189BA
:103A800041F0010181817047028BD2B20283028B27
:103A900042EA012202837047028B02F47F420283D2
:103AA000028B42EA01020283704721B1828A42F00E
:103AB0002002828205E0828A4FF6DF7302EA030267
:103AC0008282704721B1828A42F01002828205E030
:103AD000828A4FF6EF7302EA03028282704721B1B5
:103AE000828A42F00802828205E0828A4FF6F773EA
:103AF00002EA03028282704721B1828942F40042C5
:103B0000828103E08289C2F30E028281704721B173
:103B1000828A42F40062828205E0828A4FF2FF7359
:103B200002EA030282827047828A4FF6FB7302EA3E
:103B300003028282828A42EA01028282704721B1B4
:103B4000828A42F00202828205E0828A4FF6FD7389
:103B500002EA03028282704702464FF00000B1F58C
:103B6000007F00D100BF13880B420DD04FF0010041
:103B70000CE00000003801400044004000480040D4
:103B8000004C0040005000404FF00000704701F42E
:103B90000072B2F5007F00D100BF6FEA010202801F
:103BA000704770B502464FF0000423461D46184684
:103BB000A1F510666A3E00D100BFC1F3421501F0C5
:103BC0001F034FF0010606FA03F3012D03D1968976
:103BD00006EA030308E0022D03D1168A06EA03036E
:103BE00002E0968A06EA03034FEA21244FF0010619
:103BF00006FA04F4168806EA04041BB114B14FF067
:103C0000010001E04FF0000070BD10B54FF0000260
:103C10001346A1F510646A3C00D100BF4FEA21228F
:103C20004FF0010404FA02F4A3B26FEA0304048023
:103C300010BD00004FF0000108466D4A126842F4C2
:103C400080326B4B1A6000BF694A126802F4003080
:103C500001F1010110B9B1F5A06FF5D1644A126804
:103C600012F4003F02D04FF0010001E04FF00000DD
:103C7000012842D15F4A126842F010025D4B1A607F
:103C80001A46126822F003021A601A46126842F0BD
:103C900002021A60564A5268554B5A601A465268D8
:103CA0005A601A46526842F480625A601A46526854
:103CB00022F47C125A601A46526842F4E8125A60A2
:103CC0001A46126842F080721A6000BF484A1268B1
:103CD00012F0007FFAD0464A526822F00302444BA9
:103CE0005A601A46526842F002025A6000BF404AC7
:103CF000526802F00C02082AF9D1704710B5FFF79C
:103D000099FF10BD10B53A48006840F001003849ED
:103D1000086008464068384900EA010034494860B4
:103D200008460068354900EA010031490860084644
:103D3000006820F4802008600846406820F4FE00F7
:103D400048604FF41F008860FFF7D8FF4FF0006015
:103D50002B49086010BD10B54FF00001084602461F
:103D6000234B5B6803F00C0121B1042906D008291C
:103D70002CD107E0234B244C23602BE0214B224C19
:103D8000236027E01A4B5B6803F47010184B5B68E4
:103D900003F480324FF0020303EB90402AB91B4B2F
:103DA00000FB03F3184C23600FE0114B5B6813F426
:103DB000003F05D0154B00FB03F3134C236004E0D8
:103DC000104B00FB03F3104C236003E00D4B0E4C33
:103DD000236000BF00BF064B5B68C3F303130C4CAA
:103DE000E15C094B1B6823FA01F3074C236010BD0B
:103DF00000100240002002400000FFF8FFFFF6FE26
:103E000008ED00E000127A004C00002000093D009F
:103E10005000002038B50446754951F824004FF091
:103E20000101FEF799FB734830F81400ADF800006B
:103E30004FF014008DF803004FF002008DF80200DF
:103E40006D4951F824006946FDF7ECFF38BD69491A
:103E500031F81010684A52F82020516170476549C6
:103E600031F81010644A52F82020116170476249FD
:103E700051F82010C9685F4A32F8102081EA020127
:103E80005D4A52F82020D16070477FB504460D4648
:103E90005A4951F824004FF00101FEF75DFB4FF045
:103EA00004008DF80F00564830F81400ADF80C00EF
:103EB000544951F8240003A9FDF7B4FF012D2FD177
:103EC000514A32F81420D1B2504A32F81420D0B2FC
:103ED000FEF7DAF84E4830F8140001904FF0000079
:103EE0008DF808004FF010008DF809004FF0010028
:103EF0008DF80A0001A8FDF7A2FE464830F814002C
:103F0000C0B28DF800004FF00F008DF801008DF861
:103F100002004FF001008DF803006846FDF7A6FD92
:103F20007FBD10B50446364A32F81410354A52F8AF
:103F30002400FEF713F810BD38B504460D46364987
:103F400051F82410354A52F8242041EA020141F088
:103F500001004FF00101FEF7FFFA34B9304951F882
:103F600024000121FEF7F8FA05E02D4951F824005C
:103F70000121FEF700FB4FF018008DF803002948DF
:103F800030F81400ADF800004FF003008DF8020087
:103F9000254951F824006946FDF744FF4FF004001D
:103FA0008DF80300214830F81400ADF800002049D6
:103FB00051F824006946FDF735FF1E4951F82400E9
:103FC0002946FFF726FC1B4951F824000121FFF781
:103FD000CAFC38BD70B505460E4640F2255116485C
:103FE000FFF7DFFD18B11448FFF744FD044670BD2C
:103FF000807000087870000860000020947000084D
:1040000090700008700000209C7000089A700008F2
:10401000987000089E700008AC700008B870000826
:10402000A0700008C470000880000020CA7000085A
:104030008C000020740000200048004006488047A3
:1040400006480047FEE7FEE7FEE7FEE7FEE7FEE77D
:10405000FEE7FEE7FEE7FEE7053D00083101000848
:1040600001464FF0FF3011B94FF0000002E0012986
:1040700000D108467047014609B9FE4805E001290C
:1040800001D1FD4801E04FF00000704770B50546D2
:104090002846FFF7E5FF0446FCB9F848C4EBC40125
:1040A000F74A42F821004FF48060C4EBC40102EBF0
:1040B00081014860FDF789F900EB80004FEA80003C
:1040C0004FF47A71B0FBF1F000F10100C4EBC401D0
:1040D000EB4A02EB8101886120E0012C1ED1E94806
:1040E000C4EBC401E64A42F821004FF48060C4EBFF
:1040F000C40102EB81014860FDF767F900EB800025
:104100004FEA80004FF47A71B0FBF1F000F101004A
:10411000C4EBC401DA4A02EB81018861C4EBC4003C
:10412000D74951F82000C4EBC401D54A02EB810104
:104130008860C4EBC400114651F82000C4EBC401F0
:1041400002EB8101C8604FF00000C4EBC40102EB38
:1041500081014861C4EBC400114601EB8000806915
:10416000012806D84FF00200C4EBC40102EB810124
:10417000886170BD2DE9F04107460D4616464FF0A7
:1041800000040DE0295D3846FFF770FC00BF4021B8
:104190003846FFF7E1FC0028F9D004F1010084B2B1
:1041A000B442EFDB2046BDE8F0812DE9F04107463F
:1041B0000E4614463846FFF75EFF8046256812E03B
:1041C0002068401B315C4046FFF750FC00BF802157
:1041D0004046FFF7C1FC0028F9D080214046FFF798
:1041E000D6FCA5F10105002DEAD1BDE8F0812DE94D
:1041F000F84F8346894617464FF0010000904FF074
:104200000005D7F800A05846FFF72AFF0446C4EB84
:10421000C4009B4901EB80000569002D7DD0C4EBF3
:10422000C40001EB8000406930B14FF00200009003
:104230004FF000003860ECE04FF003000090C4EB5A
:10424000C4008F4901EB80000569554500D95546EA
:10425000C4EBC4008A4901EB80008068C4EBC40150
:10426000874A02EB8101C968884224D9C4EBC400A3
:1042700002EB80002A46C168484602F0BDFAC4EB52
:10428000C4007F4901EB8000C0682844C4EBC4012E
:104290007B4A02EB8101C860C4EBC400114601EB0C
:1042A00080000069A0EB0500C4EBC40102EB8101B2
:1042B00008613D60ADE0C4EBC400714951F82000D5
:1042C000C4EBC4016E4A02EB810149680844C4EBA7
:1042D000C40102EB8101C968A0EB01082E464645E6
:1042E00043D8C4EBC40002EB80003246C1684846A4
:1042F00002F082FAC4EBC400614901EB8000C0689F
:104300003044C4EBC4015E4A02EB8101C860C4EBD7
:10431000C400114651F8200000E073E0C4EBC40172
:1043200002EB810149680844C4EBC40102EB81013E
:10433000C968884209D8C4EBC400114651F820006E
:10434000C4EBC40102EB8101C860C4EBC4004C495A
:1043500001EB80000069A0EB0600C4EBC401484AF1
:1043600002EB810108613D604BE0C4EBC400444AAC
:1043700002EB80004246C168484602F03DFAC4EBB9
:10438000C4003F4951F82000C4EBC4013C4A02EB91
:104390008101C860C4EBC400114601EB80000069D4
:1043A000A0EB0800C4EBC40102EB81010861A6EB9D
:1043B0000806C4EBC402324B03EB820209EB08008F
:1043C000D168324602F018FAC4EBC4002C4901EB64
:1043D0008000C0683044C4EBC401294A02EB81016B
:1043E000C860C4EBC400114601EB80000069A0EB7B
:1043F0000600C4EBC40102EB8101086106EB080072
:10440000386006E04FF0000A504638604FF0010077
:1044100000900098BDE8F88F2DE9F04106468846E7
:104420003046FFF71DFE04463046FFF724FE0746E0
:104430008AE03846FFF71EFBC5B2C4EBC400104942
:1044400001EB8000C168C4EBC4000D4A02EB8000A0
:10445000806800F10100814229D0C4EBC4001146FC
:1044600001EB8000C068C4EBC40152F821108842FF
:104470001FD109E0003801400044004058030020EB
:10448000580B002058070020C4EBC400114651F817
:104490002000C4EBC40102EB810149680844401EBE
:1044A000C4EBC40102EB81018968884201D1BDE8F7
:1044B000F081C4EBC4009E4901EB80008168C4EB2D
:1044C000C4009B4A02EB8000806800F10100C4EB4D
:1044D000C402974B03EB820290600D70C4EBC400E2
:1044E000194601EB8000006900F10100C4EBC40132
:1044F0001A4602EB81010861C4EBC400114651F871
:104500002000C4EBC40102EB810149680844C4EBFC
:10451000C40102EB81018968884209D8C4EBC40058
:10452000114651F82000C4EBC40102EB8101886000
:10453000C4EBC4007E4901EB80008069C4EBC40178
:104540007B4A02EB8101486140F225513846FFF772
:1045500003FB01283FF46DAF00BFA8E72DE9F04150
:1045600006460D463046FFF77BFD04463046FFF712
:1045700082FD0746C4EBC4006D4901EB8000C168B1
:10458000C4EBC4006A4A02EB8000806800F10100BD
:1045900081421ED0C4EBC400114601EB8000C0680C
:1045A000C4EBC40152F82110884214D1C4EBC400FA
:1045B000114651F82000C4EBC40102EB81014968A7
:1045C0000844401EC4EBC40102EB810189688842A3
:1045D00001D1BDE8F081C4EBC400554901EB800076
:1045E0008168C4EBC400524A02EB8000806800F18D
:1045F0000100C4EBC4024E4B03EB820290600D70CD
:10460000C4EBC400194601EB8000006900F1010011
:10461000C4EBC4011A4602EB81010861C4EBC4007B
:10462000114651F82000C4EBC40102EB8101496836
:104630000844C4EBC40102EB81018968884209D8AF
:10464000C4EBC400114651F82000C4EBC40102EBD6
:1046500081018860C4EBC400354901EB80008069AA
:10466000C4EBC401324A02EB8101486100BFB0E7EC
:1046700070B505460E462846FFF7F2FC0446C4EB2B
:10468000C4002B4901EB8000406960B1C4EBC40059
:1046900001EB80004069A0F10100C4EBC401244A91
:1046A00002EB8101486170BD00B585B0012144F283
:1046B0000400FDF751FF4FF40070ADF810004FF00B
:1046C00018008DF813004FF003008DF8120004A9B4
:1046D0001848FDF7A7FB4FF48060ADF810004FF0CD
:1046E00004008DF8130004A91248FDF79BFB4FF45A
:1046F000E13000904FF00000ADF80400ADF8060086
:10470000ADF80800ADF80C004FF00C00ADF80A0051
:1047100069460948FFF77DF8012240F22551064815
:10472000FFF72EF901210448FFF71DF905B000BD80
:10473000580B0020000801400038014010B54FF030
:10474000000400BF07E0F848025D2146F7A002F030
:10475000EDFA04F10104062CF5DBF3488179FDA0A4
:1047600002F0E4FA10BD10B54FF0000400BF08E0FD
:10477000ED48C01D025D2146FAA002F0D7FA04F10F
:104780000104092CF4DB10BD10B54FF0000400BF8C
:1047900008E0E5481130025D2146FBA002F0C6FAB0
:1047A00004F10104092CF4DB10BD10B54FF0000436
:1047B00000BF08E0DC481C30025D2146FBA002F08F
:1047C000B5FA04F10104052CF4DB10BD10B54FF06F
:1047D000000400BF08E0D4482430025D2146FBA05D
:1047E00002F0A4FA04F10104052CF4DB10BD10B5AD
:1047F0004FF40061FE48FDF7D3FB10BD10B54FF438
:104800000061FB48FDF7CAFB10BD2A2802D02C2806
:1048100014D108E04FF00001F64A11704FF0010189
:10482000F54A1170A4E0F549097801F10101F34A54
:1048300011704FF00001F24A117099E0EF490978C8
:10484000092938D2DFE801F005383B41444A4D538D
:104850005900EB49097806292CD2DFE801F0030A58
:104860000415052000BF00BFA0F13001E54A11701A
:1048700020E0E449097801EB810100EB4101A1F15D
:104880003001A94AD17015E0DE49097801EB8101B8
:1048900000EB4101A1F13001A34A11710AE0D949AD
:1048A000097801EB810100EB4101A1F130019E4A41
:1048B000517100BF00BF53E09B49887150E09A4995
:1048C000C91DCF4A127888544AE09749087447E0D6
:1048D00095491131CA4A1278885441E09249C87604
:1048E0003EE091491C31C64A1278885438E08E491E
:1048F0002431C34A1278885432E0C1490978062924
:104900002CD2DFE801F0030A0415052000BF00BF28
:10491000A0F13001BB4A117020E0BA49097801EBDF
:10492000810100EB4101A1F130017F4A917015E056
:10493000B449097801EB810100EB4101A1F130019B
:10494000794A51700AE0AF49097801EB810100EB27
:104950004101A1F13001744A117000BF00BF00BFD6
:1049600000BFA749097801F10101A54A117000BFF4
:1049700000BF704710B504469E48007800286CD0F0
:10498000A1480078B8B1A1480078082803D1204692
:10499000FFF73BFF0EE04FF000009C4908709A497A
:1049A00008704FF001009A4908704FF000009149DB
:1049B000087000BF65E02A2C36D02C2C39D19548E0
:1049C0000079472807D193484079412803D14FF017
:1049D00001008E4908708F480079532807D18D480F
:1049E0004079412803D14FF0020088490870894876
:1049F0004079562803D14FF0040084490870854857
:104A00004079432803D14FF00800804908704FF0E7
:104A100001007D4908707E4908704FF00000774919
:104A200008707749087017E04FF00000714908706E
:104A300012E078487649097844547548007800F1C6
:104A400001007349087008460078062803DD4FF01E
:104A500000006849087000BF13E0242C11D16D4894
:104A600004704FF0010063490870694908704FF005
:104A70000000654908706549087060490870604920
:104A8000087010BD5C48007830B14FF000005A4902
:104A900008704FF0010070470020FCE710B54FF0A0
:104AA000000416E008E05C480078012804D14FF0CB
:104AB00000005949087010BD20215848FFF74CF8F4
:104AC0000028F0D05548FEF7D5FFC4B22046FFF7C6
:104AD00051FFFFF7D7FF0128E4D100BFEBE72DE935
:104AE000F04F8BB080464FF0000A0F48007800F17D
:104AF000640005900C48407804900B48807803903F
:104B00000948C07802900848007901900648407929
:104B1000009050460890684601F01EFEC8F800005C
:104B20003FA002F003F97FE0900B0020675F7374F1
:104B3000475053524D43446174612E555443446170
:104B4000746554696D655B25645D203D2025640DA9
:104B50000A000000537461747573203D2025630DB5
:104B60000A000000675F7374475053524D4344611D
:104B700074612E4C617469747564655B25645D2095
:104B80003D2025630D0A0000675F73744750535240
:104B90004D43446174612E4C6F6E67697475646532
:104BA0005B25645D203D2025630D0A00675F7374FB
:104BB000475053524D43446174612E537065656490
:104BC0005B25645D203D2025630D0A00675F7374DB
:104BD000475053524D43446174612E436F75727355
:104BE000655B25645D203D2025630D0A0000000003
:104BF00000100140A5000020A6000020A300002016
:104C0000A4000020A7000020A2000020980000209F
:104C1000A100002099000020A800002000380140D9
:104C20005554433A00000000D14606E018F8091038
:104C300085A002F07BF809F10109B9F1040FF5D361
:104C4000AFF2C00002F072F88148817A407A00EB3E
:104C5000800001EB40017E48007A7D4AD27902EB68
:104C6000820200EB4200C0EB001001EB800047F233
:104C7000305100FB01F07649097B40F2771201FBCD
:104C800002F100EBC1017248407BC0EB001000EB69
:104C9000800001EB80016E48807BC0EB001001EBCF
:104CA00040016B48C07B00EB40000844C8F804009A
:104CB0006748007C532805D1D8F80400C0F10000F3
:104CC000C8F8040063A002F031F84FF0000908E0D2
:104CD00008F1040010F809105BA002F027F809F1B0
:104CE0000109B9F1040FF3D3AFF2681002F01EF816
:104CF0005748417D007D00EB800001EB40025448A5
:104D0000407C4FF0640100FB01F05149897C01EBCC
:104D1000810100EB41014E48C07C0844C0EB00100B
:104D200002EB800047F2305100FB01F04849C97D99
:104D300040F2771201FB02F100EBC1014448007E12
:104D4000C0EB001000EB800001EB80014048407E8A
:104D5000C0EB001001EB40013D48807E00EB4000BD
:104D60000844C8F808003A48C07E572805D1D8F84A
:104D70000800C0F10000C8F8080038A001F0D6FF14
:104D80004FF0000908E008F1080010F809102EA003
:104D900001F0CCFF09F10109B9F1040FF3D3AFF22F
:104DA0001C2001F0C3FF2A481C3001F0B6FD8346E9
:104DB00001F030FE04462B4A2B4B01F0BBFD0646AA
:104DC00001F039FE8246BAF1FF0F04D94FF0FF001F
:104DD00088F80C0001E088F80CA01D48243001F090
:104DE0009CFDA8F80E001A488079412804D14FF0A4
:104DF000010088F8100003E04FF0000088F8100070
:104E000098F80C1019A001F091FF1BA001F08EFF83
:104E10004FF0000908E008F10E0010F809100AA090
:104E200001F084FF09F10109B9F1020FF3D3AFF2E8
:104E3000AC2001F07BFF98F8101011A001F076FF74
:104E40000BB0BDE8F08F0000307825782D00000011
:104E5000900B00204C4154493A0000004C4F4E4703
:104E6000493A00009A9999999999FD3F53504545BF
:104E7000443A2025640D0A00434F555253453A00E9
:104E80005354415455533A2025640D0A0000000044
:104E90002DE9F04106460F4614464FF00005B04696
:104EA000304601F0EDFCA04202D20020BDE8F081C6
:104EB00008E03946404601F0DAFC054605B905E050
:104EC00005F101082000A4F10104F2D100BF284639
:104ED000ECE72DE9F04705460F469046384601F0CD
:104EE000CFFC8246384601F0CBFCA8EB000000F175
:104EF00001064FF00009002E11DD4C4608E028198C
:104F00005246394601F0C4FC00B903E004F1010443
:104F1000B442F4DB00BFB44201DA05EB04094846B1
:104F2000BDE8F087F0B505460E464FF000042F4669
:104F30009A4201D90020F0BD1AE04FF0000105E0CF
:104F4000785CB04200D103E001F101019942F7D34E
:104F500000BF994206D207EB010401F10100A3EB67
:104F6000000301E04FF0000404B905E004F101077B
:104F70001000A2F10102E0D100BF2046DBE770B5CE
:104F800003460C464FF000000546F4B194421CD98C
:104F900001460FE05E5C302E05DB5E5C392E02DCE4
:104FA00005F1010501E04FF00005954200D303E053
:104FB00001F10101A142EDD300BF954205D303EBFE
:104FC0000106A6EB020606F1010070BD30B50246EF
:104FD0000B464FF000000446014622E0555C412D8F
:104FE00006DB555C462D03DC555CA5F1370412E069
:104FF000555C612D06DB555C662D03DC555CA5F127
:10500000570408E0555C302D05DB555C392D02DC7A
:10501000555CA5F130044FEA001040EA040001F1AC
:1050200001019942DAD330BD10B54FF40071FC484C
:10503000FCF7B4FF10BD10B54FF40071F848FCF751
:10504000AFFF10BD10B50221F648FCF7A9FF4FF4E1
:105050009670FCF75EFA0221F248FCF79FFF4FF4CE
:105060009670FCF756FA10BD10B54FF48061EE480B
:1050700001F0DBFB10BD10B54FF48071EB4801F07F
:10508000D4FB10BD2DE9F84F0546884691469A4657
:105090005646E54F4FF0000BCDF80090009898B1C0
:1050A000E3A001F043FE5C4605E0295DE5A001F0C8
:1050B0003DFE04F1010400988442F6D3E2A001F021
:1050C00035FEE2A001F032FE6A4629460120FFF7D4
:1050D0006CF8B8F1000F3ED036E0A6F10100C6B280
:1050E0004FF4806000904FF03200FCF712FA6A46ED
:1050F00039460120FFF77BF883460098C0B1BBF129
:10510000030F15D1D6A0009901F010FE4FF0000456
:1051100005E0395DCBA001F009FE04F1010400981F
:105120008442F6D3C8A001F001FED4A001F0FEFD38
:10513000009848B1BBF1030F06D141463846009AAA
:10514000FFF7C7FE00B101E0002EC6DC00BF16B9B4
:105150000120BDE8F88F0020FBE72DE9FC5F064643
:10516000894692461F46DDF830B0DDF83480AE4CFB
:105170004FF000000090CDF804A00198A0B1ACA0C1
:1051800001F0D4FD4FF0000505E0715DADA001F028
:10519000CDFD05F1010501988542F6D3AAA001F0E5
:1051A000C5FDAAA001F0C2FD01AA31460120FEF70B
:1051B000FCFF47E0A8F1010000F0FF084FF4806019
:1051C00001904FF03200FCF7A4F901AA214601201A
:1051D000FFF70DF800900198B8B10098032814D19A
:1051E000ACA001F0A3FD4FF0000505E0615D95A0C6
:1051F00001F09CFD05F1010501988542F6D392A0CE
:1052000001F094FD91A001F091FD0198A0B10098EA
:10521000032811D107B13C60BBF1000F02D0019807
:10522000CBF80000B9F1000F05D04946204601F047
:1052300008FB08B109E008E0B8F1000F02D1012035
:10524000BDE8FC9FB8F1000FB4DC00BF0020F7E719
:105250007FB504464FF0000003900290924801F0A1
:105260000FFB0546FFF700FF282002A903AB2A46E3
:10527000CDE900108D498C48FFF76FFFA8B90F22C8
:10528000DDE90210FFF77BFE8949086008460068E7
:1052900010B9012004B070BD2CB10F228448016800
:1052A000204601F0A9FA0020F4E70120F2E7F0B56A
:1052B00085B005464FF00006304604900390044642
:1052C0007C4801F0DDFA0646FFF7CEFE282003A950
:1052D00004AB3246CDE9001077A17648FFF73DFFD9
:1052E000002871D101222221DDE90330FFF71AFEE7
:1052F000044614B9012005B0F0BDECB160788DF81A
:105300000800A0788DF8090002A801F0B9FA074654
:10531000394602A8FFF75AFEA870E0788DF8080019
:1053200020798DF8090002A801F0AAFA074639464B
:1053300002A8FFF74BFEE87003222221DDE90330CB
:10534000FFF7F0FD04460CB90120D4E7ECB160781A
:105350008DF80800A0788DF8090002A801F090FAF5
:105360000746394602A8FFF731FE2871E0788DF82C
:10537000080020798DF8090002A801F081FA07469B
:10538000394602A8FFF722FE687102222C21DDE9CE
:105390000330FFF7C7FD04460CB90120ABE714B199
:1053A00014F8010C687001222C21DDE90330FFF7AD
:1053B000B9FD04460CB901209DE714B114F8010CA5
:1053C0002870002097E7FFE7012094E770B50446B6
:1053D0003B4801F055FA0546FFF746FE04232A46EE
:1053E00032493748FFF74EFEC0B901223A210E4834
:1053F000FFF74EFD334908600846006808B90120F0
:1054000070BD3048006800F101002E490860084670
:10541000006801F082FA20700020F1E754E00000FB
:105420000010014000080140BC0B0020BC0F002010
:1054300047534D5F53656E6441542073656E640D30
:105440000A000000256300000D0A000047534D5F6D
:1054500053656E64415420646F6E650D0A00000050
:1054600047534D5F53656E644154207265637620E7
:1054700025642062797465730D0A000047534D5FFF
:1054800053656E644154207265637620646F6E6567
:105490000D0A000047534D5F53656E6441542072FE
:1054A0006563760D0A000000A6720008D47000083B
:1054B000AC0000202E730008435245470000000056
:1054C000BD710008B0000020012099E7F8B504463E
:1054D0004FF00005284600900646FFF7CCFD6846D1
:1054E000FFF774FF9DF80000A0421BD0F648F74973
:1054F00008602246F649F548006801F027FCF348A9
:10550000006801F0BDF9054602E0052E00D908E06B
:1055100004232A46EF49ED480068FFF7B3FD002851
:10552000F3D100BFF8BD2DE9F0414FF0000637463A
:1055300034464FF00105A046E74801F0A1F90746BF
:10554000FFF792FD18E004F101044FF004033A461E
:10555000E049E148FFF796FD054615B94FF001080F
:105560000CE006F10100C6B2FFF76CFD4FF000063B
:105570004FF01E00FBF7CDFF0F2CE4D300BF4FF020
:1055800000044FF00105D54801F07AF90746FFF70E
:105590006BFD0EE004F101044FF004033A46CD49DF
:1055A000CE48FFF76FFD054605B904E01E20FBF766
:1055B000B0FF052CEED300BF4046BDE8F0812DE9D9
:1055C000F0414FF000052C464FF001062746C44835
:1055D00001F056F90546FFF747FD10E004F101041C
:1055E0004FF00A032A46BF49BD48FFF74BFD064668
:1055F00016B94FF0010704E01420FBF78AFF062CD0
:10560000ECD300BF3846BDE8F0812DE9FF410446E8
:105610004FF0000635464FF00107A8462846039094
:105620000290B14801F02CF90646FFF71DFD4EE04F
:1056300005F101054FF00A0002A903AB3246CDE99E
:105640000010A449A848FFF788FD0746002F3AD16B
:1056500001222C210398FFF71BFCA449086008468F
:10566000006808B9B84632E0A0480068A0F102001E
:105670009E490860084600680078302804DB084628
:1056800000680078392806DD984800684078A0F165
:10569000300020700EE0954800684078A0F130009E
:1056A000924909680978A1F1300101EB810100EB11
:1056B000410020702078022805DB20781F2802DCBA
:1056C0004FF0010805E01420FBF723FF00BF142D65
:1056D000AED300BF404604B0BDE8F0812DE9FF47DE
:1056E00004464FF0000635464FF00107A84628460D
:1056F000039002907E4801F0C3F80646FFF7B4FC21
:1057000032E005F101054FF0040002A903AB324677
:10571000CDE900106F497648FFF71FFD07461FBB14
:1057200001222C210398FFF7B3FB72490860084659
:105730000068C8B10846006810F8010CA0F13000FC
:1057400020700846006800F1010008600846006803
:1057500001F0E3F800EB400909EBD970C0F34F000A
:1057600060804FF0010801E0042DCAD300BF40461D
:1057700004B0BDE8F08770B504464FF0000635462A
:10578000FFF779FC50485C49086022465B495A485B
:10579000006801F0DBFA5848006801F071F806462D
:1057A00004E005F10105052D00D908E02823324663
:1057B000484951480068FFF765FC0028F1D100BF57
:1057C00070BD2DE9FF414FF000052C464FF001065A
:1057D0002746204603900290494801F051F80546BB
:1057E000FFF742FC2AE004F101044FF0280002A96F
:1057F00003AB2A46CDE90010AFF244314048FFF731
:10580000ACFC0646BEB901222C21DDE90230FFF7CF
:1058100089FB3C4908600846006860B1084600689A
:105820004078312804D0084600684078352802D1F5
:105830004FF0010704E01420FBF76BFE0A2CD2D3D3
:1058400000BF384604B0BDE8F0812DE9FF410546B0
:105850004FF0000634464FF00107A0462046039063
:105860000290294801F00CF80646FFF7FDFB24E002
:1058700004F101044FF00A0002A903AB3246CDE95E
:10588000001014492048FFF768FC074697B90F221B
:10589000DDE90210FFF773FB1C4908600846006849
:1058A00040B10F2208460168284600F0A5FF4FF0DE
:1058B000010804E01420FBF72CFE042CD8D300BF11
:1058C000404604B0BDE8F081BC0F0020B4000020C9
:1058D000AE710008D4700008D0700008ED700008A8
:1058E0000D710008D7700008F3700008B8000020A0
:1058F0009C720008BC000020C00000203873000823
:105900002E730008C400002005710008C8000020A4
:105910002DE9F04786B006464FF00004A046274622
:105920004FF00109A2462046059004900546FE4826
:1059300000F0A6FF8046FFF797FB7AE007F101072A
:105940004FF0280004A905AB4246CDE90010F74905
:10595000F548FFF702FC8146B9F1000F66D10F222E
:10596000DDE90410FFF70BFBF14908600846006809
:1059700000285BD04FF0000406E0ED480068005DB1
:1059800003A9085504F10104032CF6D34FF00000DD
:105990008DF80F00044608E0E548006800F10300B8
:1059A000005D02A9085504F10104022CF4D34FF064
:1059B00000008DF80A0003A800F0AFFF05464FF085
:1059C000FF00B5FBF0F03070FF2D09D94FF0FF005C
:1059D000B5FBF0F100FB1150A0F10100707006E082
:1059E0004FF0FF00B5FBF0F100FB1150707002A802
:1059F00000F093FF05464FF0FF00B5FBF0F0B070EC
:105A0000FF2D09D94FF0FF00B5FBF0F100FB11505D
:105A1000A0F10100F07006E04FF0FF00B5FBF0F1DF
:105A200000FB1151F1704FF0010A04E01420FBF764
:105A300070FD042F82D300BF504606B0BDE8F0874A
:105A40002DE9FF414FF000052C464FF00106274697
:105A5000204603900290B74800F012FF0546FFF77A
:105A600003FB30E004F101044FF0280002A903AB6E
:105A70002A46CDE90010B0A1AE48FFF76EFB0646FE
:105A8000F6B901223A21DDE90230FFF74BFAAC49C1
:105A900008600846006898B100BFA948006800F196
:105AA0000100A74908600846006800782028F4D063
:105AB000084600680078312802D14FF0010704E061
:105AC0001420FBF726FD052CCCD300BF384604B0CC
:105AD000BDE8F0812DE9F0414FF000052C464FF074
