:020000040800F2
:10000000A818002045400008CD130008CF130008B1
:10001000D3130008D7130008DB130008000000000A
:10002000000000000000000000000000DF130008D6
:10003000E113000800000000E313000807140008A3
:100040005F4000085F4000085F400008811400081E
:100050005F4000085F4000085F4000085F40000804
:100060005F4000085F4000085F4000085F400008F4
:100070005F4000085F4000085F4000085F400008E4
:100080005F4000085F4000085F4000085F400008D4
:100090005F4000085F4000085F4000085F400008C4
:1000A0005F4000085F4000085F4000085F400008B4
:1000B000BF1400085F4000085F4000085F40000870
:1000C0005F4000085F4000085F4000085F40000894
:1000D0005F4000085F4000084314000865140008F2
:1000E000DD1400088F1400085F4000085F4000081E
:1000F0005F4000085F4000085F4000085F40000864
:100100005F4000085F4000085F4000085F40000853
:100110005F4000085F4000085F4000085F40000843
:100120005F4000085F4000085F4000085F40000833
:10013000DFF80CD006F0DEFC004800476309000839
:10014000A818002010B5FBA006F004FD4FF0000435
:1001500006E0FA48015DFAA006F0FCFC04F1010497
:100160000F2CF6D3F7A006F0F5FCF7A006F0F2FC92
:100170004FF0000406E0F848015DF8A006F0EAFC44
:1001800004F10104202CF6D3EEA006F0E3FC10BD30
:1001900070B50546F3A006F0DDFC4FF0000406E064
:1001A000F548015DEDA006F0D5FC04F10104AC4278
:1001B000F6D3E4A006F0CEFC70BD10B5EFA006F0BB
:1001C000C9FC4FF0000406E0F048015DE3A006F032
:1001D000C1FC04F10104EE48007800EB400101EBA2
:1001E000C0000830A042EFD8D6A006F0B3FC10BD86
:1001F00010B5E8A006F0AEFC4FF0000406E0E348BE
:10020000015DD6A006F0A6FC04F10104562CF6D33D
:10021000CCA006F09FFC10BD10B54FF00100E149E5
:100220000880E1490870E148E14908604FF00000AA
:10023000E0490870E0490870E0490870E0484FF074
:10024000000101608180DF480160DF48016081803A
:10025000DE4801604FF01401DD4806F0FAF956213E
:10026000CB4806F0F6F90F21B44806F0F2F90F2159
:10027000D84806F0EEF90F21D74806F0EAF9202118
:10028000B54806F0E6F98021BB4806F0E2F94FF4E4
:100290008071BE4806F0DDF910BD70B54FF0000466
:1002A00000BF254607E04FF07000B349085504F140
:1002B000010405F10105022DF5D34FF00200AE490E
:1002C000085504F101044FF00000085504F1010441
:1002D0004FF02500085504F10104B24800884FEAA8
:1002E0001020085504F10104AE480088085504F1B7
:1002F00001044FF0000509E0C5F10300B449085CB2
:100300009D49085504F1010405F10105042DF3D3BD
:100310004FF000050BE0C5F10301AD4800F104000A
:10032000405C9549085504F1010405F10105042DCF
:10033000F1D34FF000050BE0C5F10301A44800F133
:100340000800405C8C49085504F1010405F10105E1
:10035000042DF1D39E48007B8749085504F1010420
:100360004FF000050BE0C5F10101994800F10E00C6
:10037000405C8149085504F1010405F10105022D95
:10038000F1D34FF0000507E09048405D7A490855E9
:1003900004F1010405F10105022DF5D34FF000052C
:1003A00008E08A48801C405D7349085504F1010447
:1003B00005F10105022DF4D34FF0000508E0824855
:1003C000801C405D6C49085504F1010405F10105EC
:1003D000022DF4D34FF000006749085504F10104E1
:1003E000054608E07848001D405D6349085504F162
:1003F000010405F10105022DF4D37548007C5E4926
:10040000085504F101044FF00000085504F10104FF
:100410006F48007C085504F101044FF000050BE023
:10042000C5F10101674800F10200405C52490855DE
:1004300004F1010405F10105022DF1D34FF0000094
:100440004D49085504F101045C480078085504F151
:1004500001044FF0000508E05948801C405D464902
:10046000085504F1010405F10105022DF4D34FF004
:10047000000508E05248001D405D3F49085504F161
:10048000010405F10105022DF4D32A2C02D053A05A
:1004900006F060FB70BD70B54FF00004254607E024
:1004A0004FF070003449085504F1010405F10105CD
:1004B000022DF5D34FF004002F49085504F1010433
:1004C0004FF00000085504F101044FF01C000855DE
:1004D00004F10104334800884FEA1020085504F164
:1004E000010430480088085504F101044FF000056C
:1004F00009E0C5F103003649085C1F49085504F1BD
:10050000010405F10105042DF3D34FF000050BE0C4
:10051000C5F103012E4800F10400405C164908555E
:1005200004F1010405F10105042DF1D34FF000059C
:1005300068E00000494D45493A0000005A0100209A
:1005400025632D000D0A00000D0A4C4F47494E202F
:100550004D53473A0000000087010020307825788D
:100560002D0000000D0A475053206F7220414C416E
:10057000524D204D53473A00A70100200D0A535415
:100580004154494F4E204D53473A00002702002066
:10059000040100200D0A464143544F5259204D5347
:1005A000473A0000000000200200002080510100B6
:1005B0000400002008000020090000200A0000209C
:1005C0000B00002012000020160000201C0000205C
:1005D000F000002069010020780100205061636B69
:1005E0004770734D7367204552524F52210A0000E5
:1005F000C5F10301FE48405CFE49085504F10104C1
:1006000005F10105042DF3D3F9480838007BF949B9
:10061000085504F101044FF000050BE0C5F101019C
:10062000F34800F10600405CF249085504F101046A
:1006300005F10105022DF1D34FF0000507E0EE486A
:10064000405DEC49085504F1010405F10105022D56
:10065000F5D34FF0000508E0E748801C405DE54910
:10066000085504F1010405F10105022DF4D34FF002
:10067000000507E0E148405DDE49085504F101044A
:1006800005F10105022DF5D34FF00000D9490855B9
:1006900004F10104054608E0D848801C405DD549B6
:1006A000085504F1010405F10105022DF4D3D048E9
:1006B0000838007CCF49085504F101044FF071005F
:1006C000085504F10104212C02D0CDA006F042FA15
:1006D00070BD70B54FF000052C46264607E04FF080
:1006E0007000CD49085504F1010406F10106022EFF
:1006F000F5D34FF0A000C849085504F101044FF0AC
:100700000000085504F10104C448007800EB4001E2
:1007100001EBC00000F10300BF49085504F10104DA
:10072000BF4800884FEA1020085504F10104BC4876
:100730000088085504F10104B8480078085504F110
:1007400001044FF0000673E04FF000050FE006EBE8
:100750004601B24800F1020000EB8100C5F1010141
:10076000405CAD49085504F1010405F10105022D75
:10077000EDD34FF0000511E006EB4601A74800F16C
:10078000020000EB810000F10200C5F10101405CB4
:10079000A149085504F1010405F10105022DEBD32F
:1007A0004FF0000511E006EB46019C4800F1020005
:1007B00000EB810000F10400C5F10101405C9649A5
:1007C000085504F1010405F10105022DEBD34FF0AA
:1007D000000511E006EB4601904800F1020000EB35
:1007E000810000F10600C5F10201405C8A4908550C
:1007F00004F1010405F10105032DEBD306EB4601DD
:10080000864800F1020000EB8100807A8249085599
:1008100004F1010406EB4601804800F1020000EB00
:100820008100C07A7C49085504F1010406F10106F3
:100830007A480078B04287D87848007800EB4001C9
:1008400001EBC0000830A04202D076A006F082F989
:1008500070BD70B504460D4602EBD2764FEA6606CF
:1008600006F101069E4201DB0F2A01D0002070BD77
:10087000207800F00F002870104602EBD0764FEA87
:1008800066010FE004EB410010F8010C4FF0F00698
:1008900006EA001014F8116006F00F0630446854A0
:1008A000A1F101010029EDD10120E0E77FB54FF072
:1008B0000004254607E04FF070006049085504F138
:1008C000010405F10105022DF5D34FF001005B494C
:1008D000085504F101044FF00000085504F101042B
:1008E0004FF00C00085504F101044D4800884FEA10
:1008F0001020085504F1010449480088085504F106
:1009000001044FF008034FF00F0269464C48FFF70F
:10091000A0FF40B94FF000000090019002900390BA
:1009200048A006F017F94FF0000507E01DF8050094
:100930004249085504F1010405F10105082DF5D3DC
:100940004FF001003D49085504F101044FF020002B
:10095000085504F10104112C02D040A006F0FAF869
:100960007FBD88B04FF000052846079007468046B7
:100970000690044683468146059082460490039083
:1009800002900646019000F0EFFF03F03BFF04F0F9
:100990005BFB00F0FAFD01214FF0C05001F0CDFDEE
:1009A00000F072FE00F04BFE00F0E0FE00F084FE6E
:1009B00000F006FF00F06CFF002003F054FA00F096
:1009C0006CFF0121002003F064FA00F08EFF01208B
:1009D00003F060FB00F0B0FF012240F225512548F2
:1009E00002F0B0FF00F0D9FEFFF716FC67E300004D
:1009F000F8000020A70100201C00002018000020A3
:100A00005061636B416C61726D4D7367204552524A
:100A10004F52210A0000000027020020040100209C
:100A2000000000205061636B53746174696F6E4DF8
:100A30007367204552524F52210A0000870100205F
:100A40005A010020494D45492070726F63657373E8
:100A5000204552524F52210A000000005061636B42
:100A60004C6F67696E4D7367204552524F52210A91
:100A700000000000004400404FF0000528460790A9
:100A80000746804606900446834681460590824686
:100A9000049000BF07904FF4967000F04AFD0020CC
:100AA00003F043FA02460090F9480178F9A006F0F5
:100AB00051F8002003F039FA18B1F5480078012800
:100AC00077D1002003F031FA012801D1049002E02F
:100AD0004FF00000049004F0B0FAC82000F029FDA7
:100AE000E2E007F10100C7B204F022FD044604B9B8
:100AF000DAE004F06AFD044604B9D5E0EF4804F0FA
:100B00008AFD044604B9CFE004F061FE044604B94E
:100B1000CAE0022004F035FEE94804F0CFFBE948C2
:100B200004F099FE0446E84804F0FCFE04464FF049
:100B3000000004F0D0FC04F08DFF044604B9B3E0DB
:100B4000E24804F0D1FD0446E14805F0EFFB04461D
:100B50009EE008F1010000F0FF0805F082FA01A80C
:100B600005F023FA04F0C0FF044604B990E001A8A0
:100B700005F01BFA04F0EBFF044601A805F015FA96
:100B800005F00BF8044601A805F00FFA05F071F81E
:100B9000044604B97CE001A805F007FA4FF0010013
:100BA000CC4908804FF00005FFF780FEFFF7CAFA36
:100BB0003DE04CE205F1010502AB03AA4FF0110143
:100BC000C54805F032F98346BBF1000F29D1C3A116
:100BD000DDE9022004F085F90646F6B1F0794FEA26
:100BE0000060317A00EB0140717A00EB0120B17AAC
:100BF00000EB010A5146BAA005F0ACFFBAF13C0F78
:100C000005D9BB48824502D2BA48C0F800A0B9480D
:100C10000168B9A005F09EFF02E0BDA005F09AFFB3
:100C200007E0002003F027F9C1A005F093FF052D90
:100C3000C0D300BF002003F01EF94FF00005A54807
:100C4000008800F10100A3490880FFF742FDA04899
:100C5000007800EB400101EBC00000F108000590B6
:100C6000FFF7ABFA0CE005F10105B948059905F06D
:100C700070F88346BBF1000F02D14FF0010901E08B
:100C8000052DF0D300BFB9F1010F00D104E000BF82
:100C9000B8F1040FFFF65DAF00BF4FF00008B9F1E7
:100CA000010F00D103E000BF042FFFF61AAF00BF11
:100CB0004FF00007B9463D4605F0F7F903F09BFDFC
:100CC000A4A005F047FFC82000F033FC36E00798E9
:100CD00000F10100C0B2079000F0A4FD03F0E6FEB1
:100CE000069000F0A9FD0698012810D14FF00000F1
:100CF0009D4908709D4803F0FAFE9C48007C01283D
:100D000005D103F07FFD9AA005F024FF19E0012032
:100D100001F0FFFC00BF012001F0EEFC0028FAD03A
:100D200001F094FC0A30009001F0B5FC01F0CEFC1B
:100D30000121084601F00FFA00F063FC0798122821
:100D4000C5DB00BF05F0D7F94FF00007B8463C46B9
:100D5000A34678E107F10100C7B204F0E9FB0446BD
:100D600004B970E104F031FC044604B96BE1534866
:100D700004F051FC044604B965E104F028FD044682
:100D800004B960E1022004F0FCFC4D4804F096FA3E
:100D90004C4804F060FD04464B4804F0C3FD044693
:100DA0004FF0000004F097FB04F054FE044604B931
:100DB00049E1464804F098FC044638E108F1010096
:100DC00000F0FF0805F04DF901A805F0EEF804F079
:100DD0008BFE044604B92AE101A805F0E6F804F008
:100DE000B6FE044601A805F0E0F804F0D6FE04467D
:100DF00001A805F0DAF804F03CFF044604B916E156
:100E000001A805F0D2F84FF000053248008800F143
:100E10000100304908801E4802785DA0049905F061
:100E200099FE0498012810D11948007801280CD1A6
:100E3000FFF731FB4FF0210005904FF001005F49B3
:100E400008705FA005F086FE0BE0FFF726FA4FF072
:100E50002A0005904FF00000584908705CA005F08A
:100E600079FE0598FFF794F9D6E005F101055C4895
:100E7000059904F06EFF8346BBF1000F06D14FF0D9
:100E800001094E48027802480178ABE0C4E0000056
:100E9000080000200D0A2020675F7569416C6172AF
:100EA0006D466C6167203D2025643B20627574743B
:100EB0006F6E203D2025640D0A0000000A0000200E
:100EC000160000205A0100201C0000201200002003
:100ED0000401002000000020870100207070000045
:100EE000736C656570536563203D2025640A0000BE
:100EF00000A3020004000020675F75695365745306
:100F00006C656570536563203D2025640A00000010
:100F10005365727665722053657420536C656570F5
:100F20002054696D6572204552524F520A000000EC
:100F3000475052535F53656E6444617461204C4F57
:100F400047494E204D5347204661696C0A00000016
:100F5000270200200D0A20475053506F7765724FCB
:100F60006E200D0A0000000002000020F0000020AA
:100F7000475053446174612056616C696420616E0E
:100F800064205475726E4F4646204750530D0A0038
:100F9000616C61726D537469636B466C6167203D6F
:100FA0002025643B20675F7569416C61726D466CFA
:100FB0006167203D2025640A000000000900002030
:100FC0005061636B416C61726D4D73670D0A000077
:100FD0005061636B4770734D73670D0A000000002A
:100FE000A7010020C1A005F0B5FDD0480078012878
:100FF00008D1CF480078012804D14FF00000CB4938
:10100000087003E04FF00100C8490870C748017834
:10101000C8A005F09FFD02E0052DFFF426AF00BF3C
:101020004FF00005B9F1010F00D104E000BFB8F1A5
:10103000040FFFF6C3AE00BF4FF00008B9F1010F77
:1010400000D103E000BF042FFFF684AE00BF0020F4
:1010500002F011FF05F016F803F0D4FB03F0F4FFE3
:10106000012001F056FB00BF012001F045FB0028E4
:10107000FAD0002002F059FF01280ED1AB480078C9
:1010800001280AD101F0E2FA3C30009001F003FBA4
:101090003C21B1A005F05EFD09E001F0D7FA7830FF
:1010A000009001F0F8FA7821B0A005F053FD01F0AE
:1010B0000DFB0121084601F04EF800F0A2FADBE436
:1010C00070B54FF00004254607E04FF07200AE49BE
:1010D000085504F1010405F10105022DF5D34FF087
:1010E0007700A949085504F101044FF000000855A4
:1010F00004F101044FF05100085504F10104A34824
:1011000000884FEA1020085504F101049F48008828
:10111000085504F101044FF0000509E0C5F1030092
:101120009B49085C9849085504F1010405F1010543
:10113000042DF3D34FF000050BE0C5F103019448F3
:1011400000F10400405C9049085504F1010405F1E8
:101150000105042DF1D34FF000050BE0C5F10301AB
:101160008B4800F10800405C8749085504F10104F0
:1011700005F10105042DF1D38548007B824908550E
:1011800004F101044FF000050BE0C5F101018048B6
:1011900000F10E00405C7C49085504F1010405F1A2
:1011A0000105022DF1D34FF0000507E07948405DBD
:1011B0007549085504F1010405F10105022DF5D327
:1011C0004FF0000508E07348801C405D6E490855EB
:1011D00004F1010405F10105022DF4D34FF00005DF
:1011E00007E06D48405D6849085504F1010405F1C8
:1011F0000105022DF5D34FF000006349085504F1B5
:101200000104054608E06448801C405D5E490855BD
:1012100004F1010405F10105022DF4D35C48007CC2
:101220005949085504F101044FF00000085504F134
:10123000010402F07AFE5449085504F101044FF00C
:10124000000509E0C5F101015448405C4E490855CC
:1012500004F1010405F10105022DF3D34FF0000064
:101260004949085504F101044D480078085504F136
:1012700001044FF0000507E04A48405D4249085527
:1012800004F1010405F101050F2DF5D34FF0000520
:1012900007E04548405D3C49085504F1010405F16B
:1012A00001050F2DF5D34FF0000507E03F48405DE5
:1012B0003549085504F1010405F101050F2DF5D359
:1012C0003B4800783049085504F101044FF0020012
:1012D000085504F101044FF00000085504F1010421
:1012E000562C02D033A005F035FC70BD73656E64DA
:1012F0005F6F6B206265666F726520675F7569411D
:101300006C61726D466C6167203D2025643B2067EF
:101310005F7569416C61726D5061636B6574466C99
:101320006167203D2025640A0000000008000020BD
:101330000900002073656E645F6F6B2061667465E1
:101340007220675F7569416C61726D466C616720E0
:101350003D2025640A000000616C61726D6D6F6450
:101360006520736C6565702025640A00444542550C
:1013700047206E6F726D616C6D6F646520736C6574
:1013800065702025640A000027020020000000206C
:10139000F00000201C000020180000201400002095
:1013A0000A0000205A010020690100207801002075
:1013B000020000205061636B466163746F72794D67
:1013C0007367204552524F52210A0000704700BFF8
:1013D000FEE700BFFEE700BFFEE700BFFEE7704785
:1013E000704770474348006870476420704700B5F5
:1013F0000146FFF7F7FF024600BFFFF7F3FF801A31
:101400008842FAD900BD10B53A48006800F10100E1
:10141000384908604FF00001084603F02DF900211B
:10142000012003F029F900F08CF810BD032800D347
:101430007047314B43F82010304B43F8202000BF59
:10144000F6E710B540F225512D4802F08CFB40B173
:101450002B4802F0F1FAC4B221464FF0010003F02C
:1014600081F810BD10B52448806830B123488168E8
:10147000214882680220904701E000BFFEE710BDCE
:1014800010B5032001F062F901F020F910BD10B58C
:10149000022001F048F988B14FF4003000F057FC09
:1014A000012000F08AFE10B1012000F093FE01F04F
:1014B0000DF9022001F04AF901F008F910BD10B54C
:1014C0000121880702F02CF938B10121880702F0C8
:1014D0003BF94FF001000B49087010BD10B54FF4F7
:1014E000004000F021FC18B14FF4004000F02FFC48
:1014F00010BD00002000002028030020340300203D
:10150000004400409C00002010B500280ADA4FEA91
:1015100001724FEA1264FE4A00F00F03A3F10403C4
:10152000D45405E04FEA01724FEA1263F94A1354AA
:1015300010BDF949086000BFF74909680029FBD1CF
:101540007047F548006828B1F3480068A0F1010031
:10155000F1490860704710B54FF00001EF4A12687A
:101560004FF47A74B2FBF4F30CE04FF00602B3FBD5
:10157000F2F2A2F1010100BF0A00A1F10101FBD1C9
:10158000A0F101000028F0D110BD10B5E3480068BB
:101590004FF06401B0FBF1F4B4F1807F02D34FF05F
:1015A000010016E024F07F40A0F101004FF0E0219F
:1015B00048614FF00F014FF0FF30FFF7A5FF4FF0EC
:1015C00000004FF0E02188614FF0070008614FF004
:1015D000000008B100BFFEE70C214FF0FF30FFF71D
:1015E00093FF10BD10B54FF4803000F025FE00F0E1
:1015F00068FE0446012C03D14FF4A06000F0B7FE52
:1016000010BD10B54FF4803000F016FE00F059FE0A
:10161000C34908700846007801280FD100F089FE00
:1016200000BF392000F02BFE0028FAD0022000F085
:1016300083FE00BF00F08BFE0828FBD110BD10B563
:10164000012000F074FD00F08FFA012000F0DEFEB2
:1016500000BF612000F013FE0028FAD04FF40070A4
:1016600000F0D7FE012000F0DBFE01F036F847F66F
:10167000FF7001F002F801F029F80121022000F0CA
:10168000C3FF01F023F810BD1CB54FF4003000F08B
:101690005EFB4FF4003000904FF000008DF8040026
:1016A0004FF008008DF805004FF001008DF806009E
:1016B000684600F0C8FA1CBD0EB50121084600F0CE
:1016C0003CFF4FF0804001F05BF842F20F70ADF844
:1016D000040048F69F40ADF800004FF00000ADF860
:1016E0000600ADF8020069464FF0804001F01CF999
:1016F0000121880702F010F801221146900701F03D
:10170000ECFC0121880701F0CCFC0021012000F055
:1017100014FF0EBD0EB50121042000F00EFF81481C
:1017200001F02EF848F6CE20ADF804004FF6FF7019
:10173000ADF800004FF00000ADF80600ADF8020073
:101740006946784801F0F0F80121764801F0E4FF9D
:1017500001221146734801F0C0FC0121714801F0DB
:10176000A0FC0021042000F0E8FE0EBD08B54FF4F7
:10177000A06000F079F94FF029008DF800004FF0DB
:1017800000008DF801008DF802004FF001008DF887
:101790000300684600F06EF908BD08B54FF026005A
:1017A0008DF800004FF007008DF801004FF00100A8
:1017B0008DF802008DF80300684600F05BF908BD63
:1017C00008B54FF4E06000F04FF94FF01C008DF8C1
:1017D00000004FF000008DF801004FF003008DF87D
:1017E00002004FF001008DF80300684600F042F956
:1017F00008BD08B54FF4E06000F036F94FF01E0068
:101800008DF800004FF000008DF801004FF004004B
:101810008DF802004FF001008DF80300684600F0DB
:1018200029F908BD10B50121084600F086FE012106
:10183000880701F036FC10BD10B500214FF0804044
:1018400001F02FFC0021012000F077FE10BD10B543
:101850000121042000F071FE0121324801F021FC39
:1018600010BD10B500212F4801F01BFC0021042001
:1018700000F063FE10BD10B545F2555002F0BCF902
:10188000062002F0BCF940F21A6002F0BBF910BD6C
:1018900010B5002002F0C2FA10BD1FB54FF416506B
:1018A00000904FF00000ADF80400ADF80600ADF870
:1018B0000800ADF80C004FF00C00ADF80A006946C6
:1018C0004FF0020002F03CFB1FBD70B504460D4610
:1018D000E1B2154802F0ACF800BF4021124802F016
:1018E0001DF90028F9D0204670BD1FB54FF41650E1
:1018F00000904FF00000ADF80400ADF80600ADF820
:101900000800ADF80C004FF00C00ADF80A000DE037
:1019100018ED00E000E400E0280000204000002076
:1019200024000020000800400048004069464FF0B5
:10193000000002F005FB1FBD1FB54FF416500090CC
:101940004FF00000ADF80400ADF80600ADF8080057
:10195000ADF80C004FF00C00ADF80A0069464FF0EE
:10196000010002F0EDFA1FBD08B50121142000F0BE
:10197000D5FD4FF00200ADF800004FF010008DF8DB
:1019800003004FF003008DF802006946324800F072
:101990004DFA4FF42060ADF800004FF010008DF8C4
:1019A00003004FF003008DF8020069462B4800F059
:1019B0003DFA4FF00400ADF800004FF010008DF834
:1019C00003004FF003008DF802006946244800F040
:1019D0002DFA4FF02000ADF800004FF010008DF808
:1019E00003004FF003008DF8020069461D4800F027
:1019F0001DFA4FF48060ADF800004FF028008DF81C
:101A000003006946154800F011FA08BD08B5012128
:101A1000142000F083FD4FF00200ADF800004FF0FD
:101A200004008DF803004FF003008DF802006946B2
:101A3000094800F0FBF94FF42060ADF800004FF0CA
:101A400004008DF803004FF003008DF80200694692
:101A5000024800F0EBF908BD000801400010014009
:101A600000140140000C0140384940EA0101384AA5
:101A70001160704770B54FF000010B464FF00F0238
:101A8000C4784CB3324C246804F4E064C4F5E064D8
:101A90004FEA1421C1F1040322FA01F2447804FA56
:101AA00003F1847804EA020444EA01014FEA0111D7
:101AB000284C0678A155047804F01F054FF0010466
:101AC00004FA05F405784FEA65154FF0E02606EBB9
:101AD0008505C5F800410CE0047804F01F054FF0BF
:101AE000010404FA05F41C4D06784FEA661645F821
:101AF000264070BD194A01EA020242EA0002184B70
:101B00001A60704731B1174A126842EA0002154B59
:101B10001A6005E0134A126822EA0002114B1A60AB
:101B20007047042808D14FF0E021096941F0040111
:101B30004FF0E022116107E04FF0E021096921F048
:101B400004014FF0E0221161704700000000FA0527
:101B50000CED00E000E400E080E100E080FFFF1F0A
:101B600008ED00E010ED00E010B5012000F012FDDE
:101B7000002000F00FFD10BD244908607047244983
:101B80000860704723490860704701464FF0000025
:101B9000214A10884FF67F4200EA020040EA010025
:101BA0001D4A1080704701464FF000001A4A108805
:101BB0004FF6807200EA020040EA0100164A1080E7
:101BC00070474FF00002154A024411607047014609
:101BD0004FF00002114A0A44108870470D4818302F
:101BE0000068C0B270470E48008840F001000C4900
:101BF0000880704707481C300068C0B2704708482A
:101C0000008840F0020006490880704704860D42B3
:101C100000860D4288860D422C6C0040006C00400E
:101C2000346C00404FF000004A49086001F10401A3
:101C3000086001F10401086001F1040108604648F0
:101C40004649086070474FF0000142498279002AF6
:101C500040D00A461268036822EA03020B461A6063
:101C600001F104021268036822EA030201F104038D
:101C70001A60027911440A68036842EA03020A60A2
:101C8000374A1268036822EA0302354B1A6003F1EF
:101C900004021268036822EA0302324B1A60427996
:101CA000102A0ED12E4A1268036842EA03022C4B16
:101CB0001A602C4A1268036842EA0302294B1A6030
:101CC0000FE02449427911440A68036842EA03029A
:101CD0000A6006E0027911440A68036822EA0302F6
:101CE0000A6070474FF00001016001714FF00C0174
:101CF00041714FF00001817170471B49096841EA49
:101D00000001194A1160704701464FF00000134A64
:101D100012680A4202D04FF0010001E04FF00000CB
:101D200070470E490860704701464FF000000246B8
:101D3000084B1B6803EA0102084B1B680B4203D0E7
:101D400012B14FF0010001E04FF00000704703496D
:101D50000860704700040140FFFF0F0014040140B9
:101D6000080401400C0401401004014010B5044671
:101D7000DE48844208D10121042000F0EDFB00215F
:101D8000042000F0E9FB46E0D948844208D1012153
:101D9000082000F0E1FB0021082000F0DDFB3AE024
:101DA000D448844208D10121102000F0D5FB002145
:101DB000102000F0D1FB2EE0CF48844208D1012151
:101DC000202000F0C9FB0021202000F0C5FB22E00C
:101DD000CA48844208D10121402000F0BDFB002107
:101DE000402000F0B9FB16E0C548844208D101212B
:101DF000802000F0B1FB0021802000F0ADFB0AE064
:101E0000C048844207D10121801500F0A5FB0021C4
:101E1000A01500F0A1FB10BD10B50121084600F08F
:101E20009BFB0021012000F097FB10BD2DE9F04144
:101E300002464FF000052E46284603460446074654
:101E400091F803C00CF00F0591F803C01CF0100FBF
:101E500003D091F802C04CEA0505B1F800C01CF0AF
:101E6000FF0F35D014684FF000002EE04FF0010C4A
:101E70000CFA00F3B1F800C00CEA03069E4222D12E
:101E80004FEA80034FF00F0C0CFA03F724EA070423
:101E900005FA03FC4CEA040491F803C0BCF1280FD6
:101EA00006D14FF0010C0CFA00FCC2F814C00AE095
:101EB00091F803C0BCF1480F05D14FF0010C0CFAAA
:101EC00000FCC2F810C000F101000828CED3146055
:101ED000B1F800C0BCF1FF0F38DD54684FF00000CE
:101EE00031E000F1080C4FF0010808FA0CF3B1F8EA
:101EF00000C00CEA03069E4223D14FEA80034FF054
:101F00000F0C0CFA03F724EA070405FA03FC4CEA69
:101F1000040491F803C0BCF1280F05D100F1080CAE
:101F200008FA0CF8C2F8148091F803C0BCF1480F0D
:101F300007D100F1080C4FF0010808FA0CF8C2F8BC
:101F4000108000F101000828CBD35460BDE8F08177
:101F50004FF6FF7101804FF0020181704FF00401D4
:101F6000C170704702464FF0000093680B4202D0E8
:101F70004FF0010001E04FF0000070470146886813
:101F800080B2704702464FF00000D3680B4202D087
:101F90004FF0010001E04FF0000070470146C868B3
:101FA00080B2704701617047416170470AB10161B9
:101FB00000E041617047C16070474FF4803242EAEF
:101FC0000102826181618261826982697047024691
:101FD0004FF000004C4B18684FF6807300EA030086
:101FE00040EA021040EA0100474B18607047474939
:101FF000C8617047F0B50A464FF000031C46194609
:102000000D4600F00046B6F1004F02D13E4EF16998
:1020100001E03D4E7168C0F3034583B200F4401601
:10202000B6F5401F08D121F07061374E766826F072
:102030007066354F7E6017E000F48016B6F5801F9D
:1020400008D14FF0030606FA05F421EA040141F035
:10205000706109E04FEA50564FEA061603FA06F699
:1020600021EA060141F070613AB14FEA50564FEA59
:10207000061603FA06F646EA010100F00046B6F13C
:10208000004F02D1204EF16101E01F4E7160F0BDA2
:1020900030B54FF000024FEA81734FEA13744FF0EE
:1020A0000F0303FA04F21A4B4FEAA10453F8243049
:1020B00023EA0203164C4FEAA10544F825302346D3
:1020C0004FEAA10453F824304FEA81744FEA1474A4
:1020D00000FA04F443EA04030D4C4FEAA10544F866
:1020E000253030BD0B4908607047000000080140F2
:1020F000000C014000100140001401400018014094
:10210000001C01400020014000000140000020426E
:1021100008000140DC00204210B50121080700F052
:102120002AFA00214FF0805000F025FA10BD2D4909
:10213000086270472B490861704701464FF0000064
:10214000294A106820F0E00040EA01001060704762
:1021500026490860704710B502464FF00000224B38
:10216000186820F0030040EA02001860204B1B684A
:1021700043F004031E4C2360012901D130BF00E06D
:1021800020BF1B4B1B6823F00403194C236010BDB8
:102190001548006840F004001349086008460068CC
:1021A00040F0020008601248006840F00400104946
:1021B000086000BF00BF30BF704701464FF000000D
:1021C000094A52680A4202D04FF0010001E04FF084
:1021D000000070470449096841EA8001024A116021
:1021E0007047000000000E4200700040A0000E4248
:1021F00010ED00E0F748006840F00100F549086084
:1022000008464068F44900EA0100F249486008467F
:102210000068F24900EA0100EE49086008460068DB
:1022200020F4802008600846406820F4FE004860E2
:102230004FF41F0088607047E649096821F4803137
:10224000E44A11601146096821F480211160B0F55B
:10225000803F03D0B0F5802F0ED106E0DD4909683C
:1022600041F48031DB4A116007E0DA49096841F442
:10227000A021D84A116000E000BF00BF704710B530
:1022800001464FF00002134610464FEA6112012A40
:1022900002D1D04C236806E0022A02D1CD4C236A39
:1022A00001E0CC4C636A01F01F024FF0010404FA14
:1022B00002F41C4202D04FF0010001E04FF0000098
:1022C00010BD70B54FF000042546264600BF3120F2
:1022D000FFF7D5FF064604F10104B4F5A06F01D065
:1022E000002EF4D03120FFF7CAFF10B14FF00105E6
:1022F00001E04FF00005284670BD01464FF0000098
:10230000B44A106820F0F80040EAC100106070473D
:10231000B3490860704702464FF00000AD4B586863
:1023200020F47C1042EA010343EA0000A94B586004
:102330007047AB490866704701464FF00000A54A58
:10234000506820F0030040EA010050607047A14847
:10235000406800F00C00704701464FF000009D4AB5
:10236000506820F0F00040EA0100506070470146DC
:102370004FF00000974A506820F4E06040EA010006
:102380005060704701464FF00000924A506820F4B8
:10239000605040EAC1005060704731B18D4A527AB6
:1023A00042EA00028B4B5A7208E08A4A527A6FEA7C
:1023B0000003DBB202EA0302864B5A727047894976
:1023C0000860704701464FF00000824A506820F4D0
:1023D000404040EA0100506070474FF00001824ADF
:1023E00011707C4A82F82010012802D004280AD1FA
:1023F00004E04FF001017C4A117005E04FF0050147
:10240000794A117000E000BF00BF7047774908604B
:1024100070477049096A41EA00016E4A11627047CB
:1024200073490860704730B54FF000010A460C460A
:102430000B46684D6D6805F00C0121B1042905D0EB
:10244000082927D105E06B4D056026E0694D056040
:1024500023E0604D6D6805F470125E4D6D6805F403
:1024600080344FF0020505EB924224B9624D02FB25
:1024700005F505600DE0574D6D6815F4003F04D07B
:102480005D4D02FB05F5056003E05A4D02FB05F5C5
:10249000056002E0574D056000BF00BF4D4D6D68FF
:1024A00005F0F0014FEA1111544D6B5C056825FAF7
:1024B00003F54560474D6D6805F4E0614FEA112171
:1024C0004E4D6B5C456825FA03F58560414D6D689E
:1024D00005F460514FEAD121484D6B5C456825FAFF
:1024E00003F5C5603B4D6D6805F440414FEA9131FD
:1024F000434D6B5CC568B5FBF3F5056130BD31B18B
:10250000344A526942EA0002324B5A6105E0314ACC
:10251000526922EA00022F4B5A61704731B12D4AAD
:10252000926942EA00022B4B9A6105E0294A9269BE
:1025300022EA0002274B9A61704731B1254AD269DD
:1025400042EA0002234BDA6105E0224AD26922EA1C
:102550000002204BDA61704731B11E4AD26842EA6C
:1025600000021C4BDA6005E01A4AD26822EA000237
:10257000184BDA60704731B1164A126942EA00021C
:10258000144B1A6105E0134A126922EA0002114B4A
:102590001A6170471B49086070471149C864704749
:1025A0000C49C87170470B48406A40F08070094977
:1025B0004862704701464FF00000064A92680A429E
:1025C00002D04FF0010001E04FF0000070470149D8
:1025D00088727047001002400000FFF8FFFFF6FE0F
:1025E00000004242D8004242201002408004424291
:1025F0003C04424200127A0000093D002C000020F9
:102600003C0000204004424231B1554A128842EA5F
:102610000002534B1A8008E0514A12886FEA000307
:102620009BB202EA03024E4B1A8070474D48008865
:1026300040F010004B49088070474A4800884FF628
:10264000EF7100EA01004749088070474FF0000130
:1026500045480188A0F10400008841EA0040704725
:1026600000B50246FFF7E2FF4FEA12403F490880FB
:102670003D490A80FFF7E1FF00BD00B50246FFF7C4
:10268000D5FFC2F303403A49088001F104010A80F2
:10269000FFF7D3FF00BD00B50246FFF7C7FF4FEAC3
:1026A00012403449088001F104010A80FFF7C5FF98
:1026B00000BD4FF00000304909884FEA01714FEA30
:1026C00011302E49098841EA0000704700BF2548B3
:1026D000008810F0200FFAD07047224800884FF68B
:1026E000F77100EA01001F49088000BF1D480088FB
:1026F00010F0080FFAD0704701464FF00000194A59
:1027000012880A4202D04FF0010001E04FF00000B1
:102710007047144909886FEA000292B201EA020187
:10272000104A1180704701464FF000000D4A128890
:1027300002EA0102D0B20A4A12880A4203D010B15A
:102740004FF0010001E04FF0000070470549098893
:102750006FEA000292B201EA0201024A1180704758
:1027600000280040042800401C2800401828004091
:10277000082800402028004010280040142800406D
:1027800010B50446FE48844208D10121C014FFF769
:10279000E3FE0021E014FFF7DFFEC4E0B4F1804F58
:1027A00008D101210846FFF7E6FE00210120FFF7CE
:1027B000E2FEB8E0F348844208D101210220FFF78D
:1027C000DAFE00210220FFF7D6FEACE0EE4884429C
:1027D00008D101210420FFF7CEFE00210420FFF7DD
:1027E000CAFEA0E0E948844208D101210820FFF791
:1027F000C2FE00210820FFF7BEFE94E0E4488442B8
:1028000008D101211020FFF7B6FE00211020FFF7AC
:10281000B2FE88E0DF48844208D101212020FFF782
:10282000AAFE00212020FFF7A6FE7CE0DA488442C1
:1028300008D101214014FFF78FFE00216014FFF73B
:102840008BFE70E0D548844209D10121C804FFF70E
:1028500083FE00214FF40020FFF77EFE63E0D048A6
:10286000844209D101210805FFF776FE00214FF4CB
:102870008010FFF771FE56E0CA48844209D1012159
:102880004805FFF769FE00214FF40010FFF764FED2
:1028900049E0C548844208D101214020FFF76BFE82
:1028A00000214020FFF767FE3DE0C048844208D188
:1028B00001218020FFF75FFE00218020FFF75BFEF3
:1028C00031E0BB48844208D101218015FFF753FE57
:1028D0000021A015FFF74FFE25E0B648844209D13C
:1028E00001210804FFF738FE00214FF48030FFF784
:1028F00033FE18E0B048844209D101214804FFF7B3
:102900002BFE00214FF40030FFF726FE0BE0AB4812
:10291000844208D101218804FFF71EFE00214FF4F4
:102920008020FFF719FE10BD4FF000020288944B83
:1029300098420ED0984B98420BD0B0F1804F08D0FF
:10294000904B984205D0904B984202D08F4B9842C2
:1029500006D14FF68F7302EA03024B8843EA020264
:102960008B4B984209D08B4B984206D04FF6FF43D1
:1029700002EA0302CB8843EA020202808B88838545
:102980000B8803857E4B98420BD0834B984208D02E
:10299000884B984205D0884B984202D0874B98428A
:1029A00001D10B7A03864FF001038382704770B523
:1029B0004FF0000422461346058C4FF6FE7605EADA
:1029C00006050584028C8388048B4FF68F7504EA14
:1029D00005044FF6FC7504EA05040D8845EA040475
:1029E0004FF6FD7502EA05020D8945EA02024D889F
:1029F00045EA0202624DA8420BD0674DA84208D0BA
:102A00006C4DA84205D06C4DA84202D06B4DA84237
:102A10001BD14FF6F77502EA05024D8945EA02021D
:102A20004FF6FB7502EA05028D8845EA02024FF671
:102A3000FF6503EA05034FF6FF5503EA05038D8999
:102A400045EA0303CD8945EA030383800483CD88E7
:102A50008586028470BD70B54FF00004224613468F
:102A6000058C4FF6EF7605EA06050584028C83880F
:102A7000048B48F6FF7504EA05044FF6FF4504EAA7
:102A800005040D884FEA056544EA15444FF6DF75E5
:102A900002EA05020D894FEA055542EA15424D88C2
:102AA0004FEA055542EA1542354DA84202D03A4D4B
:102AB000A84223D14FF67F7502EA05024D894FEAFD
:102AC000055542EA15424FF6BF7502EA05028D88A8
:102AD0004FEA055542EA15424FF6FF3503EA050372
:102AE0004FF2FF7503EA05038D894FEA854543EAF6
:102AF0001543CD894FEA854543EA15438380048316
:102B0000CD880587028470BD70B54FF00004224661
:102B10001346058C4FF6FF6605EA06050584028C10
:102B20008388848B4FF68F7504EA05044FF6FC7595
:102B300004EA05040D8845EA04044FF6FF5502EA4D
:102B400005020D894FEA056542EA15424D884FEAB4
:102B5000056542EA15420A4DA84202D00E4DA84230
:102B600044D14FF2FF7502EA05024D894FEA05652F
:102B700042EA15424FF6FF3502EA05028D881FE052
:102B8000002C01400004004000080040000C004000
:102B9000001000400014004000340140004C01408F
:102BA000005001400054014000180040001C00404B
:102BB0000020004000400140004401400048014026
:102BC0004FEA056542EA15424EF6FF7503EA050332
:102BD0004DF6FF7503EA05038D894FEA055543EA73
:102BE0001543CD894FEA055543EA15438380848315
:102BF000CD888587028470BD70B54FF00002134602
:102C00001446058C4EF6FF7605EA06050584038C0E
:102C10008488828B48F6FF7502EA05024FF6FF456D
:102C200002EA05020D884FEA056542EA15424DF6B3
:102C3000FF7503EA05030D894FEA057543EA15435D
:102C40004D884FEA057543EA1543FB4DA84202D073
:102C5000FA4DA84208D14BF6FF7504EA05048D89A8
:102C60004FEA855544EA154484808283CD88A0F8D4
:102C70004050038470BD828B4FF2FF3302EA03029F
:102C80008283828B4FEA016342EA13428283704758
:102C9000F0B50C4615464FF0000211460E46078C63
:102CA0004EF6FF7C07EA0C070784828B018C4FEA03
:102CB00004774FEA174640F6FF4702EA07024FEA59
:102CC000056742EA17424FEA037742EA1742DA4FB2
:102CD000B8420ED0D94FB8420BD0B0F1804F08D0D7
:102CE000D74FB84205D0D74FB84202D0D64FB842DE
:102CF00008D14DF6FF7701EA070146F4805747EA0D
:102D0000010107E047F6FF5701EA070144F4805745
:102D100047EA010182830184F0BD828B4FF6F37391
:102D200002EA03028283828B42EA010282837047B5
:102D3000F0B50C4615464FF0000211460E46078CC2
:102D40004FF6FF6C07EA0C070784828B018C4FEA71
:102D500004674FEA17464FF60C7702EA07024FEA7C
:102D6000035745EA174747EA0202B34FB8420ED06D
:102D7000B24FB8420BD0B0F1804F08D0B04FB8423C
:102D800005D0B04FB84202D0AF4FB84208D14FF68D
:102D9000FF5701EA070146F4807747EA010107E09F
:102DA0004FF2FF5701EA070144F4807747EA010137
:102DB00082830184F0BD028B4FF2FF3302EA0302EB
:102DC0000283028B4FEA016342EA13420283704797
:102DD000F0B50C4615464FF0000211460E46078C22
:102DE0004FF6EF7C07EA0C070784028B018C4FEA51
:102DF00004574FEA174640F6FF4702EA07024FEA38
:102E0000037742EA17424FEA056742EA17428A4FC0
:102E1000B8420ED0894FB8420BD0B0F1804F08D0E5
:102E2000874FB84205D0874FB84202D0864FB8428C
:102E300008D14FF6DF7701EA070146F0100747EAAD
:102E4000010107E04FF65F7701EA070144F0100740
:102E500047EA010102830184F0BD028B4FF6F37350
:102E600002EA03020283028B42EA010202837047F4
:102E7000F0B50C4615464FF000021146068C4FF691
:102E8000FE7706EA07060684028B018C4FF60C7665
:102E900002EA06024FEA035645EA164646EA0202ED
:102EA000654EB0420ED0654EB0420BD0B0F1804FAF
:102EB00008D0634EB04205D0624EB04202D0624E9E
:102EC000B04208D14FF6FD7601EA060144F0010652
:102ED00046EA010107E04FF6F57601EA060144F003
:102EE000010646EA010102830184F0BD70B5054682
:102EF0000C46514885420ED0504885420BD0B5F162
:102F0000804F08D04E48854205D04E48854202D0B9
:102F10004D48854200D100E000BF208850B9238988
:102F2000A28861882846FFF7A3FFE1882846FFF7BB
:102F300094FF25E0208804280AD12389A28861888B
:102F40002846FFF745FFE1882846FFF734FF17E0E2
:102F5000208808280AD12389A28861882846FFF79B
:102F6000E7FEE1882846FFF7D8FE09E02389A2881A
:102F700061882846FFF78CFEE1882846FFF77BFE34
:102F800070BD2DE9F04105460C464FF000064FF0AC
:102F90000107608810B94FF0020601E04FF000060B
:102FA000A088012802D14FF0020701E04FF001078D
:102FB0002088A0B92389A28861882846FFF758FF96
:102FC000E1882846FFF749FF23893A4631462846DB
:102FD000FFF7FEFEE1882846FFF7EDFE13E02389A8
:102FE000A28861882846FFF7F3FEE1882846FFF7AC
:102FF000E2FE23893A4631462846FFF739FFE18849
:103000002846FFF72AFFBDE8F0810A884B8842EA8C
:1030100003028B8842EA0302CB8842EA03020B894F
:1030200042EA03024B8942EA03028B8942EA030225
:10303000A0F8442070470000002C014000340140FB
:103040000004004000080040000C00404FF6FF71F3
:1030500081804FF000010180C18041800172704782
:103060004FF00001018041808180C1800181418158
:103070008181C18170474FF00001018041804FF094
:10308000010181804FF00001C180018170474FF044
:103090000001018041808180C18001814181818165
:1030A000704721B1028842F00102028005E00288E7
:1030B0004FF6FE7302EA03020280704731B1B0F8A6
:1030C000442042F40042A0F8442005E0B0F8442037
:1030D000C2F30E02A0F84420704710B522B18389D4
:1030E00043EA0103838106E083896FEA0104A4B205
:1030F00003EA0403838110BD8182704741EA020321
:10310000A0F84830704710B522B1838943EA010323
:10311000838106E083896FEA0104A4B203EA040311
:10312000838110BD01894FF6F87201EA0201018125
:1031300070470A464FF0000101894FF68F7301EA8C
:10314000030141EA02010181704730B504460D4692
:1031500029462046FFF7EDFF208940F00700208137
:1031600030BD2DE9F04104460D4616461F46602D40
:1031700006D13B46012231462046FFF729FE05E0F5
:103180003B46012231462046FFF772FE2946204683
:10319000FFF7CFFF208940F007002081BDE8F081D4
:1031A00030B50C464FF000010189C9B24FEA036502
:1031B00042EA154545EA040545EA0101018130BDB1
:1031C0002DE9F04105460E46174698464FF000049B
:1031D00043463A4631462846FFF7E2FF2C894FF630
:1031E000F87004EA000444F007044FF68F7004EA14
:1031F000000444F070042C81BDE8F081F0B5044671
:103200000D4616461F463B46324629462046FFF7E6
:10321000C7FF208940F480402081F0BD0185828273
:1032200070470A464FF0000101884FF68F7301EA9C
:10323000030141EA020101807047F0B50C461546D2
:103240001E464FF000010A460B460189028B038C93
:103250004FF6F87701EA070141EA04014FF6FC470F
:1032600002EA070240F2011742EA07024FF6DD7751
:1032700003EA07034FEA065745EA174747EA0303FD
:10328000018102830384F0BD0A464FF00001018BE7
:103290004FF68F7301EA030141EA0201018370478F
:1032A0000A464FF00001018B48F6FF7301EA030163
:1032B0004FEA026341EA1341018370470A464FF027
:1032C0000001818B4FF68F7301EA030141EA02018D
:1032D000818370470A464FF00001818B48F6FF73E7
:1032E00001EA03014FEA026341EA13418183704717
:1032F00021B1028842F08002028005E002884FF688
:103300007F7302EA03020280704721B1828842F093
:103310000402828005E082884FF6FB7302EA030212
:103320008280704721B1828842F00802828005E0E5
:1033300082884FF6F77302EA03028280704721B158
:10334000828842F00102828005E082884FF6FE7397
:1033500002EA0302828070470A464FF00001018BA7
:103360004FF6F77301EA030141EA02010183704756
:103370000A464FF00001018B4FF2FF7301EA03018F
:103380004FEA026341EA1341018370470A464FF056
:103390000001818B4FF6F77301EA030141EA020154
:1033A000818370470A464FF00001818B4FF2FF7313
:1033B00001EA03014FEA026341EA13418183704746
:1033C0000A464FF00001018B4FF6FB7301EA03013F
:1033D00041EA0201018370470A464FF00001018B68
:1033E0004FF6FF3301EA03014FEA026341EA13415A
:1033F000018370470A464FF00001818B4FF6FB7343
:1034000001EA030141EA0201818370470A464FF055
:103410000001818B4FF6FF3301EA03014FEA02639B
:1034200041EA1341818370470A464FF00001018B46
:103430004FF67F7301EA030141EA020101837047FD
:103440000A464FF00001018BC1F30E014FEA0263FF
:1034500041EA1341018370470A464FF00001818B16
:103460004FF67F7301EA030141EA0201818370474D
:103470000A464FF00001818BC1F30E014FEA02634F
:1034800041EA1341818370470A464FF00001018CE5
:103490004FF6FD7301EA030141EA0201018470471E
:1034A0000A464FF00001018C4FF6F77301EA030161
:1034B00041EA0201018470470A464FF00001018C85
:1034C0004FF6DF7301EA03014FEA025341EA134169
:1034D000018470470A464FF00001018C4FF67F735C
:1034E00001EA03014FEA025341EA134101847047A4
:1034F0000A464FF00001018C4FF6FF5301EA030129
:103500004FEA026341EA1341018470470A464FF0D3
:103510000001018C4FF2FF7301EA03014FEA0263DD
:1035200041EA1341018470470A464FF00001018CC3
:103530004DF6FF7301EA03014FEA027341EA1341BA
:103540000184704730B54FF000034FF0010404FAD6
:1035500001F4A3B2048C6FEA0305ADB204EA0504DA
:103560000484048C02FA01F5ADB244EA0504048433
:1035700030BD30B54FF000034FF0040404FA01F4FD
:10358000A3B2048C6FEA0305ADB204EA0504048417
:10359000048C02FA01F5ADB244EA0504048430BD9E
:1035A00070B503464FF000000446184600F11800BD
:1035B0004FF0010505FA01F5ACB21D8C6FEA040667
:1035C000B6B205EA06051D8409B108290AD100EB47
:1035D0006100056825F070050560056845EA02058B
:1035E00005600EE0A1F10405ADB200EB65000568D1
:1035F00025F4E045056005684FEA026645EA164590
:10360000056070BD21B1028842F00202028005E02F
:1036100002884FF6FD7302EA03020280704721B16F
:10362000028842F00402028005E002884FF6FB7334
:1036300002EA03020280704721B1828842F08002D0
:10364000828005E082884FF67F7302EA030282805F
:10365000704702884FF6F77302EA0302028002887D
:1036600042EA01020280704782884FF68F7302EAB5
:1036700003028280828842EA0102828070470289C6
:103680004FF6F87302EA03020281028942EA01025C
:103690000281704702894FF67F7302EA03020281BA
:1036A000028942EA01020281704781847047818564
:1036B0007047818670470187704781877047A0F8FF
:1036C0004010704702884FF6FF4302EA030202806F
:1036D000028842EA0102028070470146888E7047E4
:1036E0000146088F70470146888F70470146B1F840
:1036F000400070470146888C70470146088D70472E
:1037000002464FF00000138A0B4202D04FF0010036
:1037100001E04FF0000070476FEA0102028270473B
:1037200030B502464FF0000003460446158A05EA0C
:103730000103958905EA01041BB114B14FF00100A2
:1037400001E04FF0000030BD6FEA010202827047D5
:1037500010B50446F848844209D101218803FEF7D8
:10376000FBFE00214FF48040FEF7F6FE32E0F34806
:10377000844209D101214804FEF7FDFE00214FF4E7
:103780000030FEF7F8FE25E0ED48844209D1012122
:103790008804FEF7F0FE00214FF48020FEF7EBFED8
:1037A00018E0E848844209D10121C804FEF7E3FE8D
:1037B00000214FF40020FEF7DEFE0BE0E2488442D9
:1037C00008D101210805FEF7D6FE00214FF4801034
:1037D000FEF7D1FE10BD2DE9F04786B005460E4636
:1037E0004FF00004A24600BFA1462746B08900B1B1
:1037F00000BF2F462C8A4CF6FF7004EA0004F088C4
:1038000040EA04042C82AC894EF6F31004EA00046A
:10381000B088318940EA0100718940EA010040EA3C
:103820000404AC81AC8A4FF6FF4004EA0004B0897E
:1038300040EA0404AC8201A8FEF7F5FDBE488742C9
:1038400002D1DDF810A001E0DDF80CA0A88910F489
:10385000004F09D00AEBCA0000EB0A1031684FEAAA
:103860004101B0FBF1F808E00AEBCA0000EB0A10D6
:1038700031684FEA8101B0FBF1F84FF06400B8FB0A
:10388000F0F04FEA00144FEA14104FF0640101FB0E
:103890001089A88910F4004F0AD04FF0320000EBD5
:1038A000C900B0FBF1F000F0070040EA04040BE0AF
:1038B0004FF0320000EB09104FF06401B0FBF1F063
:1038C00000F00F0040EA04042C8106B0BDE8F08748
:1038D0004FF4165101604FF000018180C1800181D9
:1038E0004FF00C0141814FF000018181704710B50C
:1038F00002464FF00000108A4FF2FF0300EA030077
:103900000B884C8843EA04038C8843EA0403CC8880
:1039100043EA040343EA0000108210BD4FF00001A7
:10392000018041808180C180704721B1828942F449
:103930000052828105E082894DF6FF7302EA03029C
:1039400082817047F0B503464FF0000426462546B5
:103950002046A1F510676A3F00D100BF1846C1F3A9
:10396000421401F01F064FF0010707FA06F5012C7B
:1039700002D100F10C0006E0022C02D100F110008F
:1039800001E000F1140022B1076847EA050707606B
:1039900003E0076827EA05070760F0BD10B522B10C
:1039A000838A43EA0103838206E0838A6FEA010483
:1039B000A4B203EA0403838210BD028A4FF6F073B7
:1039C00002EA03020282028A42EA0102028270478C
:1039D00082894FF2FF7302EA03028281828942EAFE
:1039E00001028281704721B1828942F00202828104
:1039F00005E082894FF6FD7302EA03028281704777
:103A0000028A4FF6DF7302EA03020282028A42EA66
:103A100001020282704721B1028A42F4804202828E
:103A200005E0028A4BF6FF7302EA03020282704746
:103A3000C1F308028280704701468888C0F30800FD
:103A40007047818941F0010181817047028BD2B2B8
:103A50000283028B42EA012202837047028B02F446
:103A60007F420283028B42EA01020283704721B146
:103A7000828A42F02002828205E0828A4FF6DF735A
:103A800002EA03028282704721B1828A42F0100268
:103A9000828205E0828A4FF6EF7302EA0302828295
:103AA000704721B1828A42F00802828205E0828A50
:103AB0004FF6F77302EA03028282704721B18289CE
:103AC00042F40042828103E08289C2F30E028281C5
:103AD000704721B1828A42F40062828205E0828AC4
:103AE0004FF2FF7302EA030282827047828A4FF626
:103AF000FB7302EA03028282828A42EA0102828224
:103B0000704721B1828A42F00202828205E0828AF5
:103B10004FF6FD7302EA03028282704702464FF0BD
:103B20000000B1F5007F00D100BF13880B420DD01B
:103B30004FF001000CE0000000380140004400405C
:103B400000480040004C0040005000404FF0000092
:103B5000704701F40072B2F5007F00D100BF6FEA38
:103B600001020280704770B502464FF00004234600
:103B70001D461846A1F510666A3E00D100BFC1F38C
:103B8000421501F01F034FF0010606FA03F3012D61
:103B900003D1968906EA030308E0022D03D1168AB1
:103BA00006EA030302E0968A06EA03034FEA2124A9
:103BB0004FF0010606FA04F4168806EA04041BB165
:103BC00014B14FF0010001E04FF0000070BD10B5DE
:103BD0004FF000021346A1F510646A3C00D100BF0B
:103BE0004FEA21224FF0010404FA02F4A3B26FEA73
:103BF0000304048010BD00000F49086070470E499F
:103C0000486070470C49886070474AF6AA200A4904
:103C1000086070474CF6CC40074908607047014681
:103C20004FF00000044AD2680A4202D04FF001006F
:103C300001E04FF000007047003000404FF00001FD
:103C400008466D4A126842F480326B4B1A6000BF1E
:103C5000694A126802F4003001F1010110B9B1F5AE
:103C6000A06FF5D1644A126812F4003F02D04FF001
:103C7000010001E04FF00000012842D15F4A1268C4
:103C800042F010025D4B1A601A46126822F00302DD
:103C90001A601A46126842F002021A60564A5268C6
:103CA000554B5A601A4652685A601A46526842F496
:103CB00080625A601A46526822F47C125A601A4690
:103CC000526842F4E8125A601A46126842F0807252
:103CD0001A6000BF484A126812F0007FFAD0464AC4
:103CE000526822F00302444B5A601A46526842F06E
:103CF00002025A6000BF404A526802F00C02082AD1
:103D0000F9D1704710B5FFF799FF10BD10B53A48CB
:103D1000006840F0010038490860084640683849AA
:103D200000EA01003449486008460068354900EA65
:103D30000100314908600846006820F480200860CE
:103D40000846406820F4FE0048604FF41F00886079
:103D5000FFF7D8FF4FF000602B49086010BD10B589
:103D60004FF0000108460246234B5B6803F00C014C
:103D700021B1042906D008292CD107E0234B244C7B
:103D800023602BE0214B224C236027E01A4B5B6819
:103D900003F47010184B5B6803F480324FF0020399
:103DA00003EB90402AB91B4B00FB03F3184C236034
:103DB0000FE0114B5B6813F4003F05D0154B00FB7F
:103DC00003F3134C236004E0104B00FB03F3104C8F
:103DD000236003E00D4B0E4C236000BF00BF064B79
:103DE0005B68C3F303130C4CE15C094B1B6823FABB
:103DF00001F3074C236010BD001002400020024078
:103E00000000FFF8FFFFF6FE08ED00E000127A0068
:103E10004000002000093D004400002038B5044661
:103E2000754951F824004FF00101FEF777FB734804
:103E300030F81400ADF800004FF014008DF80300C6
:103E40004FF002008DF802006D4951F824006946D8
:103E5000FDF7ECFF38BD694931F81010684A52F897
:103E6000202051617047654931F81010644A52F8BA
:103E7000202011617047624951F82010C9685F4ADB
:103E800032F8102081EA02015D4A52F82020D16008
:103E900070477FB504460D465A4951F824004FF04B
:103EA0000101FEF73BFB4FF004008DF80F00564870
:103EB00030F81400ADF80C00544951F8240003A95F
:103EC000FDF7B4FF012D2FD1514A32F81420D1B2A1
:103ED000504A32F81420D0B2FEF7DAF84E4830F8E3
:103EE000140001904FF000008DF808004FF0100012
:103EF0008DF809004FF001008DF80A0001A8FDF7C8
:103F0000A2FE464830F81400C0B28DF800004FF011
:103F10000F008DF801008DF802004FF001008DF8C0
:103F200003006846FDF7A6FD7FBD10B50446364A7E
:103F300032F81410354A52F82400FEF713F810BD79
:103F400038B504460D46364951F82410354A52F822
:103F5000242041EA020141F001004FF00101FEF787
:103F6000DDFA34B9304951F824000121FEF7D6FAC0
:103F700005E02D4951F824000121FEF7DEFA4FF04B
:103F800018008DF80300294830F81400ADF800003F
:103F90004FF003008DF80200254951F824006946CE
:103FA000FDF744FF4FF004008DF80300214830F87E
:103FB0001400ADF80000204951F824006946FDF7CF
:103FC00035FF1E4951F824002946FFF704FC1B4920
:103FD00051F824000121FFF7A8FC38BD70B5054653
:103FE0000E4640F225511648FFF7BDFD18B11448A2
:103FF000FFF722FD044670BDA86E0008A06E000801
:1040000054000020BC6E0008B86E00086400002058
:10401000C46E0008C26E0008C06E0008C66E0008BC
:10402000D46E0008E06E0008C86E0008EC6E000850
:1040300074000020F26E000880000020680000205C
:10404000004800400648804706480047FEE7FEE774
:10405000FEE7FEE7FEE7FEE7FEE7FEE7FEE7FEE738
:104060000D3D00083101000801464FF0FF3011B945
:104070004FF0000002E0012900D1084670470146D8
:1040800009B9FE4805E0012901D1FD4801E04FF0E2
:104090000000704770B505462846FFF7E5FF044667
:1040A000FCB9F848C4EBC401F74A42F821004FF4C8
:1040B0008060C4EBC40102EB81014860FDF795F913
:1040C00000EB80004FEA80004FF47A71B0FBF1F012
:1040D00000F10100C4EBC401EB4A02EB81018861ED
:1040E00020E0012C1ED1E948C4EBC401E64A42F8A5
:1040F00021004FF48060C4EBC40102EB81014860F1
:10410000FDF773F900EB80004FEA80004FF47A71FD
:10411000B0FBF1F000F10100C4EBC401DA4A02EB9C
:1041200081018861C4EBC400D74951F82000C4EB79
:10413000C401D54A02EB81018860C4EBC40011467A
:1041400051F82000C4EBC40102EB8101C8604FF0BC
:104150000000C4EBC40102EB81014861C4EBC40060
:10416000114601EB80008069012806D84FF002005B
:10417000C4EBC40102EB8101886170BD2DE9F041FF
:1041800007460D4616464FF000040DE0295D3846FF
:10419000FFF74EFC00BF40213846FFF7BFFC002868
:1041A000F9D004F1010084B2B442EFDB2046BDE84F
:1041B000F0812DE9F04107460E4614463846FFF7D8
:1041C0005EFF8046256812E02068401B315C404657
:1041D000FFF72EFC00BF80214046FFF79FFC002820
:1041E000F9D080214046FFF7B4FCA5F10105002D70
:1041F000EAD1BDE8F0812DE9F84F8346894617469C
:104200004FF0010000904FF00005D7F800A058468D
:10421000FFF72AFF0446C4EBC4009B4901EB800072
:104220000569002D7DD0C4EBC40001EB800040691E
:1042300030B14FF0020000904FF000003860ECE029
:104240004FF003000090C4EBC4008F4901EB8000E5
:104250000569554500D95546C4EBC4008A4901EBB0
:1042600080008068C4EBC401874A02EB8101C96801
:10427000884224D9C4EBC40002EB80002A46C168FE
:10428000484602F0CDF9C4EBC4007F4901EB800041
:10429000C0682844C4EBC4017B4A02EB8101C860BA
:1042A000C4EBC400114601EB80000069A0EB0500DF
:1042B000C4EBC40102EB810108613D60ADE0C4EBD9
:1042C000C400714951F82000C4EBC4016E4A02EBEE
:1042D000810149680844C4EBC40102EB8101C9684B
:1042E000A0EB01082E46464543D8C4EBC40002EBC0
:1042F00080003246C168484602F092F9C4EBC4001F
:10430000614901EB8000C0683044C4EBC4015E4ADF
:1043100002EB8101C860C4EBC400114651F82000D3
:1043200000E073E0C4EBC40102EB8101496808447A
:10433000C4EBC40102EB8101C968884209D8C4EB0F
:10434000C400114651F82000C4EBC40102EB810106
:10435000C860C4EBC4004C4901EB80000069A0EBCD
:104360000600C4EBC401484A02EB810108613D60CC
:104370004BE0C4EBC400444A02EB80004246C168F3
:10438000484602F04DF9C4EBC4003F4951F8200003
:10439000C4EBC4013C4A02EB8101C860C4EBC40019
:1043A000114601EB80000069A0EB0800C4EBC401DA
:1043B00002EB81010861A6EB0806C4EBC402324B94
:1043C00003EB820209EB0800D168324602F028F9BB
:1043D000C4EBC4002C4901EB8000C0683044C4EB3E
:1043E000C401294A02EB8101C860C4EBC400114634
:1043F00001EB80000069A0EB0600C4EBC40102EBF6
:104400008101086106EB0800386006E04FF0000A01
:10441000504638604FF0010000900098BDE8F88FDA
:104420002DE9F041064688463046FFF71DFE04465A
:104430003046FFF724FE07468AE03846FFF7FCFACD
:10444000C5B2C4EBC400104901EB8000C168C4EBE5
:10445000C4000D4A02EB8000806800F10100814237
:1044600029D0C4EBC400114601EB8000C068C4EB46
:10447000C40152F8211088421FD109E000380140E0
:104480000044004040030020400B00204007002073
:10449000C4EBC400114651F82000C4EBC40102EB88
:1044A000810149680844401EC4EBC40102EB81014C
:1044B0008968884201D1BDE8F081C4EBC4009E49FF
:1044C00001EB80008168C4EBC4009B4A02EB8000D2
:1044D000806800F10100C4EBC402974B03EB820239
:1044E00090600D70C4EBC400194601EB80000069B8
:1044F00000F10100C4EBC4011A4602EB810108611E
:10450000C4EBC400114651F82000C4EBC40102EB17
:10451000810149680844C4EBC40102EB8101896848
:10452000884209D8C4EBC400114651F82000C4EBFE
:10453000C40102EB81018860C4EBC4007E4901EB39
:1045400080008069C4EBC4017B4A02EB81014861B1
:1045500040F225513846FFF7E1FA01283FF46DAFEC
:1045600000BFA8E72DE9F04106460D463046FFF7AB
:104570007BFD04463046FFF782FD0746C4EBC400CE
:104580006D4901EB8000C168C4EBC4006A4A02EBCC
:104590008000806800F1010081421ED0C4EBC4009D
:1045A000114601EB8000C068C4EBC40152F8211031
:1045B000884214D1C4EBC400114651F82000C4EB6A
:1045C000C40102EB810149680844401EC4EBC401E8
:1045D00002EB81018968884201D1BDE8F081C4EB1A
:1045E000C400554901EB80008168C4EBC400524A05
:1045F00002EB8000806800F10100C4EBC4024E4B66
:1046000003EB820290600D70C4EBC400194601EB0D
:104610008000006900F10100C4EBC4011A4602EBFE
:1046200081010861C4EBC400114651F82000C4EBBD
:10463000C40102EB810149680844C4EBC40102EBE8
:1046400081018968884209D8C4EBC400114651F839
:104650002000C4EBC40102EB81018860C4EBC400FC
:10466000354901EB80008069C4EBC401324A02EB9A
:104670008101486100BFB0E770B505460E46284687
:10468000FFF7F2FC0446C4EBC4002B4901EB8000A9
:10469000406960B1C4EBC40001EB80004069A0F147
:1046A0000100C4EBC401244A02EB8101486170BDE2
:1046B00000B585B0012144F20400FDF72FFF4FF44F
:1046C0000070ADF810004FF018008DF813004FF097
:1046D00003008DF8120004A91848FDF7A7FB4FF45A
:1046E0008060ADF810004FF004008DF8130004A9AD
:1046F0001248FDF79BFB4FF4E13000904FF00000B3
:10470000ADF80400ADF80600ADF80800ADF80C00F7
:104710004FF00C00ADF80A0069460948FFF75BF856
:10472000012240F225510648FFF70CF90121044807
:10473000FFF7FBF805B000BD400B0020000801406A
:104740000038014010B54FF0000400BF07E0F84802
:10475000025D2146F7A002F0FDF904F10104062CE8
:10476000F5DBF3488179FDA002F0F4F910BD10B536
:104770004FF0000400BF08E0ED48C01D025D214677
:10478000FAA002F0E7F904F10104092CF4DB10BDF2
:1047900010B54FF0000400BF08E0E5481130025D9D
:1047A0002146FBA002F0D6F904F10104092CF4DB48
:1047B00010BD10B54FF0000400BF08E0DC481C300D
:1047C000025D2146FBA002F0C5F904F10104052CAD
:1047D000F4DB10BD10B54FF0000400BF08E0D44872
:1047E0002430025D2146FBA002F0B4F904F101047B
:1047F000052CF4DB10BD10B54FF40061FE48FDF749
:10480000D3FB10BD10B54FF40061FB48FDF7CAFBA8
:1048100010BD2A2802D02C2814D108E04FF0000146
:10482000F64A11704FF00101F54A1170A8E0F54900
:10483000097801F10101F34A11704FF00001F24AC9
:1048400011709DE0EF490978092976D2DFE801F07F
:1048500005393C42454B4E545A00EB49097806292C
:104860002CD2DFE801F0030A0415052000BF00BFC9
:10487000A0F13001E54A117021E0E449097801EB2B
:10488000810100EB4101A1F13001A94AD17016E08C
:10489000DE49097801EB810100EB4101A1F1300112
:1048A000A34A11710BE0D949097801EB810100EBB2
:1048B0004101A1F130019E4A517100E000BF00BFEB
:1048C00056E09B49887153E09949C91DCE4A127838
:1048D00088544DE0964908744AE095491131CA4A16
:1048E0001278885444E09249C87641E090491C31DE
:1048F000C54A127888543BE08D492431C24A127867
:10490000885435E0C049097806292DD2DFE801F046
:10491000030A0416052100BF00BFA0F13001BB4A05
:10492000117022E0B949097801EB810100EB4101E6
:10493000A1F130017E4A917017E018E0B34909787F
:1049400001EB810100EB4101A1F13001784A517086
:104950000BE0AE49097801EB810100EB4101A1F1C7
:104960003001734A117000E000BF00BF00E000BFDB
:1049700000BFA549097801F10101A34A117000BFE8
:1049800000BF704710B504469C48007800286CD0E2
:104990009F480078B8B19F480078082803D1204686
:1049A000FFF737FF0EE04FF000009A490870984972
:1049B00008704FF00100984908704FF000008F49CF
:1049C000087000BF65E02A2C36D02C2C39D19348D2
:1049D0000079472807D191484079412803D14FF009
:1049E00001008C4908708D480079532807D18B4805
:1049F0004079412803D14FF002008649087087486A
:104A00004079562803D14FF004008249087083484A
:104A10004079432803D14FF008007E4908704FF0D9
:104A200001007B4908707C4908704FF0000075490F
:104A300008707549087017E04FF000006F49087062
:104A400012E076487449097844547348007800F1BC
:104A500001007149087008460078062803DD4FF010
:104A600000006649087000BF13E0242C11D16B4888
:104A700004704FF0010061490870674908704FF0F9
:104A8000000063490870634908705E4908705E4918
:104A9000087010BD5A48007830B14FF000005849F6
:104AA00008704FF0010070470020FCE710B54FF090
:104AB000000416E008E05A480078012804D14FF0BD
:104AC00000005749087010BD20215648FFF726F80E
:104AD0000028F0D05348FEF7AFFFC4B22046FFF7DE
:104AE00051FFFFF7D7FF0128E4D100BFEBE72DE925
:104AF000F04F8BB080464FF0000A0D48007800F16F
:104B0000640005900A484078049009488078039032
:104B10000748C0780290064800790190044840791F
:104B2000009050460890684601F02AFD7CE00000A5
:104B3000780B0020675F7374475053524D434461B4
:104B400074612E5554434461746554696D655B25E9
:104B5000645D203D2025640D0A00000053746174DB
:104B60007573203D2025630D0A000000675F737494
:104B7000475053524D43446174612E4C61746974C3
:104B80007564655B25645D203D2025630D0A00008A
:104B9000675F7374475053524D43446174612E4CA8
:104BA0006F6E6769747564655B25645D203D2025C3
:104BB000630D0A00675F7374475053524D4344615D
:104BC00074612E53706565645B25645D203D20250E
:104BD000630D0A00675F7374475053524D4344613D
:104BE00074612E436F757273655B25645D203D2093
:104BF00025630D0A0000000000100140990000200C
:104C00009A00002097000020980000209B000020C0
:104C1000960000208C000020950000208D000020D0
:104C20009C00002000380140C8F8000088A001F076
:104C300091FFD14606E018F8091087A001F08AFF1D
:104C400009F10109B9F1040FF5D3AFF2C00001F089
:104C500081FF8348817A407A00EB800001EB4001BC
:104C60007F48007A7E4AD27902EB820200EB420052
:104C7000C0EB001001EB800047F2305100FB01F067
:104C80007749097B40F2771201FB02F100EBC10189
:104C90007348407BC0EB001000EB800001EB80010B
:104CA0006F48807BC0EB001001EB40016C48C07B7B
:104CB00000EB40000844C8F804006948007C532811
:104CC00005D1D8F80400C0F10000C8F8040065A0C0
:104CD00001F040FF4FF0000908E008F1040010F86F
:104CE00009105DA001F036FF09F10109B9F1040FC7
:104CF000F3D3AFF2681001F02DFF5948417D007DDC
:104D000000EB800001EB40025548407C4FF064010D
:104D100000FB01F05249897C01EB810100EB41016C
:104D20004F48C07C0844C0EB001002EB800047F203
:104D3000305100FB01F04A49C97D40F2771201FB76
:104D400002F100EBC1014648007EC0EB001000EB11
:104D5000800001EB80014248407EC0EB001001EB77
:104D600040013F48807E00EB40000844C8F808003E
:104D70003B48C07E572805D1D8F80800C0F1000094
:104D8000C8F8080039A001F0E5FE4FF0000908E07E
:104D900008F1080010F809102FA001F0DBFE09F15E
:104DA0000109B9F1040FF3D3AFF2202001F0D2FED4
:104DB0002B481C3001F0C5FC834601F03FFD044642
:104DC0002C4A2D4B01F0CAFC064601F048FD8246F4
:104DD000BAF1FF0F04D94FF0FF0088F80C0001E092
:104DE00088F80CA01E48243001F0ABFCA8F80E0097
:104DF0001B488079412804D14FF0010088F8100049
:104E000003E04FF0000088F8100098F80C101BA089
:104E100001F0A0FE1CA001F09DFE4FF0000908E08B
:104E200008F10E0010F809100BA001F093FE09F133
:104E30000109B9F1020FF3D3AFF2B02001F08AFEFD
:104E400098F8101012A001F085FE0BB0BDE8F08FAD
:104E50005554433A00000000307825782D000000BA
:104E6000780B00204C4154493A0000004C4F4E470B
:104E7000493A00009A9999999999FD3F53504545AF
:104E8000443A2025640D0A00434F555253453A00D9
:104E90005354415455533A2025640D0A0000000034
:104EA0002DE9F04106460F4614464FF00005B04686
:104EB000304601F0F9FBA04202D20020BDE8F081AB
:104EC00008E03946404601F0E6FB054605B905E035
:104ED00005F101082000A4F10104F2D100BF284629
:104EE000ECE72DE9F04705460F469046384601F0BD
:104EF000DBFB8246384601F0D7FBA8EB000000F14F
:104F000001064FF00009002E11DD4C4608E028197B
:104F10005246394601F0D0FB00B903E004F1010428
:104F2000B442F4DB00BFB44201DA05EB04094846A1
:104F3000BDE8F087F0B505460E464FF000042F4659
:104F40009A4201D90020F0BD1AE04FF0000105E0BF
:104F5000785CB04200D103E001F101019942F7D33E
:104F600000BF994206D207EB010401F10100A3EB57
:104F7000000301E04FF0000404B905E004F101076B
:104F80001000A2F10102E0D100BF2046DBE770B5BE
:104F900003460C464FF000000546FE4EF6B1944223
:104FA0001CD901460FE05E5C302E05DB5E5C392EBD
:104FB00002DC05F1010501E04FF00005954200D348
:104FC00003E001F10101A142EDD300BF954205D3F9
:104FD00003EB0106A6EB020606F1010070BD30B539
:104FE00002460B464FF000000446014622E0555CA5
:104FF000412D06DB555C462D03DC555CA5F13704DD
:1050000012E0555C612D06DB555C662D03DC555CBA
:10501000A5F1570408E0555C302D05DB555C392DB2
:1050200002DC555CA5F130044FEA001040EA0400B0
:1050300001F101019942DAD330BD10B54FF400718E
:10504000D548FCF7AFFF10BD10B54FF40071D24842
:10505000FCF7AAFF10BD10B50221D048FCF7A4FF51
:10506000C820FCF766FA0221CC48FCF79BFFC82059
:10507000FCF75FFA10BD10B54FF48061C84801F02D
:10508000E8FA10BD10B54FF48071C64801F0E1FA9E
:1050900010BD2DE9F84F0546884691469A4656467A
:1050A000BF4F4FF0000BCDF80090009898B1BEA014
:1050B00001F050FD5C4605E0295DC0A001F04AFD0D
:1050C00004F1010400988442F6D3BDA001F042FD32
:1050D000BCA001F03FFD6A4629460120FFF769F8B0
:1050E000B8F1000F3ED036E0A6F10100C6B24FF491
:1050F000806000904FF03200FCF71BFA6A46394698
:105100000120FFF778F883460098C0B1BBF1030F88
:1051100015D1B1A0009901F01DFD4FF0000405E08C
:10512000395DA6A001F016FD04F101040098844247
:10513000F6D3A3A001F00EFDAEA001F00BFD009888
:1051400048B1BBF1030F06D141463846009AFFF73C
:10515000C8FE00B101E0002EC6DC00BF16B9012078
:10516000BDE8F88F0020FBE72DE9FC5F0646894685
:1051700092461F46DDF830B0DDF83480884C4FF0A1
:1051800000000090CDF804A00198A0B186A001F025
:10519000E1FC4FF0000505E0715D88A001F0DAFC4C
:1051A00005F1010501988542F6D385A001F0D2FCF6
:1051B00084A001F0CFFC01AA31460120FEF7F9FFDF
:1051C00047E0A8F1010000F0FF084FF48060019073
:1051D0004FF03200FCF7ADF901AA21460120FFF79C
:1051E0000AF800900198B8B10098032814D187A05C
:1051F00001F0B0FC4FF0000505E0615D6FA001F02B
:10520000A9FC05F1010501988542F6D36CA001F0D7
:10521000A1FC6CA001F09EFC0198A0B100980328AD
:1052200011D107B13C60BBF1000F02D00198CBF85F
:105230000000B9F1000F05D04946204601F015FAEB
:1052400008B109E008E0B8F1000F02D10120BDE883
:10525000FC9FB8F1000FB4DC00BF0020F7E77FB57A
:1052600004464FF00000039002906D4801F01CFAD4
:105270000546FFF700FF282002A903AB2A46CDE927
:10528000001068496648FFF76FFFA8B90F22DDE9F3
:105290000210FFF77CFE644908600846006810B9F8
:1052A000012004B070BD2CB10F225F480168204678
:1052B00001F0B6F90020F4E70120F2E7F0B585B07F
:1052C00005464FF0000630460490039004465748C8
:1052D00001F0EAF90646FFF7CEFE282003A904AB49
:1052E0003246CDE9001052A15048FFF73DFF00289B
:1052F0004FD101222221DDE90330FFF71BFE0446D6
:1053000014B9012005B0F0BDECB160788DF808004B
:10531000A0788DF8090002A801F0C6F907463946C1
:1053200002A8FFF75CFEA870E0788DF808002079ED
:105330008DF8090002A801F0B7F90746394602A81E
:10534000FFF74DFEE87003222221DDE90330FFF76D
:10535000F1FD04460CB90120D4E7CCB160788DF89A
:105360000800A0788DF8090002A801F09DF9074611
:10537000394602A8FFF733FE2871E0788DF808005F
:1053800020798DF8090002A801F08EF9074653E054
:1053900057E074E0A96600080010014000080140D1
:1053A000A40B0020A40F002047534D5F53656E648B
:1053B00041542073656E640D0A00000025630000EF
:1053C0000D0A000047534D5F53656E6441542064DD
:1053D0006F6E650D0A00000047534D5F53656E64A4
:1053E0004154207265637620256420627974657368
:1053F0000D0A000047534D5F53656E64415420729F
:1054000065637620646F6E650D0A000047534D5F3B
:1054100053656E64415420726563760D0A00000086
:10542000CE700008FC6E0008A00000205671000835
:105430004352454700000000394602A8FFF7CFFD60
:10544000687102222C21DDE90330FFF773FD044669
:105450000CB9012056E714B114F8010C6870012250
:105460002C21DDE90330FFF765FD04460CB901206E
:1054700048E714B114F8010C2870002042E701201D
:1054800040E770B50446FD4801F00EF90546FFF708
:10549000F2FD04232A46FA49F848FFF7FAFDC0B99D
:1054A00001223A21F748FFF7FBFCF749086008465C
:1054B000006808B9012070BDF348006800F10100E0
:1054C000F14908600846006801F03BF920700020AF
:1054D000F1E70120EFE7F8B504464FF00005284654
:1054E00000900646FFF7CEFD6846FFF7CAFF9DF81D
:1054F0000000A0421BD0E548E54908602246E54986
:10550000E348006801F036FBE148006801F0CCF8A0
:10551000054602E0052E00D908E004232A46D849B2
:10552000DB480068FFF7B5FD0028F3D100BFF8BDE8
:105530002DE9F0414FF000052F462C464FF00106B3
:10554000A046D54801F0B0F80746FFF794FD19E0F2
:1055500004F101044FF004033A46C949CE48FFF76D
:1055600098FD064616B94FF001080DE005F101005F
:10557000C5B2022D03DDFFF76EFD4FF000051E20C2
:10558000FBF7D7FF0F2CE3D300BF4FF000044FF021
:105590000106C24801F088F80746FFF76CFD0EE0EF
:1055A00004F101044FF004033A46B549BB48FFF744
:1055B00070FD064606B904E01E20FBF7BAFF052C75
:1055C000EED300BF4046BDE8F0812DE9F0414FF039
:1055D00000052C464FF001062746B14801F064F85B
:1055E0000546FFF748FD10E004F101044FF00A03FF
:1055F0002A46AC49AA48FFF74CFD064616B94FF0BB
:10560000010704E01420FBF794FF062CECD300BF45
:105610003846BDE8F0812DE9FF4104464FF0000611
:1056200035464FF00107A8462846039002909E4851
:1056300001F03AF80646FFF71EFD4EE005F10105C0
:105640004FF0140002A903AB3246CDE900108C499B
:105650009548FFF789FD0746002F3AD101222C21FA
:105660000398FFF71DFC914908600846006808B9D7
:10567000B84632E08D480068A0F102008B4908600E
:10568000084600680078302804DB08460068007887
:10569000392806DD854800684078A0F13000207088
:1056A0000EE0824800684078A0F130007F49096828
:1056B0000978A1F1300101EB810100EB410020707C
:1056C0002078022805DB20781F2802DC4FF0010833
:1056D00005E01420FBF72DFF00BF142DAED300BF53
:1056E000404604B0BDE8F0812DE9FF4704464FF085
:1056F000000635464FF00107A84628460390029061
:105700006B4800F0D1FF0646FFF7B5FC32E005F12B
:1057100001054FF0040002A903AB3246CDE90010A9
:1057200057496348FFF720FD07461FBB01222C2184
:105730000398FFF7B5FB5F49086008460068C8B1E9
:105740000846006810F8010CA0F1300020700846EF
:10575000006800F1010008600846006800F0F1FFF1
:1057600000EB400909EBD970C0F34F0060804FF0A7
:10577000010801E0042DCAD300BF404604B0BDE8D3
:10578000F08770B504464FF000063546FFF77AFC07
:105790003E4849490860224648494748006801F0A8
:1057A000E9F94548006800F07FFF064604E005F18E
:1057B0000105052D00D908E02823324630493E482E
:1057C0000068FFF766FC0028F1D100BF70BD2DE92D
:1057D000FF414FF000052C464FF0010627462046BA
:1057E00003900290364800F05FFF0546FFF743FC48
:1057F0002AE004F101044FF0280002A903AB2A4675
:10580000CDE90010AFF2D8312D48FFF7ADFC0646C8
:10581000BEB901222C21DDE90230FFF78BFB2949BB
:1058200008600846006860B1084600684078312882
:1058300004D0084600684078352802D14FF00107AF
:1058400004E01420FBF775FE0A2CD2D300BF3846C3
:1058500004B0BDE8F0812DE9FF4105464FF0000698
:1058600034464FF00107A0462046039002901648A8
:1058700000F01AFF0646FFF7FEFB4CE0E56F00085C
:10588000FC6E0008A40B0020A4000020A40F002040
:10589000A8000020D66F0008F86E0008156F0008F9
:1058A000356F0008FF6E00081B6F0008AC00002079
:1058B000C4700008B0000020B4000020607100082F
:1058C00056710008B80000202D6F000804F1010493
:1058D0004FF00A0002A903AB3246CDE90010F649A9
:1058E000F648FFF741FC074697B90F22DDE90210A1
:1058F000FFF74DFBF24908600846006840B10F22EF
:1059000008460168284600F08BFE4FF0010804E0CD
:105910001420FBF70EFE042CD8D300BF404604B081
:10592000BDE8F0812DE9F04786B006464FF000044F
:10593000A04627464FF00109A24620460590049054
:105940000546E04800F0B0FE8046FFF794FB7AE0A1
:1059500007F101074FF0280004A905AB4246CDE945
:105960000010D549D748FFF7FFFB8146B9F1000F7A
:1059700066D10F22DDE90410FFF709FBD249086068
:105980000846006800285BD04FF0000406E0CE48CF
:105990000068005D03A9085504F10104032CF6D347
:1059A0004FF000008DF80F00044608E0C64800687C
:1059B00000F10300005D02A9085504F10104022C66
:1059C000F4D34FF000008DF80A0003A800F0B9FEF0
:1059D00005464FF0FF00B5FBF0F03070FF2D09D900
:1059E0004FF0FF00B5FBF0F100FB1150A0F10100FA
:1059F000707006E04FF0FF00B5FBF0F100FB1150B6
:105A0000707002A800F09DFE05464FF0FF00B5FB48
:105A1000F0F0B070FF2D09D94FF0FF00B5FBF0F1A9
:105A200000FB1150A0F10100F07006E04FF0FF0004
:105A3000B5FBF0F100FB1151F1704FF0010A04E0E9
:105A40001420FBF776FD042F82D300BF504606B02A
:105A5000BDE8F0872DE9FF414FF000052C464FF0DF
:105A600001062746204603900290984800F01CFE4D
:105A70000546FFF700FB30E004F101044FF0280079
:105A800002A903AB2A46CDE9001091A18F48FFF788
:105A90006BFB0646F6B901223A21DDE90230FFF739
:105AA00049FA8D4908600846006898B100BF8A48E5
:105AB000006800F101008849086008460068007825
:105AC0002028F4D0084600680078312802D14FF031
:105AD000010704E01420FBF72CFD052CCCD300BFFC
