:020000040800F2
:10000000A0170020F53B0008A10F0008A30F00086F
:10001000A70F0008AB0F0008AF0F0008000000009A
:10002000000000000000000000000000B30F000806
:10003000B50F000800000000B70F0008DB0F000834
:100040000F3C00080F3C00080F3C0008551000084A
:100050000F3C00080F3C00080F3C00080F3C000854
:100060000F3C00080F3C00080F3C00080F3C000844
:100070000F3C00080F3C00080F3C00080F3C000834
:100080000F3C00080F3C00080F3C00080F3C000824
:100090000F3C00080F3C00080F3C00080F3C000814
:1000A0000F3C00080F3C00080F3C00080F3C000804
:1000B000931000080F3C00080F3C00080F3C00089C
:1000C0000F3C00080F3C00080F3C00080F3C0008E4
:1000D0000F3C00080F3C00081710000839100008FA
:1000E000B1100008631000080F3C00080F3C000826
:1000F0000F3C00080F3C00080F3C00080F3C0008B4
:100100000F3C00080F3C00080F3C00080F3C0008A3
:100110000F3C00080F3C00080F3C00080F3C000893
:100120000F3C00080F3C00080F3C00080F3C000883
:10013000DFF80CD006F016F800480047F907000871
:10014000A017002010B54FF00100F9490880F949C7
:100150000870F948F94908604FF00000F849087044
:10016000F8490870F8490870F8484FF0000101603C
:100170008180F7480160F74801608180F64801609E
:100180004FF01401F54805F0B8FD5621F44805F08C
:10019000B4FD0F21F34805F0B0FD0F21F24805F042
:1001A000ACFD0F21F14805F0A8FD2021F04805F035
:1001B000A4FD8021EF4805F0A0FD10BD10B54FF063
:1001C00000010846024607E04FF07003E94C235453
:1001D00000F1010002F10102022AF5D34FF0A00361
:1001E000E44C235400F101004FF00003235400F1CC
:1001F0000100DB4B1B7803EB430404EBC30303F167
:100200000303DC4C235400F10100C94B1B884FEA67
:100210001323235400F10100C54B1B88235400F124
:100220000100CF4B1B78235400F101004FF0000276
:1002300073E04FF000010FE002EB4204C84B03F102
:10024000020303EB8403C1F101041B5DC94C235479
:1002500000F1010001F101010229EDD34FF000018D
:1002600011E002EB4204BE4B03F1020303EB8403F3
:1002700003F10203C1F101041B5DBE4C235400F1E4
:10028000010001F101010229EBD34FF0000111E05F
:1002900002EB4204B24B03F1020303EB840303F1CC
:1002A0000403C1F101041B5DB24C235400F10100B1
:1002B00001F101010229EBD34FF0000111E002EB43
:1002C0004204A74B03F1020303EB840303F106038B
:1002D000C1F102041B5DA74C235400F1010001F1A0
:1002E00001010329EBD302EB42049D4B03F102030E
:1002F00003EB84039B7A9F4C235400F1010002EB33
:100300004204974B03F1020303EB8403DB7A994C1D
:10031000235400F1010002F10102914B1B7893423A
:1003200087D88F4B1B7803EB430404EBC3030833DC
:10033000834200D000BF10BD4FF0000000BF014657
:1003400007E04FF070028B4B1A5400F1010001F1ED
:1003500001010229F5D34FF00202864B1A5400F135
:1003600001004FF000021A5400F101004FF0250285
:100370001A5400F101006E4A12884FEA12221A54F0
:1003800000F101006A4A12881A5400F101004FF08E
:10039000000109E0C1F10302704B9A5C754B1A54DD
:1003A00000F1010001F101010429F3D34FF0000134
:1003B0000BE0C1F10303694A02F10402D25C6D4B08
:1003C0001A5400F1010001F101010429F1D34FF0A9
:1003D00000010BE0C1F10303604A02F10802D25CA4
:1003E000644B1A5400F1010001F101010429F1D319
:1003F0005A4A127B5F4B1A5400F101004FF0000182
:100400000BE0C1F10103554A02F10E02D25C594BD7
:100410001A5400F1010001F101010229F1D34FF05A
:10042000000107E04C4A525C524B1A5400F10100A3
:1004300001F101010229F5D34FF0000108E0464A1D
:10044000921C525C4B4B1A5400F1010001F1010166
:100450000229F4D34FF0000108E03E4A921C525C9E
:10046000444B1A5400F1010001F101010229F4D3B7
:100470004FF000023F4B1A5400F10100114608E012
:10048000344A121D525C3B4B1A5400F1010001F139
:1004900001010229F4D3314A127C364B1A5400F17F
:1004A00001004FF000021A5400F101002B4A127CA7
:1004B0001A5400F101004FF000010BE0C1F10103FB
:1004C000234A02F10202D25C2A4B1A5400F10100C5
:1004D00001F101010229F1D34FF00002254B1A541A
:1004E00000F10100184A12781A5400F101004FF08F
:1004F000000108E0154A921C525C1E4B1A5400F190
:10050000010001F101010229F4D34FF0000108E0DC
:100510000E4A121D525C174B1A5400F1010001F1F2
:1005200001010229F4D32A2800D000BF704700003F
:100530000000002002000020805101000400002083
:1005400008000020090000200A0000200B00002005
:1005500012000020160000201C000020EC000020EB
:1005600000010020560100206501002074010020D8
:1005700083010020A301002070B504460D4602EB64
:10058000D2764FEA660606F101069E4201DB0F2A8B
:1005900001D0002070BD207800F00F0028701046B8
:1005A00002EBD0764FEA66010FE004EB410010F851
:1005B000010C4FF0F00606EA001014F8116006F086
:1005C0000F0630446854A1F101010029EDD101204A
:1005D000E0E77FB54FF00004254607E04FF07000DC
:1005E000FB49085504F1010405F10105022DF5D37D
:1005F0004FF00100F649085504F101044FF00000E6
:10060000085504F101044FF00C00085504F10104F1
:10061000F04800884FEA1020085504F10104ED4825
:100620000088085504F101044FF008034FF00F0251
:100630006946E948FFF7A0FF30B94FF0000000908D
:1006400001900290039000BF4FF0000507E01DF8F5
:100650000500DF49085504F1010405F10105082DE5
:10066000F5D34FF00100DA49085504F101044FF0C9
:100670002000085504F10104112C00D000BF7FBDFB
:100680004FF00000014607E04FF07002D34B1A54C0
:1006900000F1010001F101010229F5D34FF004023C
:1006A000CE4B1A5400F101004FF000021A5400F131
:1006B00001004FF01C021A5400F10100C54A1288D3
:1006C0004FEA12221A5400F10100C24A12881A5449
:1006D00000F101004FF0000109E0C1F10302C04B3D
:1006E0009A5CBE4B1A5400F1010001F1010104298A
:1006F000F3D34FF000010BE0C1F10303B84A02F15C
:100700000402D25CB54B1A5400F1010001F1010161
:100710000429F1D34FF000010BE0C1F10303B04A0B
:1007200002F10802D25CAD4B1A5400F1010001F154
:1007300001010429F1D3AA4A127BA84B1A5400F1F3
:1007400001004FF000010BE0C1F10103A44A02F1E6
:100750000E02D25CA14B1A5400F1010001F101011B
:100760000229F1D34FF0000107E09E4A525C9B4BF7
:100770001A5400F1010001F101010229F5D34FF0F3
:10078000000108E0974A921C525C944B1A5400F105
:10079000010001F101010229F4D34FF0000107E04B
:1007A000914A525C8D4B1A5400F1010001F1010194
:1007B0000229F5D34FF00002884B1A5400F10100D2
:1007C000114608E0884A921C525C844B1A5400F18E
:1007D000010001F101010229F4D3814A127C7F4B0F
:1007E0001A5400F101004FF071021A5400F1010097
:1007F000212800D000BF704788B04FF00005284680
:10080000079007468046069004464FF0010982464D
:1008100005908346049003900290064600F07CFE0B
:1008200003F09CFD04F002F900F099FC01214FF067
:10083000C05001F05AFC00F011FD00F0EAFC00F09D
:100840007FFD00F023FD00F0A5FD00F00BFE002071
:1008500003F0E1F80121002003F0F3F800F01FFE9F
:10086000012003F0EFF900F03FFE012240F2255194
:100870005E4802F03FFE00F07AFDFFF763FC44E2C1
:100880004FF00005284607900746804606908246AE
:100890000590834604904FF4967000F034FC0020DD
:1008A00003F01BF9002003F018F918B15048007844
:1008B000012877D1002003F010F9012801D104901C
:1008C00002E04FF000000490049801286BD14848E2
:1008D00000780128FAD104F0A2F8C82000F013FC37
:1008E0004FF000073C46ACE007F10100C7B204F04E
:1008F00075FA044604B9A4E004F0BDFA044604B94C
:100900009FE03C4804F0DDFA044604B999E004F0A5
:10091000B4FB044604B994E0022004F088FB32489A
:10092000801E04F056F92F4804F02AFC04464FF0CC
:10093000000004F007FA04F0DFFC044604B980E08C
:100940004FF00008444673E008F1010000F0FF0892
:1009500004F068FF04F01AFD044604B968E004F0EE
:1009600048FD044604F06BFD044604F0D4FD044643
:1009700004B95DE04FF00100164908804FF0000512
:100980008146FFF726FE0FE005F1010502AB03AA41
:100990004FF011010E4804F07EFE8146B9F1000FC0
:1009A00002D103E07FE150E0052DEDD300BF0948FF
:1009B000008800F10100074908804FF000054FF062
:1009C0000109FFF75DFE4FF02100059028E00000CF
:1009D000830100200000002056010020A301002018
:1009E000EC0000201C000020180000200044004003
:1009F000080000200A00002005F10105FE480599C5
:100A000004F0B4FD8146B9F1000F09D14FF0010A9D
:100A10005046FA49087004F016FF04F007F801E0A8
:100A2000052DE9D300BFBAF1010F00D103E000BFEB
:100A3000B8F1040F88DB00BFBAF1010F00D103E069
:100A400000BF042FFFF650AF00BF03F080FCC820AA
:100A500000F059FB1421EA4805F04FF933E00798FC
:100A600000F10100C0B2079000F0C6FC03F0CAFD1F
:100A7000069000F0CBFC069801280DD14FF0000045
:100A8000E0490870E0488079412805D1DC4803F04E
:100A9000DAFD03F063FC19E0012001F012FC00BF55
:100AA000012001F001FC0028FAD001F0A7FB0A3078
:100AB000019001F0C8FB01F0E1FB0121084601F0C3
:100AC00022F900F088FB07981228C8DB00BF03F06A
:100AD000A6FFC82000F017FB4FF000073C46DEE001
:100AE00007F10100C7B204F079F9044604B9D6E071
:100AF00004F0C1F9044604B9D1E0C44804F0E1F9B6
:100B0000044604B9CBE004F0B8FA044604B9C6E0E0
:100B1000022004F08CFABE4804F05BF8BD4804F0F3
:100B2000F0FA0446BC4804F02BFB04464FF00000EA
:100B300004F008F904F0E0FB044604B9AFE0B7485C
:100B400004F028FA0446B64804F024FF04464FF0A7
:100B50000008444699E008F1010000F0FF0804F0A5
:100B600061FE04F013FC044604B98EE004F041FC7D
:100B7000044604F064FC044604F0CDFC044604B9C9
:100B800083E04FF00100A74908804FF0000581463F
:100B9000FFF71FFD2BE005F1010502AB03AA4FF0A3
:100BA0001101A14804F077FD8146B9F1000F1ED173
:100BB0009EA1DDE9022003F086FE0646AEB1F07983
:100BC0004FEA0060317A00EB0140717A00EB0120BE
:100BD000B17A00EB010BBBF13C0F05D9944883457A
:100BE00002D29448C0F800B000E000BF01E0052D3B
:100BF000D1D300BF8B48008800F1010089490880EB
:100C00004FF000054FF001097D48007C012805D117
:100C1000FFF792FB4FF02A0005900BE0FFF7CEFAAA
:100C20007F48007800EB400101EBC00000F10800B4
:100C3000059000BF21E005F101056F48059904F01A
:100C400095FC8146B9F1000F17D14FF0010A7A489F
:100C50000078012808D169480078012804D14FF0B4
:100C600000007549087003E04FF0010072490870F8
:100C70004FF000006149087001E0052DDBD300BF93
:100C8000BAF1010F00D104E000BFB8F1040FFFF684
:100C900062AF00BFBAF1010F00D103E000BF042F23
:100CA000FFF61EAF00BF002002F0BDFE04F0CBFD3A
:100CB00003F054FB03F0BAFE012001F002FB00BF79
:100CC000012001F0F1FA0028FAD0002002F005FF1F
:100CD00001280AD158480078012806D101F08EFA7F
:100CE0003C30019001F0AFFA07E001F087FA51497A
:100CF00009680844019001F0A6FA01F0BFFA012149
:100D0000084601F000F800F066FAB9E570B54FF05A
:100D10000004254607E04FF072003749085504F1FA
:100D2000010405F10105022DF5D34FF0770032499A
:100D3000085504F101044FF00000085504F10104C6
:100D40004FF05100085504F10104364800884FEA7D
:100D50001020085504F1010432480088085504F1B8
:100D600001044FF0000509E0C5F103002449085CC7
:100D70002149085504F1010405F10105042DF3D3BF
:100D80004FF000050BE0C5F103011D4800F1040020
:100D9000405C1949085504F1010405F10105042DD1
:100DA000F1D34FF000050BE0C5F10301144800F149
:100DB0000800405C1049085504F1010405F10105E3
:100DC000042DF1D30E48007B0B49085504F10104B2
:100DD0004FF000050BE0C5F10101094800F10E00DC
:100DE000405C0549085504F1010405F10105022D97
:100DF000F1D34FF0000529E0A301002009000020F5
:100E0000EC00002002000020740A00200A000020EC
:100E100016000020560100201C00002012000020B7
:100E200000010020000000208301002070700000FD
:100E300000A3020004000020080000204E48405D8E
:100E40004E49085504F1010405F10105022DF5D3C1
:100E50004FF0000508E04848801C405D47490855B0
:100E600004F1010405F10105022DF4D34FF0000552
:100E700007E04348405D4149085504F1010405F18C
:100E80000105022DF5D34FF000003C49085504F14F
:100E90000104054608E03A48801C405D3749085582
:100EA00004F1010405F10105022DF4D33548007C5D
:100EB0003249085504F101044FF00000085504F1CF
:100EC000010402F00AFE2D49085504F101044FF017
:100ED000000509E0C5F101012B48405C2749085590
:100EE00004F1010405F10105022DF3D34FF00000D8
:100EF0002249085504F1010424480078085504F1FA
:100F000001044FF0000507E02148405D1B490855EA
:100F100004F1010405F101050F2DF5D34FF0000593
:100F200007E01C48405D1549085504F1010405F12E
:100F300001050F2DF5D34FF0000507E01648405D81
:100F40000E49085504F1010405F101050F2DF5D3F3
:100F5000124800780949085504F101044FF00200D5
:100F6000085504F101044FF00000085504F1010494
:100F7000562C00D000BF70BD1C000020A301002033
:100F800018000020EC000020140000200A000020BF
:100F9000560100206501002074010020020000209D
:100FA000704700BFFEE700BFFEE700BFFEE700BFDF
:100FB000FEE77047704770474348006870476420F9
:100FC000704700B50146FFF7F7FF024600BFFFF785
:100FD000F3FF801A8842FAD900BD10B53A4800687C
:100FE00000F10100384908604FF00001084603F0A5
:100FF0001BF90021012003F017F900F08CF810BD57
:10100000032800D37047314B43F82010304B43F88E
:10101000202000BFF6E710B540F225512D4802F020
:101020007AFB40B12B4802F0DFFAC4B221464FF000
:10103000010003F06FF810BD10B52448806830B18E
:1010400023488168214882680220904701E000BF60
:10105000FEE710BD10B5032001F050F901F00EF9C4
:1010600010BD10B5022001F036F988B14FF4003000
:1010700000F045FC012000F078FE10B1012000F0E6
:1010800081FE01F0FBF8022001F038F901F0F6F8DA
:1010900010BD10B50121880702F01AF938B10121FD
:1010A000880702F029F94FF001000B49087010BDC4
:1010B00010B54FF4004000F00FFC18B14FF40040A1
:1010C00000F01DFC10BD00002000002024020020C4
:1010D00030020020004400409C00002010B5002891
:1010E0000ADA4FEA01724FEA1264F94A00F00F037C
:1010F000A3F10403D45405E04FEA01724FEA1263EE
:10110000F44A135410BDF449086000BFF24909685D
:101110000029FBD17047F048006828B1EE4800680C
:10112000A0F10100EC490860704710B54FF00001D4
:10113000EA4A12684FF47A74B2FBF4F30CE04FF011
:101140000602B3FBF2F2A2F1010100BF0A00A1F115
:101150000101FBD1A0F101000028F0D110BD10B5B4
:10116000DE4800684FF06401B0FBF1F4B4F1807F19
:1011700002D34FF0010016E024F07F40A0F10100FF
:101180004FF0E02148614FF00F014FF0FF30FFF7C3
:10119000A5FF4FF000004FF0E02188614FF00700FD
:1011A00008614FF0000008B100BFFEE70C214FF0CE
:1011B000FF30FFF793FF10BD10B54FF4803000F003
:1011C00013FE00F056FE0446012C03D14FF4A0603C
:1011D00000F0A5FE10BD10B54FF4803000F004FE05
:1011E00000F047FEBE4908700846007801280FD17C
:1011F00000F077FE00BF392000F019FE0028FAD079
:10120000022000F071FE00BF00F079FE0828FBD13B
:1012100010BD10B5012000F062FD00F07DFA012044
:1012200000F0CCFE00BF612000F001FE0028FAD0E3
:101230004FF4007000F0C5FE012000F0C9FE01F07F
:1012400024F847F6FF7000F0F0FF01F017F80121D5
:10125000022000F0B1FF01F011F810BD1CB54FF4F1
:10126000003000F04CFB4FF4003000904FF00000D5
:101270008DF804004FF008008DF805004FF00100D4
:101280008DF80600684600F0B6FA1CBD0EB50121C7
:10129000084600F02AFF4FF0804001F049F842F282
:1012A0000F70ADF8040048F69F40ADF800004FF015
:1012B0000000ADF80600ADF8020069464FF080402E
:1012C00001F00AF90121880701F0FEFF0122114611
:1012D000900701F0DAFC0121880701F0BAFC002137
:1012E000012000F002FF0EBD0EB50121042000F028
:1012F000FCFE7C4801F01CF848F6CE20ADF8040056
:101300004FF6FF70ADF800004FF00000ADF806009A
:10131000ADF802006946734801F0DEF8012171481A
:1013200001F0D2FF012211466E4801F0AEFC01210E
:101330006C4801F08EFC0021042000F0D6FE0EBDAA
:1013400008B54FF4A06000F067F94FF029008DF860
:1013500000004FF000008DF801008DF802004FF002
:1013600001008DF80300684600F05CF908BD08B57F
:101370004FF026008DF800004FF007008DF80100B7
:101380004FF001008DF802008DF80300684600F070
:1013900049F908BD08B54FF4E06000F03DF94FF0A1
:1013A0001C008DF800004FF000008DF801004FF098
:1013B00003008DF802004FF001008DF8030068462D
:1013C00000F030F908BD08B54FF4E06000F024F9F2
:1013D0004FF01E008DF800004FF000008DF8010066
:1013E0004FF004008DF802004FF001008DF803006B
:1013F000684600F017F908BD10B50121084600F055
:1014000074FE0121880701F024FC10BD10B50021F5
:101410004FF0804001F01DFC0021012000F065FE2E
:1014200010BD10B50121042000F05FFE01212D4800
:1014300001F00FFC10BD10B500212A4801F009FC95
:101440000021042000F051FE10BD10B545F25550AA
:1014500002F0AAF9062002F0AAF940F21A6002F09E
:10146000A9F910BD10B5002002F0B0FA10BD1FB5EB
:101470004FF4165000904FF00000ADF80400ADF8A6
:101480000600ADF80800ADF80C004FF00C00ADF808
:101490000A0069464FF0020002F02AFB1FBD1FB58B
:1014A0004FF4165000904FF00000ADF80400ADF876
:1014B0000600ADF80800ADF80C004FF00C00ADF8D8
:1014C0000A0069464FF0000002F012FB1FBD000049
:1014D00018ED00E000E400E02800002040000020BB
:1014E00024000020000800401FB54FF41650009063
:1014F0004FF00000ADF80400ADF80600ADF80800AC
:10150000ADF80C004FF00C00ADF80A0069464FF042
:10151000010002F0EDFA1FBD08B50121142000F012
:10152000D5FD4FF00200ADF800004FF010008DF82F
:1015300003004FF003008DF802006946324800F0C6
:101540004DFA4FF42060ADF800004FF010008DF818
:1015500003004FF003008DF8020069462B4800F0AD
:101560003DFA4FF00400ADF800004FF010008DF888
:1015700003004FF003008DF802006946244800F094
:101580002DFA4FF02000ADF800004FF010008DF85C
:1015900003004FF003008DF8020069461D4800F07B
:1015A0001DFA4FF48060ADF800004FF028008DF870
:1015B00003006946154800F011FA08BD08B501217D
:1015C000142000F083FD4FF00200ADF800004FF052
:1015D00004008DF803004FF003008DF80200694607
:1015E000094800F0FBF94FF42060ADF800004FF01F
:1015F00004008DF803004FF003008DF802006946E7
:10160000024800F0EBF908BD00080140001001405D
:1016100000140140000C0140384940EA0101384AF9
:101620001160704770B54FF000010B464FF00F028C
:10163000C4784CB3324C246804F4E064C4F5E0642C
:101640004FEA1421C1F1040322FA01F2447804FAAA
:1016500003F1847804EA020444EA01014FEA01112B
:10166000284C0678A155047804F01F054FF00104BA
:1016700004FA05F405784FEA65154FF0E02606EB0D
:101680008505C5F800410CE0047804F01F054FF013
:10169000010404FA05F41C4D06784FEA661645F875
:1016A000264070BD194A01EA020242EA0002184BC4
:1016B0001A60704731B1174A126842EA0002154BAE
:1016C0001A6005E0134A126822EA0002114B1A6000
:1016D0007047042808D14FF0E021096941F0040166
:1016E0004FF0E022116107E04FF0E021096921F09D
:1016F00004014FF0E0221161704700000000FA057C
:101700000CED00E000E400E080E100E080FFFF1F5E
:1017100008ED00E010ED00E010B5012000F012FD32
:10172000002000F00FFD10BD2449086070472449D7
:101730000860704723490860704701464FF0000079
:10174000214A10884FF67F4200EA020040EA010079
:101750001D4A1080704701464FF000001A4A108859
:101760004FF6807200EA020040EA0100164A10803B
:1017700070474FF00002154A02441160704701465D
:101780004FF00002114A0A44108870470D48183083
:101790000068C0B270470E48008840F001000C4954
:1017A0000880704707481C300068C0B2704708487E
:1017B000008840F0020006490880704704860D4208
:1017C00000860D4288860D422C6C0040006C004063
:1017D000346C00404FF000004A49086001F10401F8
:1017E000086001F10401086001F104010860464845
:1017F0004649086070474FF0000142498279002A4B
:1018000040D00A461268036822EA03020B461A60B7
:1018100001F104021268036822EA030201F10403E1
:101820001A60027911440A68036842EA03020A60F6
:10183000374A1268036822EA0302354B1A6003F143
:1018400004021268036822EA0302324B1A604279EA
:10185000102A0ED12E4A1268036842EA03022C4B6A
:101860001A602C4A1268036842EA0302294B1A6084
:101870000FE02449427911440A68036842EA0302EE
:101880000A6006E0027911440A68036822EA03024A
:101890000A6070474FF00001016001714FF00C01C8
:1018A00041714FF00001817170471B49096841EA9D
:1018B0000001194A1160704701464FF00000134AB9
:1018C00012680A4202D04FF0010001E04FF0000020
:1018D00070470E490860704701464FF0000002460D
:1018E000084B1B6803EA0102084B1B680B4203D03C
:1018F00012B14FF0010001E04FF0000070470349C2
:101900000860704700040140FFFF0F00140401400D
:10191000080401400C0401401004014010B50446C5
:10192000DE48844208D10121042000F0EDFB0021B3
:10193000042000F0E9FB46E0D948844208D10121A7
:10194000082000F0E1FB0021082000F0DDFB3AE078
:10195000D448844208D10121102000F0D5FB002199
:10196000102000F0D1FB2EE0CF48844208D10121A5
:10197000202000F0C9FB0021202000F0C5FB22E060
:10198000CA48844208D10121402000F0BDFB00215B
:10199000402000F0B9FB16E0C548844208D101217F
:1019A000802000F0B1FB0021802000F0ADFB0AE0B8
:1019B000C048844207D10121801500F0A5FB002119
:1019C000A01500F0A1FB10BD10B50121084600F0E4
:1019D0009BFB0021012000F097FB10BD2DE9F04199
:1019E00002464FF000052E462846034604460746A9
:1019F00091F803C00CF00F0591F803C01CF0100F14
:101A000003D091F802C04CEA0505B1F800C01CF003
:101A1000FF0F35D014684FF000002EE04FF0010C9E
:101A20000CFA00F3B1F800C00CEA03069E4222D182
:101A30004FEA80034FF00F0C0CFA03F724EA070477
:101A400005FA03FC4CEA040491F803C0BCF1280F2A
:101A500006D14FF0010C0CFA00FCC2F814C00AE0E9
:101A600091F803C0BCF1480F05D14FF0010C0CFAFE
:101A700000FCC2F810C000F101000828CED31460A9
:101A8000B1F800C0BCF1FF0F38DD54684FF0000022
:101A900031E000F1080C4FF0010808FA0CF3B1F83E
:101AA00000C00CEA03069E4223D14FEA80034FF0A8
:101AB0000F0C0CFA03F724EA070405FA03FC4CEABE
:101AC000040491F803C0BCF1280F05D100F1080C03
:101AD00008FA0CF8C2F8148091F803C0BCF1480F62
:101AE00007D100F1080C4FF0010808FA0CF8C2F811
:101AF000108000F101000828CBD35460BDE8F081CC
:101B00004FF6FF7101804FF0020181704FF0040128
:101B1000C170704702464FF0000093680B4202D03C
:101B20004FF0010001E04FF0000070470146886867
:101B300080B2704702464FF00000D3680B4202D0DB
:101B40004FF0010001E04FF0000070470146C86807
:101B500080B2704701617047416170470AB101610D
:101B600000E041617047C16070474FF4803242EA43
:101B700001028261816182618269826970470246E5
:101B80004FF000004C4B18684FF6807300EA0300DA
:101B900040EA021040EA0100474B1860704747498D
:101BA000C8617047F0B50A464FF000031C4619465D
:101BB0000D4600F00046B6F1004F02D13E4EF169ED
:101BC00001E03D4E7168C0F3034583B200F4401656
:101BD000B6F5401F08D121F07061374E766826F0C7
:101BE0007066354F7E6017E000F48016B6F5801FF2
:101BF00008D14FF0030606FA05F421EA040141F08A
:101C0000706109E04FEA50564FEA061603FA06F6ED
:101C100021EA060141F070613AB14FEA50564FEAAD
:101C2000061603FA06F646EA010100F00046B6F190
:101C3000004F02D1204EF16101E01F4E7160F0BDF6
:101C400030B54FF000024FEA81734FEA13744FF042
:101C50000F0303FA04F21A4B4FEAA10453F824309D
:101C600023EA0203164C4FEAA10544F82530234627
:101C70004FEAA10453F824304FEA81744FEA1474F8
:101C800000FA04F443EA04030D4C4FEAA10544F8BA
:101C9000253030BD0B490860704700000008014046
:101CA000000C0140001001400014014000180140E8
:101CB000001C0140002001400000014000002042C3
:101CC00008000140DC00204210B50121080700F0A7
:101CD0002AFA00214FF0805000F025FA10BD2D495E
:101CE000086270472B490861704701464FF00000B9
:101CF000294A106820F0E00040EA010010607047B7
:101D000026490860704710B502464FF00000224B8C
:101D1000186820F0030040EA02001860204B1B689E
:101D200043F004031E4C2360012901D130BF00E0C1
:101D300020BF1B4B1B6823F00403194C236010BD0C
:101D40001548006840F00400134908600846006820
:101D500040F0020008601248006840F0040010499A
:101D6000086000BF00BF30BF704701464FF0000061
:101D7000094A52680A4202D04FF0010001E04FF0D8
:101D8000000070470449096841EA8001024A116075
:101D90007047000000000E4200700040A0000E429C
:101DA00010ED00E0F748006840F00100F5490860D8
:101DB00008464068F44900EA0100F24948600846D4
:101DC0000068F24900EA0100EE4908600846006830
:101DD00020F4802008600846406820F4FE00486037
:101DE0004FF41F0088607047E649096821F480318C
:101DF000E44A11601146096821F480211160B0F5B0
:101E0000803F03D0B0F5802F0ED106E0DD49096890
:101E100041F48031DB4A116007E0DA49096841F496
:101E2000A021D84A116000E000BF00BF704710B584
:101E300001464FF00002134610464FEA6112012A94
:101E400002D1D04C236806E0022A02D1CD4C236A8D
:101E500001E0CC4C636A01F01F024FF0010404FA68
:101E600002F41C4202D04FF0010001E04FF00000EC
:101E700010BD70B54FF000042546264600BF312046
:101E8000FFF7D5FF064604F10104B4F5A06F01D0B9
:101E9000002EF4D03120FFF7CAFF10B14FF001053A
:101EA00001E04FF00005284670BD01464FF00000EC
:101EB000B44A106820F0F80040EAC1001060704792
:101EC000B3490860704702464FF00000AD4B5868B8
:101ED00020F47C1042EA010343EA0000A94B586059
:101EE0007047AB490866704701464FF00000A54AAD
:101EF000506820F0030040EA010050607047A1489C
:101F0000406800F00C00704701464FF000009D4A09
:101F1000506820F0F00040EA010050607047014630
:101F20004FF00000974A506820F4E06040EA01005A
:101F30005060704701464FF00000924A506820F40C
:101F4000605040EAC1005060704731B18D4A527A0A
:101F500042EA00028B4B5A7208E08A4A527A6FEAD0
:101F60000003DBB202EA0302864B5A7270478949CA
:101F70000860704701464FF00000824A506820F424
:101F8000404040EA0100506070474FF00001824A33
:101F900011707C4A82F82010012802D004280AD14E
:101FA00004E04FF001017C4A117005E04FF005019B
:101FB000794A117000E000BF00BF704777490860A0
:101FC00070477049096A41EA00016E4A1162704720
:101FD00073490860704730B54FF000010A460C465F
:101FE0000B46684D6D6805F00C0121B1042905D040
:101FF000082927D105E06B4D056026E0694D056095
:1020000023E0604D6D6805F470125E4D6D6805F457
:1020100080344FF0020505EB924224B9624D02FB79
:1020200005F505600DE0574D6D6815F4003F04D0CF
:102030005D4D02FB05F5056003E05A4D02FB05F519
:10204000056002E0574D056000BF00BF4D4D6D6853
:1020500005F0F0014FEA1111544D6B5C056825FA4B
:1020600003F54560474D6D6805F4E0614FEA1121C5
:102070004E4D6B5C456825FA03F58560414D6D68F2
:1020800005F460514FEAD121484D6B5C456825FA53
:1020900003F5C5603B4D6D6805F440414FEA913151
:1020A000434D6B5CC568B5FBF3F5056130BD31B1DF
:1020B000344A526942EA0002324B5A6105E0314A21
:1020C000526922EA00022F4B5A61704731B12D4A02
:1020D000926942EA00022B4B9A6105E0294A926913
:1020E00022EA0002274B9A61704731B1254AD26932
:1020F00042EA0002234BDA6105E0224AD26922EA71
:102100000002204BDA61704731B11E4AD26842EAC0
:1021100000021C4BDA6005E01A4AD26822EA00028B
:10212000184BDA60704731B1164A126942EA000270
:10213000144B1A6105E0134A126922EA0002114B9E
:102140001A6170471B49086070471149C86470479D
:102150000C49C87170470B48406A40F080700949CB
:102160004862704701464FF00000064A92680A42F2
:1021700002D04FF0010001E04FF00000704701492C
:1021800088727047001002400000FFF8FFFFF6FE63
:1021900000004242D80042422010024080044242E5
:1021A0003C04424200127A0000093D002C0000204D
:1021B0003C0000204004424231B1554A128842EAB4
:1021C0000002534B1A8008E0514A12886FEA00035C
:1021D0009BB202EA03024E4B1A8070474D480088BA
:1021E00040F010004B49088070474A4800884FF67D
:1021F000EF7100EA01004749088070474FF0000185
:1022000045480188A0F10400008841EA0040704779
:1022100000B50246FFF7E2FF4FEA12403F4908804F
:102220003D490A80FFF7E1FF00BD00B50246FFF718
:10223000D5FFC2F303403A49088001F104010A8046
:10224000FFF7D3FF00BD00B50246FFF7C7FF4FEA17
:1022500012403449088001F104010A80FFF7C5FFEC
:1022600000BD4FF00000304909884FEA01714FEA84
:1022700011302E49098841EA0000704700BF254807
:10228000008810F0200FFAD07047224800884FF6DF
:10229000F77100EA01001F49088000BF1D4800884F
:1022A00010F0080FFAD0704701464FF00000194AAD
:1022B00012880A4202D04FF0010001E04FF0000006
:1022C0007047144909886FEA000292B201EA0201DC
:1022D000104A1180704701464FF000000D4A1288E5
:1022E00002EA0102D0B20A4A12880A4203D010B1AF
:1022F0004FF0010001E04FF00000704705490988E8
:102300006FEA000292B201EA0201024A11807047AC
:1023100000280040042800401C28004018280040E5
:1023200008280040202800401028004014280040C1
:1023300010B50446FE48844208D10121C014FFF7BD
:10234000E3FE0021E014FFF7DFFEC4E0B4F1804FAC
:1023500008D101210846FFF7E6FE00210120FFF722
:10236000E2FEB8E0F348844208D101210220FFF7E1
:10237000DAFE00210220FFF7D6FEACE0EE488442F0
:1023800008D101210420FFF7CEFE00210420FFF731
:10239000CAFEA0E0E948844208D101210820FFF7E5
:1023A000C2FE00210820FFF7BEFE94E0E44884420C
:1023B00008D101211020FFF7B6FE00211020FFF701
:1023C000B2FE88E0DF48844208D101212020FFF7D7
:1023D000AAFE00212020FFF7A6FE7CE0DA48844216
:1023E00008D101214014FFF78FFE00216014FFF790
:1023F0008BFE70E0D548844209D10121C804FFF763
:1024000083FE00214FF40020FFF77EFE63E0D048FA
:10241000844209D101210805FFF776FE00214FF41F
:102420008010FFF771FE56E0CA48844209D10121AD
:102430004805FFF769FE00214FF40010FFF764FE26
:1024400049E0C548844208D101214020FFF76BFED6
:1024500000214020FFF767FE3DE0C048844208D1DC
:1024600001218020FFF75FFE00218020FFF75BFE47
:1024700031E0BB48844208D101218015FFF753FEAB
:102480000021A015FFF74FFE25E0B648844209D190
:1024900001210804FFF738FE00214FF48030FFF7D8
:1024A00033FE18E0B048844209D101214804FFF707
:1024B0002BFE00214FF40030FFF726FE0BE0AB4867
:1024C000844208D101218804FFF71EFE00214FF449
:1024D0008020FFF719FE10BD4FF000020288944BD8
:1024E00098420ED0984B98420BD0B0F1804F08D054
:1024F000904B984205D0904B984202D08F4B984217
:1025000006D14FF68F7302EA03024B8843EA0202B8
:102510008B4B984209D08B4B984206D04FF6FF4325
:1025200002EA0302CB8843EA020202808B88838599
:102530000B8803857E4B98420BD0834B984208D082
:10254000884B984205D0884B984202D0874B9842DE
:1025500001D10B7A03864FF001038382704770B577
:102560004FF0000422461346058C4FF6FE7605EA2E
:1025700006050584028C8388048B4FF68F7504EA68
:1025800005044FF6FC7504EA05040D8845EA0404C9
:102590004FF6FD7502EA05020D8945EA02024D88F3
:1025A00045EA0202624DA8420BD0674DA84208D00E
:1025B0006C4DA84205D06C4DA84202D06B4DA8428C
:1025C0001BD14FF6F77502EA05024D8945EA020272
:1025D0004FF6FB7502EA05028D8845EA02024FF6C6
:1025E000FF6503EA05034FF6FF5503EA05038D89EE
:1025F00045EA0303CD8945EA030383800483CD883C
:102600008586028470BD70B54FF0000422461346E3
:10261000058C4FF6EF7605EA06050584028C838863
:10262000048B48F6FF7504EA05044FF6FF4504EAFB
:1026300005040D884FEA056544EA15444FF6DF7539
:1026400002EA05020D894FEA055542EA15424D8816
:102650004FEA055542EA1542354DA84202D03A4D9F
:10266000A84223D14FF67F7502EA05024D894FEA51
:10267000055542EA15424FF6BF7502EA05028D88FC
:102680004FEA055542EA15424FF6FF3503EA0503C6
:102690004FF2FF7503EA05038D894FEA854543EA4A
:1026A0001543CD894FEA854543EA1543838004836A
:1026B000CD880587028470BD70B54FF000042246B6
:1026C0001346058C4FF6FF6605EA06050584028C65
:1026D0008388848B4FF68F7504EA05044FF6FC75EA
:1026E00004EA05040D8845EA04044FF6FF5502EAA2
:1026F00005020D894FEA056542EA15424D884FEA09
:10270000056542EA15420A4DA84202D00E4DA84284
:1027100044D14FF2FF7502EA05024D894FEA056583
:1027200042EA15424FF6FF3502EA05028D881FE0A6
:10273000002C01400004004000080040000C004054
:10274000001000400014004000340140004C0140E3
:10275000005001400054014000180040001C00409F
:10276000002000400040014000440140004801407A
:102770004FEA056542EA15424EF6FF7503EA050386
:102780004DF6FF7503EA05038D894FEA055543EAC7
:102790001543CD894FEA055543EA15438380848369
:1027A000CD888587028470BD70B54FF00002134656
:1027B0001446058C4EF6FF7605EA06050584038C63
:1027C0008488828B48F6FF7502EA05024FF6FF45C2
:1027D00002EA05020D884FEA056542EA15424DF608
:1027E000FF7503EA05030D894FEA057543EA1543B2
:1027F0004D884FEA057543EA1543FB4DA84202D0C8
:10280000FA4DA84208D14BF6FF7504EA05048D89FC
:102810004FEA855544EA154484808283CD88A0F828
:102820004050038470BD828B4FF2FF3302EA0302F3
:102830008283828B4FEA016342EA134282837047AC
:10284000F0B50C4615464FF0000211460E46078CB7
:102850004EF6FF7C07EA0C070784828B018C4FEA57
:1028600004774FEA174640F6FF4702EA07024FEAAD
:10287000056742EA17424FEA037742EA1742DA4F06
:10288000B8420ED0D94FB8420BD0B0F1804F08D02B
:10289000D74FB84205D0D74FB84202D0D64FB84232
:1028A00008D14DF6FF7701EA070146F4805747EA61
:1028B000010107E047F6FF5701EA070144F480579A
:1028C00047EA010182830184F0BD828B4FF6F373E6
:1028D00002EA03028283828B42EA0102828370470A
:1028E000F0B50C4615464FF0000211460E46078C17
:1028F0004FF6FF6C07EA0C070784828B018C4FEAC6
:1029000004674FEA17464FF60C7702EA07024FEAD0
:10291000035745EA174747EA0202B34FB8420ED0C1
:10292000B24FB8420BD0B0F1804F08D0B04FB84290
:1029300005D0B04FB84202D0AF4FB84208D14FF6E1
:10294000FF5701EA070146F4807747EA010107E0F3
:102950004FF2FF5701EA070144F4807747EA01018B
:1029600082830184F0BD028B4FF2FF3302EA03023F
:102970000283028B4FEA016342EA134202837047EB
:10298000F0B50C4615464FF0000211460E46078C76
:102990004FF6EF7C07EA0C070784028B018C4FEAA5
:1029A00004574FEA174640F6FF4702EA07024FEA8C
:1029B000037742EA17424FEA056742EA17428A4F15
:1029C000B8420ED0894FB8420BD0B0F1804F08D03A
:1029D000874FB84205D0874FB84202D0864FB842E1
:1029E00008D14FF6DF7701EA070146F0100747EA02
:1029F000010107E04FF65F7701EA070144F0100795
:102A000047EA010102830184F0BD028B4FF6F373A4
:102A100002EA03020283028B42EA01020283704748
:102A2000F0B50C4615464FF000021146068C4FF6E5
:102A3000FE7706EA07060684028B018C4FF60C76B9
:102A400002EA06024FEA035645EA164646EA020241
:102A5000654EB0420ED0654EB0420BD0B0F1804F03
:102A600008D0634EB04205D0624EB04202D0624EF2
:102A7000B04208D14FF6FD7601EA060144F00106A6
:102A800046EA010107E04FF6F57601EA060144F057
:102A9000010646EA010102830184F0BD70B50546D6
:102AA0000C46514885420ED0504885420BD0B5F1B6
:102AB000804F08D04E48854205D04E48854202D00E
:102AC0004D48854200D100E000BF208850B92389DD
:102AD000A28861882846FFF7A3FFE1882846FFF710
:102AE00094FF25E0208804280AD12389A2886188E0
:102AF0002846FFF745FFE1882846FFF734FF17E037
:102B0000208808280AD12389A28861882846FFF7EF
:102B1000E7FEE1882846FFF7D8FE09E02389A2886E
:102B200061882846FFF78CFEE1882846FFF77BFE88
:102B300070BD2DE9F04105460C464FF000064FF000
:102B40000107608810B94FF0020601E04FF000065F
:102B5000A088012802D14FF0020701E04FF00107E1
:102B60002088A0B92389A28861882846FFF758FFEA
:102B7000E1882846FFF749FF23893A46314628462F
:102B8000FFF7FEFEE1882846FFF7EDFE13E02389FC
:102B9000A28861882846FFF7F3FEE1882846FFF700
:102BA000E2FE23893A4631462846FFF739FFE1889D
:102BB0002846FFF72AFFBDE8F0810A884B8842EAE1
:102BC00003028B8842EA0302CB8842EA03020B89A4
:102BD00042EA03024B8942EA03028B8942EA03027A
:102BE000A0F8442070470000002C01400034014050
:102BF0000004004000080040000C00404FF6FF7148
:102C000081804FF000010180C180418001727047D6
:102C10004FF00001018041808180C18001814181AC
:102C20008181C18170474FF00001018041804FF0E8
:102C3000010181804FF00001C180018170474FF098
:102C40000001018041808180C180018141818181B9
:102C5000704721B1028842F00102028005E002883B
:102C60004FF6FE7302EA03020280704731B1B0F8FA
:102C7000442042F40042A0F8442005E0B0F844208B
:102C8000C2F30E02A0F84420704710B522B1838928
:102C900043EA0103838106E083896FEA0104A4B259
:102CA00003EA0403838110BD8182704741EA020375
:102CB000A0F84830704710B522B1838943EA010378
:102CC000838106E083896FEA0104A4B203EA040366
:102CD000838110BD01894FF6F87201EA020101817A
:102CE00070470A464FF0000101894FF68F7301EAE1
:102CF000030141EA02010181704730B504460D46E7
:102D000029462046FFF7EDFF208940F0070020818B
:102D100030BD2DE9F04104460D4616461F46602D94
:102D200006D13B46012231462046FFF729FE05E049
:102D30003B46012231462046FFF772FE29462046D7
:102D4000FFF7CFFF208940F007002081BDE8F08128
:102D500030B50C464FF000010189C9B24FEA036556
:102D600042EA154545EA040545EA0101018130BD05
:102D70002DE9F04105460E46174698464FF00004EF
:102D800043463A4631462846FFF7E2FF2C894FF684
:102D9000F87004EA000444F007044FF68F7004EA68
:102DA000000444F070042C81BDE8F081F0B50446C5
:102DB0000D4616461F463B46324629462046FFF73B
:102DC000C7FF208940F480402081F0BD01858282C8
:102DD00070470A464FF0000101884FF68F7301EAF1
:102DE000030141EA020101807047F0B50C46154627
:102DF0001E464FF000010A460B460189028B038CE8
:102E00004FF6F87701EA070141EA04014FF6FC4763
:102E100002EA070240F2011742EA07024FF6DD77A5
:102E200003EA07034FEA065745EA174747EA030351
:102E3000018102830384F0BD0A464FF00001018B3B
:102E40004FF68F7301EA030141EA020101837047E3
:102E50000A464FF00001018B48F6FF7301EA0301B7
:102E60004FEA026341EA1341018370470A464FF07B
:102E70000001818B4FF68F7301EA030141EA0201E1
:102E8000818370470A464FF00001818B48F6FF733B
:102E900001EA03014FEA026341EA1341818370476B
:102EA00021B1028842F08002028005E002884FF6DC
:102EB0007F7302EA03020280704721B1828842F0E8
:102EC0000402828005E082884FF6FB7302EA030267
:102ED0008280704721B1828842F00802828005E03A
:102EE00082884FF6F77302EA03028280704721B1AD
:102EF000828842F00102828005E082884FF6FE73EC
:102F000002EA0302828070470A464FF00001018BFB
:102F10004FF6F77301EA030141EA020101837047AA
:102F20000A464FF00001018B4FF2FF7301EA0301E3
:102F30004FEA026341EA1341018370470A464FF0AA
:102F40000001818B4FF6F77301EA030141EA0201A8
:102F5000818370470A464FF00001818B4FF2FF7367
:102F600001EA03014FEA026341EA1341818370479A
:102F70000A464FF00001018B4FF6FB7301EA030193
:102F800041EA0201018370470A464FF00001018BBC
:102F90004FF6FF3301EA03014FEA026341EA1341AE
:102FA000018370470A464FF00001818B4FF6FB7397
:102FB00001EA030141EA0201818370470A464FF0AA
:102FC0000001818B4FF6FF3301EA03014FEA0263F0
:102FD00041EA1341818370470A464FF00001018B9B
:102FE0004FF67F7301EA030141EA02010183704752
:102FF0000A464FF00001018BC1F30E014FEA026354
:1030000041EA1341018370470A464FF00001818B6A
:103010004FF67F7301EA030141EA020181837047A1
:103020000A464FF00001818BC1F30E014FEA0263A3
:1030300041EA1341818370470A464FF00001018C39
:103040004FF6FD7301EA030141EA02010184704772
:103050000A464FF00001018C4FF6F77301EA0301B5
:1030600041EA0201018470470A464FF00001018CD9
:103070004FF6DF7301EA03014FEA025341EA1341BD
:10308000018470470A464FF00001018C4FF67F73B0
:1030900001EA03014FEA025341EA134101847047F8
:1030A0000A464FF00001018C4FF6FF5301EA03017D
:1030B0004FEA026341EA1341018470470A464FF028
:1030C0000001018C4FF2FF7301EA03014FEA026332
:1030D00041EA1341018470470A464FF00001018C18
:1030E0004DF6FF7301EA03014FEA027341EA13410F
:1030F0000184704730B54FF000034FF0010404FA2B
:1031000001F4A3B2048C6FEA0305ADB204EA05042E
:103110000484048C02FA01F5ADB244EA0504048487
:1031200030BD30B54FF000034FF0040404FA01F451
:10313000A3B2048C6FEA0305ADB204EA050404846B
:10314000048C02FA01F5ADB244EA0504048430BDF2
:1031500070B503464FF000000446184600F1180011
:103160004FF0010505FA01F5ACB21D8C6FEA0406BB
:10317000B6B205EA06051D8409B108290AD100EB9B
:103180006100056825F070050560056845EA0205DF
:1031900005600EE0A1F10405ADB200EB6500056825
:1031A00025F4E045056005684FEA026645EA1645E4
:1031B000056070BD21B1028842F00202028005E084
:1031C00002884FF6FD7302EA03020280704721B1C4
:1031D000028842F00402028005E002884FF6FB7389
:1031E00002EA03020280704721B1828842F0800225
:1031F000828005E082884FF67F7302EA03028280B4
:10320000704702884FF6F77302EA030202800288D1
:1032100042EA01020280704782884FF68F7302EA09
:1032200003028280828842EA01028280704702891A
:103230004FF6F87302EA03020281028942EA0102B0
:103240000281704702894FF67F7302EA030202810E
:10325000028942EA010202817047818470478185B8
:103260007047818670470187704781877047A0F853
:103270004010704702884FF6FF4302EA03020280C3
:10328000028842EA0102028070470146888E704738
:103290000146088F70470146888F70470146B1F894
:1032A000400070470146888C70470146088D704782
:1032B00002464FF00000138A0B4202D04FF001008B
:1032C00001E04FF0000070476FEA01020282704790
:1032D00030B502464FF0000003460446158A05EA61
:1032E0000103958905EA01041BB114B14FF00100F7
:1032F00001E04FF0000030BD6FEA0102028270472A
:1033000010B50446F848844209D101218803FEF72C
:10331000FBFE00214FF48040FEF7F6FE32E0F3485A
:10332000844209D101214804FEF7FDFE00214FF43B
:103330000030FEF7F8FE25E0ED48844209D1012176
:103340008804FEF7F0FE00214FF48020FEF7EBFE2C
:1033500018E0E848844209D10121C804FEF7E3FEE1
:1033600000214FF40020FEF7DEFE0BE0E24884422D
:1033700008D101210805FEF7D6FE00214FF4801088
:10338000FEF7D1FE10BD2DE9F04786B005460E468A
:103390004FF00004A24600BFA1462746B08900B105
:1033A00000BF2F462C8A4CF6FF7004EA0004F08818
:1033B00040EA04042C82AC894EF6F31004EA0004BF
:1033C000B088318940EA0100718940EA010040EA91
:1033D0000404AC81AC8A4FF6FF4004EA0004B089D3
:1033E00040EA0404AC8201A8FEF7F5FDBE4887421E
:1033F00002D1DDF810A001E0DDF80CA0A88910F4DE
:10340000004F09D00AEBCA0000EB0A1031684FEAFE
:103410004101B0FBF1F808E00AEBCA0000EB0A102A
:1034200031684FEA8101B0FBF1F84FF06400B8FB5E
:10343000F0F04FEA00144FEA14104FF0640101FB62
:103440001089A88910F4004F0AD04FF0320000EB29
:10345000C900B0FBF1F000F0070040EA04040BE003
:103460004FF0320000EB09104FF06401B0FBF1F0B7
:1034700000F00F0040EA04042C8106B0BDE8F0879C
:103480004FF4165101604FF000018180C18001812D
:103490004FF00C0141814FF000018181704710B560
:1034A00002464FF00000108A4FF2FF0300EA0300CB
:1034B0000B884C8843EA04038C8843EA0403CC88D5
:1034C00043EA040343EA0000108210BD4FF00001FC
:1034D000018041808180C180704721B1828942F49E
:1034E0000052828105E082894DF6FF7302EA0302F1
:1034F00082817047F0B503464FF00004264625460A
:103500002046A1F510676A3F00D100BF1846C1F3FD
:10351000421401F01F064FF0010707FA06F5012CCF
:1035200002D100F10C0006E0022C02D100F11000E3
:1035300001E000F1140022B1076847EA05070760BF
:1035400003E0076827EA05070760F0BD10B522B160
:10355000838A43EA0103838206E0838A6FEA0104D7
:10356000A4B203EA0403838210BD028A4FF6F0730B
:1035700002EA03020282028A42EA010202827047E0
:1035800082894FF2FF7302EA03028281828942EA52
:1035900001028281704721B1828942F00202828158
:1035A00005E082894FF6FD7302EA030282817047CB
:1035B000028A4FF6DF7302EA03020282028A42EABB
:1035C00001020282704721B1028A42F480420282E3
:1035D00005E0028A4BF6FF7302EA0302028270479B
:1035E000C1F308028280704701468888C0F3080052
:1035F0007047818941F0010181817047028BD2B20D
:103600000283028B42EA012202837047028B02F49A
:103610007F420283028B42EA01020283704721B19A
:10362000828A42F02002828205E0828A4FF6DF73AE
:1036300002EA03028282704721B1828A42F01002BC
:10364000828205E0828A4FF6EF7302EA03028282E9
:10365000704721B1828A42F00802828205E0828AA4
:103660004FF6F77302EA03028282704721B1828922
:1036700042F40042828103E08289C2F30E02828119
:10368000704721B1828A42F40062828205E0828A18
:103690004FF2FF7302EA030282827047828A4FF67A
:1036A000FB7302EA03028282828A42EA0102828278
:1036B000704721B1828A42F00202828205E0828A4A
:1036C0004FF6FD7302EA03028282704702464FF012
:1036D0000000B1F5007F00D100BF13880B420DD070
:1036E0004FF001000CE000000038014000440040B1
:1036F00000480040004C0040005000404FF00000E7
:10370000704701F40072B2F5007F00D100BF6FEA8C
:1037100001020280704770B502464FF00004234654
:103720001D461846A1F510666A3E00D100BFC1F3E0
:10373000421501F01F034FF0010606FA03F3012DB5
:1037400003D1968906EA030308E0022D03D1168A05
:1037500006EA030302E0968A06EA03034FEA2124FD
:103760004FF0010606FA04F4168806EA04041BB1B9
:1037700014B14FF0010001E04FF0000070BD10B532
:103780004FF000021346A1F510646A3C00D100BF5F
:103790004FEA21224FF0010404FA02F4A3B26FEAC7
:1037A0000304048010BD00000F49086070470E49F3
:1037B000486070470C49886070474AF6AA200A4959
:1037C000086070474CF6CC400749086070470146D6
:1037D0004FF00000044AD2680A4202D04FF00100C4
:1037E00001E04FF000007047003000404FF0000152
:1037F00008466D4A126842F480326B4B1A6000BF73
:10380000694A126802F4003001F1010110B9B1F502
:10381000A06FF5D1644A126812F4003F02D04FF055
:10382000010001E04FF00000012842D15F4A126818
:1038300042F010025D4B1A601A46126822F0030231
:103840001A601A46126842F002021A60564A52681A
:10385000554B5A601A4652685A601A46526842F4EA
:1038600080625A601A46526822F47C125A601A46E4
:10387000526842F4E8125A601A46126842F08072A6
:103880001A6000BF484A126812F0007FFAD0464A18
:10389000526822F00302444B5A601A46526842F0C2
:1038A00002025A6000BF404A526802F00C02082A25
:1038B000F9D1704710B5FFF799FF10BD10B53A4820
:1038C000006840F0010038490860084640683849FF
:1038D00000EA01003449486008460068354900EABA
:1038E0000100314908600846006820F48020086023
:1038F0000846406820F4FE0048604FF41F008860CE
:10390000FFF7D8FF4FF000602B49086010BD10B5DD
:103910004FF0000108460246234B5B6803F00C01A0
:1039200021B1042906D008292CD107E0234B244CCF
:1039300023602BE0214B224C236027E01A4B5B686D
:1039400003F47010184B5B6803F480324FF00203ED
:1039500003EB90402AB91B4B00FB03F3184C236088
:103960000FE0114B5B6813F4003F05D0154B00FBD3
:1039700003F3134C236004E0104B00FB03F3104CE3
:10398000236003E00D4B0E4C236000BF00BF064BCD
:103990005B68C3F303130C4CE15C094B1B6823FA0F
:1039A00001F3074C236010BD0010024000200240CC
:1039B0000000FFF8FFFFF6FE08ED00E000127A00BD
:1039C0004000002000093D004400002038B50446B6
:1039D000754951F824004FF00101FEF777FB734859
:1039E00030F81400ADF800004FF014008DF803001B
:1039F0004FF002008DF802006D4951F8240069462D
:103A0000FDF7ECFF38BD694931F81010684A52F8EB
:103A1000202051617047654931F81010644A52F80E
:103A2000202011617047624951F82010C9685F4A2F
:103A300032F8102081EA02015D4A52F82020D1605C
:103A400070477FB504460D465A4951F824004FF09F
:103A50000101FEF73BFB4FF004008DF80F005648C4
:103A600030F81400ADF80C00544951F8240003A9B3
:103A7000FDF7B4FF012D2FD1514A32F81420D1B2F5
:103A8000504A32F81420D0B2FEF7DAF84E4830F837
:103A9000140001904FF000008DF808004FF0100066
:103AA0008DF809004FF001008DF80A0001A8FDF71C
:103AB000A2FE464830F81400C0B28DF800004FF066
:103AC0000F008DF801008DF802004FF001008DF815
:103AD00003006846FDF7A6FD7FBD10B50446364AD3
:103AE00032F81410354A52F82400FEF713F810BDCE
:103AF00038B504460D46364951F82410354A52F877
:103B0000242041EA020141F001004FF00101FEF7DB
:103B1000DDFA34B9304951F824000121FEF7D6FA14
:103B200005E02D4951F824000121FEF7DEFA4FF09F
:103B300018008DF80300294830F81400ADF8000093
:103B40004FF003008DF80200254951F82400694622
:103B5000FDF744FF4FF004008DF80300214830F8D2
:103B60001400ADF80000204951F824006946FDF723
:103B700035FF1E4951F824002946FFF704FC1B4974
:103B800051F824000121FFF7A8FC38BD70B50546A7
:103B90000E4640F225511648FFF7BDFD18B11448F6
:103BA000FFF722FD044670BDDC630008D463000803
:103BB00054000020F0630008EC630008640000205B
:103BC000F8630008F6630008F4630008FA6300086D
:103BD0000864000814640008FC63000820640008FE
:103BE0007400002026640008800000206800002087
:103BF000004800400648804706480047FEE7FEE7C9
:103C0000FEE7FEE7FEE7FEE7FEE7FEE7FEE7FEE78C
:103C1000BD3800083101000801464FF0FF3011B9EE
:103C20004FF0000002E0012900D10846704701462C
:103C300009B9FE4805E0012901D1FD4801E04FF036
:103C40000000704770B505462846FFF7E5FF0446BB
:103C5000FCB9F848C4EBC401F74A42F821004FF41C
:103C60008060C4EBC40102EB81014860FDF7A7F955
:103C700000EB80004FEA80004FF47A71B0FBF1F066
:103C800000F10100C4EBC401EB4A02EB8101886141
:103C900020E0012C1ED1E948C4EBC401E64A42F8F9
:103CA00021004FF48060C4EBC40102EB8101486045
:103CB000FDF785F900EB80004FEA80004FF47A7140
:103CC000B0FBF1F000F10100C4EBC401DA4A02EBF1
:103CD00081018861C4EBC400D74951F82000C4EBCE
:103CE000C401D54A02EB81018860C4EBC4001146CF
:103CF00051F82000C4EBC40102EB8101C8604FF011
:103D00000000C4EBC40102EB81014861C4EBC400B4
:103D1000114601EB80008069012806D84FF00200AF
:103D2000C4EBC40102EB8101886170BD2DE9F04153
:103D300007460D4616464FF000040DE0295D384653
:103D4000FFF74EFC00BF40213846FFF7BFFC0028BC
:103D5000F9D004F1010084B2B442EFDB2046BDE8A3
:103D6000F0812DE9F04107460E4614463846FFF72C
:103D70005EFF8046256812E02068401B315C4046AB
:103D8000FFF72EFC00BF80214046FFF79FFC002874
:103D9000F9D080214046FFF7B4FCA5F10105002DC4
:103DA000EAD1BDE8F0812DE9F84F834689461746F0
:103DB0004FF0010000904FF00005D7F800A05846E2
:103DC000FFF72AFF0446C4EBC4009B4901EB8000C7
:103DD0000569002D7DD0C4EBC40001EB8000406973
:103DE00030B14FF0020000904FF000003860ECE07E
:103DF0004FF003000090C4EBC4008F4901EB80003A
:103E00000569554500D95546C4EBC4008A4901EB04
:103E100080008068C4EBC401874A02EB8101C96855
:103E2000884224D9C4EBC40002EB80002A46C16852
:103E3000484601F049FFC4EBC4007F4901EB800014
:103E4000C0682844C4EBC4017B4A02EB8101C8600E
:103E5000C4EBC400114601EB80000069A0EB050033
:103E6000C4EBC40102EB810108613D60ADE0C4EB2D
:103E7000C400714951F82000C4EBC4016E4A02EB42
:103E8000810149680844C4EBC40102EB8101C9689F
:103E9000A0EB01082E46464543D8C4EBC40002EB14
:103EA00080003246C168484601F00EFFC4EBC400F2
:103EB000614901EB8000C0683044C4EBC4015E4A34
:103EC00002EB8101C860C4EBC400114651F8200028
:103ED00000E073E0C4EBC40102EB810149680844CF
:103EE000C4EBC40102EB8101C968884209D8C4EB64
:103EF000C400114651F82000C4EBC40102EB81015B
:103F0000C860C4EBC4004C4901EB80000069A0EB21
:103F10000600C4EBC401484A02EB810108613D6020
:103F20004BE0C4EBC400444A02EB80004246C16847
:103F3000484601F0C9FEC4EBC4003F4951F82000D7
:103F4000C4EBC4013C4A02EB8101C860C4EBC4006D
:103F5000114601EB80000069A0EB0800C4EBC4012E
:103F600002EB81010861A6EB0806C4EBC402324BE8
:103F700003EB820209EB0800D168324601F0A4FE8F
:103F8000C4EBC4002C4901EB8000C0683044C4EB92
:103F9000C401294A02EB8101C860C4EBC400114688
:103FA00001EB80000069A0EB0600C4EBC40102EB4A
:103FB0008101086106EB0800386006E04FF0000A56
:103FC000504638604FF0010000900098BDE8F88F2F
:103FD0002DE9F041064688463046FFF71DFE0446AF
:103FE0003046FFF724FE07468AE03846FFF7FCFA22
:103FF000C5B2C4EBC400104901EB8000C168C4EB3A
:10400000C4000D4A02EB8000806800F1010081428B
:1040100029D0C4EBC400114601EB8000C068C4EB9A
:10402000C40152F8211088421FD109E00038014034
:10403000004400403C0200203C0A00203C060020D6
:10404000C4EBC400114651F82000C4EBC40102EBDC
:10405000810149680844401EC4EBC40102EB8101A0
:104060008968884201D1BDE8F081C4EBC4009E4953
:1040700001EB80008168C4EBC4009B4A02EB800026
:10408000806800F10100C4EBC402974B03EB82028D
:1040900090600D70C4EBC400194601EB800000690C
:1040A00000F10100C4EBC4011A4602EB8101086172
:1040B000C4EBC400114651F82000C4EBC40102EB6C
:1040C000810149680844C4EBC40102EB810189689D
:1040D000884209D8C4EBC400114651F82000C4EB53
:1040E000C40102EB81018860C4EBC4007E4901EB8E
:1040F00080008069C4EBC4017B4A02EB8101486106
:1041000040F225513846FFF7E1FA01283FF46DAF40
:1041100000BFA8E72DE9F04106460D463046FFF7FF
:104120007BFD04463046FFF782FD0746C4EBC40022
:104130006D4901EB8000C168C4EBC4006A4A02EB20
:104140008000806800F1010081421ED0C4EBC400F1
:10415000114601EB8000C068C4EBC40152F8211085
:10416000884214D1C4EBC400114651F82000C4EBBE
:10417000C40102EB810149680844401EC4EBC4013C
:1041800002EB81018968884201D1BDE8F081C4EB6E
:10419000C400554901EB80008168C4EBC400524A59
:1041A00002EB8000806800F10100C4EBC4024E4BBA
:1041B00003EB820290600D70C4EBC400194601EB62
:1041C0008000006900F10100C4EBC4011A4602EB53
:1041D00081010861C4EBC400114651F82000C4EB12
:1041E000C40102EB810149680844C4EBC40102EB3D
:1041F00081018968884209D8C4EBC400114651F88E
:104200002000C4EBC40102EB81018860C4EBC40050
:10421000354901EB80008069C4EBC401324A02EBEE
:104220008101486100BFB0E770B505460E462846DB
:10423000FFF7F2FC0446C4EBC4002B4901EB8000FD
:10424000406960B1C4EBC40001EB80004069A0F19B
:104250000100C4EBC401244A02EB8101486170BD36
:1042600000B585B0012144F20400FDF72FFF4FF4A3
:104270000070ADF810004FF018008DF813004FF0EB
:1042800003008DF8120004A91848FDF7A7FB4FF4AE
:104290008060ADF810004FF004008DF8130004A901
:1042A0001248FDF79BFB4FF4E13000904FF0000007
:1042B000ADF80400ADF80600ADF80800ADF80C004C
:1042C0004FF00C00ADF80A0069460948FFF75BF8AB
:1042D000012240F225510648FFF70CF9012104485C
:1042E000FFF7FBF805B000BD3C0A002000080140C4
:1042F000003801404FF0000000BF01E000F1010074
:104300000628FBDB70474FF0000000BF01E000F122
:1043100001000928FBDB70474FF0000000BF01E0FF
:1043200000F101000928FBDB70474FF0000000BFDF
:1043300001E000F101000528FBDB70474FF00000B1
:1043400000BF01E000F101000528FBDB704710B55C
:104350004FF40061FE48FDF7FFFB10BD10B54FF4B0
:104360000061FB48FDF7F6FB10BD2A2802D02C287F
:1043700014D108E04FF00001F64A11704FF001012E
:10438000F54A1170A8E0F549097801F10101F34AF5
:1043900011704FF00001F24A11709DE0EF49097869
:1043A000092976D2DFE801F005393C42454B4E54ED
:1043B0005A00EB49097806292CD2DFE801F0030AFC
:1043C0000415052000BF00BFA0F13001E54A1170BF
:1043D00021E0A0F13001E34A127802EB820201EB06
:1043E0004201E14AD17016E0A0F13001DD4A1278B5
:1043F00002EB820201EB4201DB4A11710BE0A0F1FA
:104400003001D84A127802EB820201EB4201D64A0F
:10441000517100E000BF00BF56E0D349887153E0FE
:10442000D149C91DCE4A127888544DE0CE4908744E
:104430004AE0CD491131CA4A1278885444E0CA4949
:10444000C87641E0C8491C31C54A127888543BE01F
:10445000C5492431C24A1278885435E0C0490978E8
:1044600006292DD2DFE801F0030A0416052100BF5A
:1044700000BFA0F13001BB4A117022E0A0F1300171
:10448000B84A127802EB820201EB4201B64A9170FF
:1044900017E018E0A0F13001B24A127802EB820274
:1044A00001EB4201B04A51700BE0A0F13001AD4A7E
:1044B000127802EB820201EB4201AB4A117000E07C
:1044C00000BF00BF00E000BF00BFA549097801F1AF
:1044D0000101A34A117000BF00BF704710B5044628
:1044E0009C48007800286CD0A0480078B8B1A0485B
:1044F0000078082803D12046FFF737FF0EE04FF081
:1045000000009B490870994908704FF001009949D3
:1045100008704FF000008F49087000BF65E02A2C3A
:1045200036D02C2C39D194480079472807D19248AD
:104530004079412803D14FF001008D4908708E4821
:104540000079532807D18C484079412803D14FF096
:1045500002008749087088484079562803D14FF0F7
:1045600004008349087084484079432803D14FF000
:1045700008007F4908704FF001007C4908707D49B0
:1045800008704FF00000754908707549087017E011
:104590004FF000006F49087012E0774875490978BC
:1045A00044547448007800F10100724908700846CC
:1045B0000078062803DD4FF000006649087000BF50
:1045C00013E0242C11D16C4804704FF001006149B4
:1045D0000870684908704FF0000064490870644929
:1045E00008705E4908705E49087010BD5A4800782E
:1045F00030B14FF00000584908704FF0010070478B
:104600000020FCE710B54FF0000416E008E05B481E
:104610000078012804D14FF000005849087010BDFF
:1046200020215748FFF752F80028F0D05448FEF7F1
:10463000DBFFC4B22046FFF751FFFFF7D7FF012889
:10464000E4D100BFEBE72DE9F0478CB080464FF096
:1046500000094548007800F164000690424840781F
:10466000A0F1010005904048807804903E48C07851
:1046700003903D48007902903B48407901904846BC
:10468000099001A801F0D0FAC8F800003648807AF5
:10469000A0F130003449497AA1F1300101EB8101E8
:1046A00000EB41023048007AA0F130002E49C97970
:1046B000A1F1300101EB810100EB4100C0EB0010E2
:1046C00002EB800147F2305001FB00F12648007BED
:1046D000A0F1300040F2771200FB02F001EBC001C4
:1046E0002148407BA0F13000C0EB001000EB8000BF
:1046F00001EB80011C48807BA0F13000C0EB001072
:1047000001EB40011848C07BA0F1300000EB4000F5
:104710000844C8F804001448007C532805D1D8F890
:104720000400C0F10000C8F804000F48407DA0F16B
:1047300030000D49097DA1F1300101EB810100EB51
:1047400041020948407CA0F130004FF0640119E0BB
:1047500000100140990000209A00002097000020DE
:10476000980000209B000020740A00209600002082
:104770008C000020950000208D0000209C0000206F
:104780000038014000FB01F13B48807CA0F1300083
:1047900000EB800001EB40013748C07CA0F1300005
:1047A0000844C0EB001002EB800147F2305001FBDF
:1047B00000F13148C07DA0F1300040F2771200FBDB
:1047C00002F001EBC0012C48007EA0F13000C0EBEC
:1047D000001000EB800001EB80012748407EA0F133
:1047E0003000C0EB001001EB40012348807EA0F1B7
:1047F000300000EB40000844C8F808001E48C07EA6
:10480000572805D1D8F80800C0F10000C8F8080002
:1048100019481C3001F0E9FA824601F063FB0446B6
:10482000164A174B01F0EEFA064601F06CFB814682
:10483000B9F1FF0F04D94FF0FF0088F80C0001E038
:1048400088F80C900C48243001F0CFFAA8F80E003C
:1048500009488079412803D007488079612804D12C
:104860004FF0010088F8100003E04FF0000088F8D6
:1048700010000CB0BDE8F087740A00209A9999994D
:104880009999FD3F2DE9F04106460F4614464FF039
:104890000005B046304601F05BFAA04202D200208B
:1048A000BDE8F08108E03946404601F048FA054687
:1048B00005B905E005F101082000A4F10104F2D1D9
:1048C00000BF2846ECE72DE9F04705460F46904625
:1048D000384601F03DFA8246384601F039FAA8EB35
:1048E000000000F101064FF00009002E11DD4C46DA
:1048F00008E028195246394601F032FA00B903E0BF
:1049000004F10104B442F4DB00BFB44201DA05EB68
:1049100004094846BDE8F087F0B505460E464FF05D
:1049200000042F469A4201D90020F0BD1AE04FF052
:10493000000105E0785CB04200D103E001F1010123
:104940009942F7D300BF994206D207EB010401F167
:104950000100A3EB000301E04FF0000404B905E0FF
:1049600004F101071000A2F10102E0D100BF2046CE
:10497000DBE770B503460C464FF000000546FE4EDF
:10498000F6B194421CD901460FE05E5C302E05DB87
:104990005E5C392E02DC05F1010501E04FF00005F7
:1049A000954200D303E001F10101A142EDD300BF24
:1049B000954205D303EB0106A6EB020606F10100C2
:1049C00070BD30B502460B464FF00000044601466C
:1049D00022E0555C412D06DB555C462D03DC555C21
:1049E000A5F1370412E0555C612D06DB555C662DA0
:1049F00003DC555CA5F1570408E0555C302D05DB60
:104A0000555C392D02DC555CA5F130044FEA0010ED
:104A100040EA040001F101019942DAD330BD10B53A
:104A20004FF40071D548FDF795F810BD10B54FF45F
:104A30000071D248FDF790F810BD10B50221D048A2
:104A4000FDF78AF8C820FCF75EFB0221CC48FDF791
:104A500081F8C820FCF757FB10BD10B54FF48061FA
:104A6000C84801F04AF910BD10B54FF48071C6482E
:104A700001F043F910BD2DE9F84F05460E461746E3
:104A800098464446DFF8FC924FF0000A00976A46C9
:104A900029464FF00100FFF764F91EB31BE0A4F1B3
:104AA0000100C4B24FF4806000904FF03200FCF778
:104AB0002AFB6A4649460120FFF775F982460098AD
:104AC00048B1BAF1030F06D131464846009AFFF7C4
:104AD000FAFE00B101E0002CE1DC00BF14B90120B6
:104AE000BDE8F88F0020FBE72DE9FC5F074688460C
:104AF00091461C46DDE90CAB5D46A24E4FF000002E
:104B00000090CDF8049001AA39464FF00100FFF75C
:104B100028F92AE0A5F10100C5B24FF480600190A8
:104B20004FF03200FCF7EFFA01AA31460120FFF7FF
:104B30003AF900900198A0B10098032811D104B16E
:104B40002660BAF1000F02D00198CAF80000B8F14F
:104B5000000F05D04146304601F0DBF808B106E011
:104B600005E015B90120BDE8FC9F002DD2DC00BF97
:104B70000020F8E77FB504464FF000000390029054
:104B8000824801F0E5F80546FFF767FF282002A9F3
:104B900003AB2A46CDE900107D497C48FFF7A4FF0E
:104BA000A8B90F22DDE90210FFF7E3FE794908609A
:104BB0000846006810B9012004B070BD2CB10F2266
:104BC00074480168204601F07FF80020F4E70120D6
:104BD000F2E7F0B585B005464FF000063046049088
:104BE000039004466C4801F0B3F80646FFF735FF22
:104BF000282003A904AB3246CDE9001067A166481E
:104C0000FFF772FF002871D101222221DDE9033074
:104C1000FFF782FE044614B9012005B0F0BDECB1E7
:104C200060788DF80800A0788DF8090002A801F0DE
:104C30008FF80746394602A8FFF7C3FEA870E07850
:104C40008DF8080020798DF8090002A801F080F89D
:104C50000746394602A8FFF7B4FEE8700322222176
:104C6000DDE90330FFF758FE04460CB90120D4E714
:104C7000ECB160788DF80800A0788DF8090002A8E2
:104C800001F066F80746394602A8FFF79AFE287138
:104C9000E0788DF8080020798DF8090002A801F06D
:104CA00057F80746394602A8FFF78BFE68710222C3
:104CB0002C21DDE90330FFF72FFE04460CB901205B
:104CC000ABE714B114F8010C687001222C21DDE966
:104CD0000330FFF721FE04460CB901209DE714B113
:104CE00014F8010C2870002097E7FFE7012094E7F3
:104CF00070B504462B4801F02BF80546FFF7ADFED2
:104D000004232A4622492748FFF7B5FEC0B90122ED
:104D10003A211C48FFF7B6FD2349086008460068A1
:104D200008B9012070BD2048006800F101001E494B
:104D300008600846006801F058F820700020F1E78C
:104D40000120EFE7F8B504464FF000052846009033
:104D50000646FFF789FE6846FFF7CAFF9DF8000088
:104D6000A0423AD0084811490860224610490F482D
:104D7000006801F027FA1DE0515D000800100140B5
:104D800000080140A00A0020A00E002002660008D2
:104D900030640008A00000208A660008435245479E
:104DA0000000000019650008A4000020A8000020F1
:104DB0000A650008FD48006800F0CAFF054602E0E9
:104DC000052E00D908E004232A46F949F74800686F
:104DD000FFF751FE0028F3D100BFF8BD2DE9F041E7
:104DE0004FF000052F462C464FF00106A046F14833
:104DF00000F0AEFF0746FFF730FE19E004F10104B2
:104E00004FF004033A46EA49EA48FFF734FE064603
:104E100016B94FF001080DE005F10100C5B2022DF1
:104E200003DDFFF70AFE4FF000051E20FCF76BF9CB
:104E30000F2CE3D300BF4FF000044FF00106DE4813
:104E400000F086FF0746FFF708FE0EE004F10104BC
:104E50004FF004033A46D649D748FFF70CFE064602
:104E600006B904E01E20FCF74EF9052CEED300BF76
:104E70004046BDE8F0812DE9F0414FF000052C4699
:104E80004FF001062746CD4800F062FF0546FFF7C8
:104E9000E4FD10E004F101044FF00A032A46C8497A
:104EA000C648FFF7E8FD064616B94FF0010704E0D3
:104EB0001420FCF728F9062CECD300BF3846BDE8D7
:104EC000F0812DE9FF4104464FF0000635464FF0D2
:104ED0000107A846284603900290BA4800F038FF20
:104EE0000646FFF7BAFD4EE005F101054FF014004C
:104EF00002A903AB3246CDE90010AD49B148FFF736
:104F0000F3FD0746002F3AD101222C210398FFF729
:104F1000B9FCAD4908600846006808B9B84632E0F7
:104F2000A9480068A0F10200A74908600846006887
:104F30000078302804DB084600680078392806DD50
:104F4000A14800684078A0F1300020700EE09E4833
:104F500000684078A0F130009B4909680978A1F108
:104F6000300101EB810100EB410020702078022824
:104F700005DB20781F2802DC4FF0010805E0142033
:104F8000FCF7C1F800BF142DAED300BF404604B0FB
:104F9000BDE8F0812DE9FF4704464FF00006354695
:104FA0004FF00107A846284603900290874800F07A
:104FB000CFFE0646FFF751FD32E005F101054FF047
:104FC000040002A903AB3246CDE9001078497F48BE
:104FD000FFF78AFD07461FBB01222C210398FFF72C
:104FE00051FC7B49086008460068C8B10846006863
:104FF00010F8010CA0F1300020700846006800F1A4
:10500000010008600846006800F0EFFE00EB400970
:1050100009EBD970C0F34F0060804FF0010801E048
:10502000042DCAD300BF404604B0BDE8F08770B578
:1050300004464FF000063546FFF716FD6548664901
:105040000860224665496448006801F0BBF8624880
:10505000006800F07DFE064604E005F10105052D1F
:1050600000D908E02823324651495B480068FFF721
:1050700002FD0028F1D100BF70BD2DE9FF414FF0C6
:1050800000052C464FF0010627462046039002906B
:10509000534800F05DFE0546FFF7DFFC2AE004F10F
:1050A00001044FF0280002A903AB2A46CDE9001005
:1050B000AFF218314A48FFF717FD0646BEB9012284
:1050C0002C21DDE90230FFF727FC4649086008463D
:1050D000006860B1084600684078312804D008466E
:1050E00000684078352802D14FF0010704E0142011
:1050F000FCF709F80A2CD2D300BF384604B0BDE84B
:10510000F0812DE9FF4105464FF0000634464FF08F
:105110000107A046204603900290334800F018FE95
:105120000646FFF79AFC24E004F101044FF00A0060
:1051300002A903AB3246CDE900101D492A48FFF70A
:10514000D3FC074697B90F22DDE90210FFF711FCE7
:10515000264908600846006840B10F2208460168E9
:10516000284600F0B1FD4FF0010804E01420FBF7E1
:10517000CAFF042CD8D300BF404604B0BDE8F0817C
:105180002DE9F04786B006464FF00004A0462746BA
:105190004FF00109A24620460590049005461448A8
:1051A00000F0D6FD8046FFF758FC9EE0A8000020E6
:1051B000306400082C640008496400086964000831
:1051C000336400084F640008AC000020F865000854
:1051D000B0000020A00E0020B4000020946600085B
:1051E0008A660008B800002061640008BC00002046
:1051F0000266000807F101074FF0280004A905AB7B
:105200004246CDE90010F949F948FFF76DFC8146A7
:10521000B9F1000F66D10F22DDE90410FFF7A9FBF9
:10522000F44908600846006800285BD04FF000048D
:1052300006E0F0480068005D03A9085504F1010488
:10524000032CF6D34FF000008DF80F00044608E061
:10525000E848006800F10300005D02A9085504F168
:105260000104022CF4D34FF000008DF80A0003A8CB
:1052700000F0BBFD05464FF0FF00B5FBF0F03070CD
:10528000FF2D09D94FF0FF00B5FBF0F100FB1150E5
:10529000A0F10100707006E04FF0FF00B5FBF0F1E7
:1052A00000FB1150707002A800F09FFD05464FF002
:1052B000FF00B5FBF0F0B070FF2D09D94FF0FF00F3
:1052C000B5FBF0F100FB1150A0F10100F07006E019
:1052D0004FF0FF00B5FBF0F100FB1151F1704FF002
:1052E000010A04E01420FBF70EFF042F82D300BF55
:1052F000504606B0BDE8F0872DE9FF414FF00005AC
:105300002C464FF001062746204603900290BA48EB
:1053100000F01EFD0546FFF7A0FB30E004F101049C
:105320004FF0280002A903AB2A46CDE90010B3A133
:10533000B148FFF7D9FB0646F6B901223A21DDE96B
:105340000230FFF7E9FAAF4908600846006898B1F3
:1053500000BFAC48006800F10100AA490860084697
:10536000006800782028F4D00846006800783128CA
:1053700002D14FF0010704E01420FBF7C4FE052C16
:10538000CCD300BF384604B0BDE8F0812DE9F04130
:105390004FF000052C464FF001062746FFF764FB4F
:1053A00099489A4908609AA29B499848006800F079
:1053B00009FF9648006800F0CBFC0546FFF74DFB5F
:1053C00011E004F101044FF00A032A4687498F488F
:1053D0000068FFF750FB064616B94FF0010704E0DE
:1053E0001420FBF790FE052CEBD300BF3846BDE838
:1053F000F0812DE9F0414FF000052C464FF00106F9
:105400002746864800F0A4FC0546FFF726FB10E07F
:1054100004F101044FF078032A4674497F48FFF7EE
:105420002AFB064616B94FF0010704E01420FBF7EB
:105430006AFE052CECD300BF3846BDE8F0812DE9AB
:10544000F0414FF000052C464FF001062746744806
:1054500000F07EFC0546FFF700FB10E004F10104BC
:105460004FF014032A466FA16D48FFF704FB064670
:1054700016B94FF0010704E01420FBF744FE052C99
:10548000ECD300BF3846BDE8F08130B591B004469A
:105490004FF03302214604A800F016FC4FF000053F
:1054A000284603900290FFF7DFFA57485E490860EC
:1054B0000846006810B9012011B030BD0CA804AB3B
:1054C000421D5A4900905848006800F07BFE56483B
:1054D000006800F03DFC05464FF0140002A903AB44
:1054E0002A46CDE9001052494F480068FFF7FCFA00
:1054F00078B94F49DDE90220FFF7E5F908B100204E
:10550000DAE74CA1DDE90220FFF7DDF908B1002060
:10551000D2E70120D0E770B58EB04FF000044FF015
:105520000105264647A248A10DF1290000F04AFED8
:1055300046A245A101A800F045FE4AA242A109A841
:1055400000F040FE0CE004F1010401A8FFF79DFF0C
:10555000054615B94FF0010604E01420FBF7D3FD12
:10556000042CF0D300BF30460EB070BD2DE9F341DE
:1055700005463E4FFFF778FA23483D4908603D490C
:105580003B48019A006800F01DFE3948006800F0B1
:10559000DFFB80464FF0100342464FF03E01344897
:1055A0000068FFF768FA20B901AA29460120FEF732
:1055B000D8FB4FF00A0663E04FF4806001904FF093
:1055C0003200FBF7A0FD01AA28490120FEF7EBFB02
:1055D0000446019840B1032C52D127A13846019AC4
:1055E000FFF771F900B14FE04AE0000030640008B5
:1055F00002660008C0000020B66600084347415418
:1056000054000000C4000020A00E0020C8000020AC
:1056100022434D4E45542200AA660008F264000859
:10562000C16600082E000000CC0000203465000890
:1056300039640008414C524541445920434F4E4E75
:105640004543540054435000257300006C6B662E94
:1056500062726F61646E6574776F726B2E6E6574C3
:10566000000000003838383800000000A00A002090
:10567000D00000205A65000853454E44204F4B008F
:10568000A6F10100060097D100BF16B90120BDE8C0
:10569000FC810020FBE72DE9FF47804614461D46AC
:1056A000FE4EFFF7E1F9FE48FE490860FE49FD485D
:1056B000019A006800F086FDFA48006800F048FB97
:1056C00082464FF0100352464FF03E01F548006805
:1056D000FFF7D1F920B901AA41460120FEF741FBAD
:1056E0004FF00A091DE04FF4806001904FF0320046
:1056F000FBF709FD01AA31460120FEF754FB0746DE
:10570000019870B1032F0CD104B126600DB101983E
:105710002860AFF29C013046019AFFF7D4F800B13F
:1057200004E0A9F101005FEA0009DCD100BFB9F192
:10573000000F03D1012004B0BDE8F0870020FAE794
:10574000F8B507464FF00505D84E0CE04FF48060E1
:1057500000904FF01400FBF7D6FC6A46D3490120B5
:10576000FEF721FB0446A5F101000500EED1012062
:10577000F8BD7FB504464FF0000003900290CC487E
:1057800000F0E6FA0546FFF768F9042002A903AB2A
:105790002A46CDE90010C749C548FFF7A5F90028FA
:1057A00029D1C5A1DDE90220FFF78DF8C5490860C0
:1057B000C1A1DDE90220FFF786F830B14FF0060005
:1057C00020704FF0000004B070BDBFA1DDE90220E1
:1057D000FFF779F818B14FF000002070F3E7BDA192
:1057E000DDE90220FFF76FF828B14FF001002070CB
:1057F0004FF00000E7E74FF0FF0020704FF001008E
:10580000E1E710B5B64800F0A3FA04464FF00403F0
:105810002246A849B248FFF72EF908B9002010BD6A
:105820000120FCE710B5AF4800F092FA04464FF0B3
:10583000040322469F49AB48FFF71DF908B9002031
:1058400010BD0120FCE770B54FF00004A64800F041
:105850007FFA05464FF004032A46A4A1A248FFF7A9
:105860000AF908B9002070BD0120FCE72DE9F041DC
:105870004FF000052C464FF0010627469D4800F0EA
:1058800067FA0546FFF7E9F810E004F101044FF06C
:1058900014032A4687499748FFF7EDF8064616B9DC
:1058A0004FF0010704E01420FBF72DFC042CECD38F
:1058B00000BF3846BDE8F0812DE9F0414FF000050A
:1058C0002C464FF0010627468B4800F041FA05466A
:1058D000FFF7C3F810E004F101044FF014032A4667
:1058E00074498548FFF7C7F8064616B94FF0010717
:1058F00004E01420FBF707FC042CECD300BF38466F
:10590000BDE8F0817FB54FF0000528460390029076
:10591000FFF7A3F8FFF7A8F861487849086002226A
:1059200077497648006800F04DFC7448006800F044
:105930000FFA054600BF04232A465E496F480068F7
:10594000FFF799F80028F6D11FE000BF042002A954
:1059500003AB0A22CDE90010AFF6C0316948FFF76A
:10596000C3F80028F2D101223A21DDE90230FEF726
:10597000D3FF04464CB100BF04F101042078202875
:10598000FAD02078322800D100E0DEE700BF002006
:1059900004B070BD2DE9F04F87B005464FF0000B05
:1059A000D9464FF0010A48460690059004900446F7
:1059B000074680460646FFF757F8394852490860BF
:1059C0000846006818B9002007B0BDE8F08F3448D9
:1059D0004D490860012303224C494B48006800F000
:1059E000F1FB4948006800F0B3F98346FFF735F84A
:1059F00011E009F101094FF004035A462D494248CC
:105A00000068FFF738F88246BAF1000F00D105E0D0
:105A10001420FBF778FBB9F1050FEAD300BF4FF074
:105A200000093B4800F094F98346FFF716F8F4E0CC
:105A30004FF0000028704FF0040004A905AB5A464F
:105A4000CDE900101B493248FFF74EF88246BAF103
:105A5000000F7DD12FA1DDE90420FEF734FF804641
:105A6000B8F1000F00D1D8E04FF00004CBE00120E6
:105A700000EB44022221DDE90430FEF74DFF8046B1
:105A8000B8F1000F7DD0A21C2B21DDE90430FEF718
:105A900043FF002875D0B8F1000F3FE0A00A0020B6
:105AA000A00E0020D40000205A650008A00F00209E
:105AB0006965000830640008434F4E4E454354204A
:105AC0004F4B0000D8000020495020494E4954490E
:105AD000414C0000495020535441525400000000F2
